{
	".deps/contract.sol": {
		"FlightDelayInsurance": {
			"abi": [
				{
					"inputs": [
						{
							"internalType": "address",
							"name": "_oracle",
							"type": "address"
						}
					],
					"stateMutability": "nonpayable",
					"type": "constructor"
				},
				{
					"anonymous": false,
					"inputs": [
						{
							"indexed": true,
							"internalType": "uint256",
							"name": "insuranceID",
							"type": "uint256"
						}
					],
					"name": "CheckedAwaitData",
					"type": "event"
				},
				{
					"anonymous": false,
					"inputs": [
						{
							"indexed": true,
							"internalType": "uint256",
							"name": "insuranceID",
							"type": "uint256"
						}
					],
					"name": "CheckedNotReady",
					"type": "event"
				},
				{
					"anonymous": false,
					"inputs": [
						{
							"indexed": true,
							"internalType": "uint256",
							"name": "insuranceID",
							"type": "uint256"
						},
						{
							"indexed": false,
							"internalType": "uint256",
							"name": "amount",
							"type": "uint256"
						}
					],
					"name": "ClaimPaid",
					"type": "event"
				},
				{
					"anonymous": false,
					"inputs": [
						{
							"indexed": true,
							"internalType": "uint256",
							"name": "insuranceID",
							"type": "uint256"
						},
						{
							"indexed": false,
							"internalType": "uint256",
							"name": "TA",
							"type": "uint256"
						},
						{
							"indexed": false,
							"internalType": "enum FlightDelayInsurance.FlightStatus",
							"name": "flightStatus",
							"type": "uint8"
						}
					],
					"name": "FlightInfoUpdated",
					"type": "event"
				},
				{
					"anonymous": false,
					"inputs": [
						{
							"indexed": true,
							"internalType": "uint256",
							"name": "insuranceID",
							"type": "uint256"
						},
						{
							"indexed": true,
							"internalType": "address",
							"name": "customer",
							"type": "address"
						}
					],
					"name": "InsuranceCreated",
					"type": "event"
				},
				{
					"anonymous": false,
					"inputs": [
						{
							"indexed": true,
							"internalType": "uint256",
							"name": "insuranceID",
							"type": "uint256"
						}
					],
					"name": "TerminatedNoClaim",
					"type": "event"
				},
				{
					"anonymous": false,
					"inputs": [
						{
							"indexed": true,
							"internalType": "uint256",
							"name": "insuranceID",
							"type": "uint256"
						}
					],
					"name": "TerminatedNoData",
					"type": "event"
				},
				{
					"anonymous": false,
					"inputs": [
						{
							"indexed": true,
							"internalType": "uint256",
							"name": "insuranceID",
							"type": "uint256"
						}
					],
					"name": "TerminatedOnTime",
					"type": "event"
				},
				{
					"stateMutability": "payable",
					"type": "fallback"
				},
				{
					"inputs": [],
					"name": "DEFAULT_CLAIM",
					"outputs": [
						{
							"internalType": "uint256",
							"name": "",
							"type": "uint256"
						}
					],
					"stateMutability": "view",
					"type": "function"
				},
				{
					"inputs": [],
					"name": "DEFAULT_CT",
					"outputs": [
						{
							"internalType": "uint256",
							"name": "",
							"type": "uint256"
						}
					],
					"stateMutability": "view",
					"type": "function"
				},
				{
					"inputs": [],
					"name": "DEFAULT_PREMIUM",
					"outputs": [
						{
							"internalType": "uint256",
							"name": "",
							"type": "uint256"
						}
					],
					"stateMutability": "view",
					"type": "function"
				},
				{
					"inputs": [
						{
							"internalType": "uint256",
							"name": "insuranceID",
							"type": "uint256"
						}
					],
					"name": "checkAndClaim",
					"outputs": [],
					"stateMutability": "payable",
					"type": "function"
				},
				{
					"inputs": [
						{
							"internalType": "string",
							"name": "flightCode",
							"type": "string"
						},
						{
							"internalType": "uint256",
							"name": "T1",
							"type": "uint256"
						},
						{
							"internalType": "uint256",
							"name": "TP",
							"type": "uint256"
						}
					],
					"name": "createInsurance",
					"outputs": [
						{
							"internalType": "uint256",
							"name": "insuranceID",
							"type": "uint256"
						}
					],
					"stateMutability": "payable",
					"type": "function"
				},
				{
					"inputs": [
						{
							"internalType": "address",
							"name": "",
							"type": "address"
						},
						{
							"internalType": "uint256",
							"name": "",
							"type": "uint256"
						}
					],
					"name": "customerInsurances",
					"outputs": [
						{
							"internalType": "uint256",
							"name": "",
							"type": "uint256"
						}
					],
					"stateMutability": "view",
					"type": "function"
				},
				{
					"inputs": [
						{
							"internalType": "address",
							"name": "customer",
							"type": "address"
						}
					],
					"name": "getInsurancesByCustomer",
					"outputs": [
						{
							"internalType": "uint256[]",
							"name": "",
							"type": "uint256[]"
						}
					],
					"stateMutability": "view",
					"type": "function"
				},
				{
					"inputs": [
						{
							"internalType": "uint256",
							"name": "",
							"type": "uint256"
						}
					],
					"name": "insurances",
					"outputs": [
						{
							"internalType": "address payable",
							"name": "customer",
							"type": "address"
						},
						{
							"internalType": "string",
							"name": "flightCode",
							"type": "string"
						},
						{
							"internalType": "uint256",
							"name": "T1",
							"type": "uint256"
						},
						{
							"internalType": "uint256",
							"name": "TP",
							"type": "uint256"
						},
						{
							"internalType": "uint256",
							"name": "TA",
							"type": "uint256"
						},
						{
							"internalType": "uint256",
							"name": "T",
							"type": "uint256"
						},
						{
							"internalType": "uint256",
							"name": "CT",
							"type": "uint256"
						},
						{
							"internalType": "uint256",
							"name": "premium",
							"type": "uint256"
						},
						{
							"internalType": "uint256",
							"name": "claimAmount",
							"type": "uint256"
						},
						{
							"internalType": "enum FlightDelayInsurance.Status",
							"name": "status",
							"type": "uint8"
						},
						{
							"internalType": "enum FlightDelayInsurance.ClaimStatus",
							"name": "claimStatus",
							"type": "uint8"
						},
						{
							"internalType": "enum FlightDelayInsurance.FlightStatus",
							"name": "flightStatus",
							"type": "uint8"
						}
					],
					"stateMutability": "view",
					"type": "function"
				},
				{
					"inputs": [],
					"name": "oracle",
					"outputs": [
						{
							"internalType": "address",
							"name": "",
							"type": "address"
						}
					],
					"stateMutability": "view",
					"type": "function"
				},
				{
					"inputs": [],
					"name": "owner",
					"outputs": [
						{
							"internalType": "address",
							"name": "",
							"type": "address"
						}
					],
					"stateMutability": "view",
					"type": "function"
				},
				{
					"inputs": [
						{
							"internalType": "address",
							"name": "_oracle",
							"type": "address"
						}
					],
					"name": "setOracle",
					"outputs": [],
					"stateMutability": "nonpayable",
					"type": "function"
				},
				{
					"inputs": [
						{
							"internalType": "uint256",
							"name": "insuranceID",
							"type": "uint256"
						},
						{
							"internalType": "uint256",
							"name": "TA",
							"type": "uint256"
						},
						{
							"internalType": "enum FlightDelayInsurance.FlightStatus",
							"name": "flightStatus",
							"type": "uint8"
						}
					],
					"name": "updateFlightInfo",
					"outputs": [],
					"stateMutability": "nonpayable",
					"type": "function"
				},
				{
					"inputs": [],
					"name": "withdraw",
					"outputs": [],
					"stateMutability": "payable",
					"type": "function"
				},
				{
					"stateMutability": "payable",
					"type": "receive"
				}
			],
			"devdoc": {
				"kind": "dev",
				"methods": {
					"createInsurance(string,uint256,uint256)": {
						"params": {
							"T1": "Scheduled departure (UNIX timestamp)",
							"TP": "Scheduled arrival (UNIX timestamp)",
							"flightCode": "Two letters + 1–4 digits, validated off-chain"
						},
						"returns": {
							"insuranceID": "The ID assigned"
						}
					}
				},
				"stateVariables": {
					"DEFAULT_CT": {
						"details": "Base values (in smallest unit)"
					},
					"oracle": {
						"details": "Address allowed to push flight updates (e.g. Chainlink oracle)"
					},
					"owner": {
						"details": "Who deployed the contract"
					}
				},
				"title": "Flight Delay Insurance",
				"version": 1
			},
			"evm": {
				"assembly": "    /* \".deps/contract.sol\":192:7013  contract FlightDelayInsurance {... */\n  mstore(0x40, 0x80)\n    /* \".deps/contract.sol\":1628:1629  0 */\n  0x00\n    /* \".deps/contract.sol\":1594:1629  uint256 private nextInsuranceId = 0 */\n  0x02\n  sstore\n    /* \".deps/contract.sol\":2691:2781  constructor(address _oracle) {... */\n  callvalue\n  dup1\n  iszero\n  tag_1\n  jumpi\n  0x00\n  dup1\n  revert\ntag_1:\n  pop\n  mload(0x40)\n  sub(codesize, bytecodeSize)\n  dup1\n  bytecodeSize\n  dup4\n  codecopy\n  dup2\n  dup2\n  add\n  0x40\n  mstore\n  dup2\n  add\n  swap1\n  tag_2\n  swap2\n  swap1\n  tag_3\n  jump\t// in\ntag_2:\n    /* \".deps/contract.sol\":2738:2748  msg.sender */\n  caller\n    /* \".deps/contract.sol\":2730:2735  owner */\n  0x00\n  dup1\n    /* \".deps/contract.sol\":2730:2748  owner = msg.sender */\n  0x0100\n  exp\n  dup2\n  sload\n  dup2\n  0xffffffffffffffffffffffffffffffffffffffff\n  mul\n  not\n  and\n  swap1\n  dup4\n  0xffffffffffffffffffffffffffffffffffffffff\n  and\n  mul\n  or\n  swap1\n  sstore\n  pop\n    /* \".deps/contract.sol\":2767:2774  _oracle */\n  dup1\n    /* \".deps/contract.sol\":2758:2764  oracle */\n  0x01\n  0x00\n    /* \".deps/contract.sol\":2758:2774  oracle = _oracle */\n  0x0100\n  exp\n  dup2\n  sload\n  dup2\n  0xffffffffffffffffffffffffffffffffffffffff\n  mul\n  not\n  and\n  swap1\n  dup4\n  0xffffffffffffffffffffffffffffffffffffffff\n  and\n  mul\n  or\n  swap1\n  sstore\n  pop\n    /* \".deps/contract.sol\":2691:2781  constructor(address _oracle) {... */\n  pop\n    /* \".deps/contract.sol\":192:7013  contract FlightDelayInsurance {... */\n  jump(tag_6)\n    /* \"#utility.yul\":88:205   */\ntag_8:\n    /* \"#utility.yul\":197:198   */\n  0x00\n    /* \"#utility.yul\":194:195   */\n  dup1\n    /* \"#utility.yul\":187:199   */\n  revert\n    /* \"#utility.yul\":334:460   */\ntag_10:\n    /* \"#utility.yul\":371:378   */\n  0x00\n    /* \"#utility.yul\":411:453   */\n  0xffffffffffffffffffffffffffffffffffffffff\n    /* \"#utility.yul\":404:409   */\n  dup3\n    /* \"#utility.yul\":400:454   */\n  and\n    /* \"#utility.yul\":389:454   */\n  swap1\n  pop\n    /* \"#utility.yul\":334:460   */\n  swap2\n  swap1\n  pop\n  jump\t// out\n    /* \"#utility.yul\":466:562   */\ntag_11:\n    /* \"#utility.yul\":503:510   */\n  0x00\n    /* \"#utility.yul\":532:556   */\n  tag_20\n    /* \"#utility.yul\":550:555   */\n  dup3\n    /* \"#utility.yul\":532:556   */\n  tag_10\n  jump\t// in\ntag_20:\n    /* \"#utility.yul\":521:556   */\n  swap1\n  pop\n    /* \"#utility.yul\":466:562   */\n  swap2\n  swap1\n  pop\n  jump\t// out\n    /* \"#utility.yul\":568:690   */\ntag_12:\n    /* \"#utility.yul\":641:665   */\n  tag_22\n    /* \"#utility.yul\":659:664   */\n  dup2\n    /* \"#utility.yul\":641:665   */\n  tag_11\n  jump\t// in\ntag_22:\n    /* \"#utility.yul\":634:639   */\n  dup2\n    /* \"#utility.yul\":631:666   */\n  eq\n    /* \"#utility.yul\":621:684   */\n  tag_23\n  jumpi\n    /* \"#utility.yul\":680:681   */\n  0x00\n    /* \"#utility.yul\":677:678   */\n  dup1\n    /* \"#utility.yul\":670:682   */\n  revert\n    /* \"#utility.yul\":621:684   */\ntag_23:\n    /* \"#utility.yul\":568:690   */\n  pop\n  jump\t// out\n    /* \"#utility.yul\":696:839   */\ntag_13:\n    /* \"#utility.yul\":753:758   */\n  0x00\n    /* \"#utility.yul\":784:790   */\n  dup2\n    /* \"#utility.yul\":778:791   */\n  mload\n    /* \"#utility.yul\":769:791   */\n  swap1\n  pop\n    /* \"#utility.yul\":800:833   */\n  tag_25\n    /* \"#utility.yul\":827:832   */\n  dup2\n    /* \"#utility.yul\":800:833   */\n  tag_12\n  jump\t// in\ntag_25:\n    /* \"#utility.yul\":696:839   */\n  swap3\n  swap2\n  pop\n  pop\n  jump\t// out\n    /* \"#utility.yul\":845:1196   */\ntag_3:\n    /* \"#utility.yul\":915:921   */\n  0x00\n    /* \"#utility.yul\":964:966   */\n  0x20\n    /* \"#utility.yul\":952:961   */\n  dup3\n    /* \"#utility.yul\":943:950   */\n  dup5\n    /* \"#utility.yul\":939:962   */\n  sub\n    /* \"#utility.yul\":935:967   */\n  slt\n    /* \"#utility.yul\":932:1051   */\n  iszero\n  tag_27\n  jumpi\n    /* \"#utility.yul\":970:1049   */\n  tag_28\n  tag_8\n  jump\t// in\ntag_28:\n    /* \"#utility.yul\":932:1051   */\ntag_27:\n    /* \"#utility.yul\":1090:1091   */\n  0x00\n    /* \"#utility.yul\":1115:1179   */\n  tag_29\n    /* \"#utility.yul\":1171:1178   */\n  dup5\n    /* \"#utility.yul\":1162:1168   */\n  dup3\n    /* \"#utility.yul\":1151:1160   */\n  dup6\n    /* \"#utility.yul\":1147:1169   */\n  add\n    /* \"#utility.yul\":1115:1179   */\n  tag_13\n  jump\t// in\ntag_29:\n    /* \"#utility.yul\":1105:1179   */\n  swap2\n  pop\n    /* \"#utility.yul\":1061:1189   */\n  pop\n    /* \"#utility.yul\":845:1196   */\n  swap3\n  swap2\n  pop\n  pop\n  jump\t// out\n    /* \".deps/contract.sol\":192:7013  contract FlightDelayInsurance {... */\ntag_6:\n  dataSize(sub_0)\n  dup1\n  dataOffset(sub_0)\n  0x00\n  codecopy\n  0x00\n  return\nstop\n\nsub_0: assembly {\n        /* \".deps/contract.sol\":192:7013  contract FlightDelayInsurance {... */\n      mstore(0x40, 0x80)\n      jumpi(tag_1, lt(calldatasize, 0x04))\n      shr(0xe0, calldataload(0x00))\n      dup1\n      0x8812b680\n      gt\n      tag_16\n      jumpi\n      dup1\n      0x9f62eb82\n      gt\n      tag_17\n      jumpi\n      dup1\n      0x9f62eb82\n      eq\n      tag_12\n      jumpi\n      dup1\n      0xba7b6e4f\n      eq\n      tag_13\n      jumpi\n      dup1\n      0xe6cf0653\n      eq\n      tag_14\n      jumpi\n      dup1\n      0xee6a1a8d\n      eq\n      tag_15\n      jumpi\n      jump(tag_2)\n    tag_17:\n      dup1\n      0x8812b680\n      eq\n      tag_9\n      jumpi\n      dup1\n      0x8d6eb55c\n      eq\n      tag_10\n      jumpi\n      dup1\n      0x8da5cb5b\n      eq\n      tag_11\n      jumpi\n      jump(tag_2)\n    tag_16:\n      dup1\n      0x1f11d58c\n      eq\n      tag_3\n      jumpi\n      dup1\n      0x31b2a52a\n      eq\n      tag_4\n      jumpi\n      dup1\n      0x3ccfd60b\n      eq\n      tag_5\n      jumpi\n      dup1\n      0x59fb49f9\n      eq\n      tag_6\n      jumpi\n      dup1\n      0x7adbf973\n      eq\n      tag_7\n      jumpi\n      dup1\n      0x7dc0d1d0\n      eq\n      tag_8\n      jumpi\n      jump(tag_2)\n    tag_1:\n      jumpi(tag_2, calldatasize)\n      stop\n    tag_2:\n      stop\n        /* \".deps/contract.sol\":6477:6649  function getInsurancesByCustomer(address customer)... */\n    tag_3:\n      callvalue\n      dup1\n      iszero\n      tag_22\n      jumpi\n      0x00\n      dup1\n      revert\n    tag_22:\n      pop\n      tag_23\n      0x04\n      dup1\n      calldatasize\n      sub\n      dup2\n      add\n      swap1\n      tag_24\n      swap2\n      swap1\n      tag_25\n      jump\t// in\n    tag_24:\n      tag_26\n      jump\t// in\n    tag_23:\n      mload(0x40)\n      tag_27\n      swap2\n      swap1\n      tag_28\n      jump\t// in\n    tag_27:\n      mload(0x40)\n      dup1\n      swap2\n      sub\n      swap1\n      return\n        /* \".deps/contract.sol\":1515:1563  uint256 public constant DEFAULT_CLAIM = 6e18 wei */\n    tag_4:\n      callvalue\n      dup1\n      iszero\n      tag_29\n      jumpi\n      0x00\n      dup1\n      revert\n    tag_29:\n      pop\n      tag_30\n      tag_31\n      jump\t// in\n    tag_30:\n      mload(0x40)\n      tag_32\n      swap2\n      swap1\n      tag_33\n      jump\t// in\n    tag_32:\n      mload(0x40)\n      dup1\n      swap2\n      sub\n      swap1\n      return\n        /* \".deps/contract.sol\":6809:7011  function withdraw() external payable onlyOwner{... */\n    tag_5:\n      tag_34\n      tag_35\n      jump\t// in\n    tag_34:\n      stop\n        /* \".deps/contract.sol\":1635:1682  mapping(uint256 => Insurance) public insurances */\n    tag_6:\n      callvalue\n      dup1\n      iszero\n      tag_36\n      jumpi\n      0x00\n      dup1\n      revert\n    tag_36:\n      pop\n      tag_37\n      0x04\n      dup1\n      calldatasize\n      sub\n      dup2\n      add\n      swap1\n      tag_38\n      swap2\n      swap1\n      tag_39\n      jump\t// in\n    tag_38:\n      tag_40\n      jump\t// in\n    tag_37:\n      mload(0x40)\n      tag_41\n      swap13\n      swap12\n      swap11\n      swap10\n      swap9\n      swap8\n      swap7\n      swap6\n      swap5\n      swap4\n      swap3\n      swap2\n      swap1\n      tag_42\n      jump\t// in\n    tag_41:\n      mload(0x40)\n      dup1\n      swap2\n      sub\n      swap1\n      return\n        /* \".deps/contract.sol\":2829:2917  function setOracle(address _oracle) external onlyOwner {... */\n    tag_7:\n      callvalue\n      dup1\n      iszero\n      tag_43\n      jumpi\n      0x00\n      dup1\n      revert\n    tag_43:\n      pop\n      tag_44\n      0x04\n      dup1\n      calldatasize\n      sub\n      dup2\n      add\n      swap1\n      tag_45\n      swap2\n      swap1\n      tag_25\n      jump\t// in\n    tag_45:\n      tag_46\n      jump\t// in\n    tag_44:\n      stop\n        /* \".deps/contract.sol\":369:390  address public oracle */\n    tag_8:\n      callvalue\n      dup1\n      iszero\n      tag_47\n      jumpi\n      0x00\n      dup1\n      revert\n    tag_47:\n      pop\n      tag_48\n      tag_49\n      jump\t// in\n    tag_48:\n      mload(0x40)\n      tag_50\n      swap2\n      swap1\n      tag_51\n      jump\t// in\n    tag_50:\n      mload(0x40)\n      dup1\n      swap2\n      sub\n      swap1\n      return\n        /* \".deps/contract.sol\":3185:4123  function createInsurance(... */\n    tag_9:\n      tag_52\n      0x04\n      dup1\n      calldatasize\n      sub\n      dup2\n      add\n      swap1\n      tag_53\n      swap2\n      swap1\n      tag_54\n      jump\t// in\n    tag_53:\n      tag_55\n      jump\t// in\n    tag_52:\n      mload(0x40)\n      tag_56\n      swap2\n      swap1\n      tag_33\n      jump\t// in\n    tag_56:\n      mload(0x40)\n      dup1\n      swap2\n      sub\n      swap1\n      return\n        /* \".deps/contract.sol\":4683:6368  function checkAndClaim(uint256 insuranceID) external payable onlyOwner{... */\n    tag_10:\n      tag_57\n      0x04\n      dup1\n      calldatasize\n      sub\n      dup2\n      add\n      swap1\n      tag_58\n      swap2\n      swap1\n      tag_39\n      jump\t// in\n    tag_58:\n      tag_59\n      jump\t// in\n    tag_57:\n      stop\n        /* \".deps/contract.sol\":267:287  address public owner */\n    tag_11:\n      callvalue\n      dup1\n      iszero\n      tag_60\n      jumpi\n      0x00\n      dup1\n      revert\n    tag_60:\n      pop\n      tag_61\n      tag_62\n      jump\t// in\n    tag_61:\n      mload(0x40)\n      tag_63\n      swap2\n      swap1\n      tag_51\n      jump\t// in\n    tag_63:\n      mload(0x40)\n      dup1\n      swap2\n      sub\n      swap1\n      return\n        /* \".deps/contract.sol\":4198:4621  function updateFlightInfo(... */\n    tag_12:\n      callvalue\n      dup1\n      iszero\n      tag_64\n      jumpi\n      0x00\n      dup1\n      revert\n    tag_64:\n      pop\n      tag_65\n      0x04\n      dup1\n      calldatasize\n      sub\n      dup2\n      add\n      swap1\n      tag_66\n      swap2\n      swap1\n      tag_67\n      jump\t// in\n    tag_66:\n      tag_68\n      jump\t// in\n    tag_65:\n      stop\n        /* \".deps/contract.sol\":1688:1743  mapping(address => uint256[]) public customerInsurances */\n    tag_13:\n      callvalue\n      dup1\n      iszero\n      tag_69\n      jumpi\n      0x00\n      dup1\n      revert\n    tag_69:\n      pop\n      tag_70\n      0x04\n      dup1\n      calldatasize\n      sub\n      dup2\n      add\n      swap1\n      tag_71\n      swap2\n      swap1\n      tag_72\n      jump\t// in\n    tag_71:\n      tag_73\n      jump\t// in\n    tag_70:\n      mload(0x40)\n      tag_74\n      swap2\n      swap1\n      tag_33\n      jump\t// in\n    tag_74:\n      mload(0x40)\n      dup1\n      swap2\n      sub\n      swap1\n      return\n        /* \".deps/contract.sol\":1365:1409  uint256 public constant DEFAULT_CT = 4 hours */\n    tag_14:\n      callvalue\n      dup1\n      iszero\n      tag_75\n      jumpi\n      0x00\n      dup1\n      revert\n    tag_75:\n      pop\n      tag_76\n      tag_77\n      jump\t// in\n    tag_76:\n      mload(0x40)\n      tag_78\n      swap2\n      swap1\n      tag_33\n      jump\t// in\n    tag_78:\n      mload(0x40)\n      dup1\n      swap2\n      sub\n      swap1\n      return\n        /* \".deps/contract.sol\":1437:1487  uint256 public constant DEFAULT_PREMIUM = 3e17 wei */\n    tag_15:\n      callvalue\n      dup1\n      iszero\n      tag_79\n      jumpi\n      0x00\n      dup1\n      revert\n    tag_79:\n      pop\n      tag_80\n      tag_81\n      jump\t// in\n    tag_80:\n      mload(0x40)\n      tag_82\n      swap2\n      swap1\n      tag_33\n      jump\t// in\n    tag_82:\n      mload(0x40)\n      dup1\n      swap2\n      sub\n      swap1\n      return\n        /* \".deps/contract.sol\":6477:6649  function getInsurancesByCustomer(address customer)... */\n    tag_26:\n        /* \".deps/contract.sol\":6575:6591  uint256[] memory */\n      0x60\n        /* \".deps/contract.sol\":6614:6632  customerInsurances */\n      0x04\n        /* \".deps/contract.sol\":6614:6642  customerInsurances[customer] */\n      0x00\n        /* \".deps/contract.sol\":6633:6641  customer */\n      dup4\n        /* \".deps/contract.sol\":6614:6642  customerInsurances[customer] */\n      0xffffffffffffffffffffffffffffffffffffffff\n      and\n      0xffffffffffffffffffffffffffffffffffffffff\n      and\n      dup2\n      mstore\n      0x20\n      add\n      swap1\n      dup2\n      mstore\n      0x20\n      add\n      0x00\n      keccak256\n        /* \".deps/contract.sol\":6607:6642  return customerInsurances[customer] */\n      dup1\n      sload\n      dup1\n      0x20\n      mul\n      0x20\n      add\n      mload(0x40)\n      swap1\n      dup2\n      add\n      0x40\n      mstore\n      dup1\n      swap3\n      swap2\n      swap1\n      dup2\n      dup2\n      mstore\n      0x20\n      add\n      dup3\n      dup1\n      sload\n      dup1\n      iszero\n      tag_84\n      jumpi\n      0x20\n      mul\n      dup3\n      add\n      swap2\n      swap1\n      0x00\n      mstore\n      keccak256(0x00, 0x20)\n      swap1\n    tag_85:\n      dup2\n      sload\n      dup2\n      mstore\n      0x20\n      add\n      swap1\n      0x01\n      add\n      swap1\n      dup1\n      dup4\n      gt\n      tag_85\n      jumpi\n    tag_84:\n      pop\n      pop\n      pop\n      pop\n      pop\n      swap1\n      pop\n        /* \".deps/contract.sol\":6477:6649  function getInsurancesByCustomer(address customer)... */\n      swap2\n      swap1\n      pop\n      jump\t// out\n        /* \".deps/contract.sol\":1515:1563  uint256 public constant DEFAULT_CLAIM = 6e18 wei */\n    tag_31:\n        /* \".deps/contract.sol\":1555:1563  6e18 wei */\n      0x53444835ec580000\n        /* \".deps/contract.sol\":1515:1563  uint256 public constant DEFAULT_CLAIM = 6e18 wei */\n      dup2\n      jump\t// out\n        /* \".deps/contract.sol\":6809:7011  function withdraw() external payable onlyOwner{... */\n    tag_35:\n        /* \".deps/contract.sol\":2416:2421  owner */\n      0x00\n      dup1\n      sload\n      swap1\n      0x0100\n      exp\n      swap1\n      div\n      0xffffffffffffffffffffffffffffffffffffffff\n      and\n        /* \".deps/contract.sol\":2402:2421  msg.sender == owner */\n      0xffffffffffffffffffffffffffffffffffffffff\n      and\n        /* \".deps/contract.sol\":2402:2412  msg.sender */\n      caller\n        /* \".deps/contract.sol\":2402:2421  msg.sender == owner */\n      0xffffffffffffffffffffffffffffffffffffffff\n      and\n      eq\n        /* \".deps/contract.sol\":2394:2436  require(msg.sender == owner, \"Owner only\") */\n      tag_87\n      jumpi\n      mload(0x40)\n      0x08c379a000000000000000000000000000000000000000000000000000000000\n      dup2\n      mstore\n      0x04\n      add\n      tag_88\n      swap1\n      tag_89\n      jump\t// in\n    tag_88:\n      mload(0x40)\n      dup1\n      swap2\n      sub\n      swap1\n      revert\n    tag_87:\n        /* \".deps/contract.sol\":6866:6886  bool withdrawSuccess */\n      0x00\n        /* \".deps/contract.sol\":6899:6909  msg.sender */\n      caller\n        /* \".deps/contract.sol\":6891:6915  payable(msg.sender).call */\n      0xffffffffffffffffffffffffffffffffffffffff\n      and\n        /* \".deps/contract.sol\":6923:6944  address(this).balance */\n      selfbalance\n        /* \".deps/contract.sol\":6891:6949  payable(msg.sender).call{value: address(this).balance}(\"\") */\n      mload(0x40)\n      tag_91\n      swap1\n      tag_92\n      jump\t// in\n    tag_91:\n      0x00\n      mload(0x40)\n      dup1\n      dup4\n      sub\n      dup2\n      dup6\n      dup8\n      gas\n      call\n      swap3\n      pop\n      pop\n      pop\n      returndatasize\n      dup1\n      0x00\n      dup2\n      eq\n      tag_95\n      jumpi\n      mload(0x40)\n      swap2\n      pop\n      and(add(returndatasize, 0x3f), not(0x1f))\n      dup3\n      add\n      0x40\n      mstore\n      returndatasize\n      dup3\n      mstore\n      returndatasize\n      0x00\n      0x20\n      dup5\n      add\n      returndatacopy\n      jump(tag_94)\n    tag_95:\n      0x60\n      swap2\n      pop\n    tag_94:\n      pop\n        /* \".deps/contract.sol\":6865:6949  (bool withdrawSuccess,) = payable(msg.sender).call{value: address(this).balance}(\"\") */\n      pop\n      swap1\n      pop\n        /* \".deps/contract.sol\":6967:6982  withdrawSuccess */\n      dup1\n        /* \".deps/contract.sol\":6959:7004  require(withdrawSuccess, \"Withdraw Failed !\") */\n      tag_96\n      jumpi\n      mload(0x40)\n      0x08c379a000000000000000000000000000000000000000000000000000000000\n      dup2\n      mstore\n      0x04\n      add\n      tag_97\n      swap1\n      tag_98\n      jump\t// in\n    tag_97:\n      mload(0x40)\n      dup1\n      swap2\n      sub\n      swap1\n      revert\n    tag_96:\n        /* \".deps/contract.sol\":6855:7011  {... */\n      pop\n        /* \".deps/contract.sol\":6809:7011  function withdraw() external payable onlyOwner{... */\n      jump\t// out\n        /* \".deps/contract.sol\":1635:1682  mapping(uint256 => Insurance) public insurances */\n    tag_40:\n      mstore(0x20, 0x03)\n      dup1\n      0x00\n      mstore\n      keccak256(0x00, 0x40)\n      0x00\n      swap2\n      pop\n      swap1\n      pop\n      dup1\n      0x00\n      add\n      0x00\n      swap1\n      sload\n      swap1\n      0x0100\n      exp\n      swap1\n      div\n      0xffffffffffffffffffffffffffffffffffffffff\n      and\n      swap1\n      dup1\n      0x01\n      add\n      dup1\n      sload\n      tag_99\n      swap1\n      tag_100\n      jump\t// in\n    tag_99:\n      dup1\n      0x1f\n      add\n      0x20\n      dup1\n      swap2\n      div\n      mul\n      0x20\n      add\n      mload(0x40)\n      swap1\n      dup2\n      add\n      0x40\n      mstore\n      dup1\n      swap3\n      swap2\n      swap1\n      dup2\n      dup2\n      mstore\n      0x20\n      add\n      dup3\n      dup1\n      sload\n      tag_101\n      swap1\n      tag_100\n      jump\t// in\n    tag_101:\n      dup1\n      iszero\n      tag_102\n      jumpi\n      dup1\n      0x1f\n      lt\n      tag_103\n      jumpi\n      0x0100\n      dup1\n      dup4\n      sload\n      div\n      mul\n      dup4\n      mstore\n      swap2\n      0x20\n      add\n      swap2\n      jump(tag_102)\n    tag_103:\n      dup3\n      add\n      swap2\n      swap1\n      0x00\n      mstore\n      keccak256(0x00, 0x20)\n      swap1\n    tag_104:\n      dup2\n      sload\n      dup2\n      mstore\n      swap1\n      0x01\n      add\n      swap1\n      0x20\n      add\n      dup1\n      dup4\n      gt\n      tag_104\n      jumpi\n      dup3\n      swap1\n      sub\n      0x1f\n      and\n      dup3\n      add\n      swap2\n    tag_102:\n      pop\n      pop\n      pop\n      pop\n      pop\n      swap1\n      dup1\n      0x02\n      add\n      sload\n      swap1\n      dup1\n      0x03\n      add\n      sload\n      swap1\n      dup1\n      0x04\n      add\n      sload\n      swap1\n      dup1\n      0x05\n      add\n      sload\n      swap1\n      dup1\n      0x06\n      add\n      sload\n      swap1\n      dup1\n      0x07\n      add\n      sload\n      swap1\n      dup1\n      0x08\n      add\n      sload\n      swap1\n      dup1\n      0x09\n      add\n      0x00\n      swap1\n      sload\n      swap1\n      0x0100\n      exp\n      swap1\n      div\n      0xff\n      and\n      swap1\n      dup1\n      0x09\n      add\n      0x01\n      swap1\n      sload\n      swap1\n      0x0100\n      exp\n      swap1\n      div\n      0xff\n      and\n      swap1\n      dup1\n      0x09\n      add\n      0x02\n      swap1\n      sload\n      swap1\n      0x0100\n      exp\n      swap1\n      div\n      0xff\n      and\n      swap1\n      pop\n      dup13\n      jump\t// out\n        /* \".deps/contract.sol\":2829:2917  function setOracle(address _oracle) external onlyOwner {... */\n    tag_46:\n        /* \".deps/contract.sol\":2416:2421  owner */\n      0x00\n      dup1\n      sload\n      swap1\n      0x0100\n      exp\n      swap1\n      div\n      0xffffffffffffffffffffffffffffffffffffffff\n      and\n        /* \".deps/contract.sol\":2402:2421  msg.sender == owner */\n      0xffffffffffffffffffffffffffffffffffffffff\n      and\n        /* \".deps/contract.sol\":2402:2412  msg.sender */\n      caller\n        /* \".deps/contract.sol\":2402:2421  msg.sender == owner */\n      0xffffffffffffffffffffffffffffffffffffffff\n      and\n      eq\n        /* \".deps/contract.sol\":2394:2436  require(msg.sender == owner, \"Owner only\") */\n      tag_106\n      jumpi\n      mload(0x40)\n      0x08c379a000000000000000000000000000000000000000000000000000000000\n      dup2\n      mstore\n      0x04\n      add\n      tag_107\n      swap1\n      tag_89\n      jump\t// in\n    tag_107:\n      mload(0x40)\n      dup1\n      swap2\n      sub\n      swap1\n      revert\n    tag_106:\n        /* \".deps/contract.sol\":2903:2910  _oracle */\n      dup1\n        /* \".deps/contract.sol\":2894:2900  oracle */\n      0x01\n      0x00\n        /* \".deps/contract.sol\":2894:2910  oracle = _oracle */\n      0x0100\n      exp\n      dup2\n      sload\n      dup2\n      0xffffffffffffffffffffffffffffffffffffffff\n      mul\n      not\n      and\n      swap1\n      dup4\n      0xffffffffffffffffffffffffffffffffffffffff\n      and\n      mul\n      or\n      swap1\n      sstore\n      pop\n        /* \".deps/contract.sol\":2829:2917  function setOracle(address _oracle) external onlyOwner {... */\n      pop\n      jump\t// out\n        /* \".deps/contract.sol\":369:390  address public oracle */\n    tag_49:\n      0x01\n      0x00\n      swap1\n      sload\n      swap1\n      0x0100\n      exp\n      swap1\n      div\n      0xffffffffffffffffffffffffffffffffffffffff\n      and\n      dup2\n      jump\t// out\n        /* \".deps/contract.sol\":3185:4123  function createInsurance(... */\n    tag_55:\n        /* \".deps/contract.sol\":3342:3361  uint256 insuranceID */\n      0x00\n        /* \".deps/contract.sol\":3390:3392  T1 */\n      dup3\n        /* \".deps/contract.sol\":3385:3387  TP */\n      dup3\n        /* \".deps/contract.sol\":3385:3392  TP > T1 */\n      gt\n        /* \".deps/contract.sol\":3377:3416  require(TP > T1, \"TP must be after T1\") */\n      tag_110\n      jumpi\n      mload(0x40)\n      0x08c379a000000000000000000000000000000000000000000000000000000000\n      dup2\n      mstore\n      0x04\n      add\n      tag_111\n      swap1\n      tag_112\n      jump\t// in\n    tag_111:\n      mload(0x40)\n      dup1\n      swap2\n      sub\n      swap1\n      revert\n    tag_110:\n        /* \".deps/contract.sol\":1479:1487  3e17 wei */\n      0x0429d069189e0000\n        /* \".deps/contract.sol\":3434:3443  msg.value */\n      callvalue\n        /* \".deps/contract.sol\":3434:3462  msg.value == DEFAULT_PREMIUM */\n      eq\n        /* \".deps/contract.sol\":3426:3489  require(msg.value == DEFAULT_PREMIUM, \"Incorrect premium sent\") */\n      tag_113\n      jumpi\n      mload(0x40)\n      0x08c379a000000000000000000000000000000000000000000000000000000000\n      dup2\n      mstore\n      0x04\n      add\n      tag_114\n      swap1\n      tag_115\n      jump\t// in\n    tag_114:\n      mload(0x40)\n      dup1\n      swap2\n      sub\n      swap1\n      revert\n    tag_113:\n        /* \".deps/contract.sol\":3514:3529  nextInsuranceId */\n      0x02\n      0x00\n        /* \".deps/contract.sol\":3514:3531  nextInsuranceId++ */\n      dup2\n      sload\n      dup1\n      swap3\n      swap2\n      swap1\n      tag_116\n      swap1\n      tag_117\n      jump\t// in\n    tag_116:\n      swap2\n      swap1\n      pop\n      sstore\n        /* \".deps/contract.sol\":3500:3531  insuranceID = nextInsuranceId++ */\n      swap1\n      pop\n        /* \".deps/contract.sol\":3541:3562  Insurance storage ins */\n      0x00\n        /* \".deps/contract.sol\":3565:3575  insurances */\n      0x03\n        /* \".deps/contract.sol\":3565:3588  insurances[insuranceID] */\n      0x00\n        /* \".deps/contract.sol\":3576:3587  insuranceID */\n      dup4\n        /* \".deps/contract.sol\":3565:3588  insurances[insuranceID] */\n      dup2\n      mstore\n      0x20\n      add\n      swap1\n      dup2\n      mstore\n      0x20\n      add\n      0x00\n      keccak256\n        /* \".deps/contract.sol\":3541:3588  Insurance storage ins = insurances[insuranceID] */\n      swap1\n      pop\n        /* \".deps/contract.sol\":3621:3631  msg.sender */\n      caller\n        /* \".deps/contract.sol\":3598:3601  ins */\n      dup2\n        /* \".deps/contract.sol\":3598:3610  ins.customer */\n      0x00\n      add\n      0x00\n        /* \".deps/contract.sol\":3598:3632  ins.customer = payable(msg.sender) */\n      0x0100\n      exp\n      dup2\n      sload\n      dup2\n      0xffffffffffffffffffffffffffffffffffffffff\n      mul\n      not\n      and\n      swap1\n      dup4\n      0xffffffffffffffffffffffffffffffffffffffff\n      and\n      mul\n      or\n      swap1\n      sstore\n      pop\n        /* \".deps/contract.sol\":3659:3669  flightCode */\n      dup6\n      dup6\n        /* \".deps/contract.sol\":3642:3645  ins */\n      dup3\n        /* \".deps/contract.sol\":3642:3656  ins.flightCode */\n      0x01\n      add\n        /* \".deps/contract.sol\":3642:3669  ins.flightCode = flightCode */\n      swap2\n      dup3\n      tag_118\n      swap3\n      swap2\n      swap1\n      tag_119\n      jump\t// in\n    tag_118:\n      pop\n        /* \".deps/contract.sol\":3688:3690  T1 */\n      dup4\n        /* \".deps/contract.sol\":3679:3682  ins */\n      dup2\n        /* \".deps/contract.sol\":3679:3685  ins.T1 */\n      0x02\n      add\n        /* \".deps/contract.sol\":3679:3690  ins.T1 = T1 */\n      dup2\n      swap1\n      sstore\n      pop\n        /* \".deps/contract.sol\":3709:3711  TP */\n      dup3\n        /* \".deps/contract.sol\":3700:3703  ins */\n      dup2\n        /* \".deps/contract.sol\":3700:3706  ins.TP */\n      0x03\n      add\n        /* \".deps/contract.sol\":3700:3711  ins.TP = TP */\n      dup2\n      swap1\n      sstore\n      pop\n        /* \".deps/contract.sol\":3730:3731  0 */\n      0x00\n        /* \".deps/contract.sol\":3721:3724  ins */\n      dup2\n        /* \".deps/contract.sol\":3721:3727  ins.TA */\n      0x04\n      add\n        /* \".deps/contract.sol\":3721:3731  ins.TA = 0 */\n      dup2\n      swap1\n      sstore\n      pop\n        /* \".deps/contract.sol\":3749:3764  block.timestamp */\n      timestamp\n        /* \".deps/contract.sol\":3741:3744  ins */\n      dup2\n        /* \".deps/contract.sol\":3741:3746  ins.T */\n      0x05\n      add\n        /* \".deps/contract.sol\":3741:3764  ins.T = block.timestamp */\n      dup2\n      swap1\n      sstore\n      pop\n        /* \".deps/contract.sol\":1402:1409  4 hours */\n      0x3840\n        /* \".deps/contract.sol\":3774:3777  ins */\n      dup2\n        /* \".deps/contract.sol\":3774:3780  ins.CT */\n      0x06\n      add\n        /* \".deps/contract.sol\":3774:3793  ins.CT = DEFAULT_CT */\n      dup2\n      swap1\n      sstore\n      pop\n        /* \".deps/contract.sol\":1479:1487  3e17 wei */\n      0x0429d069189e0000\n        /* \".deps/contract.sol\":3803:3806  ins */\n      dup2\n        /* \".deps/contract.sol\":3803:3814  ins.premium */\n      0x07\n      add\n        /* \".deps/contract.sol\":3803:3832  ins.premium = DEFAULT_PREMIUM */\n      dup2\n      swap1\n      sstore\n      pop\n        /* \".deps/contract.sol\":1555:1563  6e18 wei */\n      0x53444835ec580000\n        /* \".deps/contract.sol\":3842:3845  ins */\n      dup2\n        /* \".deps/contract.sol\":3842:3857  ins.claimAmount */\n      0x08\n      add\n        /* \".deps/contract.sol\":3842:3873  ins.claimAmount = DEFAULT_CLAIM */\n      dup2\n      swap1\n      sstore\n      pop\n        /* \".deps/contract.sol\":3896:3909  Status.Active */\n      0x00\n        /* \".deps/contract.sol\":3883:3886  ins */\n      dup2\n        /* \".deps/contract.sol\":3883:3893  ins.status */\n      0x09\n      add\n      0x00\n        /* \".deps/contract.sol\":3883:3909  ins.status = Status.Active */\n      0x0100\n      exp\n      dup2\n      sload\n      dup2\n      0xff\n      mul\n      not\n      and\n      swap1\n      dup4\n      0x02\n      dup2\n      gt\n      iszero\n      tag_120\n      jumpi\n      tag_121\n      tag_122\n      jump\t// in\n    tag_121:\n    tag_120:\n      mul\n      or\n      swap1\n      sstore\n      pop\n        /* \".deps/contract.sol\":3937:3953  ClaimStatus.None */\n      0x00\n        /* \".deps/contract.sol\":3919:3922  ins */\n      dup2\n        /* \".deps/contract.sol\":3919:3934  ins.claimStatus */\n      0x09\n      add\n      0x01\n        /* \".deps/contract.sol\":3919:3953  ins.claimStatus = ClaimStatus.None */\n      0x0100\n      exp\n      dup2\n      sload\n      dup2\n      0xff\n      mul\n      not\n      and\n      swap1\n      dup4\n      0x02\n      dup2\n      gt\n      iszero\n      tag_123\n      jumpi\n      tag_124\n      tag_122\n      jump\t// in\n    tag_124:\n    tag_123:\n      mul\n      or\n      swap1\n      sstore\n      pop\n        /* \".deps/contract.sol\":3982:4001  FlightStatus.Normal */\n      0x00\n        /* \".deps/contract.sol\":3963:3966  ins */\n      dup2\n        /* \".deps/contract.sol\":3963:3979  ins.flightStatus */\n      0x09\n      add\n      0x02\n        /* \".deps/contract.sol\":3963:4001  ins.flightStatus = FlightStatus.Normal */\n      0x0100\n      exp\n      dup2\n      sload\n      dup2\n      0xff\n      mul\n      not\n      and\n      swap1\n      dup4\n      0x02\n      dup2\n      gt\n      iszero\n      tag_125\n      jumpi\n      tag_126\n      tag_122\n      jump\t// in\n    tag_126:\n    tag_125:\n      mul\n      or\n      swap1\n      sstore\n      pop\n        /* \".deps/contract.sol\":4012:4030  customerInsurances */\n      0x04\n        /* \".deps/contract.sol\":4012:4042  customerInsurances[msg.sender] */\n      0x00\n        /* \".deps/contract.sol\":4031:4041  msg.sender */\n      caller\n        /* \".deps/contract.sol\":4012:4042  customerInsurances[msg.sender] */\n      0xffffffffffffffffffffffffffffffffffffffff\n      and\n      0xffffffffffffffffffffffffffffffffffffffff\n      and\n      dup2\n      mstore\n      0x20\n      add\n      swap1\n      dup2\n      mstore\n      0x20\n      add\n      0x00\n      keccak256\n        /* \".deps/contract.sol\":4048:4059  insuranceID */\n      dup3\n        /* \".deps/contract.sol\":4012:4060  customerInsurances[msg.sender].push(insuranceID) */\n      swap1\n      dup1\n      0x01\n      dup2\n      sload\n      add\n      dup1\n      dup3\n      sstore\n      dup1\n      swap2\n      pop\n      pop\n      0x01\n      swap1\n      sub\n      swap1\n      0x00\n      mstore\n      keccak256(0x00, 0x20)\n      add\n      0x00\n      swap1\n      swap2\n      swap1\n      swap2\n      swap1\n      swap2\n      pop\n      sstore\n        /* \".deps/contract.sol\":4105:4115  msg.sender */\n      caller\n        /* \".deps/contract.sol\":4075:4116  InsuranceCreated(insuranceID, msg.sender) */\n      0xffffffffffffffffffffffffffffffffffffffff\n      and\n        /* \".deps/contract.sol\":4092:4103  insuranceID */\n      dup3\n        /* \".deps/contract.sol\":4075:4116  InsuranceCreated(insuranceID, msg.sender) */\n      0x362a18d483785c7cbd3eedc8134897c38959f9330c5dfe708330173600280a4c\n      mload(0x40)\n      mload(0x40)\n      dup1\n      swap2\n      sub\n      swap1\n      log3\n        /* \".deps/contract.sol\":3367:4123  {... */\n      pop\n        /* \".deps/contract.sol\":3185:4123  function createInsurance(... */\n      swap5\n      swap4\n      pop\n      pop\n      pop\n      pop\n      jump\t// out\n        /* \".deps/contract.sol\":4683:6368  function checkAndClaim(uint256 insuranceID) external payable onlyOwner{... */\n    tag_59:\n        /* \".deps/contract.sol\":2416:2421  owner */\n      0x00\n      dup1\n      sload\n      swap1\n      0x0100\n      exp\n      swap1\n      div\n      0xffffffffffffffffffffffffffffffffffffffff\n      and\n        /* \".deps/contract.sol\":2402:2421  msg.sender == owner */\n      0xffffffffffffffffffffffffffffffffffffffff\n      and\n        /* \".deps/contract.sol\":2402:2412  msg.sender */\n      caller\n        /* \".deps/contract.sol\":2402:2421  msg.sender == owner */\n      0xffffffffffffffffffffffffffffffffffffffff\n      and\n      eq\n        /* \".deps/contract.sol\":2394:2436  require(msg.sender == owner, \"Owner only\") */\n      tag_129\n      jumpi\n      mload(0x40)\n      0x08c379a000000000000000000000000000000000000000000000000000000000\n      dup2\n      mstore\n      0x04\n      add\n      tag_130\n      swap1\n      tag_89\n      jump\t// in\n    tag_130:\n      mload(0x40)\n      dup1\n      swap2\n      sub\n      swap1\n      revert\n    tag_129:\n        /* \".deps/contract.sol\":4763:4784  Insurance storage ins */\n      0x00\n        /* \".deps/contract.sol\":4787:4797  insurances */\n      0x03\n        /* \".deps/contract.sol\":4787:4810  insurances[insuranceID] */\n      0x00\n        /* \".deps/contract.sol\":4798:4809  insuranceID */\n      dup4\n        /* \".deps/contract.sol\":4787:4810  insurances[insuranceID] */\n      dup2\n      mstore\n      0x20\n      add\n      swap1\n      dup2\n      mstore\n      0x20\n      add\n      0x00\n      keccak256\n        /* \".deps/contract.sol\":4763:4810  Insurance storage ins = insurances[insuranceID] */\n      swap1\n      pop\n        /* \".deps/contract.sol\":4842:4855  Status.Active */\n      0x00\n        /* \".deps/contract.sol\":4828:4855  ins.status == Status.Active */\n      0x02\n      dup2\n      gt\n      iszero\n      tag_132\n      jumpi\n      tag_133\n      tag_122\n      jump\t// in\n    tag_133:\n    tag_132:\n        /* \".deps/contract.sol\":4828:4831  ins */\n      dup2\n        /* \".deps/contract.sol\":4828:4838  ins.status */\n      0x09\n      add\n      0x00\n      swap1\n      sload\n      swap1\n      0x0100\n      exp\n      swap1\n      div\n      0xff\n      and\n        /* \".deps/contract.sol\":4828:4855  ins.status == Status.Active */\n      0x02\n      dup2\n      gt\n      iszero\n      tag_134\n      jumpi\n      tag_135\n      tag_122\n      jump\t// in\n    tag_135:\n    tag_134:\n      eq\n        /* \".deps/contract.sol\":4820:4880  require(ins.status == Status.Active, \"Insurance not active\") */\n      tag_136\n      jumpi\n      mload(0x40)\n      0x08c379a000000000000000000000000000000000000000000000000000000000\n      dup2\n      mstore\n      0x04\n      add\n      tag_137\n      swap1\n      tag_138\n      jump\t// in\n    tag_137:\n      mload(0x40)\n      dup1\n      swap2\n      sub\n      swap1\n      revert\n    tag_136:\n        /* \".deps/contract.sol\":4963:4966  ins */\n      dup1\n        /* \".deps/contract.sol\":4963:4969  ins.CT */\n      0x06\n      add\n      sload\n        /* \".deps/contract.sol\":4954:4957  ins */\n      dup2\n        /* \".deps/contract.sol\":4954:4960  ins.TP */\n      0x03\n      add\n      sload\n        /* \".deps/contract.sol\":4954:4969  ins.TP + ins.CT */\n      tag_139\n      swap2\n      swap1\n      tag_140\n      jump\t// in\n    tag_139:\n        /* \".deps/contract.sol\":4936:4951  block.timestamp */\n      timestamp\n        /* \".deps/contract.sol\":4936:4969  block.timestamp < ins.TP + ins.CT */\n      lt\n        /* \".deps/contract.sol\":4932:5086  if (block.timestamp < ins.TP + ins.CT) {... */\n      iszero\n      tag_141\n      jumpi\n        /* \".deps/contract.sol\":4993:5008  block.timestamp */\n      timestamp\n        /* \".deps/contract.sol\":4985:4988  ins */\n      dup2\n        /* \".deps/contract.sol\":4985:4990  ins.T */\n      0x05\n      add\n        /* \".deps/contract.sol\":4985:5008  ins.T = block.timestamp */\n      dup2\n      swap1\n      sstore\n      pop\n        /* \".deps/contract.sol\":5043:5054  insuranceID */\n      dup2\n        /* \".deps/contract.sol\":5027:5055  CheckedNotReady(insuranceID) */\n      0x44ea6cd4a30857868ca250b1d94459ec789d82611c70f26164bffda153f1bc0a\n      mload(0x40)\n      mload(0x40)\n      dup1\n      swap2\n      sub\n      swap1\n      log2\n        /* \".deps/contract.sol\":5069:5076  return; */\n      pop\n      jump(tag_131)\n        /* \".deps/contract.sol\":4932:5086  if (block.timestamp < ins.TP + ins.CT) {... */\n    tag_141:\n        /* \".deps/contract.sol\":5149:5170  FlightStatus.Canceled */\n      0x01\n        /* \".deps/contract.sol\":5129:5170  ins.flightStatus == FlightStatus.Canceled */\n      0x02\n      dup2\n      gt\n      iszero\n      tag_142\n      jumpi\n      tag_143\n      tag_122\n      jump\t// in\n    tag_143:\n    tag_142:\n        /* \".deps/contract.sol\":5129:5132  ins */\n      dup2\n        /* \".deps/contract.sol\":5129:5145  ins.flightStatus */\n      0x09\n      add\n      0x02\n      swap1\n      sload\n      swap1\n      0x0100\n      exp\n      swap1\n      div\n      0xff\n      and\n        /* \".deps/contract.sol\":5129:5170  ins.flightStatus == FlightStatus.Canceled */\n      0x02\n      dup2\n      gt\n      iszero\n      tag_144\n      jumpi\n      tag_145\n      tag_122\n      jump\t// in\n    tag_145:\n    tag_144:\n      sub\n        /* \".deps/contract.sol\":5125:5346  if (ins.flightStatus == FlightStatus.Canceled) {... */\n      tag_146\n      jumpi\n        /* \".deps/contract.sol\":5199:5216  Status.Terminated */\n      0x01\n        /* \".deps/contract.sol\":5186:5189  ins */\n      dup2\n        /* \".deps/contract.sol\":5186:5196  ins.status */\n      0x09\n      add\n      0x00\n        /* \".deps/contract.sol\":5186:5216  ins.status = Status.Terminated */\n      0x0100\n      exp\n      dup2\n      sload\n      dup2\n      0xff\n      mul\n      not\n      and\n      swap1\n      dup4\n      0x02\n      dup2\n      gt\n      iszero\n      tag_147\n      jumpi\n      tag_148\n      tag_122\n      jump\t// in\n    tag_148:\n    tag_147:\n      mul\n      or\n      swap1\n      sstore\n      pop\n        /* \".deps/contract.sol\":5248:5266  ClaimStatus.Denied */\n      0x02\n        /* \".deps/contract.sol\":5230:5233  ins */\n      dup2\n        /* \".deps/contract.sol\":5230:5245  ins.claimStatus */\n      0x09\n      add\n      0x01\n        /* \".deps/contract.sol\":5230:5266  ins.claimStatus = ClaimStatus.Denied */\n      0x0100\n      exp\n      dup2\n      sload\n      dup2\n      0xff\n      mul\n      not\n      and\n      swap1\n      dup4\n      0x02\n      dup2\n      gt\n      iszero\n      tag_149\n      jumpi\n      tag_150\n      tag_122\n      jump\t// in\n    tag_150:\n    tag_149:\n      mul\n      or\n      swap1\n      sstore\n      pop\n        /* \".deps/contract.sol\":5303:5314  insuranceID */\n      dup2\n        /* \".deps/contract.sol\":5285:5315  TerminatedNoClaim(insuranceID) */\n      0xce497f2d2d439d5ac116f719fa47580e5922b4944a0f698d2327162c6eb3b7ac\n      mload(0x40)\n      mload(0x40)\n      dup1\n      swap2\n      sub\n      swap1\n      log2\n        /* \".deps/contract.sol\":5329:5336  return; */\n      pop\n      jump(tag_131)\n        /* \".deps/contract.sol\":5125:5346  if (ins.flightStatus == FlightStatus.Canceled) {... */\n    tag_146:\n        /* \".deps/contract.sol\":5417:5418  0 */\n      0x00\n        /* \".deps/contract.sol\":5407:5410  ins */\n      dup2\n        /* \".deps/contract.sol\":5407:5413  ins.TA */\n      0x04\n      add\n      sload\n        /* \".deps/contract.sol\":5407:5418  ins.TA == 0 */\n      eq\n        /* \".deps/contract.sol\":5407:5458  ins.TA == 0 && block.timestamp >= ins.TP + 72 hours */\n      dup1\n      iszero\n      tag_151\n      jumpi\n      pop\n        /* \".deps/contract.sol\":5450:5458  72 hours */\n      0x03f480\n        /* \".deps/contract.sol\":5441:5444  ins */\n      dup2\n        /* \".deps/contract.sol\":5441:5447  ins.TP */\n      0x03\n      add\n      sload\n        /* \".deps/contract.sol\":5441:5458  ins.TP + 72 hours */\n      tag_152\n      swap2\n      swap1\n      tag_140\n      jump\t// in\n    tag_152:\n        /* \".deps/contract.sol\":5422:5437  block.timestamp */\n      timestamp\n        /* \".deps/contract.sol\":5422:5458  block.timestamp >= ins.TP + 72 hours */\n      lt\n      iszero\n        /* \".deps/contract.sol\":5407:5458  ins.TA == 0 && block.timestamp >= ins.TP + 72 hours */\n    tag_151:\n        /* \".deps/contract.sol\":5403:5684  if (ins.TA == 0 && block.timestamp >= ins.TP + 72 hours) {... */\n      iszero\n      tag_153\n      jumpi\n        /* \".deps/contract.sol\":5487:5504  Status.Terminated */\n      0x01\n        /* \".deps/contract.sol\":5474:5477  ins */\n      dup2\n        /* \".deps/contract.sol\":5474:5484  ins.status */\n      0x09\n      add\n      0x00\n        /* \".deps/contract.sol\":5474:5504  ins.status = Status.Terminated */\n      0x0100\n      exp\n      dup2\n      sload\n      dup2\n      0xff\n      mul\n      not\n      and\n      swap1\n      dup4\n      0x02\n      dup2\n      gt\n      iszero\n      tag_154\n      jumpi\n      tag_155\n      tag_122\n      jump\t// in\n    tag_155:\n    tag_154:\n      mul\n      or\n      swap1\n      sstore\n      pop\n        /* \".deps/contract.sol\":5536:5554  ClaimStatus.Denied */\n      0x02\n        /* \".deps/contract.sol\":5518:5521  ins */\n      dup2\n        /* \".deps/contract.sol\":5518:5533  ins.claimStatus */\n      0x09\n      add\n      0x01\n        /* \".deps/contract.sol\":5518:5554  ins.claimStatus = ClaimStatus.Denied */\n      0x0100\n      exp\n      dup2\n      sload\n      dup2\n      0xff\n      mul\n      not\n      and\n      swap1\n      dup4\n      0x02\n      dup2\n      gt\n      iszero\n      tag_156\n      jumpi\n      tag_157\n      tag_122\n      jump\t// in\n    tag_157:\n    tag_156:\n      mul\n      or\n      swap1\n      sstore\n      pop\n        /* \".deps/contract.sol\":5587:5605  FlightStatus.Other */\n      0x02\n        /* \".deps/contract.sol\":5568:5571  ins */\n      dup2\n        /* \".deps/contract.sol\":5568:5584  ins.flightStatus */\n      0x09\n      add\n      0x02\n        /* \".deps/contract.sol\":5568:5605  ins.flightStatus = FlightStatus.Other */\n      0x0100\n      exp\n      dup2\n      sload\n      dup2\n      0xff\n      mul\n      not\n      and\n      swap1\n      dup4\n      0x02\n      dup2\n      gt\n      iszero\n      tag_158\n      jumpi\n      tag_159\n      tag_122\n      jump\t// in\n    tag_159:\n    tag_158:\n      mul\n      or\n      swap1\n      sstore\n      pop\n        /* \".deps/contract.sol\":5641:5652  insuranceID */\n      dup2\n        /* \".deps/contract.sol\":5624:5653  TerminatedNoData(insuranceID) */\n      0xac9706c516a83df0060e911fa5b8a2fd1acedc32c29e4a4dad6fe2061caceff2\n      mload(0x40)\n      mload(0x40)\n      dup1\n      swap2\n      sub\n      swap1\n      log2\n        /* \".deps/contract.sol\":5667:5674  return; */\n      pop\n      jump(tag_131)\n        /* \".deps/contract.sol\":5403:5684  if (ins.TA == 0 && block.timestamp >= ins.TP + 72 hours) {... */\n    tag_153:\n        /* \".deps/contract.sol\":5741:5742  0 */\n      0x00\n        /* \".deps/contract.sol\":5731:5734  ins */\n      dup2\n        /* \".deps/contract.sol\":5731:5737  ins.TA */\n      0x04\n      add\n      sload\n        /* \".deps/contract.sol\":5731:5742  ins.TA == 0 */\n      sub\n        /* \".deps/contract.sol\":5727:5860  if (ins.TA == 0) {... */\n      tag_160\n      jumpi\n        /* \".deps/contract.sol\":5766:5781  block.timestamp */\n      timestamp\n        /* \".deps/contract.sol\":5758:5761  ins */\n      dup2\n        /* \".deps/contract.sol\":5758:5763  ins.T */\n      0x05\n      add\n        /* \".deps/contract.sol\":5758:5781  ins.T = block.timestamp */\n      dup2\n      swap1\n      sstore\n      pop\n        /* \".deps/contract.sol\":5817:5828  insuranceID */\n      dup2\n        /* \".deps/contract.sol\":5800:5829  CheckedAwaitData(insuranceID) */\n      0xb69f5371ebf20cdf43bb4d5fb074d977d10508b688a49267b829acfcd727c026\n      mload(0x40)\n      mload(0x40)\n      dup1\n      swap2\n      sub\n      swap1\n      log2\n        /* \".deps/contract.sol\":5843:5850  return; */\n      pop\n      jump(tag_131)\n        /* \".deps/contract.sol\":5727:5860  if (ins.TA == 0) {... */\n    tag_160:\n        /* \".deps/contract.sol\":5925:5928  ins */\n      dup1\n        /* \".deps/contract.sol\":5925:5931  ins.CT */\n      0x06\n      add\n      sload\n        /* \".deps/contract.sol\":5916:5919  ins */\n      dup2\n        /* \".deps/contract.sol\":5916:5922  ins.TP */\n      0x03\n      add\n      sload\n        /* \".deps/contract.sol\":5916:5931  ins.TP + ins.CT */\n      tag_161\n      swap2\n      swap1\n      tag_140\n      jump\t// in\n    tag_161:\n        /* \".deps/contract.sol\":5906:5909  ins */\n      dup2\n        /* \".deps/contract.sol\":5906:5912  ins.TA */\n      0x04\n      add\n      sload\n        /* \".deps/contract.sol\":5906:5931  ins.TA <= ins.TP + ins.CT */\n      gt\n        /* \".deps/contract.sol\":5902:6362  if (ins.TA <= ins.TP + ins.CT) {... */\n      tag_162\n      jumpi\n        /* \".deps/contract.sol\":5960:5977  Status.Terminated */\n      0x01\n        /* \".deps/contract.sol\":5947:5950  ins */\n      dup2\n        /* \".deps/contract.sol\":5947:5957  ins.status */\n      0x09\n      add\n      0x00\n        /* \".deps/contract.sol\":5947:5977  ins.status = Status.Terminated */\n      0x0100\n      exp\n      dup2\n      sload\n      dup2\n      0xff\n      mul\n      not\n      and\n      swap1\n      dup4\n      0x02\n      dup2\n      gt\n      iszero\n      tag_163\n      jumpi\n      tag_164\n      tag_122\n      jump\t// in\n    tag_164:\n    tag_163:\n      mul\n      or\n      swap1\n      sstore\n      pop\n        /* \".deps/contract.sol\":6009:6027  ClaimStatus.Denied */\n      0x02\n        /* \".deps/contract.sol\":5991:5994  ins */\n      dup2\n        /* \".deps/contract.sol\":5991:6006  ins.claimStatus */\n      0x09\n      add\n      0x01\n        /* \".deps/contract.sol\":5991:6027  ins.claimStatus = ClaimStatus.Denied */\n      0x0100\n      exp\n      dup2\n      sload\n      dup2\n      0xff\n      mul\n      not\n      and\n      swap1\n      dup4\n      0x02\n      dup2\n      gt\n      iszero\n      tag_165\n      jumpi\n      tag_166\n      tag_122\n      jump\t// in\n    tag_166:\n    tag_165:\n      mul\n      or\n      swap1\n      sstore\n      pop\n        /* \".deps/contract.sol\":6063:6074  insuranceID */\n      dup2\n        /* \".deps/contract.sol\":6046:6075  TerminatedOnTime(insuranceID) */\n      0xa0a8cd3c30c1f1eee66987b51c20e8f2adf28114a41e24dddb595eaa93f36131\n      mload(0x40)\n      mload(0x40)\n      dup1\n      swap2\n      sub\n      swap1\n      log2\n        /* \".deps/contract.sol\":5902:6362  if (ins.TA <= ins.TP + ins.CT) {... */\n      jump(tag_167)\n    tag_162:\n        /* \".deps/contract.sol\":6138:6152  uint256 payout */\n      0x00\n        /* \".deps/contract.sol\":6155:6158  ins */\n      dup2\n        /* \".deps/contract.sol\":6155:6170  ins.claimAmount */\n      0x08\n      add\n      sload\n        /* \".deps/contract.sol\":6138:6170  uint256 payout = ins.claimAmount */\n      swap1\n      pop\n        /* \".deps/contract.sol\":6197:6211  Status.Claimed */\n      0x02\n        /* \".deps/contract.sol\":6184:6187  ins */\n      dup3\n        /* \".deps/contract.sol\":6184:6194  ins.status */\n      0x09\n      add\n      0x00\n        /* \".deps/contract.sol\":6184:6211  ins.status = Status.Claimed */\n      0x0100\n      exp\n      dup2\n      sload\n      dup2\n      0xff\n      mul\n      not\n      and\n      swap1\n      dup4\n      0x02\n      dup2\n      gt\n      iszero\n      tag_168\n      jumpi\n      tag_169\n      tag_122\n      jump\t// in\n    tag_169:\n    tag_168:\n      mul\n      or\n      swap1\n      sstore\n      pop\n        /* \".deps/contract.sol\":6243:6259  ClaimStatus.Paid */\n      0x01\n        /* \".deps/contract.sol\":6225:6228  ins */\n      dup3\n        /* \".deps/contract.sol\":6225:6240  ins.claimStatus */\n      0x09\n      add\n      0x01\n        /* \".deps/contract.sol\":6225:6259  ins.claimStatus = ClaimStatus.Paid */\n      0x0100\n      exp\n      dup2\n      sload\n      dup2\n      0xff\n      mul\n      not\n      and\n      swap1\n      dup4\n      0x02\n      dup2\n      gt\n      iszero\n      tag_170\n      jumpi\n      tag_171\n      tag_122\n      jump\t// in\n    tag_171:\n    tag_170:\n      mul\n      or\n      swap1\n      sstore\n      pop\n        /* \".deps/contract.sol\":6273:6276  ins */\n      dup2\n        /* \".deps/contract.sol\":6273:6285  ins.customer */\n      0x00\n      add\n      0x00\n      swap1\n      sload\n      swap1\n      0x0100\n      exp\n      swap1\n      div\n      0xffffffffffffffffffffffffffffffffffffffff\n      and\n        /* \".deps/contract.sol\":6273:6294  ins.customer.transfer */\n      0xffffffffffffffffffffffffffffffffffffffff\n      and\n        /* \".deps/contract.sol\":6273:6302  ins.customer.transfer(payout) */\n      0x08fc\n        /* \".deps/contract.sol\":6295:6301  payout */\n      dup3\n        /* \".deps/contract.sol\":6273:6302  ins.customer.transfer(payout) */\n      swap1\n      dup2\n      iszero\n      mul\n      swap1\n      mload(0x40)\n      0x00\n      mload(0x40)\n      dup1\n      dup4\n      sub\n      dup2\n      dup6\n      dup9\n      dup9\n      call\n      swap4\n      pop\n      pop\n      pop\n      pop\n      iszero\n      dup1\n      iszero\n      tag_173\n      jumpi\n      returndatasize\n      0x00\n      dup1\n      returndatacopy\n      revert(0x00, returndatasize)\n    tag_173:\n      pop\n        /* \".deps/contract.sol\":6331:6342  insuranceID */\n      dup3\n        /* \".deps/contract.sol\":6321:6351  ClaimPaid(insuranceID, payout) */\n      0xb0727183796e52c5bb00a257c1eb36d8e94dbee5d6d87e259287e3372ae39ace\n        /* \".deps/contract.sol\":6344:6350  payout */\n      dup3\n        /* \".deps/contract.sol\":6321:6351  ClaimPaid(insuranceID, payout) */\n      mload(0x40)\n      tag_174\n      swap2\n      swap1\n      tag_33\n      jump\t// in\n    tag_174:\n      mload(0x40)\n      dup1\n      swap2\n      sub\n      swap1\n      log2\n        /* \".deps/contract.sol\":6092:6362  {... */\n      pop\n        /* \".deps/contract.sol\":5902:6362  if (ins.TA <= ins.TP + ins.CT) {... */\n    tag_167:\n        /* \".deps/contract.sol\":4753:6368  {... */\n      pop\n        /* \".deps/contract.sol\":2446:2447  _ */\n    tag_131:\n        /* \".deps/contract.sol\":4683:6368  function checkAndClaim(uint256 insuranceID) external payable onlyOwner{... */\n      pop\n      jump\t// out\n        /* \".deps/contract.sol\":267:287  address public owner */\n    tag_62:\n      0x00\n      dup1\n      sload\n      swap1\n      0x0100\n      exp\n      swap1\n      div\n      0xffffffffffffffffffffffffffffffffffffffff\n      and\n      dup2\n      jump\t// out\n        /* \".deps/contract.sol\":4198:4621  function updateFlightInfo(... */\n    tag_68:\n        /* \".deps/contract.sol\":2619:2625  oracle */\n      0x01\n      0x00\n      swap1\n      sload\n      swap1\n      0x0100\n      exp\n      swap1\n      div\n      0xffffffffffffffffffffffffffffffffffffffff\n      and\n        /* \".deps/contract.sol\":2605:2625  msg.sender == oracle */\n      0xffffffffffffffffffffffffffffffffffffffff\n      and\n        /* \".deps/contract.sol\":2605:2615  msg.sender */\n      caller\n        /* \".deps/contract.sol\":2605:2625  msg.sender == oracle */\n      0xffffffffffffffffffffffffffffffffffffffff\n      and\n      eq\n        /* \".deps/contract.sol\":2605:2648  msg.sender == oracle || msg.sender == owner */\n      dup1\n      tag_176\n      jumpi\n      pop\n        /* \".deps/contract.sol\":2643:2648  owner */\n      0x00\n      dup1\n      sload\n      swap1\n      0x0100\n      exp\n      swap1\n      div\n      0xffffffffffffffffffffffffffffffffffffffff\n      and\n        /* \".deps/contract.sol\":2629:2648  msg.sender == owner */\n      0xffffffffffffffffffffffffffffffffffffffff\n      and\n        /* \".deps/contract.sol\":2629:2639  msg.sender */\n      caller\n        /* \".deps/contract.sol\":2629:2648  msg.sender == owner */\n      0xffffffffffffffffffffffffffffffffffffffff\n      and\n      eq\n        /* \".deps/contract.sol\":2605:2648  msg.sender == oracle || msg.sender == owner */\n    tag_176:\n        /* \".deps/contract.sol\":2597:2667  require(msg.sender == oracle || msg.sender == owner, \"Not authorized\") */\n      tag_177\n      jumpi\n      mload(0x40)\n      0x08c379a000000000000000000000000000000000000000000000000000000000\n      dup2\n      mstore\n      0x04\n      add\n      tag_178\n      swap1\n      tag_179\n      jump\t// in\n    tag_178:\n      mload(0x40)\n      dup1\n      swap2\n      sub\n      swap1\n      revert\n    tag_177:\n        /* \".deps/contract.sol\":4371:4392  Insurance storage ins */\n      0x00\n        /* \".deps/contract.sol\":4395:4405  insurances */\n      0x03\n        /* \".deps/contract.sol\":4395:4418  insurances[insuranceID] */\n      0x00\n        /* \".deps/contract.sol\":4406:4417  insuranceID */\n      dup6\n        /* \".deps/contract.sol\":4395:4418  insurances[insuranceID] */\n      dup2\n      mstore\n      0x20\n      add\n      swap1\n      dup2\n      mstore\n      0x20\n      add\n      0x00\n      keccak256\n        /* \".deps/contract.sol\":4371:4418  Insurance storage ins = insurances[insuranceID] */\n      swap1\n      pop\n        /* \".deps/contract.sol\":4450:4463  Status.Active */\n      0x00\n        /* \".deps/contract.sol\":4436:4463  ins.status == Status.Active */\n      0x02\n      dup2\n      gt\n      iszero\n      tag_181\n      jumpi\n      tag_182\n      tag_122\n      jump\t// in\n    tag_182:\n    tag_181:\n        /* \".deps/contract.sol\":4436:4439  ins */\n      dup2\n        /* \".deps/contract.sol\":4436:4446  ins.status */\n      0x09\n      add\n      0x00\n      swap1\n      sload\n      swap1\n      0x0100\n      exp\n      swap1\n      div\n      0xff\n      and\n        /* \".deps/contract.sol\":4436:4463  ins.status == Status.Active */\n      0x02\n      dup2\n      gt\n      iszero\n      tag_183\n      jumpi\n      tag_184\n      tag_122\n      jump\t// in\n    tag_184:\n    tag_183:\n      eq\n        /* \".deps/contract.sol\":4428:4488  require(ins.status == Status.Active, \"Insurance not active\") */\n      tag_185\n      jumpi\n      mload(0x40)\n      0x08c379a000000000000000000000000000000000000000000000000000000000\n      dup2\n      mstore\n      0x04\n      add\n      tag_186\n      swap1\n      tag_138\n      jump\t// in\n    tag_186:\n      mload(0x40)\n      dup1\n      swap2\n      sub\n      swap1\n      revert\n    tag_185:\n        /* \".deps/contract.sol\":4508:4510  TA */\n      dup3\n        /* \".deps/contract.sol\":4499:4502  ins */\n      dup2\n        /* \".deps/contract.sol\":4499:4505  ins.TA */\n      0x04\n      add\n        /* \".deps/contract.sol\":4499:4510  ins.TA = TA */\n      dup2\n      swap1\n      sstore\n      pop\n        /* \".deps/contract.sol\":4539:4551  flightStatus */\n      dup2\n        /* \".deps/contract.sol\":4520:4523  ins */\n      dup2\n        /* \".deps/contract.sol\":4520:4536  ins.flightStatus */\n      0x09\n      add\n      0x02\n        /* \".deps/contract.sol\":4520:4551  ins.flightStatus = flightStatus */\n      0x0100\n      exp\n      dup2\n      sload\n      dup2\n      0xff\n      mul\n      not\n      and\n      swap1\n      dup4\n      0x02\n      dup2\n      gt\n      iszero\n      tag_187\n      jumpi\n      tag_188\n      tag_122\n      jump\t// in\n    tag_188:\n    tag_187:\n      mul\n      or\n      swap1\n      sstore\n      pop\n        /* \".deps/contract.sol\":4584:4595  insuranceID */\n      dup4\n        /* \".deps/contract.sol\":4566:4614  FlightInfoUpdated(insuranceID, TA, flightStatus) */\n      0xefbe4568c3e8b3451436ae01df5e7365a5206dce94e54f32d21eb8b0a85e7f9e\n        /* \".deps/contract.sol\":4597:4599  TA */\n      dup5\n        /* \".deps/contract.sol\":4601:4613  flightStatus */\n      dup5\n        /* \".deps/contract.sol\":4566:4614  FlightInfoUpdated(insuranceID, TA, flightStatus) */\n      mload(0x40)\n      tag_189\n      swap3\n      swap2\n      swap1\n      tag_190\n      jump\t// in\n    tag_189:\n      mload(0x40)\n      dup1\n      swap2\n      sub\n      swap1\n      log2\n        /* \".deps/contract.sol\":4361:4621  {... */\n      pop\n        /* \".deps/contract.sol\":4198:4621  function updateFlightInfo(... */\n      pop\n      pop\n      pop\n      jump\t// out\n        /* \".deps/contract.sol\":1688:1743  mapping(address => uint256[]) public customerInsurances */\n    tag_73:\n      mstore(0x20, 0x04)\n      dup2\n      0x00\n      mstore\n      keccak256(0x00, 0x40)\n      dup2\n      dup2\n      sload\n      dup2\n      lt\n      tag_191\n      jumpi\n      0x00\n      dup1\n      revert\n    tag_191:\n      swap1\n      0x00\n      mstore\n      keccak256(0x00, 0x20)\n      add\n      0x00\n      swap2\n      pop\n      swap2\n      pop\n      pop\n      sload\n      dup2\n      jump\t// out\n        /* \".deps/contract.sol\":1365:1409  uint256 public constant DEFAULT_CT = 4 hours */\n    tag_77:\n        /* \".deps/contract.sol\":1402:1409  4 hours */\n      0x3840\n        /* \".deps/contract.sol\":1365:1409  uint256 public constant DEFAULT_CT = 4 hours */\n      dup2\n      jump\t// out\n        /* \".deps/contract.sol\":1437:1487  uint256 public constant DEFAULT_PREMIUM = 3e17 wei */\n    tag_81:\n        /* \".deps/contract.sol\":1479:1487  3e17 wei */\n      0x0429d069189e0000\n        /* \".deps/contract.sol\":1437:1487  uint256 public constant DEFAULT_PREMIUM = 3e17 wei */\n      dup2\n      jump\t// out\n        /* \"#utility.yul\":88:205   */\n    tag_194:\n        /* \"#utility.yul\":197:198   */\n      0x00\n        /* \"#utility.yul\":194:195   */\n      dup1\n        /* \"#utility.yul\":187:199   */\n      revert\n        /* \"#utility.yul\":211:328   */\n    tag_195:\n        /* \"#utility.yul\":320:321   */\n      0x00\n        /* \"#utility.yul\":317:318   */\n      dup1\n        /* \"#utility.yul\":310:322   */\n      revert\n        /* \"#utility.yul\":334:460   */\n    tag_196:\n        /* \"#utility.yul\":371:378   */\n      0x00\n        /* \"#utility.yul\":411:453   */\n      0xffffffffffffffffffffffffffffffffffffffff\n        /* \"#utility.yul\":404:409   */\n      dup3\n        /* \"#utility.yul\":400:454   */\n      and\n        /* \"#utility.yul\":389:454   */\n      swap1\n      pop\n        /* \"#utility.yul\":334:460   */\n      swap2\n      swap1\n      pop\n      jump\t// out\n        /* \"#utility.yul\":466:562   */\n    tag_197:\n        /* \"#utility.yul\":503:510   */\n      0x00\n        /* \"#utility.yul\":532:556   */\n      tag_277\n        /* \"#utility.yul\":550:555   */\n      dup3\n        /* \"#utility.yul\":532:556   */\n      tag_196\n      jump\t// in\n    tag_277:\n        /* \"#utility.yul\":521:556   */\n      swap1\n      pop\n        /* \"#utility.yul\":466:562   */\n      swap2\n      swap1\n      pop\n      jump\t// out\n        /* \"#utility.yul\":568:690   */\n    tag_198:\n        /* \"#utility.yul\":641:665   */\n      tag_279\n        /* \"#utility.yul\":659:664   */\n      dup2\n        /* \"#utility.yul\":641:665   */\n      tag_197\n      jump\t// in\n    tag_279:\n        /* \"#utility.yul\":634:639   */\n      dup2\n        /* \"#utility.yul\":631:666   */\n      eq\n        /* \"#utility.yul\":621:684   */\n      tag_280\n      jumpi\n        /* \"#utility.yul\":680:681   */\n      0x00\n        /* \"#utility.yul\":677:678   */\n      dup1\n        /* \"#utility.yul\":670:682   */\n      revert\n        /* \"#utility.yul\":621:684   */\n    tag_280:\n        /* \"#utility.yul\":568:690   */\n      pop\n      jump\t// out\n        /* \"#utility.yul\":696:835   */\n    tag_199:\n        /* \"#utility.yul\":742:747   */\n      0x00\n        /* \"#utility.yul\":780:786   */\n      dup2\n        /* \"#utility.yul\":767:787   */\n      calldataload\n        /* \"#utility.yul\":758:787   */\n      swap1\n      pop\n        /* \"#utility.yul\":796:829   */\n      tag_282\n        /* \"#utility.yul\":823:828   */\n      dup2\n        /* \"#utility.yul\":796:829   */\n      tag_198\n      jump\t// in\n    tag_282:\n        /* \"#utility.yul\":696:835   */\n      swap3\n      swap2\n      pop\n      pop\n      jump\t// out\n        /* \"#utility.yul\":841:1170   */\n    tag_25:\n        /* \"#utility.yul\":900:906   */\n      0x00\n        /* \"#utility.yul\":949:951   */\n      0x20\n        /* \"#utility.yul\":937:946   */\n      dup3\n        /* \"#utility.yul\":928:935   */\n      dup5\n        /* \"#utility.yul\":924:947   */\n      sub\n        /* \"#utility.yul\":920:952   */\n      slt\n        /* \"#utility.yul\":917:1036   */\n      iszero\n      tag_284\n      jumpi\n        /* \"#utility.yul\":955:1034   */\n      tag_285\n      tag_194\n      jump\t// in\n    tag_285:\n        /* \"#utility.yul\":917:1036   */\n    tag_284:\n        /* \"#utility.yul\":1075:1076   */\n      0x00\n        /* \"#utility.yul\":1100:1153   */\n      tag_286\n        /* \"#utility.yul\":1145:1152   */\n      dup5\n        /* \"#utility.yul\":1136:1142   */\n      dup3\n        /* \"#utility.yul\":1125:1134   */\n      dup6\n        /* \"#utility.yul\":1121:1143   */\n      add\n        /* \"#utility.yul\":1100:1153   */\n      tag_199\n      jump\t// in\n    tag_286:\n        /* \"#utility.yul\":1090:1153   */\n      swap2\n      pop\n        /* \"#utility.yul\":1046:1163   */\n      pop\n        /* \"#utility.yul\":841:1170   */\n      swap3\n      swap2\n      pop\n      pop\n      jump\t// out\n        /* \"#utility.yul\":1176:1290   */\n    tag_200:\n        /* \"#utility.yul\":1243:1249   */\n      0x00\n        /* \"#utility.yul\":1277:1282   */\n      dup2\n        /* \"#utility.yul\":1271:1283   */\n      mload\n        /* \"#utility.yul\":1261:1283   */\n      swap1\n      pop\n        /* \"#utility.yul\":1176:1290   */\n      swap2\n      swap1\n      pop\n      jump\t// out\n        /* \"#utility.yul\":1296:1480   */\n    tag_201:\n        /* \"#utility.yul\":1395:1406   */\n      0x00\n        /* \"#utility.yul\":1429:1435   */\n      dup3\n        /* \"#utility.yul\":1424:1427   */\n      dup3\n        /* \"#utility.yul\":1417:1436   */\n      mstore\n        /* \"#utility.yul\":1469:1473   */\n      0x20\n        /* \"#utility.yul\":1464:1467   */\n      dup3\n        /* \"#utility.yul\":1460:1474   */\n      add\n        /* \"#utility.yul\":1445:1474   */\n      swap1\n      pop\n        /* \"#utility.yul\":1296:1480   */\n      swap3\n      swap2\n      pop\n      pop\n      jump\t// out\n        /* \"#utility.yul\":1486:1618   */\n    tag_202:\n        /* \"#utility.yul\":1553:1557   */\n      0x00\n        /* \"#utility.yul\":1576:1579   */\n      dup2\n        /* \"#utility.yul\":1568:1579   */\n      swap1\n      pop\n        /* \"#utility.yul\":1606:1610   */\n      0x20\n        /* \"#utility.yul\":1601:1604   */\n      dup3\n        /* \"#utility.yul\":1597:1611   */\n      add\n        /* \"#utility.yul\":1589:1611   */\n      swap1\n      pop\n        /* \"#utility.yul\":1486:1618   */\n      swap2\n      swap1\n      pop\n      jump\t// out\n        /* \"#utility.yul\":1624:1701   */\n    tag_203:\n        /* \"#utility.yul\":1661:1668   */\n      0x00\n        /* \"#utility.yul\":1690:1695   */\n      dup2\n        /* \"#utility.yul\":1679:1695   */\n      swap1\n      pop\n        /* \"#utility.yul\":1624:1701   */\n      swap2\n      swap1\n      pop\n      jump\t// out\n        /* \"#utility.yul\":1707:1815   */\n    tag_204:\n        /* \"#utility.yul\":1784:1808   */\n      tag_292\n        /* \"#utility.yul\":1802:1807   */\n      dup2\n        /* \"#utility.yul\":1784:1808   */\n      tag_203\n      jump\t// in\n    tag_292:\n        /* \"#utility.yul\":1779:1782   */\n      dup3\n        /* \"#utility.yul\":1772:1809   */\n      mstore\n        /* \"#utility.yul\":1707:1815   */\n      pop\n      pop\n      jump\t// out\n        /* \"#utility.yul\":1821:2000   */\n    tag_205:\n        /* \"#utility.yul\":1890:1900   */\n      0x00\n        /* \"#utility.yul\":1911:1957   */\n      tag_294\n        /* \"#utility.yul\":1953:1956   */\n      dup4\n        /* \"#utility.yul\":1945:1951   */\n      dup4\n        /* \"#utility.yul\":1911:1957   */\n      tag_204\n      jump\t// in\n    tag_294:\n        /* \"#utility.yul\":1989:1993   */\n      0x20\n        /* \"#utility.yul\":1984:1987   */\n      dup4\n        /* \"#utility.yul\":1980:1994   */\n      add\n        /* \"#utility.yul\":1966:1994   */\n      swap1\n      pop\n        /* \"#utility.yul\":1821:2000   */\n      swap3\n      swap2\n      pop\n      pop\n      jump\t// out\n        /* \"#utility.yul\":2006:2119   */\n    tag_206:\n        /* \"#utility.yul\":2076:2080   */\n      0x00\n        /* \"#utility.yul\":2108:2112   */\n      0x20\n        /* \"#utility.yul\":2103:2106   */\n      dup3\n        /* \"#utility.yul\":2099:2113   */\n      add\n        /* \"#utility.yul\":2091:2113   */\n      swap1\n      pop\n        /* \"#utility.yul\":2006:2119   */\n      swap2\n      swap1\n      pop\n      jump\t// out\n        /* \"#utility.yul\":2155:2887   */\n    tag_207:\n        /* \"#utility.yul\":2274:2277   */\n      0x00\n        /* \"#utility.yul\":2303:2357   */\n      tag_297\n        /* \"#utility.yul\":2351:2356   */\n      dup3\n        /* \"#utility.yul\":2303:2357   */\n      tag_200\n      jump\t// in\n    tag_297:\n        /* \"#utility.yul\":2373:2459   */\n      tag_298\n        /* \"#utility.yul\":2452:2458   */\n      dup2\n        /* \"#utility.yul\":2447:2450   */\n      dup6\n        /* \"#utility.yul\":2373:2459   */\n      tag_201\n      jump\t// in\n    tag_298:\n        /* \"#utility.yul\":2366:2459   */\n      swap4\n      pop\n        /* \"#utility.yul\":2483:2539   */\n      tag_299\n        /* \"#utility.yul\":2533:2538   */\n      dup4\n        /* \"#utility.yul\":2483:2539   */\n      tag_202\n      jump\t// in\n    tag_299:\n        /* \"#utility.yul\":2562:2569   */\n      dup1\n        /* \"#utility.yul\":2593:2594   */\n      0x00\n        /* \"#utility.yul\":2578:2862   */\n    tag_300:\n        /* \"#utility.yul\":2603:2609   */\n      dup4\n        /* \"#utility.yul\":2600:2601   */\n      dup2\n        /* \"#utility.yul\":2597:2610   */\n      lt\n        /* \"#utility.yul\":2578:2862   */\n      iszero\n      tag_302\n      jumpi\n        /* \"#utility.yul\":2679:2685   */\n      dup2\n        /* \"#utility.yul\":2673:2686   */\n      mload\n        /* \"#utility.yul\":2706:2769   */\n      tag_303\n        /* \"#utility.yul\":2765:2768   */\n      dup9\n        /* \"#utility.yul\":2750:2763   */\n      dup3\n        /* \"#utility.yul\":2706:2769   */\n      tag_205\n      jump\t// in\n    tag_303:\n        /* \"#utility.yul\":2699:2769   */\n      swap8\n      pop\n        /* \"#utility.yul\":2792:2852   */\n      tag_304\n        /* \"#utility.yul\":2845:2851   */\n      dup4\n        /* \"#utility.yul\":2792:2852   */\n      tag_206\n      jump\t// in\n    tag_304:\n        /* \"#utility.yul\":2782:2852   */\n      swap3\n      pop\n        /* \"#utility.yul\":2638:2862   */\n      pop\n        /* \"#utility.yul\":2625:2626   */\n      0x01\n        /* \"#utility.yul\":2622:2623   */\n      dup2\n        /* \"#utility.yul\":2618:2627   */\n      add\n        /* \"#utility.yul\":2613:2627   */\n      swap1\n      pop\n        /* \"#utility.yul\":2578:2862   */\n      jump(tag_300)\n    tag_302:\n        /* \"#utility.yul\":2582:2596   */\n      pop\n        /* \"#utility.yul\":2878:2881   */\n      dup6\n        /* \"#utility.yul\":2871:2881   */\n      swap4\n      pop\n        /* \"#utility.yul\":2279:2887   */\n      pop\n      pop\n      pop\n        /* \"#utility.yul\":2155:2887   */\n      swap3\n      swap2\n      pop\n      pop\n      jump\t// out\n        /* \"#utility.yul\":2893:3266   */\n    tag_28:\n        /* \"#utility.yul\":3036:3040   */\n      0x00\n        /* \"#utility.yul\":3074:3076   */\n      0x20\n        /* \"#utility.yul\":3063:3072   */\n      dup3\n        /* \"#utility.yul\":3059:3077   */\n      add\n        /* \"#utility.yul\":3051:3077   */\n      swap1\n      pop\n        /* \"#utility.yul\":3123:3132   */\n      dup2\n        /* \"#utility.yul\":3117:3121   */\n      dup2\n        /* \"#utility.yul\":3113:3133   */\n      sub\n        /* \"#utility.yul\":3109:3110   */\n      0x00\n        /* \"#utility.yul\":3098:3107   */\n      dup4\n        /* \"#utility.yul\":3094:3111   */\n      add\n        /* \"#utility.yul\":3087:3134   */\n      mstore\n        /* \"#utility.yul\":3151:3259   */\n      tag_306\n        /* \"#utility.yul\":3254:3258   */\n      dup2\n        /* \"#utility.yul\":3245:3251   */\n      dup5\n        /* \"#utility.yul\":3151:3259   */\n      tag_207\n      jump\t// in\n    tag_306:\n        /* \"#utility.yul\":3143:3259   */\n      swap1\n      pop\n        /* \"#utility.yul\":2893:3266   */\n      swap3\n      swap2\n      pop\n      pop\n      jump\t// out\n        /* \"#utility.yul\":3272:3390   */\n    tag_208:\n        /* \"#utility.yul\":3359:3383   */\n      tag_308\n        /* \"#utility.yul\":3377:3382   */\n      dup2\n        /* \"#utility.yul\":3359:3383   */\n      tag_203\n      jump\t// in\n    tag_308:\n        /* \"#utility.yul\":3354:3357   */\n      dup3\n        /* \"#utility.yul\":3347:3384   */\n      mstore\n        /* \"#utility.yul\":3272:3390   */\n      pop\n      pop\n      jump\t// out\n        /* \"#utility.yul\":3396:3618   */\n    tag_33:\n        /* \"#utility.yul\":3489:3493   */\n      0x00\n        /* \"#utility.yul\":3527:3529   */\n      0x20\n        /* \"#utility.yul\":3516:3525   */\n      dup3\n        /* \"#utility.yul\":3512:3530   */\n      add\n        /* \"#utility.yul\":3504:3530   */\n      swap1\n      pop\n        /* \"#utility.yul\":3540:3611   */\n      tag_310\n        /* \"#utility.yul\":3608:3609   */\n      0x00\n        /* \"#utility.yul\":3597:3606   */\n      dup4\n        /* \"#utility.yul\":3593:3610   */\n      add\n        /* \"#utility.yul\":3584:3590   */\n      dup5\n        /* \"#utility.yul\":3540:3611   */\n      tag_208\n      jump\t// in\n    tag_310:\n        /* \"#utility.yul\":3396:3618   */\n      swap3\n      swap2\n      pop\n      pop\n      jump\t// out\n        /* \"#utility.yul\":3624:3746   */\n    tag_209:\n        /* \"#utility.yul\":3697:3721   */\n      tag_312\n        /* \"#utility.yul\":3715:3720   */\n      dup2\n        /* \"#utility.yul\":3697:3721   */\n      tag_203\n      jump\t// in\n    tag_312:\n        /* \"#utility.yul\":3690:3695   */\n      dup2\n        /* \"#utility.yul\":3687:3722   */\n      eq\n        /* \"#utility.yul\":3677:3740   */\n      tag_313\n      jumpi\n        /* \"#utility.yul\":3736:3737   */\n      0x00\n        /* \"#utility.yul\":3733:3734   */\n      dup1\n        /* \"#utility.yul\":3726:3738   */\n      revert\n        /* \"#utility.yul\":3677:3740   */\n    tag_313:\n        /* \"#utility.yul\":3624:3746   */\n      pop\n      jump\t// out\n        /* \"#utility.yul\":3752:3891   */\n    tag_210:\n        /* \"#utility.yul\":3798:3803   */\n      0x00\n        /* \"#utility.yul\":3836:3842   */\n      dup2\n        /* \"#utility.yul\":3823:3843   */\n      calldataload\n        /* \"#utility.yul\":3814:3843   */\n      swap1\n      pop\n        /* \"#utility.yul\":3852:3885   */\n      tag_315\n        /* \"#utility.yul\":3879:3884   */\n      dup2\n        /* \"#utility.yul\":3852:3885   */\n      tag_209\n      jump\t// in\n    tag_315:\n        /* \"#utility.yul\":3752:3891   */\n      swap3\n      swap2\n      pop\n      pop\n      jump\t// out\n        /* \"#utility.yul\":3897:4226   */\n    tag_39:\n        /* \"#utility.yul\":3956:3962   */\n      0x00\n        /* \"#utility.yul\":4005:4007   */\n      0x20\n        /* \"#utility.yul\":3993:4002   */\n      dup3\n        /* \"#utility.yul\":3984:3991   */\n      dup5\n        /* \"#utility.yul\":3980:4003   */\n      sub\n        /* \"#utility.yul\":3976:4008   */\n      slt\n        /* \"#utility.yul\":3973:4092   */\n      iszero\n      tag_317\n      jumpi\n        /* \"#utility.yul\":4011:4090   */\n      tag_318\n      tag_194\n      jump\t// in\n    tag_318:\n        /* \"#utility.yul\":3973:4092   */\n    tag_317:\n        /* \"#utility.yul\":4131:4132   */\n      0x00\n        /* \"#utility.yul\":4156:4209   */\n      tag_319\n        /* \"#utility.yul\":4201:4208   */\n      dup5\n        /* \"#utility.yul\":4192:4198   */\n      dup3\n        /* \"#utility.yul\":4181:4190   */\n      dup6\n        /* \"#utility.yul\":4177:4199   */\n      add\n        /* \"#utility.yul\":4156:4209   */\n      tag_210\n      jump\t// in\n    tag_319:\n        /* \"#utility.yul\":4146:4209   */\n      swap2\n      pop\n        /* \"#utility.yul\":4102:4219   */\n      pop\n        /* \"#utility.yul\":3897:4226   */\n      swap3\n      swap2\n      pop\n      pop\n      jump\t// out\n        /* \"#utility.yul\":4232:4336   */\n    tag_211:\n        /* \"#utility.yul\":4277:4284   */\n      0x00\n        /* \"#utility.yul\":4306:4330   */\n      tag_321\n        /* \"#utility.yul\":4324:4329   */\n      dup3\n        /* \"#utility.yul\":4306:4330   */\n      tag_196\n      jump\t// in\n    tag_321:\n        /* \"#utility.yul\":4295:4330   */\n      swap1\n      pop\n        /* \"#utility.yul\":4232:4336   */\n      swap2\n      swap1\n      pop\n      jump\t// out\n        /* \"#utility.yul\":4342:4484   */\n    tag_212:\n        /* \"#utility.yul\":4445:4477   */\n      tag_323\n        /* \"#utility.yul\":4471:4476   */\n      dup2\n        /* \"#utility.yul\":4445:4477   */\n      tag_211\n      jump\t// in\n    tag_323:\n        /* \"#utility.yul\":4440:4443   */\n      dup3\n        /* \"#utility.yul\":4433:4478   */\n      mstore\n        /* \"#utility.yul\":4342:4484   */\n      pop\n      pop\n      jump\t// out\n        /* \"#utility.yul\":4490:4589   */\n    tag_213:\n        /* \"#utility.yul\":4542:4548   */\n      0x00\n        /* \"#utility.yul\":4576:4581   */\n      dup2\n        /* \"#utility.yul\":4570:4582   */\n      mload\n        /* \"#utility.yul\":4560:4582   */\n      swap1\n      pop\n        /* \"#utility.yul\":4490:4589   */\n      swap2\n      swap1\n      pop\n      jump\t// out\n        /* \"#utility.yul\":4595:4764   */\n    tag_214:\n        /* \"#utility.yul\":4679:4690   */\n      0x00\n        /* \"#utility.yul\":4713:4719   */\n      dup3\n        /* \"#utility.yul\":4708:4711   */\n      dup3\n        /* \"#utility.yul\":4701:4720   */\n      mstore\n        /* \"#utility.yul\":4753:4757   */\n      0x20\n        /* \"#utility.yul\":4748:4751   */\n      dup3\n        /* \"#utility.yul\":4744:4758   */\n      add\n        /* \"#utility.yul\":4729:4758   */\n      swap1\n      pop\n        /* \"#utility.yul\":4595:4764   */\n      swap3\n      swap2\n      pop\n      pop\n      jump\t// out\n        /* \"#utility.yul\":4770:4909   */\n    tag_215:\n        /* \"#utility.yul\":4859:4865   */\n      dup3\n        /* \"#utility.yul\":4854:4857   */\n      dup2\n        /* \"#utility.yul\":4849:4852   */\n      dup4\n        /* \"#utility.yul\":4843:4866   */\n      mcopy\n        /* \"#utility.yul\":4900:4901   */\n      0x00\n        /* \"#utility.yul\":4891:4897   */\n      dup4\n        /* \"#utility.yul\":4886:4889   */\n      dup4\n        /* \"#utility.yul\":4882:4898   */\n      add\n        /* \"#utility.yul\":4875:4902   */\n      mstore\n        /* \"#utility.yul\":4770:4909   */\n      pop\n      pop\n      pop\n      jump\t// out\n        /* \"#utility.yul\":4915:5017   */\n    tag_216:\n        /* \"#utility.yul\":4956:4962   */\n      0x00\n        /* \"#utility.yul\":5007:5009   */\n      0x1f\n        /* \"#utility.yul\":5003:5010   */\n      not\n        /* \"#utility.yul\":4998:5000   */\n      0x1f\n        /* \"#utility.yul\":4991:4996   */\n      dup4\n        /* \"#utility.yul\":4987:5001   */\n      add\n        /* \"#utility.yul\":4983:5011   */\n      and\n        /* \"#utility.yul\":4973:5011   */\n      swap1\n      pop\n        /* \"#utility.yul\":4915:5017   */\n      swap2\n      swap1\n      pop\n      jump\t// out\n        /* \"#utility.yul\":5023:5400   */\n    tag_217:\n        /* \"#utility.yul\":5111:5114   */\n      0x00\n        /* \"#utility.yul\":5139:5178   */\n      tag_329\n        /* \"#utility.yul\":5172:5177   */\n      dup3\n        /* \"#utility.yul\":5139:5178   */\n      tag_213\n      jump\t// in\n    tag_329:\n        /* \"#utility.yul\":5194:5265   */\n      tag_330\n        /* \"#utility.yul\":5258:5264   */\n      dup2\n        /* \"#utility.yul\":5253:5256   */\n      dup6\n        /* \"#utility.yul\":5194:5265   */\n      tag_214\n      jump\t// in\n    tag_330:\n        /* \"#utility.yul\":5187:5265   */\n      swap4\n      pop\n        /* \"#utility.yul\":5274:5339   */\n      tag_331\n        /* \"#utility.yul\":5332:5338   */\n      dup2\n        /* \"#utility.yul\":5327:5330   */\n      dup6\n        /* \"#utility.yul\":5320:5324   */\n      0x20\n        /* \"#utility.yul\":5313:5318   */\n      dup7\n        /* \"#utility.yul\":5309:5325   */\n      add\n        /* \"#utility.yul\":5274:5339   */\n      tag_215\n      jump\t// in\n    tag_331:\n        /* \"#utility.yul\":5364:5393   */\n      tag_332\n        /* \"#utility.yul\":5386:5392   */\n      dup2\n        /* \"#utility.yul\":5364:5393   */\n      tag_216\n      jump\t// in\n    tag_332:\n        /* \"#utility.yul\":5359:5362   */\n      dup5\n        /* \"#utility.yul\":5355:5394   */\n      add\n        /* \"#utility.yul\":5348:5394   */\n      swap2\n      pop\n        /* \"#utility.yul\":5115:5400   */\n      pop\n        /* \"#utility.yul\":5023:5400   */\n      swap3\n      swap2\n      pop\n      pop\n      jump\t// out\n        /* \"#utility.yul\":5406:5586   */\n    tag_122:\n        /* \"#utility.yul\":5454:5531   */\n      0x4e487b7100000000000000000000000000000000000000000000000000000000\n        /* \"#utility.yul\":5451:5452   */\n      0x00\n        /* \"#utility.yul\":5444:5532   */\n      mstore\n        /* \"#utility.yul\":5551:5555   */\n      0x21\n        /* \"#utility.yul\":5548:5549   */\n      0x04\n        /* \"#utility.yul\":5541:5556   */\n      mstore\n        /* \"#utility.yul\":5575:5579   */\n      0x24\n        /* \"#utility.yul\":5572:5573   */\n      0x00\n        /* \"#utility.yul\":5565:5580   */\n      revert\n        /* \"#utility.yul\":5592:5706   */\n    tag_218:\n        /* \"#utility.yul\":5674:5675   */\n      0x03\n        /* \"#utility.yul\":5667:5672   */\n      dup2\n        /* \"#utility.yul\":5664:5676   */\n      lt\n        /* \"#utility.yul\":5654:5700   */\n      tag_335\n      jumpi\n        /* \"#utility.yul\":5680:5698   */\n      tag_336\n      tag_122\n      jump\t// in\n    tag_336:\n        /* \"#utility.yul\":5654:5700   */\n    tag_335:\n        /* \"#utility.yul\":5592:5706   */\n      pop\n      jump\t// out\n        /* \"#utility.yul\":5712:5841   */\n    tag_219:\n        /* \"#utility.yul\":5758:5765   */\n      0x00\n        /* \"#utility.yul\":5787:5792   */\n      dup2\n        /* \"#utility.yul\":5776:5792   */\n      swap1\n      pop\n        /* \"#utility.yul\":5793:5835   */\n      tag_338\n        /* \"#utility.yul\":5829:5834   */\n      dup3\n        /* \"#utility.yul\":5793:5835   */\n      tag_218\n      jump\t// in\n    tag_338:\n        /* \"#utility.yul\":5712:5841   */\n      swap2\n      swap1\n      pop\n      jump\t// out\n        /* \"#utility.yul\":5847:5976   */\n    tag_220:\n        /* \"#utility.yul\":5904:5913   */\n      0x00\n        /* \"#utility.yul\":5937:5970   */\n      tag_340\n        /* \"#utility.yul\":5964:5969   */\n      dup3\n        /* \"#utility.yul\":5937:5970   */\n      tag_219\n      jump\t// in\n    tag_340:\n        /* \"#utility.yul\":5924:5970   */\n      swap1\n      pop\n        /* \"#utility.yul\":5847:5976   */\n      swap2\n      swap1\n      pop\n      jump\t// out\n        /* \"#utility.yul\":5982:6127   */\n    tag_221:\n        /* \"#utility.yul\":6076:6120   */\n      tag_342\n        /* \"#utility.yul\":6114:6119   */\n      dup2\n        /* \"#utility.yul\":6076:6120   */\n      tag_220\n      jump\t// in\n    tag_342:\n        /* \"#utility.yul\":6071:6074   */\n      dup3\n        /* \"#utility.yul\":6064:6121   */\n      mstore\n        /* \"#utility.yul\":5982:6127   */\n      pop\n      pop\n      jump\t// out\n        /* \"#utility.yul\":6133:6252   */\n    tag_222:\n        /* \"#utility.yul\":6220:6221   */\n      0x03\n        /* \"#utility.yul\":6213:6218   */\n      dup2\n        /* \"#utility.yul\":6210:6222   */\n      lt\n        /* \"#utility.yul\":6200:6246   */\n      tag_344\n      jumpi\n        /* \"#utility.yul\":6226:6244   */\n      tag_345\n      tag_122\n      jump\t// in\n    tag_345:\n        /* \"#utility.yul\":6200:6246   */\n    tag_344:\n        /* \"#utility.yul\":6133:6252   */\n      pop\n      jump\t// out\n        /* \"#utility.yul\":6258:6397   */\n    tag_223:\n        /* \"#utility.yul\":6309:6316   */\n      0x00\n        /* \"#utility.yul\":6338:6343   */\n      dup2\n        /* \"#utility.yul\":6327:6343   */\n      swap1\n      pop\n        /* \"#utility.yul\":6344:6391   */\n      tag_347\n        /* \"#utility.yul\":6385:6390   */\n      dup3\n        /* \"#utility.yul\":6344:6391   */\n      tag_222\n      jump\t// in\n    tag_347:\n        /* \"#utility.yul\":6258:6397   */\n      swap2\n      swap1\n      pop\n      jump\t// out\n        /* \"#utility.yul\":6403:6542   */\n    tag_224:\n        /* \"#utility.yul\":6465:6474   */\n      0x00\n        /* \"#utility.yul\":6498:6536   */\n      tag_349\n        /* \"#utility.yul\":6530:6535   */\n      dup3\n        /* \"#utility.yul\":6498:6536   */\n      tag_223\n      jump\t// in\n    tag_349:\n        /* \"#utility.yul\":6485:6536   */\n      swap1\n      pop\n        /* \"#utility.yul\":6403:6542   */\n      swap2\n      swap1\n      pop\n      jump\t// out\n        /* \"#utility.yul\":6548:6703   */\n    tag_225:\n        /* \"#utility.yul\":6647:6696   */\n      tag_351\n        /* \"#utility.yul\":6690:6695   */\n      dup2\n        /* \"#utility.yul\":6647:6696   */\n      tag_224\n      jump\t// in\n    tag_351:\n        /* \"#utility.yul\":6642:6645   */\n      dup3\n        /* \"#utility.yul\":6635:6697   */\n      mstore\n        /* \"#utility.yul\":6548:6703   */\n      pop\n      pop\n      jump\t// out\n        /* \"#utility.yul\":6709:6829   */\n    tag_226:\n        /* \"#utility.yul\":6797:6798   */\n      0x03\n        /* \"#utility.yul\":6790:6795   */\n      dup2\n        /* \"#utility.yul\":6787:6799   */\n      lt\n        /* \"#utility.yul\":6777:6823   */\n      tag_353\n      jumpi\n        /* \"#utility.yul\":6803:6821   */\n      tag_354\n      tag_122\n      jump\t// in\n    tag_354:\n        /* \"#utility.yul\":6777:6823   */\n    tag_353:\n        /* \"#utility.yul\":6709:6829   */\n      pop\n      jump\t// out\n        /* \"#utility.yul\":6835:6976   */\n    tag_227:\n        /* \"#utility.yul\":6887:6894   */\n      0x00\n        /* \"#utility.yul\":6916:6921   */\n      dup2\n        /* \"#utility.yul\":6905:6921   */\n      swap1\n      pop\n        /* \"#utility.yul\":6922:6970   */\n      tag_356\n        /* \"#utility.yul\":6964:6969   */\n      dup3\n        /* \"#utility.yul\":6922:6970   */\n      tag_226\n      jump\t// in\n    tag_356:\n        /* \"#utility.yul\":6835:6976   */\n      swap2\n      swap1\n      pop\n      jump\t// out\n        /* \"#utility.yul\":6982:7123   */\n    tag_228:\n        /* \"#utility.yul\":7045:7054   */\n      0x00\n        /* \"#utility.yul\":7078:7117   */\n      tag_358\n        /* \"#utility.yul\":7111:7116   */\n      dup3\n        /* \"#utility.yul\":7078:7117   */\n      tag_227\n      jump\t// in\n    tag_358:\n        /* \"#utility.yul\":7065:7117   */\n      swap1\n      pop\n        /* \"#utility.yul\":6982:7123   */\n      swap2\n      swap1\n      pop\n      jump\t// out\n        /* \"#utility.yul\":7129:7286   */\n    tag_229:\n        /* \"#utility.yul\":7229:7279   */\n      tag_360\n        /* \"#utility.yul\":7273:7278   */\n      dup2\n        /* \"#utility.yul\":7229:7279   */\n      tag_228\n      jump\t// in\n    tag_360:\n        /* \"#utility.yul\":7224:7227   */\n      dup3\n        /* \"#utility.yul\":7217:7280   */\n      mstore\n        /* \"#utility.yul\":7129:7286   */\n      pop\n      pop\n      jump\t// out\n        /* \"#utility.yul\":7292:8924   */\n    tag_42:\n        /* \"#utility.yul\":7763:7767   */\n      0x00\n        /* \"#utility.yul\":7801:7804   */\n      0x0180\n        /* \"#utility.yul\":7790:7799   */\n      dup3\n        /* \"#utility.yul\":7786:7805   */\n      add\n        /* \"#utility.yul\":7778:7805   */\n      swap1\n      pop\n        /* \"#utility.yul\":7815:7902   */\n      tag_362\n        /* \"#utility.yul\":7899:7900   */\n      0x00\n        /* \"#utility.yul\":7888:7897   */\n      dup4\n        /* \"#utility.yul\":7884:7901   */\n      add\n        /* \"#utility.yul\":7875:7881   */\n      dup16\n        /* \"#utility.yul\":7815:7902   */\n      tag_212\n      jump\t// in\n    tag_362:\n        /* \"#utility.yul\":7949:7958   */\n      dup2\n        /* \"#utility.yul\":7943:7947   */\n      dup2\n        /* \"#utility.yul\":7939:7959   */\n      sub\n        /* \"#utility.yul\":7934:7936   */\n      0x20\n        /* \"#utility.yul\":7923:7932   */\n      dup4\n        /* \"#utility.yul\":7919:7937   */\n      add\n        /* \"#utility.yul\":7912:7960   */\n      mstore\n        /* \"#utility.yul\":7977:8055   */\n      tag_363\n        /* \"#utility.yul\":8050:8054   */\n      dup2\n        /* \"#utility.yul\":8041:8047   */\n      dup15\n        /* \"#utility.yul\":7977:8055   */\n      tag_217\n      jump\t// in\n    tag_363:\n        /* \"#utility.yul\":7969:8055   */\n      swap1\n      pop\n        /* \"#utility.yul\":8065:8137   */\n      tag_364\n        /* \"#utility.yul\":8133:8135   */\n      0x40\n        /* \"#utility.yul\":8122:8131   */\n      dup4\n        /* \"#utility.yul\":8118:8136   */\n      add\n        /* \"#utility.yul\":8109:8115   */\n      dup14\n        /* \"#utility.yul\":8065:8137   */\n      tag_208\n      jump\t// in\n    tag_364:\n        /* \"#utility.yul\":8147:8219   */\n      tag_365\n        /* \"#utility.yul\":8215:8217   */\n      0x60\n        /* \"#utility.yul\":8204:8213   */\n      dup4\n        /* \"#utility.yul\":8200:8218   */\n      add\n        /* \"#utility.yul\":8191:8197   */\n      dup13\n        /* \"#utility.yul\":8147:8219   */\n      tag_208\n      jump\t// in\n    tag_365:\n        /* \"#utility.yul\":8229:8302   */\n      tag_366\n        /* \"#utility.yul\":8297:8300   */\n      0x80\n        /* \"#utility.yul\":8286:8295   */\n      dup4\n        /* \"#utility.yul\":8282:8301   */\n      add\n        /* \"#utility.yul\":8273:8279   */\n      dup12\n        /* \"#utility.yul\":8229:8302   */\n      tag_208\n      jump\t// in\n    tag_366:\n        /* \"#utility.yul\":8312:8385   */\n      tag_367\n        /* \"#utility.yul\":8380:8383   */\n      0xa0\n        /* \"#utility.yul\":8369:8378   */\n      dup4\n        /* \"#utility.yul\":8365:8384   */\n      add\n        /* \"#utility.yul\":8356:8362   */\n      dup11\n        /* \"#utility.yul\":8312:8385   */\n      tag_208\n      jump\t// in\n    tag_367:\n        /* \"#utility.yul\":8395:8468   */\n      tag_368\n        /* \"#utility.yul\":8463:8466   */\n      0xc0\n        /* \"#utility.yul\":8452:8461   */\n      dup4\n        /* \"#utility.yul\":8448:8467   */\n      add\n        /* \"#utility.yul\":8439:8445   */\n      dup10\n        /* \"#utility.yul\":8395:8468   */\n      tag_208\n      jump\t// in\n    tag_368:\n        /* \"#utility.yul\":8478:8551   */\n      tag_369\n        /* \"#utility.yul\":8546:8549   */\n      0xe0\n        /* \"#utility.yul\":8535:8544   */\n      dup4\n        /* \"#utility.yul\":8531:8550   */\n      add\n        /* \"#utility.yul\":8522:8528   */\n      dup9\n        /* \"#utility.yul\":8478:8551   */\n      tag_208\n      jump\t// in\n    tag_369:\n        /* \"#utility.yul\":8561:8634   */\n      tag_370\n        /* \"#utility.yul\":8629:8632   */\n      0x0100\n        /* \"#utility.yul\":8618:8627   */\n      dup4\n        /* \"#utility.yul\":8614:8633   */\n      add\n        /* \"#utility.yul\":8605:8611   */\n      dup8\n        /* \"#utility.yul\":8561:8634   */\n      tag_208\n      jump\t// in\n    tag_370:\n        /* \"#utility.yul\":8644:8724   */\n      tag_371\n        /* \"#utility.yul\":8719:8722   */\n      0x0120\n        /* \"#utility.yul\":8708:8717   */\n      dup4\n        /* \"#utility.yul\":8704:8723   */\n      add\n        /* \"#utility.yul\":8695:8701   */\n      dup7\n        /* \"#utility.yul\":8644:8724   */\n      tag_221\n      jump\t// in\n    tag_371:\n        /* \"#utility.yul\":8734:8820   */\n      tag_372\n        /* \"#utility.yul\":8815:8818   */\n      0x0140\n        /* \"#utility.yul\":8804:8813   */\n      dup4\n        /* \"#utility.yul\":8800:8819   */\n      add\n        /* \"#utility.yul\":8790:8797   */\n      dup6\n        /* \"#utility.yul\":8734:8820   */\n      tag_225\n      jump\t// in\n    tag_372:\n        /* \"#utility.yul\":8830:8917   */\n      tag_373\n        /* \"#utility.yul\":8912:8915   */\n      0x0160\n        /* \"#utility.yul\":8901:8910   */\n      dup4\n        /* \"#utility.yul\":8897:8916   */\n      add\n        /* \"#utility.yul\":8887:8894   */\n      dup5\n        /* \"#utility.yul\":8830:8917   */\n      tag_229\n      jump\t// in\n    tag_373:\n        /* \"#utility.yul\":7292:8924   */\n      swap14\n      swap13\n      pop\n      pop\n      pop\n      pop\n      pop\n      pop\n      pop\n      pop\n      pop\n      pop\n      pop\n      pop\n      pop\n      jump\t// out\n        /* \"#utility.yul\":8930:9048   */\n    tag_230:\n        /* \"#utility.yul\":9017:9041   */\n      tag_375\n        /* \"#utility.yul\":9035:9040   */\n      dup2\n        /* \"#utility.yul\":9017:9041   */\n      tag_197\n      jump\t// in\n    tag_375:\n        /* \"#utility.yul\":9012:9015   */\n      dup3\n        /* \"#utility.yul\":9005:9042   */\n      mstore\n        /* \"#utility.yul\":8930:9048   */\n      pop\n      pop\n      jump\t// out\n        /* \"#utility.yul\":9054:9276   */\n    tag_51:\n        /* \"#utility.yul\":9147:9151   */\n      0x00\n        /* \"#utility.yul\":9185:9187   */\n      0x20\n        /* \"#utility.yul\":9174:9183   */\n      dup3\n        /* \"#utility.yul\":9170:9188   */\n      add\n        /* \"#utility.yul\":9162:9188   */\n      swap1\n      pop\n        /* \"#utility.yul\":9198:9269   */\n      tag_377\n        /* \"#utility.yul\":9266:9267   */\n      0x00\n        /* \"#utility.yul\":9255:9264   */\n      dup4\n        /* \"#utility.yul\":9251:9268   */\n      add\n        /* \"#utility.yul\":9242:9248   */\n      dup5\n        /* \"#utility.yul\":9198:9269   */\n      tag_230\n      jump\t// in\n    tag_377:\n        /* \"#utility.yul\":9054:9276   */\n      swap3\n      swap2\n      pop\n      pop\n      jump\t// out\n        /* \"#utility.yul\":9282:9399   */\n    tag_231:\n        /* \"#utility.yul\":9391:9392   */\n      0x00\n        /* \"#utility.yul\":9388:9389   */\n      dup1\n        /* \"#utility.yul\":9381:9393   */\n      revert\n        /* \"#utility.yul\":9405:9522   */\n    tag_232:\n        /* \"#utility.yul\":9514:9515   */\n      0x00\n        /* \"#utility.yul\":9511:9512   */\n      dup1\n        /* \"#utility.yul\":9504:9516   */\n      revert\n        /* \"#utility.yul\":9528:9645   */\n    tag_233:\n        /* \"#utility.yul\":9637:9638   */\n      0x00\n        /* \"#utility.yul\":9634:9635   */\n      dup1\n        /* \"#utility.yul\":9627:9639   */\n      revert\n        /* \"#utility.yul\":9665:10218   */\n    tag_234:\n        /* \"#utility.yul\":9723:9731   */\n      0x00\n        /* \"#utility.yul\":9733:9739   */\n      dup1\n        /* \"#utility.yul\":9783:9786   */\n      dup4\n        /* \"#utility.yul\":9776:9780   */\n      0x1f\n        /* \"#utility.yul\":9768:9774   */\n      dup5\n        /* \"#utility.yul\":9764:9781   */\n      add\n        /* \"#utility.yul\":9760:9787   */\n      slt\n        /* \"#utility.yul\":9750:9872   */\n      tag_382\n      jumpi\n        /* \"#utility.yul\":9791:9870   */\n      tag_383\n      tag_231\n      jump\t// in\n    tag_383:\n        /* \"#utility.yul\":9750:9872   */\n    tag_382:\n        /* \"#utility.yul\":9904:9910   */\n      dup3\n        /* \"#utility.yul\":9891:9911   */\n      calldataload\n        /* \"#utility.yul\":9881:9911   */\n      swap1\n      pop\n        /* \"#utility.yul\":9934:9952   */\n      0xffffffffffffffff\n        /* \"#utility.yul\":9926:9932   */\n      dup2\n        /* \"#utility.yul\":9923:9953   */\n      gt\n        /* \"#utility.yul\":9920:10037   */\n      iszero\n      tag_384\n      jumpi\n        /* \"#utility.yul\":9956:10035   */\n      tag_385\n      tag_232\n      jump\t// in\n    tag_385:\n        /* \"#utility.yul\":9920:10037   */\n    tag_384:\n        /* \"#utility.yul\":10070:10074   */\n      0x20\n        /* \"#utility.yul\":10062:10068   */\n      dup4\n        /* \"#utility.yul\":10058:10075   */\n      add\n        /* \"#utility.yul\":10046:10075   */\n      swap2\n      pop\n        /* \"#utility.yul\":10124:10127   */\n      dup4\n        /* \"#utility.yul\":10116:10120   */\n      0x01\n        /* \"#utility.yul\":10108:10114   */\n      dup3\n        /* \"#utility.yul\":10104:10121   */\n      mul\n        /* \"#utility.yul\":10094:10102   */\n      dup4\n        /* \"#utility.yul\":10090:10122   */\n      add\n        /* \"#utility.yul\":10087:10128   */\n      gt\n        /* \"#utility.yul\":10084:10212   */\n      iszero\n      tag_386\n      jumpi\n        /* \"#utility.yul\":10131:10210   */\n      tag_387\n      tag_233\n      jump\t// in\n    tag_387:\n        /* \"#utility.yul\":10084:10212   */\n    tag_386:\n        /* \"#utility.yul\":9665:10218   */\n      swap3\n      pop\n      swap3\n      swap1\n      pop\n      jump\t// out\n        /* \"#utility.yul\":10224:11043   */\n    tag_54:\n        /* \"#utility.yul\":10313:10319   */\n      0x00\n        /* \"#utility.yul\":10321:10327   */\n      dup1\n        /* \"#utility.yul\":10329:10335   */\n      0x00\n        /* \"#utility.yul\":10337:10343   */\n      dup1\n        /* \"#utility.yul\":10386:10388   */\n      0x60\n        /* \"#utility.yul\":10374:10383   */\n      dup6\n        /* \"#utility.yul\":10365:10372   */\n      dup8\n        /* \"#utility.yul\":10361:10384   */\n      sub\n        /* \"#utility.yul\":10357:10389   */\n      slt\n        /* \"#utility.yul\":10354:10473   */\n      iszero\n      tag_389\n      jumpi\n        /* \"#utility.yul\":10392:10471   */\n      tag_390\n      tag_194\n      jump\t// in\n    tag_390:\n        /* \"#utility.yul\":10354:10473   */\n    tag_389:\n        /* \"#utility.yul\":10540:10541   */\n      0x00\n        /* \"#utility.yul\":10529:10538   */\n      dup6\n        /* \"#utility.yul\":10525:10542   */\n      add\n        /* \"#utility.yul\":10512:10543   */\n      calldataload\n        /* \"#utility.yul\":10570:10588   */\n      0xffffffffffffffff\n        /* \"#utility.yul\":10562:10568   */\n      dup2\n        /* \"#utility.yul\":10559:10589   */\n      gt\n        /* \"#utility.yul\":10556:10673   */\n      iszero\n      tag_391\n      jumpi\n        /* \"#utility.yul\":10592:10671   */\n      tag_392\n      tag_195\n      jump\t// in\n    tag_392:\n        /* \"#utility.yul\":10556:10673   */\n    tag_391:\n        /* \"#utility.yul\":10705:10770   */\n      tag_393\n        /* \"#utility.yul\":10762:10769   */\n      dup8\n        /* \"#utility.yul\":10753:10759   */\n      dup3\n        /* \"#utility.yul\":10742:10751   */\n      dup9\n        /* \"#utility.yul\":10738:10760   */\n      add\n        /* \"#utility.yul\":10705:10770   */\n      tag_234\n      jump\t// in\n    tag_393:\n        /* \"#utility.yul\":10687:10770   */\n      swap5\n      pop\n      swap5\n      pop\n        /* \"#utility.yul\":10483:10780   */\n      pop\n        /* \"#utility.yul\":10819:10821   */\n      0x20\n        /* \"#utility.yul\":10845:10898   */\n      tag_394\n        /* \"#utility.yul\":10890:10897   */\n      dup8\n        /* \"#utility.yul\":10881:10887   */\n      dup3\n        /* \"#utility.yul\":10870:10879   */\n      dup9\n        /* \"#utility.yul\":10866:10888   */\n      add\n        /* \"#utility.yul\":10845:10898   */\n      tag_210\n      jump\t// in\n    tag_394:\n        /* \"#utility.yul\":10835:10898   */\n      swap3\n      pop\n        /* \"#utility.yul\":10790:10908   */\n      pop\n        /* \"#utility.yul\":10947:10949   */\n      0x40\n        /* \"#utility.yul\":10973:11026   */\n      tag_395\n        /* \"#utility.yul\":11018:11025   */\n      dup8\n        /* \"#utility.yul\":11009:11015   */\n      dup3\n        /* \"#utility.yul\":10998:11007   */\n      dup9\n        /* \"#utility.yul\":10994:11016   */\n      add\n        /* \"#utility.yul\":10973:11026   */\n      tag_210\n      jump\t// in\n    tag_395:\n        /* \"#utility.yul\":10963:11026   */\n      swap2\n      pop\n        /* \"#utility.yul\":10918:11036   */\n      pop\n        /* \"#utility.yul\":10224:11043   */\n      swap3\n      swap6\n      swap2\n      swap5\n      pop\n      swap3\n      pop\n      jump\t// out\n        /* \"#utility.yul\":11049:11163   */\n    tag_235:\n        /* \"#utility.yul\":11137:11138   */\n      0x03\n        /* \"#utility.yul\":11130:11135   */\n      dup2\n        /* \"#utility.yul\":11127:11139   */\n      lt\n        /* \"#utility.yul\":11117:11157   */\n      tag_397\n      jumpi\n        /* \"#utility.yul\":11153:11154   */\n      0x00\n        /* \"#utility.yul\":11150:11151   */\n      dup1\n        /* \"#utility.yul\":11143:11155   */\n      revert\n        /* \"#utility.yul\":11117:11157   */\n    tag_397:\n        /* \"#utility.yul\":11049:11163   */\n      pop\n      jump\t// out\n        /* \"#utility.yul\":11169:11338   */\n    tag_236:\n        /* \"#utility.yul\":11230:11235   */\n      0x00\n        /* \"#utility.yul\":11268:11274   */\n      dup2\n        /* \"#utility.yul\":11255:11275   */\n      calldataload\n        /* \"#utility.yul\":11246:11275   */\n      swap1\n      pop\n        /* \"#utility.yul\":11284:11332   */\n      tag_399\n        /* \"#utility.yul\":11326:11331   */\n      dup2\n        /* \"#utility.yul\":11284:11332   */\n      tag_235\n      jump\t// in\n    tag_399:\n        /* \"#utility.yul\":11169:11338   */\n      swap3\n      swap2\n      pop\n      pop\n      jump\t// out\n        /* \"#utility.yul\":11344:11993   */\n    tag_67:\n        /* \"#utility.yul\":11436:11442   */\n      0x00\n        /* \"#utility.yul\":11444:11450   */\n      dup1\n        /* \"#utility.yul\":11452:11458   */\n      0x00\n        /* \"#utility.yul\":11501:11503   */\n      0x60\n        /* \"#utility.yul\":11489:11498   */\n      dup5\n        /* \"#utility.yul\":11480:11487   */\n      dup7\n        /* \"#utility.yul\":11476:11499   */\n      sub\n        /* \"#utility.yul\":11472:11504   */\n      slt\n        /* \"#utility.yul\":11469:11588   */\n      iszero\n      tag_401\n      jumpi\n        /* \"#utility.yul\":11507:11586   */\n      tag_402\n      tag_194\n      jump\t// in\n    tag_402:\n        /* \"#utility.yul\":11469:11588   */\n    tag_401:\n        /* \"#utility.yul\":11627:11628   */\n      0x00\n        /* \"#utility.yul\":11652:11705   */\n      tag_403\n        /* \"#utility.yul\":11697:11704   */\n      dup7\n        /* \"#utility.yul\":11688:11694   */\n      dup3\n        /* \"#utility.yul\":11677:11686   */\n      dup8\n        /* \"#utility.yul\":11673:11695   */\n      add\n        /* \"#utility.yul\":11652:11705   */\n      tag_210\n      jump\t// in\n    tag_403:\n        /* \"#utility.yul\":11642:11705   */\n      swap4\n      pop\n        /* \"#utility.yul\":11598:11715   */\n      pop\n        /* \"#utility.yul\":11754:11756   */\n      0x20\n        /* \"#utility.yul\":11780:11833   */\n      tag_404\n        /* \"#utility.yul\":11825:11832   */\n      dup7\n        /* \"#utility.yul\":11816:11822   */\n      dup3\n        /* \"#utility.yul\":11805:11814   */\n      dup8\n        /* \"#utility.yul\":11801:11823   */\n      add\n        /* \"#utility.yul\":11780:11833   */\n      tag_210\n      jump\t// in\n    tag_404:\n        /* \"#utility.yul\":11770:11833   */\n      swap3\n      pop\n        /* \"#utility.yul\":11725:11843   */\n      pop\n        /* \"#utility.yul\":11882:11884   */\n      0x40\n        /* \"#utility.yul\":11908:11976   */\n      tag_405\n        /* \"#utility.yul\":11968:11975   */\n      dup7\n        /* \"#utility.yul\":11959:11965   */\n      dup3\n        /* \"#utility.yul\":11948:11957   */\n      dup8\n        /* \"#utility.yul\":11944:11966   */\n      add\n        /* \"#utility.yul\":11908:11976   */\n      tag_236\n      jump\t// in\n    tag_405:\n        /* \"#utility.yul\":11898:11976   */\n      swap2\n      pop\n        /* \"#utility.yul\":11853:11986   */\n      pop\n        /* \"#utility.yul\":11344:11993   */\n      swap3\n      pop\n      swap3\n      pop\n      swap3\n      jump\t// out\n        /* \"#utility.yul\":11999:12473   */\n    tag_72:\n        /* \"#utility.yul\":12067:12073   */\n      0x00\n        /* \"#utility.yul\":12075:12081   */\n      dup1\n        /* \"#utility.yul\":12124:12126   */\n      0x40\n        /* \"#utility.yul\":12112:12121   */\n      dup4\n        /* \"#utility.yul\":12103:12110   */\n      dup6\n        /* \"#utility.yul\":12099:12122   */\n      sub\n        /* \"#utility.yul\":12095:12127   */\n      slt\n        /* \"#utility.yul\":12092:12211   */\n      iszero\n      tag_407\n      jumpi\n        /* \"#utility.yul\":12130:12209   */\n      tag_408\n      tag_194\n      jump\t// in\n    tag_408:\n        /* \"#utility.yul\":12092:12211   */\n    tag_407:\n        /* \"#utility.yul\":12250:12251   */\n      0x00\n        /* \"#utility.yul\":12275:12328   */\n      tag_409\n        /* \"#utility.yul\":12320:12327   */\n      dup6\n        /* \"#utility.yul\":12311:12317   */\n      dup3\n        /* \"#utility.yul\":12300:12309   */\n      dup7\n        /* \"#utility.yul\":12296:12318   */\n      add\n        /* \"#utility.yul\":12275:12328   */\n      tag_199\n      jump\t// in\n    tag_409:\n        /* \"#utility.yul\":12265:12328   */\n      swap3\n      pop\n        /* \"#utility.yul\":12221:12338   */\n      pop\n        /* \"#utility.yul\":12377:12379   */\n      0x20\n        /* \"#utility.yul\":12403:12456   */\n      tag_410\n        /* \"#utility.yul\":12448:12455   */\n      dup6\n        /* \"#utility.yul\":12439:12445   */\n      dup3\n        /* \"#utility.yul\":12428:12437   */\n      dup7\n        /* \"#utility.yul\":12424:12446   */\n      add\n        /* \"#utility.yul\":12403:12456   */\n      tag_210\n      jump\t// in\n    tag_410:\n        /* \"#utility.yul\":12393:12456   */\n      swap2\n      pop\n        /* \"#utility.yul\":12348:12466   */\n      pop\n        /* \"#utility.yul\":11999:12473   */\n      swap3\n      pop\n      swap3\n      swap1\n      pop\n      jump\t// out\n        /* \"#utility.yul\":12479:12639   */\n    tag_237:\n        /* \"#utility.yul\":12619:12631   */\n      0x4f776e6572206f6e6c7900000000000000000000000000000000000000000000\n        /* \"#utility.yul\":12615:12616   */\n      0x00\n        /* \"#utility.yul\":12607:12613   */\n      dup3\n        /* \"#utility.yul\":12603:12617   */\n      add\n        /* \"#utility.yul\":12596:12632   */\n      mstore\n        /* \"#utility.yul\":12479:12639   */\n      pop\n      jump\t// out\n        /* \"#utility.yul\":12645:13011   */\n    tag_238:\n        /* \"#utility.yul\":12787:12790   */\n      0x00\n        /* \"#utility.yul\":12808:12875   */\n      tag_413\n        /* \"#utility.yul\":12872:12874   */\n      0x0a\n        /* \"#utility.yul\":12867:12870   */\n      dup4\n        /* \"#utility.yul\":12808:12875   */\n      tag_214\n      jump\t// in\n    tag_413:\n        /* \"#utility.yul\":12801:12875   */\n      swap2\n      pop\n        /* \"#utility.yul\":12884:12977   */\n      tag_414\n        /* \"#utility.yul\":12973:12976   */\n      dup3\n        /* \"#utility.yul\":12884:12977   */\n      tag_237\n      jump\t// in\n    tag_414:\n        /* \"#utility.yul\":13002:13004   */\n      0x20\n        /* \"#utility.yul\":12997:13000   */\n      dup3\n        /* \"#utility.yul\":12993:13005   */\n      add\n        /* \"#utility.yul\":12986:13005   */\n      swap1\n      pop\n        /* \"#utility.yul\":12645:13011   */\n      swap2\n      swap1\n      pop\n      jump\t// out\n        /* \"#utility.yul\":13017:13436   */\n    tag_89:\n        /* \"#utility.yul\":13183:13187   */\n      0x00\n        /* \"#utility.yul\":13221:13223   */\n      0x20\n        /* \"#utility.yul\":13210:13219   */\n      dup3\n        /* \"#utility.yul\":13206:13224   */\n      add\n        /* \"#utility.yul\":13198:13224   */\n      swap1\n      pop\n        /* \"#utility.yul\":13270:13279   */\n      dup2\n        /* \"#utility.yul\":13264:13268   */\n      dup2\n        /* \"#utility.yul\":13260:13280   */\n      sub\n        /* \"#utility.yul\":13256:13257   */\n      0x00\n        /* \"#utility.yul\":13245:13254   */\n      dup4\n        /* \"#utility.yul\":13241:13258   */\n      add\n        /* \"#utility.yul\":13234:13281   */\n      mstore\n        /* \"#utility.yul\":13298:13429   */\n      tag_416\n        /* \"#utility.yul\":13424:13428   */\n      dup2\n        /* \"#utility.yul\":13298:13429   */\n      tag_238\n      jump\t// in\n    tag_416:\n        /* \"#utility.yul\":13290:13429   */\n      swap1\n      pop\n        /* \"#utility.yul\":13017:13436   */\n      swap2\n      swap1\n      pop\n      jump\t// out\n        /* \"#utility.yul\":13442:13589   */\n    tag_239:\n        /* \"#utility.yul\":13543:13554   */\n      0x00\n        /* \"#utility.yul\":13580:13583   */\n      dup2\n        /* \"#utility.yul\":13565:13583   */\n      swap1\n      pop\n        /* \"#utility.yul\":13442:13589   */\n      swap3\n      swap2\n      pop\n      pop\n      jump\t// out\n        /* \"#utility.yul\":13595:13709   */\n    tag_240:\n      pop\n      jump\t// out\n        /* \"#utility.yul\":13715:14113   */\n    tag_241:\n        /* \"#utility.yul\":13874:13877   */\n      0x00\n        /* \"#utility.yul\":13895:13978   */\n      tag_420\n        /* \"#utility.yul\":13976:13977   */\n      0x00\n        /* \"#utility.yul\":13971:13974   */\n      dup4\n        /* \"#utility.yul\":13895:13978   */\n      tag_239\n      jump\t// in\n    tag_420:\n        /* \"#utility.yul\":13888:13978   */\n      swap2\n      pop\n        /* \"#utility.yul\":13987:14080   */\n      tag_421\n        /* \"#utility.yul\":14076:14079   */\n      dup3\n        /* \"#utility.yul\":13987:14080   */\n      tag_240\n      jump\t// in\n    tag_421:\n        /* \"#utility.yul\":14105:14106   */\n      0x00\n        /* \"#utility.yul\":14100:14103   */\n      dup3\n        /* \"#utility.yul\":14096:14107   */\n      add\n        /* \"#utility.yul\":14089:14107   */\n      swap1\n      pop\n        /* \"#utility.yul\":13715:14113   */\n      swap2\n      swap1\n      pop\n      jump\t// out\n        /* \"#utility.yul\":14119:14498   */\n    tag_92:\n        /* \"#utility.yul\":14303:14306   */\n      0x00\n        /* \"#utility.yul\":14325:14472   */\n      tag_423\n        /* \"#utility.yul\":14468:14471   */\n      dup3\n        /* \"#utility.yul\":14325:14472   */\n      tag_241\n      jump\t// in\n    tag_423:\n        /* \"#utility.yul\":14318:14472   */\n      swap2\n      pop\n        /* \"#utility.yul\":14489:14492   */\n      dup2\n        /* \"#utility.yul\":14482:14492   */\n      swap1\n      pop\n        /* \"#utility.yul\":14119:14498   */\n      swap2\n      swap1\n      pop\n      jump\t// out\n        /* \"#utility.yul\":14504:14671   */\n    tag_242:\n        /* \"#utility.yul\":14644:14663   */\n      0x5769746864726177204661696c65642021000000000000000000000000000000\n        /* \"#utility.yul\":14640:14641   */\n      0x00\n        /* \"#utility.yul\":14632:14638   */\n      dup3\n        /* \"#utility.yul\":14628:14642   */\n      add\n        /* \"#utility.yul\":14621:14664   */\n      mstore\n        /* \"#utility.yul\":14504:14671   */\n      pop\n      jump\t// out\n        /* \"#utility.yul\":14677:15043   */\n    tag_243:\n        /* \"#utility.yul\":14819:14822   */\n      0x00\n        /* \"#utility.yul\":14840:14907   */\n      tag_426\n        /* \"#utility.yul\":14904:14906   */\n      0x11\n        /* \"#utility.yul\":14899:14902   */\n      dup4\n        /* \"#utility.yul\":14840:14907   */\n      tag_214\n      jump\t// in\n    tag_426:\n        /* \"#utility.yul\":14833:14907   */\n      swap2\n      pop\n        /* \"#utility.yul\":14916:15009   */\n      tag_427\n        /* \"#utility.yul\":15005:15008   */\n      dup3\n        /* \"#utility.yul\":14916:15009   */\n      tag_242\n      jump\t// in\n    tag_427:\n        /* \"#utility.yul\":15034:15036   */\n      0x20\n        /* \"#utility.yul\":15029:15032   */\n      dup3\n        /* \"#utility.yul\":15025:15037   */\n      add\n        /* \"#utility.yul\":15018:15037   */\n      swap1\n      pop\n        /* \"#utility.yul\":14677:15043   */\n      swap2\n      swap1\n      pop\n      jump\t// out\n        /* \"#utility.yul\":15049:15468   */\n    tag_98:\n        /* \"#utility.yul\":15215:15219   */\n      0x00\n        /* \"#utility.yul\":15253:15255   */\n      0x20\n        /* \"#utility.yul\":15242:15251   */\n      dup3\n        /* \"#utility.yul\":15238:15256   */\n      add\n        /* \"#utility.yul\":15230:15256   */\n      swap1\n      pop\n        /* \"#utility.yul\":15302:15311   */\n      dup2\n        /* \"#utility.yul\":15296:15300   */\n      dup2\n        /* \"#utility.yul\":15292:15312   */\n      sub\n        /* \"#utility.yul\":15288:15289   */\n      0x00\n        /* \"#utility.yul\":15277:15286   */\n      dup4\n        /* \"#utility.yul\":15273:15290   */\n      add\n        /* \"#utility.yul\":15266:15313   */\n      mstore\n        /* \"#utility.yul\":15330:15461   */\n      tag_429\n        /* \"#utility.yul\":15456:15460   */\n      dup2\n        /* \"#utility.yul\":15330:15461   */\n      tag_243\n      jump\t// in\n    tag_429:\n        /* \"#utility.yul\":15322:15461   */\n      swap1\n      pop\n        /* \"#utility.yul\":15049:15468   */\n      swap2\n      swap1\n      pop\n      jump\t// out\n        /* \"#utility.yul\":15474:15654   */\n    tag_244:\n        /* \"#utility.yul\":15522:15599   */\n      0x4e487b7100000000000000000000000000000000000000000000000000000000\n        /* \"#utility.yul\":15519:15520   */\n      0x00\n        /* \"#utility.yul\":15512:15600   */\n      mstore\n        /* \"#utility.yul\":15619:15623   */\n      0x22\n        /* \"#utility.yul\":15616:15617   */\n      0x04\n        /* \"#utility.yul\":15609:15624   */\n      mstore\n        /* \"#utility.yul\":15643:15647   */\n      0x24\n        /* \"#utility.yul\":15640:15641   */\n      0x00\n        /* \"#utility.yul\":15633:15648   */\n      revert\n        /* \"#utility.yul\":15660:15980   */\n    tag_100:\n        /* \"#utility.yul\":15704:15710   */\n      0x00\n        /* \"#utility.yul\":15741:15742   */\n      0x02\n        /* \"#utility.yul\":15735:15739   */\n      dup3\n        /* \"#utility.yul\":15731:15743   */\n      div\n        /* \"#utility.yul\":15721:15743   */\n      swap1\n      pop\n        /* \"#utility.yul\":15788:15789   */\n      0x01\n        /* \"#utility.yul\":15782:15786   */\n      dup3\n        /* \"#utility.yul\":15778:15790   */\n      and\n        /* \"#utility.yul\":15809:15827   */\n      dup1\n        /* \"#utility.yul\":15799:15880   */\n      tag_432\n      jumpi\n        /* \"#utility.yul\":15865:15869   */\n      0x7f\n        /* \"#utility.yul\":15857:15863   */\n      dup3\n        /* \"#utility.yul\":15853:15870   */\n      and\n        /* \"#utility.yul\":15843:15870   */\n      swap2\n      pop\n        /* \"#utility.yul\":15799:15880   */\n    tag_432:\n        /* \"#utility.yul\":15927:15929   */\n      0x20\n        /* \"#utility.yul\":15919:15925   */\n      dup3\n        /* \"#utility.yul\":15916:15930   */\n      lt\n        /* \"#utility.yul\":15896:15914   */\n      dup2\n        /* \"#utility.yul\":15893:15931   */\n      sub\n        /* \"#utility.yul\":15890:15974   */\n      tag_433\n      jumpi\n        /* \"#utility.yul\":15946:15964   */\n      tag_434\n      tag_244\n      jump\t// in\n    tag_434:\n        /* \"#utility.yul\":15890:15974   */\n    tag_433:\n        /* \"#utility.yul\":15711:15980   */\n      pop\n        /* \"#utility.yul\":15660:15980   */\n      swap2\n      swap1\n      pop\n      jump\t// out\n        /* \"#utility.yul\":15986:16155   */\n    tag_245:\n        /* \"#utility.yul\":16126:16147   */\n      0x5450206d75737420626520616674657220543100000000000000000000000000\n        /* \"#utility.yul\":16122:16123   */\n      0x00\n        /* \"#utility.yul\":16114:16120   */\n      dup3\n        /* \"#utility.yul\":16110:16124   */\n      add\n        /* \"#utility.yul\":16103:16148   */\n      mstore\n        /* \"#utility.yul\":15986:16155   */\n      pop\n      jump\t// out\n        /* \"#utility.yul\":16161:16527   */\n    tag_246:\n        /* \"#utility.yul\":16303:16306   */\n      0x00\n        /* \"#utility.yul\":16324:16391   */\n      tag_437\n        /* \"#utility.yul\":16388:16390   */\n      0x13\n        /* \"#utility.yul\":16383:16386   */\n      dup4\n        /* \"#utility.yul\":16324:16391   */\n      tag_214\n      jump\t// in\n    tag_437:\n        /* \"#utility.yul\":16317:16391   */\n      swap2\n      pop\n        /* \"#utility.yul\":16400:16493   */\n      tag_438\n        /* \"#utility.yul\":16489:16492   */\n      dup3\n        /* \"#utility.yul\":16400:16493   */\n      tag_245\n      jump\t// in\n    tag_438:\n        /* \"#utility.yul\":16518:16520   */\n      0x20\n        /* \"#utility.yul\":16513:16516   */\n      dup3\n        /* \"#utility.yul\":16509:16521   */\n      add\n        /* \"#utility.yul\":16502:16521   */\n      swap1\n      pop\n        /* \"#utility.yul\":16161:16527   */\n      swap2\n      swap1\n      pop\n      jump\t// out\n        /* \"#utility.yul\":16533:16952   */\n    tag_112:\n        /* \"#utility.yul\":16699:16703   */\n      0x00\n        /* \"#utility.yul\":16737:16739   */\n      0x20\n        /* \"#utility.yul\":16726:16735   */\n      dup3\n        /* \"#utility.yul\":16722:16740   */\n      add\n        /* \"#utility.yul\":16714:16740   */\n      swap1\n      pop\n        /* \"#utility.yul\":16786:16795   */\n      dup2\n        /* \"#utility.yul\":16780:16784   */\n      dup2\n        /* \"#utility.yul\":16776:16796   */\n      sub\n        /* \"#utility.yul\":16772:16773   */\n      0x00\n        /* \"#utility.yul\":16761:16770   */\n      dup4\n        /* \"#utility.yul\":16757:16774   */\n      add\n        /* \"#utility.yul\":16750:16797   */\n      mstore\n        /* \"#utility.yul\":16814:16945   */\n      tag_440\n        /* \"#utility.yul\":16940:16944   */\n      dup2\n        /* \"#utility.yul\":16814:16945   */\n      tag_246\n      jump\t// in\n    tag_440:\n        /* \"#utility.yul\":16806:16945   */\n      swap1\n      pop\n        /* \"#utility.yul\":16533:16952   */\n      swap2\n      swap1\n      pop\n      jump\t// out\n        /* \"#utility.yul\":16958:17130   */\n    tag_247:\n        /* \"#utility.yul\":17098:17122   */\n      0x496e636f7272656374207072656d69756d2073656e7400000000000000000000\n        /* \"#utility.yul\":17094:17095   */\n      0x00\n        /* \"#utility.yul\":17086:17092   */\n      dup3\n        /* \"#utility.yul\":17082:17096   */\n      add\n        /* \"#utility.yul\":17075:17123   */\n      mstore\n        /* \"#utility.yul\":16958:17130   */\n      pop\n      jump\t// out\n        /* \"#utility.yul\":17136:17502   */\n    tag_248:\n        /* \"#utility.yul\":17278:17281   */\n      0x00\n        /* \"#utility.yul\":17299:17366   */\n      tag_443\n        /* \"#utility.yul\":17363:17365   */\n      0x16\n        /* \"#utility.yul\":17358:17361   */\n      dup4\n        /* \"#utility.yul\":17299:17366   */\n      tag_214\n      jump\t// in\n    tag_443:\n        /* \"#utility.yul\":17292:17366   */\n      swap2\n      pop\n        /* \"#utility.yul\":17375:17468   */\n      tag_444\n        /* \"#utility.yul\":17464:17467   */\n      dup3\n        /* \"#utility.yul\":17375:17468   */\n      tag_247\n      jump\t// in\n    tag_444:\n        /* \"#utility.yul\":17493:17495   */\n      0x20\n        /* \"#utility.yul\":17488:17491   */\n      dup3\n        /* \"#utility.yul\":17484:17496   */\n      add\n        /* \"#utility.yul\":17477:17496   */\n      swap1\n      pop\n        /* \"#utility.yul\":17136:17502   */\n      swap2\n      swap1\n      pop\n      jump\t// out\n        /* \"#utility.yul\":17508:17927   */\n    tag_115:\n        /* \"#utility.yul\":17674:17678   */\n      0x00\n        /* \"#utility.yul\":17712:17714   */\n      0x20\n        /* \"#utility.yul\":17701:17710   */\n      dup3\n        /* \"#utility.yul\":17697:17715   */\n      add\n        /* \"#utility.yul\":17689:17715   */\n      swap1\n      pop\n        /* \"#utility.yul\":17761:17770   */\n      dup2\n        /* \"#utility.yul\":17755:17759   */\n      dup2\n        /* \"#utility.yul\":17751:17771   */\n      sub\n        /* \"#utility.yul\":17747:17748   */\n      0x00\n        /* \"#utility.yul\":17736:17745   */\n      dup4\n        /* \"#utility.yul\":17732:17749   */\n      add\n        /* \"#utility.yul\":17725:17772   */\n      mstore\n        /* \"#utility.yul\":17789:17920   */\n      tag_446\n        /* \"#utility.yul\":17915:17919   */\n      dup2\n        /* \"#utility.yul\":17789:17920   */\n      tag_248\n      jump\t// in\n    tag_446:\n        /* \"#utility.yul\":17781:17920   */\n      swap1\n      pop\n        /* \"#utility.yul\":17508:17927   */\n      swap2\n      swap1\n      pop\n      jump\t// out\n        /* \"#utility.yul\":17933:18113   */\n    tag_249:\n        /* \"#utility.yul\":17981:18058   */\n      0x4e487b7100000000000000000000000000000000000000000000000000000000\n        /* \"#utility.yul\":17978:17979   */\n      0x00\n        /* \"#utility.yul\":17971:18059   */\n      mstore\n        /* \"#utility.yul\":18078:18082   */\n      0x11\n        /* \"#utility.yul\":18075:18076   */\n      0x04\n        /* \"#utility.yul\":18068:18083   */\n      mstore\n        /* \"#utility.yul\":18102:18106   */\n      0x24\n        /* \"#utility.yul\":18099:18100   */\n      0x00\n        /* \"#utility.yul\":18092:18107   */\n      revert\n        /* \"#utility.yul\":18119:18352   */\n    tag_117:\n        /* \"#utility.yul\":18158:18161   */\n      0x00\n        /* \"#utility.yul\":18181:18205   */\n      tag_449\n        /* \"#utility.yul\":18199:18204   */\n      dup3\n        /* \"#utility.yul\":18181:18205   */\n      tag_203\n      jump\t// in\n    tag_449:\n        /* \"#utility.yul\":18172:18205   */\n      swap2\n      pop\n        /* \"#utility.yul\":18227:18293   */\n      0xffffffffffffffffffffffffffffffffffffffffffffffffffffffffffffffff\n        /* \"#utility.yul\":18220:18225   */\n      dup3\n        /* \"#utility.yul\":18217:18294   */\n      sub\n        /* \"#utility.yul\":18214:18317   */\n      tag_450\n      jumpi\n        /* \"#utility.yul\":18297:18315   */\n      tag_451\n      tag_249\n      jump\t// in\n    tag_451:\n        /* \"#utility.yul\":18214:18317   */\n    tag_450:\n        /* \"#utility.yul\":18344:18345   */\n      0x01\n        /* \"#utility.yul\":18337:18342   */\n      dup3\n        /* \"#utility.yul\":18333:18346   */\n      add\n        /* \"#utility.yul\":18326:18346   */\n      swap1\n      pop\n        /* \"#utility.yul\":18119:18352   */\n      swap2\n      swap1\n      pop\n      jump\t// out\n        /* \"#utility.yul\":18358:18455   */\n    tag_250:\n        /* \"#utility.yul\":18417:18423   */\n      0x00\n        /* \"#utility.yul\":18445:18448   */\n      dup3\n        /* \"#utility.yul\":18435:18448   */\n      swap1\n      pop\n        /* \"#utility.yul\":18358:18455   */\n      swap3\n      swap2\n      pop\n      pop\n      jump\t// out\n        /* \"#utility.yul\":18461:18641   */\n    tag_251:\n        /* \"#utility.yul\":18509:18586   */\n      0x4e487b7100000000000000000000000000000000000000000000000000000000\n        /* \"#utility.yul\":18506:18507   */\n      0x00\n        /* \"#utility.yul\":18499:18587   */\n      mstore\n        /* \"#utility.yul\":18606:18610   */\n      0x41\n        /* \"#utility.yul\":18603:18604   */\n      0x04\n        /* \"#utility.yul\":18596:18611   */\n      mstore\n        /* \"#utility.yul\":18630:18634   */\n      0x24\n        /* \"#utility.yul\":18627:18628   */\n      0x00\n        /* \"#utility.yul\":18620:18635   */\n      revert\n        /* \"#utility.yul\":18647:18788   */\n    tag_252:\n        /* \"#utility.yul\":18696:18700   */\n      0x00\n        /* \"#utility.yul\":18719:18722   */\n      dup2\n        /* \"#utility.yul\":18711:18722   */\n      swap1\n      pop\n        /* \"#utility.yul\":18742:18745   */\n      dup2\n        /* \"#utility.yul\":18739:18740   */\n      0x00\n        /* \"#utility.yul\":18732:18746   */\n      mstore\n        /* \"#utility.yul\":18776:18780   */\n      0x20\n        /* \"#utility.yul\":18773:18774   */\n      0x00\n        /* \"#utility.yul\":18763:18781   */\n      keccak256\n        /* \"#utility.yul\":18755:18781   */\n      swap1\n      pop\n        /* \"#utility.yul\":18647:18788   */\n      swap2\n      swap1\n      pop\n      jump\t// out\n        /* \"#utility.yul\":18794:18887   */\n    tag_253:\n        /* \"#utility.yul\":18831:18837   */\n      0x00\n        /* \"#utility.yul\":18878:18880   */\n      0x20\n        /* \"#utility.yul\":18873:18875   */\n      0x1f\n        /* \"#utility.yul\":18866:18871   */\n      dup4\n        /* \"#utility.yul\":18862:18876   */\n      add\n        /* \"#utility.yul\":18858:18881   */\n      div\n        /* \"#utility.yul\":18848:18881   */\n      swap1\n      pop\n        /* \"#utility.yul\":18794:18887   */\n      swap2\n      swap1\n      pop\n      jump\t// out\n        /* \"#utility.yul\":18893:19000   */\n    tag_254:\n        /* \"#utility.yul\":18937:18945   */\n      0x00\n        /* \"#utility.yul\":18987:18992   */\n      dup3\n        /* \"#utility.yul\":18981:18985   */\n      dup3\n        /* \"#utility.yul\":18977:18993   */\n      shl\n        /* \"#utility.yul\":18956:18993   */\n      swap1\n      pop\n        /* \"#utility.yul\":18893:19000   */\n      swap3\n      swap2\n      pop\n      pop\n      jump\t// out\n        /* \"#utility.yul\":19006:19399   */\n    tag_255:\n        /* \"#utility.yul\":19075:19081   */\n      0x00\n        /* \"#utility.yul\":19125:19126   */\n      0x08\n        /* \"#utility.yul\":19113:19123   */\n      dup4\n        /* \"#utility.yul\":19109:19127   */\n      mul\n        /* \"#utility.yul\":19148:19245   */\n      tag_458\n        /* \"#utility.yul\":19178:19244   */\n      0xffffffffffffffffffffffffffffffffffffffffffffffffffffffffffffffff\n        /* \"#utility.yul\":19167:19176   */\n      dup3\n        /* \"#utility.yul\":19148:19245   */\n      tag_254\n      jump\t// in\n    tag_458:\n        /* \"#utility.yul\":19266:19305   */\n      tag_459\n        /* \"#utility.yul\":19296:19304   */\n      dup7\n        /* \"#utility.yul\":19285:19294   */\n      dup4\n        /* \"#utility.yul\":19266:19305   */\n      tag_254\n      jump\t// in\n    tag_459:\n        /* \"#utility.yul\":19254:19305   */\n      swap6\n      pop\n        /* \"#utility.yul\":19338:19342   */\n      dup1\n        /* \"#utility.yul\":19334:19343   */\n      not\n        /* \"#utility.yul\":19327:19332   */\n      dup5\n        /* \"#utility.yul\":19323:19344   */\n      and\n        /* \"#utility.yul\":19314:19344   */\n      swap4\n      pop\n        /* \"#utility.yul\":19387:19391   */\n      dup1\n        /* \"#utility.yul\":19377:19385   */\n      dup7\n        /* \"#utility.yul\":19373:19392   */\n      and\n        /* \"#utility.yul\":19366:19371   */\n      dup5\n        /* \"#utility.yul\":19363:19393   */\n      or\n        /* \"#utility.yul\":19353:19393   */\n      swap3\n      pop\n        /* \"#utility.yul\":19082:19399   */\n      pop\n      pop\n        /* \"#utility.yul\":19006:19399   */\n      swap4\n      swap3\n      pop\n      pop\n      pop\n      jump\t// out\n        /* \"#utility.yul\":19405:19465   */\n    tag_256:\n        /* \"#utility.yul\":19433:19436   */\n      0x00\n        /* \"#utility.yul\":19454:19459   */\n      dup2\n        /* \"#utility.yul\":19447:19459   */\n      swap1\n      pop\n        /* \"#utility.yul\":19405:19465   */\n      swap2\n      swap1\n      pop\n      jump\t// out\n        /* \"#utility.yul\":19471:19613   */\n    tag_257:\n        /* \"#utility.yul\":19521:19530   */\n      0x00\n        /* \"#utility.yul\":19554:19607   */\n      tag_462\n        /* \"#utility.yul\":19572:19606   */\n      tag_463\n        /* \"#utility.yul\":19581:19605   */\n      tag_464\n        /* \"#utility.yul\":19599:19604   */\n      dup5\n        /* \"#utility.yul\":19581:19605   */\n      tag_203\n      jump\t// in\n    tag_464:\n        /* \"#utility.yul\":19572:19606   */\n      tag_256\n      jump\t// in\n    tag_463:\n        /* \"#utility.yul\":19554:19607   */\n      tag_203\n      jump\t// in\n    tag_462:\n        /* \"#utility.yul\":19541:19607   */\n      swap1\n      pop\n        /* \"#utility.yul\":19471:19613   */\n      swap2\n      swap1\n      pop\n      jump\t// out\n        /* \"#utility.yul\":19619:19694   */\n    tag_258:\n        /* \"#utility.yul\":19662:19665   */\n      0x00\n        /* \"#utility.yul\":19683:19688   */\n      dup2\n        /* \"#utility.yul\":19676:19688   */\n      swap1\n      pop\n        /* \"#utility.yul\":19619:19694   */\n      swap2\n      swap1\n      pop\n      jump\t// out\n        /* \"#utility.yul\":19700:19969   */\n    tag_259:\n        /* \"#utility.yul\":19810:19849   */\n      tag_467\n        /* \"#utility.yul\":19841:19848   */\n      dup4\n        /* \"#utility.yul\":19810:19849   */\n      tag_257\n      jump\t// in\n    tag_467:\n        /* \"#utility.yul\":19871:19962   */\n      tag_468\n        /* \"#utility.yul\":19920:19961   */\n      tag_469\n        /* \"#utility.yul\":19944:19960   */\n      dup3\n        /* \"#utility.yul\":19920:19961   */\n      tag_258\n      jump\t// in\n    tag_469:\n        /* \"#utility.yul\":19912:19918   */\n      dup5\n        /* \"#utility.yul\":19905:19909   */\n      dup5\n        /* \"#utility.yul\":19899:19910   */\n      sload\n        /* \"#utility.yul\":19871:19962   */\n      tag_255\n      jump\t// in\n    tag_468:\n        /* \"#utility.yul\":19865:19869   */\n      dup3\n        /* \"#utility.yul\":19858:19963   */\n      sstore\n        /* \"#utility.yul\":19776:19969   */\n      pop\n        /* \"#utility.yul\":19700:19969   */\n      pop\n      pop\n      pop\n      jump\t// out\n        /* \"#utility.yul\":19975:20048   */\n    tag_260:\n        /* \"#utility.yul\":20020:20023   */\n      0x00\n        /* \"#utility.yul\":19975:20048   */\n      swap1\n      jump\t// out\n        /* \"#utility.yul\":20054:20243   */\n    tag_261:\n        /* \"#utility.yul\":20131:20163   */\n      tag_472\n      tag_260\n      jump\t// in\n    tag_472:\n        /* \"#utility.yul\":20172:20237   */\n      tag_473\n        /* \"#utility.yul\":20230:20236   */\n      dup2\n        /* \"#utility.yul\":20222:20228   */\n      dup5\n        /* \"#utility.yul\":20216:20220   */\n      dup5\n        /* \"#utility.yul\":20172:20237   */\n      tag_259\n      jump\t// in\n    tag_473:\n        /* \"#utility.yul\":20107:20243   */\n      pop\n        /* \"#utility.yul\":20054:20243   */\n      pop\n      pop\n      jump\t// out\n        /* \"#utility.yul\":20249:20435   */\n    tag_262:\n        /* \"#utility.yul\":20309:20429   */\n    tag_475:\n        /* \"#utility.yul\":20326:20329   */\n      dup2\n        /* \"#utility.yul\":20319:20324   */\n      dup2\n        /* \"#utility.yul\":20316:20330   */\n      lt\n        /* \"#utility.yul\":20309:20429   */\n      iszero\n      tag_477\n      jumpi\n        /* \"#utility.yul\":20380:20419   */\n      tag_478\n        /* \"#utility.yul\":20417:20418   */\n      0x00\n        /* \"#utility.yul\":20410:20415   */\n      dup3\n        /* \"#utility.yul\":20380:20419   */\n      tag_261\n      jump\t// in\n    tag_478:\n        /* \"#utility.yul\":20353:20354   */\n      0x01\n        /* \"#utility.yul\":20346:20351   */\n      dup2\n        /* \"#utility.yul\":20342:20355   */\n      add\n        /* \"#utility.yul\":20333:20355   */\n      swap1\n      pop\n        /* \"#utility.yul\":20309:20429   */\n      jump(tag_475)\n    tag_477:\n        /* \"#utility.yul\":20249:20435   */\n      pop\n      pop\n      jump\t// out\n        /* \"#utility.yul\":20441:20984   */\n    tag_263:\n        /* \"#utility.yul\":20542:20544   */\n      0x1f\n        /* \"#utility.yul\":20537:20540   */\n      dup3\n        /* \"#utility.yul\":20534:20545   */\n      gt\n        /* \"#utility.yul\":20531:20977   */\n      iszero\n      tag_480\n      jumpi\n        /* \"#utility.yul\":20576:20614   */\n      tag_481\n        /* \"#utility.yul\":20608:20613   */\n      dup2\n        /* \"#utility.yul\":20576:20614   */\n      tag_252\n      jump\t// in\n    tag_481:\n        /* \"#utility.yul\":20660:20689   */\n      tag_482\n        /* \"#utility.yul\":20678:20688   */\n      dup5\n        /* \"#utility.yul\":20660:20689   */\n      tag_253\n      jump\t// in\n    tag_482:\n        /* \"#utility.yul\":20650:20658   */\n      dup2\n        /* \"#utility.yul\":20646:20690   */\n      add\n        /* \"#utility.yul\":20843:20845   */\n      0x20\n        /* \"#utility.yul\":20831:20841   */\n      dup6\n        /* \"#utility.yul\":20828:20846   */\n      lt\n        /* \"#utility.yul\":20825:20874   */\n      iszero\n      tag_483\n      jumpi\n        /* \"#utility.yul\":20864:20872   */\n      dup2\n        /* \"#utility.yul\":20849:20872   */\n      swap1\n      pop\n        /* \"#utility.yul\":20825:20874   */\n    tag_483:\n        /* \"#utility.yul\":20887:20967   */\n      tag_484\n        /* \"#utility.yul\":20943:20965   */\n      tag_485\n        /* \"#utility.yul\":20961:20964   */\n      dup6\n        /* \"#utility.yul\":20943:20965   */\n      tag_253\n      jump\t// in\n    tag_485:\n        /* \"#utility.yul\":20933:20941   */\n      dup4\n        /* \"#utility.yul\":20929:20966   */\n      add\n        /* \"#utility.yul\":20916:20927   */\n      dup3\n        /* \"#utility.yul\":20887:20967   */\n      tag_262\n      jump\t// in\n    tag_484:\n        /* \"#utility.yul\":20546:20977   */\n      pop\n      pop\n        /* \"#utility.yul\":20531:20977   */\n    tag_480:\n        /* \"#utility.yul\":20441:20984   */\n      pop\n      pop\n      pop\n      jump\t// out\n        /* \"#utility.yul\":20990:21107   */\n    tag_264:\n        /* \"#utility.yul\":21044:21052   */\n      0x00\n        /* \"#utility.yul\":21094:21099   */\n      dup3\n        /* \"#utility.yul\":21088:21092   */\n      dup3\n        /* \"#utility.yul\":21084:21100   */\n      shr\n        /* \"#utility.yul\":21063:21100   */\n      swap1\n      pop\n        /* \"#utility.yul\":20990:21107   */\n      swap3\n      swap2\n      pop\n      pop\n      jump\t// out\n        /* \"#utility.yul\":21113:21282   */\n    tag_265:\n        /* \"#utility.yul\":21157:21163   */\n      0x00\n        /* \"#utility.yul\":21190:21241   */\n      tag_488\n        /* \"#utility.yul\":21238:21239   */\n      0x00\n        /* \"#utility.yul\":21234:21240   */\n      not\n        /* \"#utility.yul\":21226:21231   */\n      dup5\n        /* \"#utility.yul\":21223:21224   */\n      0x08\n        /* \"#utility.yul\":21219:21232   */\n      mul\n        /* \"#utility.yul\":21190:21241   */\n      tag_264\n      jump\t// in\n    tag_488:\n        /* \"#utility.yul\":21186:21242   */\n      not\n        /* \"#utility.yul\":21271:21275   */\n      dup1\n        /* \"#utility.yul\":21265:21269   */\n      dup4\n        /* \"#utility.yul\":21261:21276   */\n      and\n        /* \"#utility.yul\":21251:21276   */\n      swap2\n      pop\n        /* \"#utility.yul\":21164:21282   */\n      pop\n        /* \"#utility.yul\":21113:21282   */\n      swap3\n      swap2\n      pop\n      pop\n      jump\t// out\n        /* \"#utility.yul\":21287:21582   */\n    tag_266:\n        /* \"#utility.yul\":21363:21367   */\n      0x00\n        /* \"#utility.yul\":21509:21538   */\n      tag_490\n        /* \"#utility.yul\":21534:21537   */\n      dup4\n        /* \"#utility.yul\":21528:21532   */\n      dup4\n        /* \"#utility.yul\":21509:21538   */\n      tag_265\n      jump\t// in\n    tag_490:\n        /* \"#utility.yul\":21501:21538   */\n      swap2\n      pop\n        /* \"#utility.yul\":21571:21574   */\n      dup3\n        /* \"#utility.yul\":21568:21569   */\n      0x02\n        /* \"#utility.yul\":21564:21575   */\n      mul\n        /* \"#utility.yul\":21558:21562   */\n      dup3\n        /* \"#utility.yul\":21555:21576   */\n      or\n        /* \"#utility.yul\":21547:21576   */\n      swap1\n      pop\n        /* \"#utility.yul\":21287:21582   */\n      swap3\n      swap2\n      pop\n      pop\n      jump\t// out\n        /* \"#utility.yul\":21587:22990   */\n    tag_119:\n        /* \"#utility.yul\":21711:21755   */\n      tag_492\n        /* \"#utility.yul\":21751:21754   */\n      dup4\n        /* \"#utility.yul\":21746:21749   */\n      dup4\n        /* \"#utility.yul\":21711:21755   */\n      tag_250\n      jump\t// in\n    tag_492:\n        /* \"#utility.yul\":21820:21838   */\n      0xffffffffffffffff\n        /* \"#utility.yul\":21812:21818   */\n      dup2\n        /* \"#utility.yul\":21809:21839   */\n      gt\n        /* \"#utility.yul\":21806:21862   */\n      iszero\n      tag_493\n      jumpi\n        /* \"#utility.yul\":21842:21860   */\n      tag_494\n      tag_251\n      jump\t// in\n    tag_494:\n        /* \"#utility.yul\":21806:21862   */\n    tag_493:\n        /* \"#utility.yul\":21886:21924   */\n      tag_495\n        /* \"#utility.yul\":21918:21922   */\n      dup3\n        /* \"#utility.yul\":21912:21923   */\n      sload\n        /* \"#utility.yul\":21886:21924   */\n      tag_100\n      jump\t// in\n    tag_495:\n        /* \"#utility.yul\":21971:22038   */\n      tag_496\n        /* \"#utility.yul\":22031:22037   */\n      dup3\n        /* \"#utility.yul\":22023:22029   */\n      dup3\n        /* \"#utility.yul\":22017:22021   */\n      dup6\n        /* \"#utility.yul\":21971:22038   */\n      tag_263\n      jump\t// in\n    tag_496:\n        /* \"#utility.yul\":22065:22066   */\n      0x00\n        /* \"#utility.yul\":22094:22096   */\n      0x1f\n        /* \"#utility.yul\":22086:22092   */\n      dup4\n        /* \"#utility.yul\":22083:22097   */\n      gt\n        /* \"#utility.yul\":22111:22112   */\n      0x01\n        /* \"#utility.yul\":22106:22738   */\n      dup2\n      eq\n      tag_498\n      jumpi\n        /* \"#utility.yul\":22782:22783   */\n      0x00\n        /* \"#utility.yul\":22799:22805   */\n      dup5\n        /* \"#utility.yul\":22796:22880   */\n      iszero\n      tag_499\n      jumpi\n        /* \"#utility.yul\":22855:22864   */\n      dup3\n        /* \"#utility.yul\":22850:22853   */\n      dup8\n        /* \"#utility.yul\":22846:22865   */\n      add\n        /* \"#utility.yul\":22833:22866   */\n      calldataload\n        /* \"#utility.yul\":22824:22866   */\n      swap1\n      pop\n        /* \"#utility.yul\":22796:22880   */\n    tag_499:\n        /* \"#utility.yul\":22906:22973   */\n      tag_500\n        /* \"#utility.yul\":22966:22972   */\n      dup6\n        /* \"#utility.yul\":22959:22964   */\n      dup3\n        /* \"#utility.yul\":22906:22973   */\n      tag_266\n      jump\t// in\n    tag_500:\n        /* \"#utility.yul\":22900:22904   */\n      dup7\n        /* \"#utility.yul\":22893:22974   */\n      sstore\n        /* \"#utility.yul\":22755:22984   */\n      pop\n        /* \"#utility.yul\":22076:22984   */\n      jump(tag_497)\n        /* \"#utility.yul\":22106:22738   */\n    tag_498:\n        /* \"#utility.yul\":22158:22162   */\n      0x1f\n        /* \"#utility.yul\":22154:22163   */\n      not\n        /* \"#utility.yul\":22146:22152   */\n      dup5\n        /* \"#utility.yul\":22142:22164   */\n      and\n        /* \"#utility.yul\":22192:22229   */\n      tag_501\n        /* \"#utility.yul\":22224:22228   */\n      dup7\n        /* \"#utility.yul\":22192:22229   */\n      tag_252\n      jump\t// in\n    tag_501:\n        /* \"#utility.yul\":22251:22252   */\n      0x00\n        /* \"#utility.yul\":22265:22480   */\n    tag_502:\n        /* \"#utility.yul\":22279:22286   */\n      dup3\n        /* \"#utility.yul\":22276:22277   */\n      dup2\n        /* \"#utility.yul\":22273:22287   */\n      lt\n        /* \"#utility.yul\":22265:22480   */\n      iszero\n      tag_504\n      jumpi\n        /* \"#utility.yul\":22365:22374   */\n      dup5\n        /* \"#utility.yul\":22360:22363   */\n      dup10\n        /* \"#utility.yul\":22356:22375   */\n      add\n        /* \"#utility.yul\":22343:22376   */\n      calldataload\n        /* \"#utility.yul\":22335:22341   */\n      dup3\n        /* \"#utility.yul\":22328:22377   */\n      sstore\n        /* \"#utility.yul\":22416:22417   */\n      0x01\n        /* \"#utility.yul\":22408:22414   */\n      dup3\n        /* \"#utility.yul\":22404:22418   */\n      add\n        /* \"#utility.yul\":22394:22418   */\n      swap2\n      pop\n        /* \"#utility.yul\":22463:22465   */\n      0x20\n        /* \"#utility.yul\":22452:22461   */\n      dup6\n        /* \"#utility.yul\":22448:22466   */\n      add\n        /* \"#utility.yul\":22435:22466   */\n      swap5\n      pop\n        /* \"#utility.yul\":22302:22306   */\n      0x20\n        /* \"#utility.yul\":22299:22300   */\n      dup2\n        /* \"#utility.yul\":22295:22307   */\n      add\n        /* \"#utility.yul\":22290:22307   */\n      swap1\n      pop\n        /* \"#utility.yul\":22265:22480   */\n      jump(tag_502)\n    tag_504:\n        /* \"#utility.yul\":22508:22514   */\n      dup7\n        /* \"#utility.yul\":22499:22506   */\n      dup4\n        /* \"#utility.yul\":22496:22515   */\n      lt\n        /* \"#utility.yul\":22493:22679   */\n      iszero\n      tag_505\n      jumpi\n        /* \"#utility.yul\":22573:22582   */\n      dup5\n        /* \"#utility.yul\":22568:22571   */\n      dup10\n        /* \"#utility.yul\":22564:22583   */\n      add\n        /* \"#utility.yul\":22551:22584   */\n      calldataload\n        /* \"#utility.yul\":22616:22664   */\n      tag_506\n        /* \"#utility.yul\":22658:22662   */\n      0x1f\n        /* \"#utility.yul\":22650:22656   */\n      dup10\n        /* \"#utility.yul\":22646:22663   */\n      and\n        /* \"#utility.yul\":22635:22644   */\n      dup3\n        /* \"#utility.yul\":22616:22664   */\n      tag_265\n      jump\t// in\n    tag_506:\n        /* \"#utility.yul\":22608:22614   */\n      dup4\n        /* \"#utility.yul\":22601:22665   */\n      sstore\n        /* \"#utility.yul\":22516:22679   */\n      pop\n        /* \"#utility.yul\":22493:22679   */\n    tag_505:\n        /* \"#utility.yul\":22725:22726   */\n      0x01\n        /* \"#utility.yul\":22721:22722   */\n      0x02\n        /* \"#utility.yul\":22713:22719   */\n      dup9\n        /* \"#utility.yul\":22709:22723   */\n      mul\n        /* \"#utility.yul\":22705:22727   */\n      add\n        /* \"#utility.yul\":22699:22703   */\n      dup9\n        /* \"#utility.yul\":22692:22728   */\n      sstore\n        /* \"#utility.yul\":22113:22738   */\n      pop\n      pop\n      pop\n        /* \"#utility.yul\":22076:22984   */\n    tag_497:\n      pop\n        /* \"#utility.yul\":21686:22990   */\n      pop\n      pop\n      pop\n        /* \"#utility.yul\":21587:22990   */\n      pop\n      pop\n      pop\n      jump\t// out\n        /* \"#utility.yul\":22996:23166   */\n    tag_267:\n        /* \"#utility.yul\":23136:23158   */\n      0x496e737572616e6365206e6f7420616374697665000000000000000000000000\n        /* \"#utility.yul\":23132:23133   */\n      0x00\n        /* \"#utility.yul\":23124:23130   */\n      dup3\n        /* \"#utility.yul\":23120:23134   */\n      add\n        /* \"#utility.yul\":23113:23159   */\n      mstore\n        /* \"#utility.yul\":22996:23166   */\n      pop\n      jump\t// out\n        /* \"#utility.yul\":23172:23538   */\n    tag_268:\n        /* \"#utility.yul\":23314:23317   */\n      0x00\n        /* \"#utility.yul\":23335:23402   */\n      tag_509\n        /* \"#utility.yul\":23399:23401   */\n      0x14\n        /* \"#utility.yul\":23394:23397   */\n      dup4\n        /* \"#utility.yul\":23335:23402   */\n      tag_214\n      jump\t// in\n    tag_509:\n        /* \"#utility.yul\":23328:23402   */\n      swap2\n      pop\n        /* \"#utility.yul\":23411:23504   */\n      tag_510\n        /* \"#utility.yul\":23500:23503   */\n      dup3\n        /* \"#utility.yul\":23411:23504   */\n      tag_267\n      jump\t// in\n    tag_510:\n        /* \"#utility.yul\":23529:23531   */\n      0x20\n        /* \"#utility.yul\":23524:23527   */\n      dup3\n        /* \"#utility.yul\":23520:23532   */\n      add\n        /* \"#utility.yul\":23513:23532   */\n      swap1\n      pop\n        /* \"#utility.yul\":23172:23538   */\n      swap2\n      swap1\n      pop\n      jump\t// out\n        /* \"#utility.yul\":23544:23963   */\n    tag_138:\n        /* \"#utility.yul\":23710:23714   */\n      0x00\n        /* \"#utility.yul\":23748:23750   */\n      0x20\n        /* \"#utility.yul\":23737:23746   */\n      dup3\n        /* \"#utility.yul\":23733:23751   */\n      add\n        /* \"#utility.yul\":23725:23751   */\n      swap1\n      pop\n        /* \"#utility.yul\":23797:23806   */\n      dup2\n        /* \"#utility.yul\":23791:23795   */\n      dup2\n        /* \"#utility.yul\":23787:23807   */\n      sub\n        /* \"#utility.yul\":23783:23784   */\n      0x00\n        /* \"#utility.yul\":23772:23781   */\n      dup4\n        /* \"#utility.yul\":23768:23785   */\n      add\n        /* \"#utility.yul\":23761:23808   */\n      mstore\n        /* \"#utility.yul\":23825:23956   */\n      tag_512\n        /* \"#utility.yul\":23951:23955   */\n      dup2\n        /* \"#utility.yul\":23825:23956   */\n      tag_268\n      jump\t// in\n    tag_512:\n        /* \"#utility.yul\":23817:23956   */\n      swap1\n      pop\n        /* \"#utility.yul\":23544:23963   */\n      swap2\n      swap1\n      pop\n      jump\t// out\n        /* \"#utility.yul\":23969:24160   */\n    tag_140:\n        /* \"#utility.yul\":24009:24012   */\n      0x00\n        /* \"#utility.yul\":24028:24048   */\n      tag_514\n        /* \"#utility.yul\":24046:24047   */\n      dup3\n        /* \"#utility.yul\":24028:24048   */\n      tag_203\n      jump\t// in\n    tag_514:\n        /* \"#utility.yul\":24023:24048   */\n      swap2\n      pop\n        /* \"#utility.yul\":24062:24082   */\n      tag_515\n        /* \"#utility.yul\":24080:24081   */\n      dup4\n        /* \"#utility.yul\":24062:24082   */\n      tag_203\n      jump\t// in\n    tag_515:\n        /* \"#utility.yul\":24057:24082   */\n      swap3\n      pop\n        /* \"#utility.yul\":24105:24106   */\n      dup3\n        /* \"#utility.yul\":24102:24103   */\n      dup3\n        /* \"#utility.yul\":24098:24107   */\n      add\n        /* \"#utility.yul\":24091:24107   */\n      swap1\n      pop\n        /* \"#utility.yul\":24126:24129   */\n      dup1\n        /* \"#utility.yul\":24123:24124   */\n      dup3\n        /* \"#utility.yul\":24120:24130   */\n      gt\n        /* \"#utility.yul\":24117:24153   */\n      iszero\n      tag_516\n      jumpi\n        /* \"#utility.yul\":24133:24151   */\n      tag_517\n      tag_249\n      jump\t// in\n    tag_517:\n        /* \"#utility.yul\":24117:24153   */\n    tag_516:\n        /* \"#utility.yul\":23969:24160   */\n      swap3\n      swap2\n      pop\n      pop\n      jump\t// out\n        /* \"#utility.yul\":24166:24330   */\n    tag_269:\n        /* \"#utility.yul\":24306:24322   */\n      0x4e6f7420617574686f72697a6564000000000000000000000000000000000000\n        /* \"#utility.yul\":24302:24303   */\n      0x00\n        /* \"#utility.yul\":24294:24300   */\n      dup3\n        /* \"#utility.yul\":24290:24304   */\n      add\n        /* \"#utility.yul\":24283:24323   */\n      mstore\n        /* \"#utility.yul\":24166:24330   */\n      pop\n      jump\t// out\n        /* \"#utility.yul\":24336:24702   */\n    tag_270:\n        /* \"#utility.yul\":24478:24481   */\n      0x00\n        /* \"#utility.yul\":24499:24566   */\n      tag_520\n        /* \"#utility.yul\":24563:24565   */\n      0x0e\n        /* \"#utility.yul\":24558:24561   */\n      dup4\n        /* \"#utility.yul\":24499:24566   */\n      tag_214\n      jump\t// in\n    tag_520:\n        /* \"#utility.yul\":24492:24566   */\n      swap2\n      pop\n        /* \"#utility.yul\":24575:24668   */\n      tag_521\n        /* \"#utility.yul\":24664:24667   */\n      dup3\n        /* \"#utility.yul\":24575:24668   */\n      tag_269\n      jump\t// in\n    tag_521:\n        /* \"#utility.yul\":24693:24695   */\n      0x20\n        /* \"#utility.yul\":24688:24691   */\n      dup3\n        /* \"#utility.yul\":24684:24696   */\n      add\n        /* \"#utility.yul\":24677:24696   */\n      swap1\n      pop\n        /* \"#utility.yul\":24336:24702   */\n      swap2\n      swap1\n      pop\n      jump\t// out\n        /* \"#utility.yul\":24708:25127   */\n    tag_179:\n        /* \"#utility.yul\":24874:24878   */\n      0x00\n        /* \"#utility.yul\":24912:24914   */\n      0x20\n        /* \"#utility.yul\":24901:24910   */\n      dup3\n        /* \"#utility.yul\":24897:24915   */\n      add\n        /* \"#utility.yul\":24889:24915   */\n      swap1\n      pop\n        /* \"#utility.yul\":24961:24970   */\n      dup2\n        /* \"#utility.yul\":24955:24959   */\n      dup2\n        /* \"#utility.yul\":24951:24971   */\n      sub\n        /* \"#utility.yul\":24947:24948   */\n      0x00\n        /* \"#utility.yul\":24936:24945   */\n      dup4\n        /* \"#utility.yul\":24932:24949   */\n      add\n        /* \"#utility.yul\":24925:24972   */\n      mstore\n        /* \"#utility.yul\":24989:25120   */\n      tag_523\n        /* \"#utility.yul\":25115:25119   */\n      dup2\n        /* \"#utility.yul\":24989:25120   */\n      tag_270\n      jump\t// in\n    tag_523:\n        /* \"#utility.yul\":24981:25120   */\n      swap1\n      pop\n        /* \"#utility.yul\":24708:25127   */\n      swap2\n      swap1\n      pop\n      jump\t// out\n        /* \"#utility.yul\":25133:25491   */\n    tag_190:\n        /* \"#utility.yul\":25267:25271   */\n      0x00\n        /* \"#utility.yul\":25305:25307   */\n      0x40\n        /* \"#utility.yul\":25294:25303   */\n      dup3\n        /* \"#utility.yul\":25290:25308   */\n      add\n        /* \"#utility.yul\":25282:25308   */\n      swap1\n      pop\n        /* \"#utility.yul\":25318:25389   */\n      tag_525\n        /* \"#utility.yul\":25386:25387   */\n      0x00\n        /* \"#utility.yul\":25375:25384   */\n      dup4\n        /* \"#utility.yul\":25371:25388   */\n      add\n        /* \"#utility.yul\":25362:25368   */\n      dup6\n        /* \"#utility.yul\":25318:25389   */\n      tag_208\n      jump\t// in\n    tag_525:\n        /* \"#utility.yul\":25399:25484   */\n      tag_526\n        /* \"#utility.yul\":25480:25482   */\n      0x20\n        /* \"#utility.yul\":25469:25478   */\n      dup4\n        /* \"#utility.yul\":25465:25483   */\n      add\n        /* \"#utility.yul\":25456:25462   */\n      dup5\n        /* \"#utility.yul\":25399:25484   */\n      tag_229\n      jump\t// in\n    tag_526:\n        /* \"#utility.yul\":25133:25491   */\n      swap4\n      swap3\n      pop\n      pop\n      pop\n      jump\t// out\n\n    auxdata: 0xa26469706673582212202f4530ad04192b5f4be4ab8ceba515bb4f76b294e06d74bbdd82547141f8203a64736f6c634300081a0033\n}\n",
				"bytecode": {
					"linkReferences": {},
					"object": "60806040525f600255348015610013575f80fd5b50604051611ec1380380611ec183398181016040528101906100359190610118565b335f806101000a81548173ffffffffffffffffffffffffffffffffffffffff021916908373ffffffffffffffffffffffffffffffffffffffff1602179055508060015f6101000a81548173ffffffffffffffffffffffffffffffffffffffff021916908373ffffffffffffffffffffffffffffffffffffffff16021790555050610143565b5f80fd5b5f73ffffffffffffffffffffffffffffffffffffffff82169050919050565b5f6100e7826100be565b9050919050565b6100f7816100dd565b8114610101575f80fd5b50565b5f81519050610112816100ee565b92915050565b5f6020828403121561012d5761012c6100ba565b5b5f61013a84828501610104565b91505092915050565b611d71806101505f395ff3fe6080604052600436106100c5575f3560e01c80638812b6801161007e5780639f62eb82116100585780639f62eb821461024d578063ba7b6e4f14610275578063e6cf0653146102b1578063ee6a1a8d146102db576100cc565b80638812b680146101d75780638d6eb55c146102075780638da5cb5b14610223576100cc565b80631f11d58c146100ce57806331b2a52a1461010a5780633ccfd60b1461013457806359fb49f91461013e5780637adbf973146101855780637dc0d1d0146101ad576100cc565b366100cc57005b005b3480156100d9575f80fd5b506100f460048036038101906100ef919061113d565b610305565b6040516101019190611228565b60405180910390f35b348015610115575f80fd5b5061011e610398565b60405161012b9190611257565b60405180910390f35b61013c6103a4565b005b348015610149575f80fd5b50610164600480360381019061015f919061129a565b6104dc565b60405161017c9c9b9a99989796959493929190611454565b60405180910390f35b348015610190575f80fd5b506101ab60048036038101906101a6919061113d565b610603565b005b3480156101b8575f80fd5b506101c16106d3565b6040516101ce9190611522565b60405180910390f35b6101f160048036038101906101ec919061159c565b6106f8565b6040516101fe9190611257565b60405180910390f35b610221600480360381019061021c919061129a565b610988565b005b34801561022e575f80fd5b50610237610e98565b6040516102449190611522565b60405180910390f35b348015610258575f80fd5b50610273600480360381019061026e9190611630565b610ebb565b005b348015610280575f80fd5b5061029b60048036038101906102969190611680565b61109e565b6040516102a89190611257565b60405180910390f35b3480156102bc575f80fd5b506102c56110c9565b6040516102d29190611257565b60405180910390f35b3480156102e6575f80fd5b506102ef6110cf565b6040516102fc9190611257565b60405180910390f35b606060045f8373ffffffffffffffffffffffffffffffffffffffff1673ffffffffffffffffffffffffffffffffffffffff1681526020019081526020015f2080548060200260200160405190810160405280929190818152602001828054801561038c57602002820191905f5260205f20905b815481526020019060010190808311610378575b50505050509050919050565b6753444835ec58000081565b5f8054906101000a900473ffffffffffffffffffffffffffffffffffffffff1673ffffffffffffffffffffffffffffffffffffffff163373ffffffffffffffffffffffffffffffffffffffff1614610431576040517f08c379a000000000000000000000000000000000000000000000000000000000815260040161042890611708565b60405180910390fd5b5f3373ffffffffffffffffffffffffffffffffffffffff164760405161045690611753565b5f6040518083038185875af1925050503d805f8114610490576040519150601f19603f3d011682016040523d82523d5f602084013e610495565b606091505b50509050806104d9576040517f08c379a00000000000000000000000000000000000000000000000000000000081526004016104d0906117b1565b60405180910390fd5b50565b6003602052805f5260405f205f91509050805f015f9054906101000a900473ffffffffffffffffffffffffffffffffffffffff1690806001018054610520906117fc565b80601f016020809104026020016040519081016040528092919081815260200182805461054c906117fc565b80156105975780601f1061056e57610100808354040283529160200191610597565b820191905f5260205f20905b81548152906001019060200180831161057a57829003601f168201915b505050505090806002015490806003015490806004015490806005015490806006015490806007015490806008015490806009015f9054906101000a900460ff16908060090160019054906101000a900460ff16908060090160029054906101000a900460ff1690508c565b5f8054906101000a900473ffffffffffffffffffffffffffffffffffffffff1673ffffffffffffffffffffffffffffffffffffffff163373ffffffffffffffffffffffffffffffffffffffff1614610690576040517f08c379a000000000000000000000000000000000000000000000000000000000815260040161068790611708565b60405180910390fd5b8060015f6101000a81548173ffffffffffffffffffffffffffffffffffffffff021916908373ffffffffffffffffffffffffffffffffffffffff16021790555050565b60015f9054906101000a900473ffffffffffffffffffffffffffffffffffffffff1681565b5f82821161073b576040517f08c379a000000000000000000000000000000000000000000000000000000000815260040161073290611876565b60405180910390fd5b670429d069189e00003414610785576040517f08c379a000000000000000000000000000000000000000000000000000000000815260040161077c906118de565b60405180910390fd5b60025f81548092919061079790611929565b9190505590505f60035f8381526020019081526020015f20905033815f015f6101000a81548173ffffffffffffffffffffffffffffffffffffffff021916908373ffffffffffffffffffffffffffffffffffffffff1602179055508585826001019182610805929190611b44565b508381600201819055508281600301819055505f81600401819055504281600501819055506138408160060181905550670429d069189e000081600701819055506753444835ec58000081600801819055505f816009015f6101000a81548160ff0219169083600281111561087d5761087c611355565b5b02179055505f8160090160016101000a81548160ff021916908360028111156108a9576108a8611355565b5b02179055505f8160090160026101000a81548160ff021916908360028111156108d5576108d4611355565b5b021790555060045f3373ffffffffffffffffffffffffffffffffffffffff1673ffffffffffffffffffffffffffffffffffffffff1681526020019081526020015f2082908060018154018082558091505060019003905f5260205f20015f90919091909150553373ffffffffffffffffffffffffffffffffffffffff16827f362a18d483785c7cbd3eedc8134897c38959f9330c5dfe708330173600280a4c60405160405180910390a350949350505050565b5f8054906101000a900473ffffffffffffffffffffffffffffffffffffffff1673ffffffffffffffffffffffffffffffffffffffff163373ffffffffffffffffffffffffffffffffffffffff1614610a15576040517f08c379a0000000000000000000000000000000000000000000000000000000008152600401610a0c90611708565b60405180910390fd5b5f60035f8381526020019081526020015f2090505f6002811115610a3c57610a3b611355565b5b816009015f9054906101000a900460ff166002811115610a5f57610a5e611355565b5b14610a9f576040517f08c379a0000000000000000000000000000000000000000000000000000000008152600401610a9690611c5b565b60405180910390fd5b80600601548160030154610ab39190611c79565b421015610af657428160050181905550817f44ea6cd4a30857868ca250b1d94459ec789d82611c70f26164bffda153f1bc0a60405160405180910390a250610e95565b60016002811115610b0a57610b09611355565b5b8160090160029054906101000a900460ff166002811115610b2e57610b2d611355565b5b03610bbf576001816009015f6101000a81548160ff02191690836002811115610b5a57610b59611355565b5b021790555060028160090160016101000a81548160ff02191690836002811115610b8757610b86611355565b5b0217905550817fce497f2d2d439d5ac116f719fa47580e5922b4944a0f698d2327162c6eb3b7ac60405160405180910390a250610e95565b5f8160040154148015610be457506203f4808160030154610be09190611c79565b4210155b15610ca2576001816009015f6101000a81548160ff02191690836002811115610c1057610c0f611355565b5b021790555060028160090160016101000a81548160ff02191690836002811115610c3d57610c3c611355565b5b021790555060028160090160026101000a81548160ff02191690836002811115610c6a57610c69611355565b5b0217905550817fac9706c516a83df0060e911fa5b8a2fd1acedc32c29e4a4dad6fe2061caceff260405160405180910390a250610e95565b5f816004015403610ce957428160050181905550817fb69f5371ebf20cdf43bb4d5fb074d977d10508b688a49267b829acfcd727c02660405160405180910390a250610e95565b80600601548160030154610cfd9190611c79565b816004015411610d92576001816009015f6101000a81548160ff02191690836002811115610d2e57610d2d611355565b5b021790555060028160090160016101000a81548160ff02191690836002811115610d5b57610d5a611355565b5b0217905550817fa0a8cd3c30c1f1eee66987b51c20e8f2adf28114a41e24dddb595eaa93f3613160405160405180910390a2610e93565b5f816008015490506002826009015f6101000a81548160ff02191690836002811115610dc157610dc0611355565b5b021790555060018260090160016101000a81548160ff02191690836002811115610dee57610ded611355565b5b0217905550815f015f9054906101000a900473ffffffffffffffffffffffffffffffffffffffff1673ffffffffffffffffffffffffffffffffffffffff166108fc8290811502906040515f60405180830381858888f19350505050158015610e58573d5f803e3d5ffd5b50827fb0727183796e52c5bb00a257c1eb36d8e94dbee5d6d87e259287e3372ae39ace82604051610e899190611257565b60405180910390a2505b505b50565b5f8054906101000a900473ffffffffffffffffffffffffffffffffffffffff1681565b60015f9054906101000a900473ffffffffffffffffffffffffffffffffffffffff1673ffffffffffffffffffffffffffffffffffffffff163373ffffffffffffffffffffffffffffffffffffffff161480610f6057505f8054906101000a900473ffffffffffffffffffffffffffffffffffffffff1673ffffffffffffffffffffffffffffffffffffffff163373ffffffffffffffffffffffffffffffffffffffff16145b610f9f576040517f08c379a0000000000000000000000000000000000000000000000000000000008152600401610f9690611cf6565b60405180910390fd5b5f60035f8581526020019081526020015f2090505f6002811115610fc657610fc5611355565b5b816009015f9054906101000a900460ff166002811115610fe957610fe8611355565b5b14611029576040517f08c379a000000000000000000000000000000000000000000000000000000000815260040161102090611c5b565b60405180910390fd5b828160040181905550818160090160026101000a81548160ff0219169083600281111561105957611058611355565b5b0217905550837fefbe4568c3e8b3451436ae01df5e7365a5206dce94e54f32d21eb8b0a85e7f9e8484604051611090929190611d14565b60405180910390a250505050565b6004602052815f5260405f2081815481106110b7575f80fd5b905f5260205f20015f91509150505481565b61384081565b670429d069189e000081565b5f80fd5b5f80fd5b5f73ffffffffffffffffffffffffffffffffffffffff82169050919050565b5f61110c826110e3565b9050919050565b61111c81611102565b8114611126575f80fd5b50565b5f8135905061113781611113565b92915050565b5f60208284031215611152576111516110db565b5b5f61115f84828501611129565b91505092915050565b5f81519050919050565b5f82825260208201905092915050565b5f819050602082019050919050565b5f819050919050565b6111a381611191565b82525050565b5f6111b4838361119a565b60208301905092915050565b5f602082019050919050565b5f6111d682611168565b6111e08185611172565b93506111eb83611182565b805f5b8381101561121b57815161120288826111a9565b975061120d836111c0565b9250506001810190506111ee565b5085935050505092915050565b5f6020820190508181035f83015261124081846111cc565b905092915050565b61125181611191565b82525050565b5f60208201905061126a5f830184611248565b92915050565b61127981611191565b8114611283575f80fd5b50565b5f8135905061129481611270565b92915050565b5f602082840312156112af576112ae6110db565b5b5f6112bc84828501611286565b91505092915050565b5f6112cf826110e3565b9050919050565b6112df816112c5565b82525050565b5f81519050919050565b5f82825260208201905092915050565b8281835e5f83830152505050565b5f601f19601f8301169050919050565b5f611327826112e5565b61133181856112ef565b93506113418185602086016112ff565b61134a8161130d565b840191505092915050565b7f4e487b71000000000000000000000000000000000000000000000000000000005f52602160045260245ffd5b6003811061139357611392611355565b5b50565b5f8190506113a382611382565b919050565b5f6113b282611396565b9050919050565b6113c2816113a8565b82525050565b600381106113d9576113d8611355565b5b50565b5f8190506113e9826113c8565b919050565b5f6113f8826113dc565b9050919050565b611408816113ee565b82525050565b6003811061141f5761141e611355565b5b50565b5f81905061142f8261140e565b919050565b5f61143e82611422565b9050919050565b61144e81611434565b82525050565b5f610180820190506114685f83018f6112d6565b818103602083015261147a818e61131d565b9050611489604083018d611248565b611496606083018c611248565b6114a3608083018b611248565b6114b060a083018a611248565b6114bd60c0830189611248565b6114ca60e0830188611248565b6114d8610100830187611248565b6114e66101208301866113b9565b6114f46101408301856113ff565b611502610160830184611445565b9d9c50505050505050505050505050565b61151c81611102565b82525050565b5f6020820190506115355f830184611513565b92915050565b5f80fd5b5f80fd5b5f80fd5b5f8083601f84011261155c5761155b61153b565b5b8235905067ffffffffffffffff8111156115795761157861153f565b5b60208301915083600182028301111561159557611594611543565b5b9250929050565b5f805f80606085870312156115b4576115b36110db565b5b5f85013567ffffffffffffffff8111156115d1576115d06110df565b5b6115dd87828801611547565b945094505060206115f087828801611286565b925050604061160187828801611286565b91505092959194509250565b60038110611619575f80fd5b50565b5f8135905061162a8161160d565b92915050565b5f805f60608486031215611647576116466110db565b5b5f61165486828701611286565b935050602061166586828701611286565b92505060406116768682870161161c565b9150509250925092565b5f8060408385031215611696576116956110db565b5b5f6116a385828601611129565b92505060206116b485828601611286565b9150509250929050565b7f4f776e6572206f6e6c79000000000000000000000000000000000000000000005f82015250565b5f6116f2600a836112ef565b91506116fd826116be565b602082019050919050565b5f6020820190508181035f83015261171f816116e6565b9050919050565b5f81905092915050565b50565b5f61173e5f83611726565b915061174982611730565b5f82019050919050565b5f61175d82611733565b9150819050919050565b7f5769746864726177204661696c656420210000000000000000000000000000005f82015250565b5f61179b6011836112ef565b91506117a682611767565b602082019050919050565b5f6020820190508181035f8301526117c88161178f565b9050919050565b7f4e487b71000000000000000000000000000000000000000000000000000000005f52602260045260245ffd5b5f600282049050600182168061181357607f821691505b602082108103611826576118256117cf565b5b50919050565b7f5450206d757374206265206166746572205431000000000000000000000000005f82015250565b5f6118606013836112ef565b915061186b8261182c565b602082019050919050565b5f6020820190508181035f83015261188d81611854565b9050919050565b7f496e636f7272656374207072656d69756d2073656e74000000000000000000005f82015250565b5f6118c86016836112ef565b91506118d382611894565b602082019050919050565b5f6020820190508181035f8301526118f5816118bc565b9050919050565b7f4e487b71000000000000000000000000000000000000000000000000000000005f52601160045260245ffd5b5f61193382611191565b91507fffffffffffffffffffffffffffffffffffffffffffffffffffffffffffffffff8203611965576119646118fc565b5b600182019050919050565b5f82905092915050565b7f4e487b71000000000000000000000000000000000000000000000000000000005f52604160045260245ffd5b5f819050815f5260205f209050919050565b5f6020601f8301049050919050565b5f82821b905092915050565b5f60088302611a037fffffffffffffffffffffffffffffffffffffffffffffffffffffffffffffffff826119c8565b611a0d86836119c8565b95508019841693508086168417925050509392505050565b5f819050919050565b5f611a48611a43611a3e84611191565b611a25565b611191565b9050919050565b5f819050919050565b611a6183611a2e565b611a75611a6d82611a4f565b8484546119d4565b825550505050565b5f90565b611a89611a7d565b611a94818484611a58565b505050565b5b81811015611ab757611aac5f82611a81565b600181019050611a9a565b5050565b601f821115611afc57611acd816119a7565b611ad6846119b9565b81016020851015611ae5578190505b611af9611af1856119b9565b830182611a99565b50505b505050565b5f82821c905092915050565b5f611b1c5f1984600802611b01565b1980831691505092915050565b5f611b348383611b0d565b9150826002028217905092915050565b611b4e8383611970565b67ffffffffffffffff811115611b6757611b6661197a565b5b611b7182546117fc565b611b7c828285611abb565b5f601f831160018114611ba9575f8415611b97578287013590505b611ba18582611b29565b865550611c08565b601f198416611bb7866119a7565b5f5b82811015611bde57848901358255600182019150602085019450602081019050611bb9565b86831015611bfb5784890135611bf7601f891682611b0d565b8355505b6001600288020188555050505b50505050505050565b7f496e737572616e6365206e6f74206163746976650000000000000000000000005f82015250565b5f611c456014836112ef565b9150611c5082611c11565b602082019050919050565b5f6020820190508181035f830152611c7281611c39565b9050919050565b5f611c8382611191565b9150611c8e83611191565b9250828201905080821115611ca657611ca56118fc565b5b92915050565b7f4e6f7420617574686f72697a65640000000000000000000000000000000000005f82015250565b5f611ce0600e836112ef565b9150611ceb82611cac565b602082019050919050565b5f6020820190508181035f830152611d0d81611cd4565b9050919050565b5f604082019050611d275f830185611248565b611d346020830184611445565b939250505056fea26469706673582212202f4530ad04192b5f4be4ab8ceba515bb4f76b294e06d74bbdd82547141f8203a64736f6c634300081a0033",
					"opcodes": "PUSH1 0x80 PUSH1 0x40 MSTORE PUSH0 PUSH1 0x2 SSTORE CALLVALUE DUP1 ISZERO PUSH2 0x13 JUMPI PUSH0 DUP1 REVERT JUMPDEST POP PUSH1 0x40 MLOAD PUSH2 0x1EC1 CODESIZE SUB DUP1 PUSH2 0x1EC1 DUP4 CODECOPY DUP2 DUP2 ADD PUSH1 0x40 MSTORE DUP2 ADD SWAP1 PUSH2 0x35 SWAP2 SWAP1 PUSH2 0x118 JUMP JUMPDEST CALLER PUSH0 DUP1 PUSH2 0x100 EXP DUP2 SLOAD DUP2 PUSH20 0xFFFFFFFFFFFFFFFFFFFFFFFFFFFFFFFFFFFFFFFF MUL NOT AND SWAP1 DUP4 PUSH20 0xFFFFFFFFFFFFFFFFFFFFFFFFFFFFFFFFFFFFFFFF AND MUL OR SWAP1 SSTORE POP DUP1 PUSH1 0x1 PUSH0 PUSH2 0x100 EXP DUP2 SLOAD DUP2 PUSH20 0xFFFFFFFFFFFFFFFFFFFFFFFFFFFFFFFFFFFFFFFF MUL NOT AND SWAP1 DUP4 PUSH20 0xFFFFFFFFFFFFFFFFFFFFFFFFFFFFFFFFFFFFFFFF AND MUL OR SWAP1 SSTORE POP POP PUSH2 0x143 JUMP JUMPDEST PUSH0 DUP1 REVERT JUMPDEST PUSH0 PUSH20 0xFFFFFFFFFFFFFFFFFFFFFFFFFFFFFFFFFFFFFFFF DUP3 AND SWAP1 POP SWAP2 SWAP1 POP JUMP JUMPDEST PUSH0 PUSH2 0xE7 DUP3 PUSH2 0xBE JUMP JUMPDEST SWAP1 POP SWAP2 SWAP1 POP JUMP JUMPDEST PUSH2 0xF7 DUP2 PUSH2 0xDD JUMP JUMPDEST DUP2 EQ PUSH2 0x101 JUMPI PUSH0 DUP1 REVERT JUMPDEST POP JUMP JUMPDEST PUSH0 DUP2 MLOAD SWAP1 POP PUSH2 0x112 DUP2 PUSH2 0xEE JUMP JUMPDEST SWAP3 SWAP2 POP POP JUMP JUMPDEST PUSH0 PUSH1 0x20 DUP3 DUP5 SUB SLT ISZERO PUSH2 0x12D JUMPI PUSH2 0x12C PUSH2 0xBA JUMP JUMPDEST JUMPDEST PUSH0 PUSH2 0x13A DUP5 DUP3 DUP6 ADD PUSH2 0x104 JUMP JUMPDEST SWAP2 POP POP SWAP3 SWAP2 POP POP JUMP JUMPDEST PUSH2 0x1D71 DUP1 PUSH2 0x150 PUSH0 CODECOPY PUSH0 RETURN INVALID PUSH1 0x80 PUSH1 0x40 MSTORE PUSH1 0x4 CALLDATASIZE LT PUSH2 0xC5 JUMPI PUSH0 CALLDATALOAD PUSH1 0xE0 SHR DUP1 PUSH4 0x8812B680 GT PUSH2 0x7E JUMPI DUP1 PUSH4 0x9F62EB82 GT PUSH2 0x58 JUMPI DUP1 PUSH4 0x9F62EB82 EQ PUSH2 0x24D JUMPI DUP1 PUSH4 0xBA7B6E4F EQ PUSH2 0x275 JUMPI DUP1 PUSH4 0xE6CF0653 EQ PUSH2 0x2B1 JUMPI DUP1 PUSH4 0xEE6A1A8D EQ PUSH2 0x2DB JUMPI PUSH2 0xCC JUMP JUMPDEST DUP1 PUSH4 0x8812B680 EQ PUSH2 0x1D7 JUMPI DUP1 PUSH4 0x8D6EB55C EQ PUSH2 0x207 JUMPI DUP1 PUSH4 0x8DA5CB5B EQ PUSH2 0x223 JUMPI PUSH2 0xCC JUMP JUMPDEST DUP1 PUSH4 0x1F11D58C EQ PUSH2 0xCE JUMPI DUP1 PUSH4 0x31B2A52A EQ PUSH2 0x10A JUMPI DUP1 PUSH4 0x3CCFD60B EQ PUSH2 0x134 JUMPI DUP1 PUSH4 0x59FB49F9 EQ PUSH2 0x13E JUMPI DUP1 PUSH4 0x7ADBF973 EQ PUSH2 0x185 JUMPI DUP1 PUSH4 0x7DC0D1D0 EQ PUSH2 0x1AD JUMPI PUSH2 0xCC JUMP JUMPDEST CALLDATASIZE PUSH2 0xCC JUMPI STOP JUMPDEST STOP JUMPDEST CALLVALUE DUP1 ISZERO PUSH2 0xD9 JUMPI PUSH0 DUP1 REVERT JUMPDEST POP PUSH2 0xF4 PUSH1 0x4 DUP1 CALLDATASIZE SUB DUP2 ADD SWAP1 PUSH2 0xEF SWAP2 SWAP1 PUSH2 0x113D JUMP JUMPDEST PUSH2 0x305 JUMP JUMPDEST PUSH1 0x40 MLOAD PUSH2 0x101 SWAP2 SWAP1 PUSH2 0x1228 JUMP JUMPDEST PUSH1 0x40 MLOAD DUP1 SWAP2 SUB SWAP1 RETURN JUMPDEST CALLVALUE DUP1 ISZERO PUSH2 0x115 JUMPI PUSH0 DUP1 REVERT JUMPDEST POP PUSH2 0x11E PUSH2 0x398 JUMP JUMPDEST PUSH1 0x40 MLOAD PUSH2 0x12B SWAP2 SWAP1 PUSH2 0x1257 JUMP JUMPDEST PUSH1 0x40 MLOAD DUP1 SWAP2 SUB SWAP1 RETURN JUMPDEST PUSH2 0x13C PUSH2 0x3A4 JUMP JUMPDEST STOP JUMPDEST CALLVALUE DUP1 ISZERO PUSH2 0x149 JUMPI PUSH0 DUP1 REVERT JUMPDEST POP PUSH2 0x164 PUSH1 0x4 DUP1 CALLDATASIZE SUB DUP2 ADD SWAP1 PUSH2 0x15F SWAP2 SWAP1 PUSH2 0x129A JUMP JUMPDEST PUSH2 0x4DC JUMP JUMPDEST PUSH1 0x40 MLOAD PUSH2 0x17C SWAP13 SWAP12 SWAP11 SWAP10 SWAP9 SWAP8 SWAP7 SWAP6 SWAP5 SWAP4 SWAP3 SWAP2 SWAP1 PUSH2 0x1454 JUMP JUMPDEST PUSH1 0x40 MLOAD DUP1 SWAP2 SUB SWAP1 RETURN JUMPDEST CALLVALUE DUP1 ISZERO PUSH2 0x190 JUMPI PUSH0 DUP1 REVERT JUMPDEST POP PUSH2 0x1AB PUSH1 0x4 DUP1 CALLDATASIZE SUB DUP2 ADD SWAP1 PUSH2 0x1A6 SWAP2 SWAP1 PUSH2 0x113D JUMP JUMPDEST PUSH2 0x603 JUMP JUMPDEST STOP JUMPDEST CALLVALUE DUP1 ISZERO PUSH2 0x1B8 JUMPI PUSH0 DUP1 REVERT JUMPDEST POP PUSH2 0x1C1 PUSH2 0x6D3 JUMP JUMPDEST PUSH1 0x40 MLOAD PUSH2 0x1CE SWAP2 SWAP1 PUSH2 0x1522 JUMP JUMPDEST PUSH1 0x40 MLOAD DUP1 SWAP2 SUB SWAP1 RETURN JUMPDEST PUSH2 0x1F1 PUSH1 0x4 DUP1 CALLDATASIZE SUB DUP2 ADD SWAP1 PUSH2 0x1EC SWAP2 SWAP1 PUSH2 0x159C JUMP JUMPDEST PUSH2 0x6F8 JUMP JUMPDEST PUSH1 0x40 MLOAD PUSH2 0x1FE SWAP2 SWAP1 PUSH2 0x1257 JUMP JUMPDEST PUSH1 0x40 MLOAD DUP1 SWAP2 SUB SWAP1 RETURN JUMPDEST PUSH2 0x221 PUSH1 0x4 DUP1 CALLDATASIZE SUB DUP2 ADD SWAP1 PUSH2 0x21C SWAP2 SWAP1 PUSH2 0x129A JUMP JUMPDEST PUSH2 0x988 JUMP JUMPDEST STOP JUMPDEST CALLVALUE DUP1 ISZERO PUSH2 0x22E JUMPI PUSH0 DUP1 REVERT JUMPDEST POP PUSH2 0x237 PUSH2 0xE98 JUMP JUMPDEST PUSH1 0x40 MLOAD PUSH2 0x244 SWAP2 SWAP1 PUSH2 0x1522 JUMP JUMPDEST PUSH1 0x40 MLOAD DUP1 SWAP2 SUB SWAP1 RETURN JUMPDEST CALLVALUE DUP1 ISZERO PUSH2 0x258 JUMPI PUSH0 DUP1 REVERT JUMPDEST POP PUSH2 0x273 PUSH1 0x4 DUP1 CALLDATASIZE SUB DUP2 ADD SWAP1 PUSH2 0x26E SWAP2 SWAP1 PUSH2 0x1630 JUMP JUMPDEST PUSH2 0xEBB JUMP JUMPDEST STOP JUMPDEST CALLVALUE DUP1 ISZERO PUSH2 0x280 JUMPI PUSH0 DUP1 REVERT JUMPDEST POP PUSH2 0x29B PUSH1 0x4 DUP1 CALLDATASIZE SUB DUP2 ADD SWAP1 PUSH2 0x296 SWAP2 SWAP1 PUSH2 0x1680 JUMP JUMPDEST PUSH2 0x109E JUMP JUMPDEST PUSH1 0x40 MLOAD PUSH2 0x2A8 SWAP2 SWAP1 PUSH2 0x1257 JUMP JUMPDEST PUSH1 0x40 MLOAD DUP1 SWAP2 SUB SWAP1 RETURN JUMPDEST CALLVALUE DUP1 ISZERO PUSH2 0x2BC JUMPI PUSH0 DUP1 REVERT JUMPDEST POP PUSH2 0x2C5 PUSH2 0x10C9 JUMP JUMPDEST PUSH1 0x40 MLOAD PUSH2 0x2D2 SWAP2 SWAP1 PUSH2 0x1257 JUMP JUMPDEST PUSH1 0x40 MLOAD DUP1 SWAP2 SUB SWAP1 RETURN JUMPDEST CALLVALUE DUP1 ISZERO PUSH2 0x2E6 JUMPI PUSH0 DUP1 REVERT JUMPDEST POP PUSH2 0x2EF PUSH2 0x10CF JUMP JUMPDEST PUSH1 0x40 MLOAD PUSH2 0x2FC SWAP2 SWAP1 PUSH2 0x1257 JUMP JUMPDEST PUSH1 0x40 MLOAD DUP1 SWAP2 SUB SWAP1 RETURN JUMPDEST PUSH1 0x60 PUSH1 0x4 PUSH0 DUP4 PUSH20 0xFFFFFFFFFFFFFFFFFFFFFFFFFFFFFFFFFFFFFFFF AND PUSH20 0xFFFFFFFFFFFFFFFFFFFFFFFFFFFFFFFFFFFFFFFF AND DUP2 MSTORE PUSH1 0x20 ADD SWAP1 DUP2 MSTORE PUSH1 0x20 ADD PUSH0 KECCAK256 DUP1 SLOAD DUP1 PUSH1 0x20 MUL PUSH1 0x20 ADD PUSH1 0x40 MLOAD SWAP1 DUP2 ADD PUSH1 0x40 MSTORE DUP1 SWAP3 SWAP2 SWAP1 DUP2 DUP2 MSTORE PUSH1 0x20 ADD DUP3 DUP1 SLOAD DUP1 ISZERO PUSH2 0x38C JUMPI PUSH1 0x20 MUL DUP3 ADD SWAP2 SWAP1 PUSH0 MSTORE PUSH1 0x20 PUSH0 KECCAK256 SWAP1 JUMPDEST DUP2 SLOAD DUP2 MSTORE PUSH1 0x20 ADD SWAP1 PUSH1 0x1 ADD SWAP1 DUP1 DUP4 GT PUSH2 0x378 JUMPI JUMPDEST POP POP POP POP POP SWAP1 POP SWAP2 SWAP1 POP JUMP JUMPDEST PUSH8 0x53444835EC580000 DUP2 JUMP JUMPDEST PUSH0 DUP1 SLOAD SWAP1 PUSH2 0x100 EXP SWAP1 DIV PUSH20 0xFFFFFFFFFFFFFFFFFFFFFFFFFFFFFFFFFFFFFFFF AND PUSH20 0xFFFFFFFFFFFFFFFFFFFFFFFFFFFFFFFFFFFFFFFF AND CALLER PUSH20 0xFFFFFFFFFFFFFFFFFFFFFFFFFFFFFFFFFFFFFFFF AND EQ PUSH2 0x431 JUMPI PUSH1 0x40 MLOAD PUSH32 0x8C379A000000000000000000000000000000000000000000000000000000000 DUP2 MSTORE PUSH1 0x4 ADD PUSH2 0x428 SWAP1 PUSH2 0x1708 JUMP JUMPDEST PUSH1 0x40 MLOAD DUP1 SWAP2 SUB SWAP1 REVERT JUMPDEST PUSH0 CALLER PUSH20 0xFFFFFFFFFFFFFFFFFFFFFFFFFFFFFFFFFFFFFFFF AND SELFBALANCE PUSH1 0x40 MLOAD PUSH2 0x456 SWAP1 PUSH2 0x1753 JUMP JUMPDEST PUSH0 PUSH1 0x40 MLOAD DUP1 DUP4 SUB DUP2 DUP6 DUP8 GAS CALL SWAP3 POP POP POP RETURNDATASIZE DUP1 PUSH0 DUP2 EQ PUSH2 0x490 JUMPI PUSH1 0x40 MLOAD SWAP2 POP PUSH1 0x1F NOT PUSH1 0x3F RETURNDATASIZE ADD AND DUP3 ADD PUSH1 0x40 MSTORE RETURNDATASIZE DUP3 MSTORE RETURNDATASIZE PUSH0 PUSH1 0x20 DUP5 ADD RETURNDATACOPY PUSH2 0x495 JUMP JUMPDEST PUSH1 0x60 SWAP2 POP JUMPDEST POP POP SWAP1 POP DUP1 PUSH2 0x4D9 JUMPI PUSH1 0x40 MLOAD PUSH32 0x8C379A000000000000000000000000000000000000000000000000000000000 DUP2 MSTORE PUSH1 0x4 ADD PUSH2 0x4D0 SWAP1 PUSH2 0x17B1 JUMP JUMPDEST PUSH1 0x40 MLOAD DUP1 SWAP2 SUB SWAP1 REVERT JUMPDEST POP JUMP JUMPDEST PUSH1 0x3 PUSH1 0x20 MSTORE DUP1 PUSH0 MSTORE PUSH1 0x40 PUSH0 KECCAK256 PUSH0 SWAP2 POP SWAP1 POP DUP1 PUSH0 ADD PUSH0 SWAP1 SLOAD SWAP1 PUSH2 0x100 EXP SWAP1 DIV PUSH20 0xFFFFFFFFFFFFFFFFFFFFFFFFFFFFFFFFFFFFFFFF AND SWAP1 DUP1 PUSH1 0x1 ADD DUP1 SLOAD PUSH2 0x520 SWAP1 PUSH2 0x17FC JUMP JUMPDEST DUP1 PUSH1 0x1F ADD PUSH1 0x20 DUP1 SWAP2 DIV MUL PUSH1 0x20 ADD PUSH1 0x40 MLOAD SWAP1 DUP2 ADD PUSH1 0x40 MSTORE DUP1 SWAP3 SWAP2 SWAP1 DUP2 DUP2 MSTORE PUSH1 0x20 ADD DUP3 DUP1 SLOAD PUSH2 0x54C SWAP1 PUSH2 0x17FC JUMP JUMPDEST DUP1 ISZERO PUSH2 0x597 JUMPI DUP1 PUSH1 0x1F LT PUSH2 0x56E JUMPI PUSH2 0x100 DUP1 DUP4 SLOAD DIV MUL DUP4 MSTORE SWAP2 PUSH1 0x20 ADD SWAP2 PUSH2 0x597 JUMP JUMPDEST DUP3 ADD SWAP2 SWAP1 PUSH0 MSTORE PUSH1 0x20 PUSH0 KECCAK256 SWAP1 JUMPDEST DUP2 SLOAD DUP2 MSTORE SWAP1 PUSH1 0x1 ADD SWAP1 PUSH1 0x20 ADD DUP1 DUP4 GT PUSH2 0x57A JUMPI DUP3 SWAP1 SUB PUSH1 0x1F AND DUP3 ADD SWAP2 JUMPDEST POP POP POP POP POP SWAP1 DUP1 PUSH1 0x2 ADD SLOAD SWAP1 DUP1 PUSH1 0x3 ADD SLOAD SWAP1 DUP1 PUSH1 0x4 ADD SLOAD SWAP1 DUP1 PUSH1 0x5 ADD SLOAD SWAP1 DUP1 PUSH1 0x6 ADD SLOAD SWAP1 DUP1 PUSH1 0x7 ADD SLOAD SWAP1 DUP1 PUSH1 0x8 ADD SLOAD SWAP1 DUP1 PUSH1 0x9 ADD PUSH0 SWAP1 SLOAD SWAP1 PUSH2 0x100 EXP SWAP1 DIV PUSH1 0xFF AND SWAP1 DUP1 PUSH1 0x9 ADD PUSH1 0x1 SWAP1 SLOAD SWAP1 PUSH2 0x100 EXP SWAP1 DIV PUSH1 0xFF AND SWAP1 DUP1 PUSH1 0x9 ADD PUSH1 0x2 SWAP1 SLOAD SWAP1 PUSH2 0x100 EXP SWAP1 DIV PUSH1 0xFF AND SWAP1 POP DUP13 JUMP JUMPDEST PUSH0 DUP1 SLOAD SWAP1 PUSH2 0x100 EXP SWAP1 DIV PUSH20 0xFFFFFFFFFFFFFFFFFFFFFFFFFFFFFFFFFFFFFFFF AND PUSH20 0xFFFFFFFFFFFFFFFFFFFFFFFFFFFFFFFFFFFFFFFF AND CALLER PUSH20 0xFFFFFFFFFFFFFFFFFFFFFFFFFFFFFFFFFFFFFFFF AND EQ PUSH2 0x690 JUMPI PUSH1 0x40 MLOAD PUSH32 0x8C379A000000000000000000000000000000000000000000000000000000000 DUP2 MSTORE PUSH1 0x4 ADD PUSH2 0x687 SWAP1 PUSH2 0x1708 JUMP JUMPDEST PUSH1 0x40 MLOAD DUP1 SWAP2 SUB SWAP1 REVERT JUMPDEST DUP1 PUSH1 0x1 PUSH0 PUSH2 0x100 EXP DUP2 SLOAD DUP2 PUSH20 0xFFFFFFFFFFFFFFFFFFFFFFFFFFFFFFFFFFFFFFFF MUL NOT AND SWAP1 DUP4 PUSH20 0xFFFFFFFFFFFFFFFFFFFFFFFFFFFFFFFFFFFFFFFF AND MUL OR SWAP1 SSTORE POP POP JUMP JUMPDEST PUSH1 0x1 PUSH0 SWAP1 SLOAD SWAP1 PUSH2 0x100 EXP SWAP1 DIV PUSH20 0xFFFFFFFFFFFFFFFFFFFFFFFFFFFFFFFFFFFFFFFF AND DUP2 JUMP JUMPDEST PUSH0 DUP3 DUP3 GT PUSH2 0x73B JUMPI PUSH1 0x40 MLOAD PUSH32 0x8C379A000000000000000000000000000000000000000000000000000000000 DUP2 MSTORE PUSH1 0x4 ADD PUSH2 0x732 SWAP1 PUSH2 0x1876 JUMP JUMPDEST PUSH1 0x40 MLOAD DUP1 SWAP2 SUB SWAP1 REVERT JUMPDEST PUSH8 0x429D069189E0000 CALLVALUE EQ PUSH2 0x785 JUMPI PUSH1 0x40 MLOAD PUSH32 0x8C379A000000000000000000000000000000000000000000000000000000000 DUP2 MSTORE PUSH1 0x4 ADD PUSH2 0x77C SWAP1 PUSH2 0x18DE JUMP JUMPDEST PUSH1 0x40 MLOAD DUP1 SWAP2 SUB SWAP1 REVERT JUMPDEST PUSH1 0x2 PUSH0 DUP2 SLOAD DUP1 SWAP3 SWAP2 SWAP1 PUSH2 0x797 SWAP1 PUSH2 0x1929 JUMP JUMPDEST SWAP2 SWAP1 POP SSTORE SWAP1 POP PUSH0 PUSH1 0x3 PUSH0 DUP4 DUP2 MSTORE PUSH1 0x20 ADD SWAP1 DUP2 MSTORE PUSH1 0x20 ADD PUSH0 KECCAK256 SWAP1 POP CALLER DUP2 PUSH0 ADD PUSH0 PUSH2 0x100 EXP DUP2 SLOAD DUP2 PUSH20 0xFFFFFFFFFFFFFFFFFFFFFFFFFFFFFFFFFFFFFFFF MUL NOT AND SWAP1 DUP4 PUSH20 0xFFFFFFFFFFFFFFFFFFFFFFFFFFFFFFFFFFFFFFFF AND MUL OR SWAP1 SSTORE POP DUP6 DUP6 DUP3 PUSH1 0x1 ADD SWAP2 DUP3 PUSH2 0x805 SWAP3 SWAP2 SWAP1 PUSH2 0x1B44 JUMP JUMPDEST POP DUP4 DUP2 PUSH1 0x2 ADD DUP2 SWAP1 SSTORE POP DUP3 DUP2 PUSH1 0x3 ADD DUP2 SWAP1 SSTORE POP PUSH0 DUP2 PUSH1 0x4 ADD DUP2 SWAP1 SSTORE POP TIMESTAMP DUP2 PUSH1 0x5 ADD DUP2 SWAP1 SSTORE POP PUSH2 0x3840 DUP2 PUSH1 0x6 ADD DUP2 SWAP1 SSTORE POP PUSH8 0x429D069189E0000 DUP2 PUSH1 0x7 ADD DUP2 SWAP1 SSTORE POP PUSH8 0x53444835EC580000 DUP2 PUSH1 0x8 ADD DUP2 SWAP1 SSTORE POP PUSH0 DUP2 PUSH1 0x9 ADD PUSH0 PUSH2 0x100 EXP DUP2 SLOAD DUP2 PUSH1 0xFF MUL NOT AND SWAP1 DUP4 PUSH1 0x2 DUP2 GT ISZERO PUSH2 0x87D JUMPI PUSH2 0x87C PUSH2 0x1355 JUMP JUMPDEST JUMPDEST MUL OR SWAP1 SSTORE POP PUSH0 DUP2 PUSH1 0x9 ADD PUSH1 0x1 PUSH2 0x100 EXP DUP2 SLOAD DUP2 PUSH1 0xFF MUL NOT AND SWAP1 DUP4 PUSH1 0x2 DUP2 GT ISZERO PUSH2 0x8A9 JUMPI PUSH2 0x8A8 PUSH2 0x1355 JUMP JUMPDEST JUMPDEST MUL OR SWAP1 SSTORE POP PUSH0 DUP2 PUSH1 0x9 ADD PUSH1 0x2 PUSH2 0x100 EXP DUP2 SLOAD DUP2 PUSH1 0xFF MUL NOT AND SWAP1 DUP4 PUSH1 0x2 DUP2 GT ISZERO PUSH2 0x8D5 JUMPI PUSH2 0x8D4 PUSH2 0x1355 JUMP JUMPDEST JUMPDEST MUL OR SWAP1 SSTORE POP PUSH1 0x4 PUSH0 CALLER PUSH20 0xFFFFFFFFFFFFFFFFFFFFFFFFFFFFFFFFFFFFFFFF AND PUSH20 0xFFFFFFFFFFFFFFFFFFFFFFFFFFFFFFFFFFFFFFFF AND DUP2 MSTORE PUSH1 0x20 ADD SWAP1 DUP2 MSTORE PUSH1 0x20 ADD PUSH0 KECCAK256 DUP3 SWAP1 DUP1 PUSH1 0x1 DUP2 SLOAD ADD DUP1 DUP3 SSTORE DUP1 SWAP2 POP POP PUSH1 0x1 SWAP1 SUB SWAP1 PUSH0 MSTORE PUSH1 0x20 PUSH0 KECCAK256 ADD PUSH0 SWAP1 SWAP2 SWAP1 SWAP2 SWAP1 SWAP2 POP SSTORE CALLER PUSH20 0xFFFFFFFFFFFFFFFFFFFFFFFFFFFFFFFFFFFFFFFF AND DUP3 PUSH32 0x362A18D483785C7CBD3EEDC8134897C38959F9330C5DFE708330173600280A4C PUSH1 0x40 MLOAD PUSH1 0x40 MLOAD DUP1 SWAP2 SUB SWAP1 LOG3 POP SWAP5 SWAP4 POP POP POP POP JUMP JUMPDEST PUSH0 DUP1 SLOAD SWAP1 PUSH2 0x100 EXP SWAP1 DIV PUSH20 0xFFFFFFFFFFFFFFFFFFFFFFFFFFFFFFFFFFFFFFFF AND PUSH20 0xFFFFFFFFFFFFFFFFFFFFFFFFFFFFFFFFFFFFFFFF AND CALLER PUSH20 0xFFFFFFFFFFFFFFFFFFFFFFFFFFFFFFFFFFFFFFFF AND EQ PUSH2 0xA15 JUMPI PUSH1 0x40 MLOAD PUSH32 0x8C379A000000000000000000000000000000000000000000000000000000000 DUP2 MSTORE PUSH1 0x4 ADD PUSH2 0xA0C SWAP1 PUSH2 0x1708 JUMP JUMPDEST PUSH1 0x40 MLOAD DUP1 SWAP2 SUB SWAP1 REVERT JUMPDEST PUSH0 PUSH1 0x3 PUSH0 DUP4 DUP2 MSTORE PUSH1 0x20 ADD SWAP1 DUP2 MSTORE PUSH1 0x20 ADD PUSH0 KECCAK256 SWAP1 POP PUSH0 PUSH1 0x2 DUP2 GT ISZERO PUSH2 0xA3C JUMPI PUSH2 0xA3B PUSH2 0x1355 JUMP JUMPDEST JUMPDEST DUP2 PUSH1 0x9 ADD PUSH0 SWAP1 SLOAD SWAP1 PUSH2 0x100 EXP SWAP1 DIV PUSH1 0xFF AND PUSH1 0x2 DUP2 GT ISZERO PUSH2 0xA5F JUMPI PUSH2 0xA5E PUSH2 0x1355 JUMP JUMPDEST JUMPDEST EQ PUSH2 0xA9F JUMPI PUSH1 0x40 MLOAD PUSH32 0x8C379A000000000000000000000000000000000000000000000000000000000 DUP2 MSTORE PUSH1 0x4 ADD PUSH2 0xA96 SWAP1 PUSH2 0x1C5B JUMP JUMPDEST PUSH1 0x40 MLOAD DUP1 SWAP2 SUB SWAP1 REVERT JUMPDEST DUP1 PUSH1 0x6 ADD SLOAD DUP2 PUSH1 0x3 ADD SLOAD PUSH2 0xAB3 SWAP2 SWAP1 PUSH2 0x1C79 JUMP JUMPDEST TIMESTAMP LT ISZERO PUSH2 0xAF6 JUMPI TIMESTAMP DUP2 PUSH1 0x5 ADD DUP2 SWAP1 SSTORE POP DUP2 PUSH32 0x44EA6CD4A30857868CA250B1D94459EC789D82611C70F26164BFFDA153F1BC0A PUSH1 0x40 MLOAD PUSH1 0x40 MLOAD DUP1 SWAP2 SUB SWAP1 LOG2 POP PUSH2 0xE95 JUMP JUMPDEST PUSH1 0x1 PUSH1 0x2 DUP2 GT ISZERO PUSH2 0xB0A JUMPI PUSH2 0xB09 PUSH2 0x1355 JUMP JUMPDEST JUMPDEST DUP2 PUSH1 0x9 ADD PUSH1 0x2 SWAP1 SLOAD SWAP1 PUSH2 0x100 EXP SWAP1 DIV PUSH1 0xFF AND PUSH1 0x2 DUP2 GT ISZERO PUSH2 0xB2E JUMPI PUSH2 0xB2D PUSH2 0x1355 JUMP JUMPDEST JUMPDEST SUB PUSH2 0xBBF JUMPI PUSH1 0x1 DUP2 PUSH1 0x9 ADD PUSH0 PUSH2 0x100 EXP DUP2 SLOAD DUP2 PUSH1 0xFF MUL NOT AND SWAP1 DUP4 PUSH1 0x2 DUP2 GT ISZERO PUSH2 0xB5A JUMPI PUSH2 0xB59 PUSH2 0x1355 JUMP JUMPDEST JUMPDEST MUL OR SWAP1 SSTORE POP PUSH1 0x2 DUP2 PUSH1 0x9 ADD PUSH1 0x1 PUSH2 0x100 EXP DUP2 SLOAD DUP2 PUSH1 0xFF MUL NOT AND SWAP1 DUP4 PUSH1 0x2 DUP2 GT ISZERO PUSH2 0xB87 JUMPI PUSH2 0xB86 PUSH2 0x1355 JUMP JUMPDEST JUMPDEST MUL OR SWAP1 SSTORE POP DUP2 PUSH32 0xCE497F2D2D439D5AC116F719FA47580E5922B4944A0F698D2327162C6EB3B7AC PUSH1 0x40 MLOAD PUSH1 0x40 MLOAD DUP1 SWAP2 SUB SWAP1 LOG2 POP PUSH2 0xE95 JUMP JUMPDEST PUSH0 DUP2 PUSH1 0x4 ADD SLOAD EQ DUP1 ISZERO PUSH2 0xBE4 JUMPI POP PUSH3 0x3F480 DUP2 PUSH1 0x3 ADD SLOAD PUSH2 0xBE0 SWAP2 SWAP1 PUSH2 0x1C79 JUMP JUMPDEST TIMESTAMP LT ISZERO JUMPDEST ISZERO PUSH2 0xCA2 JUMPI PUSH1 0x1 DUP2 PUSH1 0x9 ADD PUSH0 PUSH2 0x100 EXP DUP2 SLOAD DUP2 PUSH1 0xFF MUL NOT AND SWAP1 DUP4 PUSH1 0x2 DUP2 GT ISZERO PUSH2 0xC10 JUMPI PUSH2 0xC0F PUSH2 0x1355 JUMP JUMPDEST JUMPDEST MUL OR SWAP1 SSTORE POP PUSH1 0x2 DUP2 PUSH1 0x9 ADD PUSH1 0x1 PUSH2 0x100 EXP DUP2 SLOAD DUP2 PUSH1 0xFF MUL NOT AND SWAP1 DUP4 PUSH1 0x2 DUP2 GT ISZERO PUSH2 0xC3D JUMPI PUSH2 0xC3C PUSH2 0x1355 JUMP JUMPDEST JUMPDEST MUL OR SWAP1 SSTORE POP PUSH1 0x2 DUP2 PUSH1 0x9 ADD PUSH1 0x2 PUSH2 0x100 EXP DUP2 SLOAD DUP2 PUSH1 0xFF MUL NOT AND SWAP1 DUP4 PUSH1 0x2 DUP2 GT ISZERO PUSH2 0xC6A JUMPI PUSH2 0xC69 PUSH2 0x1355 JUMP JUMPDEST JUMPDEST MUL OR SWAP1 SSTORE POP DUP2 PUSH32 0xAC9706C516A83DF0060E911FA5B8A2FD1ACEDC32C29E4A4DAD6FE2061CACEFF2 PUSH1 0x40 MLOAD PUSH1 0x40 MLOAD DUP1 SWAP2 SUB SWAP1 LOG2 POP PUSH2 0xE95 JUMP JUMPDEST PUSH0 DUP2 PUSH1 0x4 ADD SLOAD SUB PUSH2 0xCE9 JUMPI TIMESTAMP DUP2 PUSH1 0x5 ADD DUP2 SWAP1 SSTORE POP DUP2 PUSH32 0xB69F5371EBF20CDF43BB4D5FB074D977D10508B688A49267B829ACFCD727C026 PUSH1 0x40 MLOAD PUSH1 0x40 MLOAD DUP1 SWAP2 SUB SWAP1 LOG2 POP PUSH2 0xE95 JUMP JUMPDEST DUP1 PUSH1 0x6 ADD SLOAD DUP2 PUSH1 0x3 ADD SLOAD PUSH2 0xCFD SWAP2 SWAP1 PUSH2 0x1C79 JUMP JUMPDEST DUP2 PUSH1 0x4 ADD SLOAD GT PUSH2 0xD92 JUMPI PUSH1 0x1 DUP2 PUSH1 0x9 ADD PUSH0 PUSH2 0x100 EXP DUP2 SLOAD DUP2 PUSH1 0xFF MUL NOT AND SWAP1 DUP4 PUSH1 0x2 DUP2 GT ISZERO PUSH2 0xD2E JUMPI PUSH2 0xD2D PUSH2 0x1355 JUMP JUMPDEST JUMPDEST MUL OR SWAP1 SSTORE POP PUSH1 0x2 DUP2 PUSH1 0x9 ADD PUSH1 0x1 PUSH2 0x100 EXP DUP2 SLOAD DUP2 PUSH1 0xFF MUL NOT AND SWAP1 DUP4 PUSH1 0x2 DUP2 GT ISZERO PUSH2 0xD5B JUMPI PUSH2 0xD5A PUSH2 0x1355 JUMP JUMPDEST JUMPDEST MUL OR SWAP1 SSTORE POP DUP2 PUSH32 0xA0A8CD3C30C1F1EEE66987B51C20E8F2ADF28114A41E24DDDB595EAA93F36131 PUSH1 0x40 MLOAD PUSH1 0x40 MLOAD DUP1 SWAP2 SUB SWAP1 LOG2 PUSH2 0xE93 JUMP JUMPDEST PUSH0 DUP2 PUSH1 0x8 ADD SLOAD SWAP1 POP PUSH1 0x2 DUP3 PUSH1 0x9 ADD PUSH0 PUSH2 0x100 EXP DUP2 SLOAD DUP2 PUSH1 0xFF MUL NOT AND SWAP1 DUP4 PUSH1 0x2 DUP2 GT ISZERO PUSH2 0xDC1 JUMPI PUSH2 0xDC0 PUSH2 0x1355 JUMP JUMPDEST JUMPDEST MUL OR SWAP1 SSTORE POP PUSH1 0x1 DUP3 PUSH1 0x9 ADD PUSH1 0x1 PUSH2 0x100 EXP DUP2 SLOAD DUP2 PUSH1 0xFF MUL NOT AND SWAP1 DUP4 PUSH1 0x2 DUP2 GT ISZERO PUSH2 0xDEE JUMPI PUSH2 0xDED PUSH2 0x1355 JUMP JUMPDEST JUMPDEST MUL OR SWAP1 SSTORE POP DUP2 PUSH0 ADD PUSH0 SWAP1 SLOAD SWAP1 PUSH2 0x100 EXP SWAP1 DIV PUSH20 0xFFFFFFFFFFFFFFFFFFFFFFFFFFFFFFFFFFFFFFFF AND PUSH20 0xFFFFFFFFFFFFFFFFFFFFFFFFFFFFFFFFFFFFFFFF AND PUSH2 0x8FC DUP3 SWAP1 DUP2 ISZERO MUL SWAP1 PUSH1 0x40 MLOAD PUSH0 PUSH1 0x40 MLOAD DUP1 DUP4 SUB DUP2 DUP6 DUP9 DUP9 CALL SWAP4 POP POP POP POP ISZERO DUP1 ISZERO PUSH2 0xE58 JUMPI RETURNDATASIZE PUSH0 DUP1 RETURNDATACOPY RETURNDATASIZE PUSH0 REVERT JUMPDEST POP DUP3 PUSH32 0xB0727183796E52C5BB00A257C1EB36D8E94DBEE5D6D87E259287E3372AE39ACE DUP3 PUSH1 0x40 MLOAD PUSH2 0xE89 SWAP2 SWAP1 PUSH2 0x1257 JUMP JUMPDEST PUSH1 0x40 MLOAD DUP1 SWAP2 SUB SWAP1 LOG2 POP JUMPDEST POP JUMPDEST POP JUMP JUMPDEST PUSH0 DUP1 SLOAD SWAP1 PUSH2 0x100 EXP SWAP1 DIV PUSH20 0xFFFFFFFFFFFFFFFFFFFFFFFFFFFFFFFFFFFFFFFF AND DUP2 JUMP JUMPDEST PUSH1 0x1 PUSH0 SWAP1 SLOAD SWAP1 PUSH2 0x100 EXP SWAP1 DIV PUSH20 0xFFFFFFFFFFFFFFFFFFFFFFFFFFFFFFFFFFFFFFFF AND PUSH20 0xFFFFFFFFFFFFFFFFFFFFFFFFFFFFFFFFFFFFFFFF AND CALLER PUSH20 0xFFFFFFFFFFFFFFFFFFFFFFFFFFFFFFFFFFFFFFFF AND EQ DUP1 PUSH2 0xF60 JUMPI POP PUSH0 DUP1 SLOAD SWAP1 PUSH2 0x100 EXP SWAP1 DIV PUSH20 0xFFFFFFFFFFFFFFFFFFFFFFFFFFFFFFFFFFFFFFFF AND PUSH20 0xFFFFFFFFFFFFFFFFFFFFFFFFFFFFFFFFFFFFFFFF AND CALLER PUSH20 0xFFFFFFFFFFFFFFFFFFFFFFFFFFFFFFFFFFFFFFFF AND EQ JUMPDEST PUSH2 0xF9F JUMPI PUSH1 0x40 MLOAD PUSH32 0x8C379A000000000000000000000000000000000000000000000000000000000 DUP2 MSTORE PUSH1 0x4 ADD PUSH2 0xF96 SWAP1 PUSH2 0x1CF6 JUMP JUMPDEST PUSH1 0x40 MLOAD DUP1 SWAP2 SUB SWAP1 REVERT JUMPDEST PUSH0 PUSH1 0x3 PUSH0 DUP6 DUP2 MSTORE PUSH1 0x20 ADD SWAP1 DUP2 MSTORE PUSH1 0x20 ADD PUSH0 KECCAK256 SWAP1 POP PUSH0 PUSH1 0x2 DUP2 GT ISZERO PUSH2 0xFC6 JUMPI PUSH2 0xFC5 PUSH2 0x1355 JUMP JUMPDEST JUMPDEST DUP2 PUSH1 0x9 ADD PUSH0 SWAP1 SLOAD SWAP1 PUSH2 0x100 EXP SWAP1 DIV PUSH1 0xFF AND PUSH1 0x2 DUP2 GT ISZERO PUSH2 0xFE9 JUMPI PUSH2 0xFE8 PUSH2 0x1355 JUMP JUMPDEST JUMPDEST EQ PUSH2 0x1029 JUMPI PUSH1 0x40 MLOAD PUSH32 0x8C379A000000000000000000000000000000000000000000000000000000000 DUP2 MSTORE PUSH1 0x4 ADD PUSH2 0x1020 SWAP1 PUSH2 0x1C5B JUMP JUMPDEST PUSH1 0x40 MLOAD DUP1 SWAP2 SUB SWAP1 REVERT JUMPDEST DUP3 DUP2 PUSH1 0x4 ADD DUP2 SWAP1 SSTORE POP DUP2 DUP2 PUSH1 0x9 ADD PUSH1 0x2 PUSH2 0x100 EXP DUP2 SLOAD DUP2 PUSH1 0xFF MUL NOT AND SWAP1 DUP4 PUSH1 0x2 DUP2 GT ISZERO PUSH2 0x1059 JUMPI PUSH2 0x1058 PUSH2 0x1355 JUMP JUMPDEST JUMPDEST MUL OR SWAP1 SSTORE POP DUP4 PUSH32 0xEFBE4568C3E8B3451436AE01DF5E7365A5206DCE94E54F32D21EB8B0A85E7F9E DUP5 DUP5 PUSH1 0x40 MLOAD PUSH2 0x1090 SWAP3 SWAP2 SWAP1 PUSH2 0x1D14 JUMP JUMPDEST PUSH1 0x40 MLOAD DUP1 SWAP2 SUB SWAP1 LOG2 POP POP POP POP JUMP JUMPDEST PUSH1 0x4 PUSH1 0x20 MSTORE DUP2 PUSH0 MSTORE PUSH1 0x40 PUSH0 KECCAK256 DUP2 DUP2 SLOAD DUP2 LT PUSH2 0x10B7 JUMPI PUSH0 DUP1 REVERT JUMPDEST SWAP1 PUSH0 MSTORE PUSH1 0x20 PUSH0 KECCAK256 ADD PUSH0 SWAP2 POP SWAP2 POP POP SLOAD DUP2 JUMP JUMPDEST PUSH2 0x3840 DUP2 JUMP JUMPDEST PUSH8 0x429D069189E0000 DUP2 JUMP JUMPDEST PUSH0 DUP1 REVERT JUMPDEST PUSH0 DUP1 REVERT JUMPDEST PUSH0 PUSH20 0xFFFFFFFFFFFFFFFFFFFFFFFFFFFFFFFFFFFFFFFF DUP3 AND SWAP1 POP SWAP2 SWAP1 POP JUMP JUMPDEST PUSH0 PUSH2 0x110C DUP3 PUSH2 0x10E3 JUMP JUMPDEST SWAP1 POP SWAP2 SWAP1 POP JUMP JUMPDEST PUSH2 0x111C DUP2 PUSH2 0x1102 JUMP JUMPDEST DUP2 EQ PUSH2 0x1126 JUMPI PUSH0 DUP1 REVERT JUMPDEST POP JUMP JUMPDEST PUSH0 DUP2 CALLDATALOAD SWAP1 POP PUSH2 0x1137 DUP2 PUSH2 0x1113 JUMP JUMPDEST SWAP3 SWAP2 POP POP JUMP JUMPDEST PUSH0 PUSH1 0x20 DUP3 DUP5 SUB SLT ISZERO PUSH2 0x1152 JUMPI PUSH2 0x1151 PUSH2 0x10DB JUMP JUMPDEST JUMPDEST PUSH0 PUSH2 0x115F DUP5 DUP3 DUP6 ADD PUSH2 0x1129 JUMP JUMPDEST SWAP2 POP POP SWAP3 SWAP2 POP POP JUMP JUMPDEST PUSH0 DUP2 MLOAD SWAP1 POP SWAP2 SWAP1 POP JUMP JUMPDEST PUSH0 DUP3 DUP3 MSTORE PUSH1 0x20 DUP3 ADD SWAP1 POP SWAP3 SWAP2 POP POP JUMP JUMPDEST PUSH0 DUP2 SWAP1 POP PUSH1 0x20 DUP3 ADD SWAP1 POP SWAP2 SWAP1 POP JUMP JUMPDEST PUSH0 DUP2 SWAP1 POP SWAP2 SWAP1 POP JUMP JUMPDEST PUSH2 0x11A3 DUP2 PUSH2 0x1191 JUMP JUMPDEST DUP3 MSTORE POP POP JUMP JUMPDEST PUSH0 PUSH2 0x11B4 DUP4 DUP4 PUSH2 0x119A JUMP JUMPDEST PUSH1 0x20 DUP4 ADD SWAP1 POP SWAP3 SWAP2 POP POP JUMP JUMPDEST PUSH0 PUSH1 0x20 DUP3 ADD SWAP1 POP SWAP2 SWAP1 POP JUMP JUMPDEST PUSH0 PUSH2 0x11D6 DUP3 PUSH2 0x1168 JUMP JUMPDEST PUSH2 0x11E0 DUP2 DUP6 PUSH2 0x1172 JUMP JUMPDEST SWAP4 POP PUSH2 0x11EB DUP4 PUSH2 0x1182 JUMP JUMPDEST DUP1 PUSH0 JUMPDEST DUP4 DUP2 LT ISZERO PUSH2 0x121B JUMPI DUP2 MLOAD PUSH2 0x1202 DUP9 DUP3 PUSH2 0x11A9 JUMP JUMPDEST SWAP8 POP PUSH2 0x120D DUP4 PUSH2 0x11C0 JUMP JUMPDEST SWAP3 POP POP PUSH1 0x1 DUP2 ADD SWAP1 POP PUSH2 0x11EE JUMP JUMPDEST POP DUP6 SWAP4 POP POP POP POP SWAP3 SWAP2 POP POP JUMP JUMPDEST PUSH0 PUSH1 0x20 DUP3 ADD SWAP1 POP DUP2 DUP2 SUB PUSH0 DUP4 ADD MSTORE PUSH2 0x1240 DUP2 DUP5 PUSH2 0x11CC JUMP JUMPDEST SWAP1 POP SWAP3 SWAP2 POP POP JUMP JUMPDEST PUSH2 0x1251 DUP2 PUSH2 0x1191 JUMP JUMPDEST DUP3 MSTORE POP POP JUMP JUMPDEST PUSH0 PUSH1 0x20 DUP3 ADD SWAP1 POP PUSH2 0x126A PUSH0 DUP4 ADD DUP5 PUSH2 0x1248 JUMP JUMPDEST SWAP3 SWAP2 POP POP JUMP JUMPDEST PUSH2 0x1279 DUP2 PUSH2 0x1191 JUMP JUMPDEST DUP2 EQ PUSH2 0x1283 JUMPI PUSH0 DUP1 REVERT JUMPDEST POP JUMP JUMPDEST PUSH0 DUP2 CALLDATALOAD SWAP1 POP PUSH2 0x1294 DUP2 PUSH2 0x1270 JUMP JUMPDEST SWAP3 SWAP2 POP POP JUMP JUMPDEST PUSH0 PUSH1 0x20 DUP3 DUP5 SUB SLT ISZERO PUSH2 0x12AF JUMPI PUSH2 0x12AE PUSH2 0x10DB JUMP JUMPDEST JUMPDEST PUSH0 PUSH2 0x12BC DUP5 DUP3 DUP6 ADD PUSH2 0x1286 JUMP JUMPDEST SWAP2 POP POP SWAP3 SWAP2 POP POP JUMP JUMPDEST PUSH0 PUSH2 0x12CF DUP3 PUSH2 0x10E3 JUMP JUMPDEST SWAP1 POP SWAP2 SWAP1 POP JUMP JUMPDEST PUSH2 0x12DF DUP2 PUSH2 0x12C5 JUMP JUMPDEST DUP3 MSTORE POP POP JUMP JUMPDEST PUSH0 DUP2 MLOAD SWAP1 POP SWAP2 SWAP1 POP JUMP JUMPDEST PUSH0 DUP3 DUP3 MSTORE PUSH1 0x20 DUP3 ADD SWAP1 POP SWAP3 SWAP2 POP POP JUMP JUMPDEST DUP3 DUP2 DUP4 MCOPY PUSH0 DUP4 DUP4 ADD MSTORE POP POP POP JUMP JUMPDEST PUSH0 PUSH1 0x1F NOT PUSH1 0x1F DUP4 ADD AND SWAP1 POP SWAP2 SWAP1 POP JUMP JUMPDEST PUSH0 PUSH2 0x1327 DUP3 PUSH2 0x12E5 JUMP JUMPDEST PUSH2 0x1331 DUP2 DUP6 PUSH2 0x12EF JUMP JUMPDEST SWAP4 POP PUSH2 0x1341 DUP2 DUP6 PUSH1 0x20 DUP7 ADD PUSH2 0x12FF JUMP JUMPDEST PUSH2 0x134A DUP2 PUSH2 0x130D JUMP JUMPDEST DUP5 ADD SWAP2 POP POP SWAP3 SWAP2 POP POP JUMP JUMPDEST PUSH32 0x4E487B7100000000000000000000000000000000000000000000000000000000 PUSH0 MSTORE PUSH1 0x21 PUSH1 0x4 MSTORE PUSH1 0x24 PUSH0 REVERT JUMPDEST PUSH1 0x3 DUP2 LT PUSH2 0x1393 JUMPI PUSH2 0x1392 PUSH2 0x1355 JUMP JUMPDEST JUMPDEST POP JUMP JUMPDEST PUSH0 DUP2 SWAP1 POP PUSH2 0x13A3 DUP3 PUSH2 0x1382 JUMP JUMPDEST SWAP2 SWAP1 POP JUMP JUMPDEST PUSH0 PUSH2 0x13B2 DUP3 PUSH2 0x1396 JUMP JUMPDEST SWAP1 POP SWAP2 SWAP1 POP JUMP JUMPDEST PUSH2 0x13C2 DUP2 PUSH2 0x13A8 JUMP JUMPDEST DUP3 MSTORE POP POP JUMP JUMPDEST PUSH1 0x3 DUP2 LT PUSH2 0x13D9 JUMPI PUSH2 0x13D8 PUSH2 0x1355 JUMP JUMPDEST JUMPDEST POP JUMP JUMPDEST PUSH0 DUP2 SWAP1 POP PUSH2 0x13E9 DUP3 PUSH2 0x13C8 JUMP JUMPDEST SWAP2 SWAP1 POP JUMP JUMPDEST PUSH0 PUSH2 0x13F8 DUP3 PUSH2 0x13DC JUMP JUMPDEST SWAP1 POP SWAP2 SWAP1 POP JUMP JUMPDEST PUSH2 0x1408 DUP2 PUSH2 0x13EE JUMP JUMPDEST DUP3 MSTORE POP POP JUMP JUMPDEST PUSH1 0x3 DUP2 LT PUSH2 0x141F JUMPI PUSH2 0x141E PUSH2 0x1355 JUMP JUMPDEST JUMPDEST POP JUMP JUMPDEST PUSH0 DUP2 SWAP1 POP PUSH2 0x142F DUP3 PUSH2 0x140E JUMP JUMPDEST SWAP2 SWAP1 POP JUMP JUMPDEST PUSH0 PUSH2 0x143E DUP3 PUSH2 0x1422 JUMP JUMPDEST SWAP1 POP SWAP2 SWAP1 POP JUMP JUMPDEST PUSH2 0x144E DUP2 PUSH2 0x1434 JUMP JUMPDEST DUP3 MSTORE POP POP JUMP JUMPDEST PUSH0 PUSH2 0x180 DUP3 ADD SWAP1 POP PUSH2 0x1468 PUSH0 DUP4 ADD DUP16 PUSH2 0x12D6 JUMP JUMPDEST DUP2 DUP2 SUB PUSH1 0x20 DUP4 ADD MSTORE PUSH2 0x147A DUP2 DUP15 PUSH2 0x131D JUMP JUMPDEST SWAP1 POP PUSH2 0x1489 PUSH1 0x40 DUP4 ADD DUP14 PUSH2 0x1248 JUMP JUMPDEST PUSH2 0x1496 PUSH1 0x60 DUP4 ADD DUP13 PUSH2 0x1248 JUMP JUMPDEST PUSH2 0x14A3 PUSH1 0x80 DUP4 ADD DUP12 PUSH2 0x1248 JUMP JUMPDEST PUSH2 0x14B0 PUSH1 0xA0 DUP4 ADD DUP11 PUSH2 0x1248 JUMP JUMPDEST PUSH2 0x14BD PUSH1 0xC0 DUP4 ADD DUP10 PUSH2 0x1248 JUMP JUMPDEST PUSH2 0x14CA PUSH1 0xE0 DUP4 ADD DUP9 PUSH2 0x1248 JUMP JUMPDEST PUSH2 0x14D8 PUSH2 0x100 DUP4 ADD DUP8 PUSH2 0x1248 JUMP JUMPDEST PUSH2 0x14E6 PUSH2 0x120 DUP4 ADD DUP7 PUSH2 0x13B9 JUMP JUMPDEST PUSH2 0x14F4 PUSH2 0x140 DUP4 ADD DUP6 PUSH2 0x13FF JUMP JUMPDEST PUSH2 0x1502 PUSH2 0x160 DUP4 ADD DUP5 PUSH2 0x1445 JUMP JUMPDEST SWAP14 SWAP13 POP POP POP POP POP POP POP POP POP POP POP POP POP JUMP JUMPDEST PUSH2 0x151C DUP2 PUSH2 0x1102 JUMP JUMPDEST DUP3 MSTORE POP POP JUMP JUMPDEST PUSH0 PUSH1 0x20 DUP3 ADD SWAP1 POP PUSH2 0x1535 PUSH0 DUP4 ADD DUP5 PUSH2 0x1513 JUMP JUMPDEST SWAP3 SWAP2 POP POP JUMP JUMPDEST PUSH0 DUP1 REVERT JUMPDEST PUSH0 DUP1 REVERT JUMPDEST PUSH0 DUP1 REVERT JUMPDEST PUSH0 DUP1 DUP4 PUSH1 0x1F DUP5 ADD SLT PUSH2 0x155C JUMPI PUSH2 0x155B PUSH2 0x153B JUMP JUMPDEST JUMPDEST DUP3 CALLDATALOAD SWAP1 POP PUSH8 0xFFFFFFFFFFFFFFFF DUP2 GT ISZERO PUSH2 0x1579 JUMPI PUSH2 0x1578 PUSH2 0x153F JUMP JUMPDEST JUMPDEST PUSH1 0x20 DUP4 ADD SWAP2 POP DUP4 PUSH1 0x1 DUP3 MUL DUP4 ADD GT ISZERO PUSH2 0x1595 JUMPI PUSH2 0x1594 PUSH2 0x1543 JUMP JUMPDEST JUMPDEST SWAP3 POP SWAP3 SWAP1 POP JUMP JUMPDEST PUSH0 DUP1 PUSH0 DUP1 PUSH1 0x60 DUP6 DUP8 SUB SLT ISZERO PUSH2 0x15B4 JUMPI PUSH2 0x15B3 PUSH2 0x10DB JUMP JUMPDEST JUMPDEST PUSH0 DUP6 ADD CALLDATALOAD PUSH8 0xFFFFFFFFFFFFFFFF DUP2 GT ISZERO PUSH2 0x15D1 JUMPI PUSH2 0x15D0 PUSH2 0x10DF JUMP JUMPDEST JUMPDEST PUSH2 0x15DD DUP8 DUP3 DUP9 ADD PUSH2 0x1547 JUMP JUMPDEST SWAP5 POP SWAP5 POP POP PUSH1 0x20 PUSH2 0x15F0 DUP8 DUP3 DUP9 ADD PUSH2 0x1286 JUMP JUMPDEST SWAP3 POP POP PUSH1 0x40 PUSH2 0x1601 DUP8 DUP3 DUP9 ADD PUSH2 0x1286 JUMP JUMPDEST SWAP2 POP POP SWAP3 SWAP6 SWAP2 SWAP5 POP SWAP3 POP JUMP JUMPDEST PUSH1 0x3 DUP2 LT PUSH2 0x1619 JUMPI PUSH0 DUP1 REVERT JUMPDEST POP JUMP JUMPDEST PUSH0 DUP2 CALLDATALOAD SWAP1 POP PUSH2 0x162A DUP2 PUSH2 0x160D JUMP JUMPDEST SWAP3 SWAP2 POP POP JUMP JUMPDEST PUSH0 DUP1 PUSH0 PUSH1 0x60 DUP5 DUP7 SUB SLT ISZERO PUSH2 0x1647 JUMPI PUSH2 0x1646 PUSH2 0x10DB JUMP JUMPDEST JUMPDEST PUSH0 PUSH2 0x1654 DUP7 DUP3 DUP8 ADD PUSH2 0x1286 JUMP JUMPDEST SWAP4 POP POP PUSH1 0x20 PUSH2 0x1665 DUP7 DUP3 DUP8 ADD PUSH2 0x1286 JUMP JUMPDEST SWAP3 POP POP PUSH1 0x40 PUSH2 0x1676 DUP7 DUP3 DUP8 ADD PUSH2 0x161C JUMP JUMPDEST SWAP2 POP POP SWAP3 POP SWAP3 POP SWAP3 JUMP JUMPDEST PUSH0 DUP1 PUSH1 0x40 DUP4 DUP6 SUB SLT ISZERO PUSH2 0x1696 JUMPI PUSH2 0x1695 PUSH2 0x10DB JUMP JUMPDEST JUMPDEST PUSH0 PUSH2 0x16A3 DUP6 DUP3 DUP7 ADD PUSH2 0x1129 JUMP JUMPDEST SWAP3 POP POP PUSH1 0x20 PUSH2 0x16B4 DUP6 DUP3 DUP7 ADD PUSH2 0x1286 JUMP JUMPDEST SWAP2 POP POP SWAP3 POP SWAP3 SWAP1 POP JUMP JUMPDEST PUSH32 0x4F776E6572206F6E6C7900000000000000000000000000000000000000000000 PUSH0 DUP3 ADD MSTORE POP JUMP JUMPDEST PUSH0 PUSH2 0x16F2 PUSH1 0xA DUP4 PUSH2 0x12EF JUMP JUMPDEST SWAP2 POP PUSH2 0x16FD DUP3 PUSH2 0x16BE JUMP JUMPDEST PUSH1 0x20 DUP3 ADD SWAP1 POP SWAP2 SWAP1 POP JUMP JUMPDEST PUSH0 PUSH1 0x20 DUP3 ADD SWAP1 POP DUP2 DUP2 SUB PUSH0 DUP4 ADD MSTORE PUSH2 0x171F DUP2 PUSH2 0x16E6 JUMP JUMPDEST SWAP1 POP SWAP2 SWAP1 POP JUMP JUMPDEST PUSH0 DUP2 SWAP1 POP SWAP3 SWAP2 POP POP JUMP JUMPDEST POP JUMP JUMPDEST PUSH0 PUSH2 0x173E PUSH0 DUP4 PUSH2 0x1726 JUMP JUMPDEST SWAP2 POP PUSH2 0x1749 DUP3 PUSH2 0x1730 JUMP JUMPDEST PUSH0 DUP3 ADD SWAP1 POP SWAP2 SWAP1 POP JUMP JUMPDEST PUSH0 PUSH2 0x175D DUP3 PUSH2 0x1733 JUMP JUMPDEST SWAP2 POP DUP2 SWAP1 POP SWAP2 SWAP1 POP JUMP JUMPDEST PUSH32 0x5769746864726177204661696C65642021000000000000000000000000000000 PUSH0 DUP3 ADD MSTORE POP JUMP JUMPDEST PUSH0 PUSH2 0x179B PUSH1 0x11 DUP4 PUSH2 0x12EF JUMP JUMPDEST SWAP2 POP PUSH2 0x17A6 DUP3 PUSH2 0x1767 JUMP JUMPDEST PUSH1 0x20 DUP3 ADD SWAP1 POP SWAP2 SWAP1 POP JUMP JUMPDEST PUSH0 PUSH1 0x20 DUP3 ADD SWAP1 POP DUP2 DUP2 SUB PUSH0 DUP4 ADD MSTORE PUSH2 0x17C8 DUP2 PUSH2 0x178F JUMP JUMPDEST SWAP1 POP SWAP2 SWAP1 POP JUMP JUMPDEST PUSH32 0x4E487B7100000000000000000000000000000000000000000000000000000000 PUSH0 MSTORE PUSH1 0x22 PUSH1 0x4 MSTORE PUSH1 0x24 PUSH0 REVERT JUMPDEST PUSH0 PUSH1 0x2 DUP3 DIV SWAP1 POP PUSH1 0x1 DUP3 AND DUP1 PUSH2 0x1813 JUMPI PUSH1 0x7F DUP3 AND SWAP2 POP JUMPDEST PUSH1 0x20 DUP3 LT DUP2 SUB PUSH2 0x1826 JUMPI PUSH2 0x1825 PUSH2 0x17CF JUMP JUMPDEST JUMPDEST POP SWAP2 SWAP1 POP JUMP JUMPDEST PUSH32 0x5450206D75737420626520616674657220543100000000000000000000000000 PUSH0 DUP3 ADD MSTORE POP JUMP JUMPDEST PUSH0 PUSH2 0x1860 PUSH1 0x13 DUP4 PUSH2 0x12EF JUMP JUMPDEST SWAP2 POP PUSH2 0x186B DUP3 PUSH2 0x182C JUMP JUMPDEST PUSH1 0x20 DUP3 ADD SWAP1 POP SWAP2 SWAP1 POP JUMP JUMPDEST PUSH0 PUSH1 0x20 DUP3 ADD SWAP1 POP DUP2 DUP2 SUB PUSH0 DUP4 ADD MSTORE PUSH2 0x188D DUP2 PUSH2 0x1854 JUMP JUMPDEST SWAP1 POP SWAP2 SWAP1 POP JUMP JUMPDEST PUSH32 0x496E636F7272656374207072656D69756D2073656E7400000000000000000000 PUSH0 DUP3 ADD MSTORE POP JUMP JUMPDEST PUSH0 PUSH2 0x18C8 PUSH1 0x16 DUP4 PUSH2 0x12EF JUMP JUMPDEST SWAP2 POP PUSH2 0x18D3 DUP3 PUSH2 0x1894 JUMP JUMPDEST PUSH1 0x20 DUP3 ADD SWAP1 POP SWAP2 SWAP1 POP JUMP JUMPDEST PUSH0 PUSH1 0x20 DUP3 ADD SWAP1 POP DUP2 DUP2 SUB PUSH0 DUP4 ADD MSTORE PUSH2 0x18F5 DUP2 PUSH2 0x18BC JUMP JUMPDEST SWAP1 POP SWAP2 SWAP1 POP JUMP JUMPDEST PUSH32 0x4E487B7100000000000000000000000000000000000000000000000000000000 PUSH0 MSTORE PUSH1 0x11 PUSH1 0x4 MSTORE PUSH1 0x24 PUSH0 REVERT JUMPDEST PUSH0 PUSH2 0x1933 DUP3 PUSH2 0x1191 JUMP JUMPDEST SWAP2 POP PUSH32 0xFFFFFFFFFFFFFFFFFFFFFFFFFFFFFFFFFFFFFFFFFFFFFFFFFFFFFFFFFFFFFFFF DUP3 SUB PUSH2 0x1965 JUMPI PUSH2 0x1964 PUSH2 0x18FC JUMP JUMPDEST JUMPDEST PUSH1 0x1 DUP3 ADD SWAP1 POP SWAP2 SWAP1 POP JUMP JUMPDEST PUSH0 DUP3 SWAP1 POP SWAP3 SWAP2 POP POP JUMP JUMPDEST PUSH32 0x4E487B7100000000000000000000000000000000000000000000000000000000 PUSH0 MSTORE PUSH1 0x41 PUSH1 0x4 MSTORE PUSH1 0x24 PUSH0 REVERT JUMPDEST PUSH0 DUP2 SWAP1 POP DUP2 PUSH0 MSTORE PUSH1 0x20 PUSH0 KECCAK256 SWAP1 POP SWAP2 SWAP1 POP JUMP JUMPDEST PUSH0 PUSH1 0x20 PUSH1 0x1F DUP4 ADD DIV SWAP1 POP SWAP2 SWAP1 POP JUMP JUMPDEST PUSH0 DUP3 DUP3 SHL SWAP1 POP SWAP3 SWAP2 POP POP JUMP JUMPDEST PUSH0 PUSH1 0x8 DUP4 MUL PUSH2 0x1A03 PUSH32 0xFFFFFFFFFFFFFFFFFFFFFFFFFFFFFFFFFFFFFFFFFFFFFFFFFFFFFFFFFFFFFFFF DUP3 PUSH2 0x19C8 JUMP JUMPDEST PUSH2 0x1A0D DUP7 DUP4 PUSH2 0x19C8 JUMP JUMPDEST SWAP6 POP DUP1 NOT DUP5 AND SWAP4 POP DUP1 DUP7 AND DUP5 OR SWAP3 POP POP POP SWAP4 SWAP3 POP POP POP JUMP JUMPDEST PUSH0 DUP2 SWAP1 POP SWAP2 SWAP1 POP JUMP JUMPDEST PUSH0 PUSH2 0x1A48 PUSH2 0x1A43 PUSH2 0x1A3E DUP5 PUSH2 0x1191 JUMP JUMPDEST PUSH2 0x1A25 JUMP JUMPDEST PUSH2 0x1191 JUMP JUMPDEST SWAP1 POP SWAP2 SWAP1 POP JUMP JUMPDEST PUSH0 DUP2 SWAP1 POP SWAP2 SWAP1 POP JUMP JUMPDEST PUSH2 0x1A61 DUP4 PUSH2 0x1A2E JUMP JUMPDEST PUSH2 0x1A75 PUSH2 0x1A6D DUP3 PUSH2 0x1A4F JUMP JUMPDEST DUP5 DUP5 SLOAD PUSH2 0x19D4 JUMP JUMPDEST DUP3 SSTORE POP POP POP POP JUMP JUMPDEST PUSH0 SWAP1 JUMP JUMPDEST PUSH2 0x1A89 PUSH2 0x1A7D JUMP JUMPDEST PUSH2 0x1A94 DUP2 DUP5 DUP5 PUSH2 0x1A58 JUMP JUMPDEST POP POP POP JUMP JUMPDEST JUMPDEST DUP2 DUP2 LT ISZERO PUSH2 0x1AB7 JUMPI PUSH2 0x1AAC PUSH0 DUP3 PUSH2 0x1A81 JUMP JUMPDEST PUSH1 0x1 DUP2 ADD SWAP1 POP PUSH2 0x1A9A JUMP JUMPDEST POP POP JUMP JUMPDEST PUSH1 0x1F DUP3 GT ISZERO PUSH2 0x1AFC JUMPI PUSH2 0x1ACD DUP2 PUSH2 0x19A7 JUMP JUMPDEST PUSH2 0x1AD6 DUP5 PUSH2 0x19B9 JUMP JUMPDEST DUP2 ADD PUSH1 0x20 DUP6 LT ISZERO PUSH2 0x1AE5 JUMPI DUP2 SWAP1 POP JUMPDEST PUSH2 0x1AF9 PUSH2 0x1AF1 DUP6 PUSH2 0x19B9 JUMP JUMPDEST DUP4 ADD DUP3 PUSH2 0x1A99 JUMP JUMPDEST POP POP JUMPDEST POP POP POP JUMP JUMPDEST PUSH0 DUP3 DUP3 SHR SWAP1 POP SWAP3 SWAP2 POP POP JUMP JUMPDEST PUSH0 PUSH2 0x1B1C PUSH0 NOT DUP5 PUSH1 0x8 MUL PUSH2 0x1B01 JUMP JUMPDEST NOT DUP1 DUP4 AND SWAP2 POP POP SWAP3 SWAP2 POP POP JUMP JUMPDEST PUSH0 PUSH2 0x1B34 DUP4 DUP4 PUSH2 0x1B0D JUMP JUMPDEST SWAP2 POP DUP3 PUSH1 0x2 MUL DUP3 OR SWAP1 POP SWAP3 SWAP2 POP POP JUMP JUMPDEST PUSH2 0x1B4E DUP4 DUP4 PUSH2 0x1970 JUMP JUMPDEST PUSH8 0xFFFFFFFFFFFFFFFF DUP2 GT ISZERO PUSH2 0x1B67 JUMPI PUSH2 0x1B66 PUSH2 0x197A JUMP JUMPDEST JUMPDEST PUSH2 0x1B71 DUP3 SLOAD PUSH2 0x17FC JUMP JUMPDEST PUSH2 0x1B7C DUP3 DUP3 DUP6 PUSH2 0x1ABB JUMP JUMPDEST PUSH0 PUSH1 0x1F DUP4 GT PUSH1 0x1 DUP2 EQ PUSH2 0x1BA9 JUMPI PUSH0 DUP5 ISZERO PUSH2 0x1B97 JUMPI DUP3 DUP8 ADD CALLDATALOAD SWAP1 POP JUMPDEST PUSH2 0x1BA1 DUP6 DUP3 PUSH2 0x1B29 JUMP JUMPDEST DUP7 SSTORE POP PUSH2 0x1C08 JUMP JUMPDEST PUSH1 0x1F NOT DUP5 AND PUSH2 0x1BB7 DUP7 PUSH2 0x19A7 JUMP JUMPDEST PUSH0 JUMPDEST DUP3 DUP2 LT ISZERO PUSH2 0x1BDE JUMPI DUP5 DUP10 ADD CALLDATALOAD DUP3 SSTORE PUSH1 0x1 DUP3 ADD SWAP2 POP PUSH1 0x20 DUP6 ADD SWAP5 POP PUSH1 0x20 DUP2 ADD SWAP1 POP PUSH2 0x1BB9 JUMP JUMPDEST DUP7 DUP4 LT ISZERO PUSH2 0x1BFB JUMPI DUP5 DUP10 ADD CALLDATALOAD PUSH2 0x1BF7 PUSH1 0x1F DUP10 AND DUP3 PUSH2 0x1B0D JUMP JUMPDEST DUP4 SSTORE POP JUMPDEST PUSH1 0x1 PUSH1 0x2 DUP9 MUL ADD DUP9 SSTORE POP POP POP JUMPDEST POP POP POP POP POP POP POP JUMP JUMPDEST PUSH32 0x496E737572616E6365206E6F7420616374697665000000000000000000000000 PUSH0 DUP3 ADD MSTORE POP JUMP JUMPDEST PUSH0 PUSH2 0x1C45 PUSH1 0x14 DUP4 PUSH2 0x12EF JUMP JUMPDEST SWAP2 POP PUSH2 0x1C50 DUP3 PUSH2 0x1C11 JUMP JUMPDEST PUSH1 0x20 DUP3 ADD SWAP1 POP SWAP2 SWAP1 POP JUMP JUMPDEST PUSH0 PUSH1 0x20 DUP3 ADD SWAP1 POP DUP2 DUP2 SUB PUSH0 DUP4 ADD MSTORE PUSH2 0x1C72 DUP2 PUSH2 0x1C39 JUMP JUMPDEST SWAP1 POP SWAP2 SWAP1 POP JUMP JUMPDEST PUSH0 PUSH2 0x1C83 DUP3 PUSH2 0x1191 JUMP JUMPDEST SWAP2 POP PUSH2 0x1C8E DUP4 PUSH2 0x1191 JUMP JUMPDEST SWAP3 POP DUP3 DUP3 ADD SWAP1 POP DUP1 DUP3 GT ISZERO PUSH2 0x1CA6 JUMPI PUSH2 0x1CA5 PUSH2 0x18FC JUMP JUMPDEST JUMPDEST SWAP3 SWAP2 POP POP JUMP JUMPDEST PUSH32 0x4E6F7420617574686F72697A6564000000000000000000000000000000000000 PUSH0 DUP3 ADD MSTORE POP JUMP JUMPDEST PUSH0 PUSH2 0x1CE0 PUSH1 0xE DUP4 PUSH2 0x12EF JUMP JUMPDEST SWAP2 POP PUSH2 0x1CEB DUP3 PUSH2 0x1CAC JUMP JUMPDEST PUSH1 0x20 DUP3 ADD SWAP1 POP SWAP2 SWAP1 POP JUMP JUMPDEST PUSH0 PUSH1 0x20 DUP3 ADD SWAP1 POP DUP2 DUP2 SUB PUSH0 DUP4 ADD MSTORE PUSH2 0x1D0D DUP2 PUSH2 0x1CD4 JUMP JUMPDEST SWAP1 POP SWAP2 SWAP1 POP JUMP JUMPDEST PUSH0 PUSH1 0x40 DUP3 ADD SWAP1 POP PUSH2 0x1D27 PUSH0 DUP4 ADD DUP6 PUSH2 0x1248 JUMP JUMPDEST PUSH2 0x1D34 PUSH1 0x20 DUP4 ADD DUP5 PUSH2 0x1445 JUMP JUMPDEST SWAP4 SWAP3 POP POP POP JUMP INVALID LOG2 PUSH5 0x6970667358 0x22 SLT KECCAK256 0x2F GASLIMIT ADDRESS 0xAD DIV NOT 0x2B PUSH0 0x4B 0xE4 0xAB DUP13 0xEB 0xA5 ISZERO 0xBB 0x4F PUSH23 0xB294E06D74BBDD82547141F8203A64736F6C634300081A STOP CALLER "
				},
				"gasEstimates": {
					"creation": {
						"codeDepositCost": "1507400",
						"executionCost": "infinite",
						"totalCost": "infinite"
					},
					"external": {
						"": "217",
						"DEFAULT_CLAIM()": "348",
						"DEFAULT_CT()": "391",
						"DEFAULT_PREMIUM()": "413",
						"checkAndClaim(uint256)": "infinite",
						"createInsurance(string,uint256,uint256)": "infinite",
						"customerInsurances(address,uint256)": "infinite",
						"getInsurancesByCustomer(address)": "infinite",
						"insurances(uint256)": "infinite",
						"oracle()": "2619",
						"owner()": "2572",
						"setOracle(address)": "26970",
						"updateFlightInfo(uint256,uint256,uint8)": "infinite",
						"withdraw()": "infinite"
					}
				},
				"methodIdentifiers": {
					"DEFAULT_CLAIM()": "31b2a52a",
					"DEFAULT_CT()": "e6cf0653",
					"DEFAULT_PREMIUM()": "ee6a1a8d",
					"checkAndClaim(uint256)": "8d6eb55c",
					"createInsurance(string,uint256,uint256)": "8812b680",
					"customerInsurances(address,uint256)": "ba7b6e4f",
					"getInsurancesByCustomer(address)": "1f11d58c",
					"insurances(uint256)": "59fb49f9",
					"oracle()": "7dc0d1d0",
					"owner()": "8da5cb5b",
					"setOracle(address)": "7adbf973",
					"updateFlightInfo(uint256,uint256,uint8)": "9f62eb82",
					"withdraw()": "3ccfd60b"
				}
			},
			"storageLayout": {
				"storage": [
					{
						"astId": 5,
						"contract": ".deps/contract.sol:FlightDelayInsurance",
						"label": "owner",
						"offset": 0,
						"slot": "0",
						"type": "t_address"
					},
					{
						"astId": 8,
						"contract": ".deps/contract.sol:FlightDelayInsurance",
						"label": "oracle",
						"offset": 0,
						"slot": "1",
						"type": "t_address"
					},
					{
						"astId": 64,
						"contract": ".deps/contract.sol:FlightDelayInsurance",
						"label": "nextInsuranceId",
						"offset": 0,
						"slot": "2",
						"type": "t_uint256"
					},
					{
						"astId": 69,
						"contract": ".deps/contract.sol:FlightDelayInsurance",
						"label": "insurances",
						"offset": 0,
						"slot": "3",
						"type": "t_mapping(t_uint256,t_struct(Insurance)51_storage)"
					},
					{
						"astId": 74,
						"contract": ".deps/contract.sol:FlightDelayInsurance",
						"label": "customerInsurances",
						"offset": 0,
						"slot": "4",
						"type": "t_mapping(t_address,t_array(t_uint256)dyn_storage)"
					}
				],
				"types": {
					"t_address": {
						"encoding": "inplace",
						"label": "address",
						"numberOfBytes": "20"
					},
					"t_address_payable": {
						"encoding": "inplace",
						"label": "address payable",
						"numberOfBytes": "20"
					},
					"t_array(t_uint256)dyn_storage": {
						"base": "t_uint256",
						"encoding": "dynamic_array",
						"label": "uint256[]",
						"numberOfBytes": "32"
					},
					"t_enum(ClaimStatus)18": {
						"encoding": "inplace",
						"label": "enum FlightDelayInsurance.ClaimStatus",
						"numberOfBytes": "1"
					},
					"t_enum(FlightStatus)23": {
						"encoding": "inplace",
						"label": "enum FlightDelayInsurance.FlightStatus",
						"numberOfBytes": "1"
					},
					"t_enum(Status)13": {
						"encoding": "inplace",
						"label": "enum FlightDelayInsurance.Status",
						"numberOfBytes": "1"
					},
					"t_mapping(t_address,t_array(t_uint256)dyn_storage)": {
						"encoding": "mapping",
						"key": "t_address",
						"label": "mapping(address => uint256[])",
						"numberOfBytes": "32",
						"value": "t_array(t_uint256)dyn_storage"
					},
					"t_mapping(t_uint256,t_struct(Insurance)51_storage)": {
						"encoding": "mapping",
						"key": "t_uint256",
						"label": "mapping(uint256 => struct FlightDelayInsurance.Insurance)",
						"numberOfBytes": "32",
						"value": "t_struct(Insurance)51_storage"
					},
					"t_string_storage": {
						"encoding": "bytes",
						"label": "string",
						"numberOfBytes": "32"
					},
					"t_struct(Insurance)51_storage": {
						"encoding": "inplace",
						"label": "struct FlightDelayInsurance.Insurance",
						"members": [
							{
								"astId": 25,
								"contract": ".deps/contract.sol:FlightDelayInsurance",
								"label": "customer",
								"offset": 0,
								"slot": "0",
								"type": "t_address_payable"
							},
							{
								"astId": 27,
								"contract": ".deps/contract.sol:FlightDelayInsurance",
								"label": "flightCode",
								"offset": 0,
								"slot": "1",
								"type": "t_string_storage"
							},
							{
								"astId": 29,
								"contract": ".deps/contract.sol:FlightDelayInsurance",
								"label": "T1",
								"offset": 0,
								"slot": "2",
								"type": "t_uint256"
							},
							{
								"astId": 31,
								"contract": ".deps/contract.sol:FlightDelayInsurance",
								"label": "TP",
								"offset": 0,
								"slot": "3",
								"type": "t_uint256"
							},
							{
								"astId": 33,
								"contract": ".deps/contract.sol:FlightDelayInsurance",
								"label": "TA",
								"offset": 0,
								"slot": "4",
								"type": "t_uint256"
							},
							{
								"astId": 35,
								"contract": ".deps/contract.sol:FlightDelayInsurance",
								"label": "T",
								"offset": 0,
								"slot": "5",
								"type": "t_uint256"
							},
							{
								"astId": 37,
								"contract": ".deps/contract.sol:FlightDelayInsurance",
								"label": "CT",
								"offset": 0,
								"slot": "6",
								"type": "t_uint256"
							},
							{
								"astId": 39,
								"contract": ".deps/contract.sol:FlightDelayInsurance",
								"label": "premium",
								"offset": 0,
								"slot": "7",
								"type": "t_uint256"
							},
							{
								"astId": 41,
								"contract": ".deps/contract.sol:FlightDelayInsurance",
								"label": "claimAmount",
								"offset": 0,
								"slot": "8",
								"type": "t_uint256"
							},
							{
								"astId": 44,
								"contract": ".deps/contract.sol:FlightDelayInsurance",
								"label": "status",
								"offset": 0,
								"slot": "9",
								"type": "t_enum(Status)13"
							},
							{
								"astId": 47,
								"contract": ".deps/contract.sol:FlightDelayInsurance",
								"label": "claimStatus",
								"offset": 1,
								"slot": "9",
								"type": "t_enum(ClaimStatus)18"
							},
							{
								"astId": 50,
								"contract": ".deps/contract.sol:FlightDelayInsurance",
								"label": "flightStatus",
								"offset": 2,
								"slot": "9",
								"type": "t_enum(FlightStatus)23"
							}
						],
						"numberOfBytes": "320"
					},
					"t_uint256": {
						"encoding": "inplace",
						"label": "uint256",
						"numberOfBytes": "32"
					}
				}
			},
			"userdoc": {
				"kind": "user",
				"methods": {
					"checkAndClaim(uint256)": {
						"notice": "Check conditions and optionally pay out"
					},
					"createInsurance(string,uint256,uint256)": {
						"notice": "Buy a new insurance"
					},
					"getInsurancesByCustomer(address)": {
						"notice": "Get list of insurance IDs for a customer"
					},
					"setOracle(address)": {
						"notice": "Change the oracle address"
					},
					"updateFlightInfo(uint256,uint256,uint8)": {
						"notice": "Update actual arrival and flight status (via oracle)"
					}
				},
				"notice": "Simple on-chain insurance contract: pays out if flight arrives more than CT seconds late",
				"version": 1
			}
		}
	}
}