{
	".deps/contract.sol": {
		"FlightDelayInsurance": {
			"abi": [
				{
					"inputs": [
						{
							"internalType": "address",
							"name": "_oracle",
							"type": "address"
						}
					],
					"stateMutability": "nonpayable",
					"type": "constructor"
				},
				{
					"anonymous": false,
					"inputs": [
						{
							"indexed": true,
							"internalType": "uint256",
							"name": "insuranceID",
							"type": "uint256"
						}
					],
					"name": "CheckedAwaitData",
					"type": "event"
				},
				{
					"anonymous": false,
					"inputs": [
						{
							"indexed": true,
							"internalType": "uint256",
							"name": "insuranceID",
							"type": "uint256"
						}
					],
					"name": "CheckedNotReady",
					"type": "event"
				},
				{
					"anonymous": false,
					"inputs": [
						{
							"indexed": true,
							"internalType": "uint256",
							"name": "insuranceID",
							"type": "uint256"
						},
						{
							"indexed": false,
							"internalType": "uint256",
							"name": "amount",
							"type": "uint256"
						}
					],
					"name": "ClaimPaid",
					"type": "event"
				},
				{
					"anonymous": false,
					"inputs": [
						{
							"indexed": true,
							"internalType": "uint256",
							"name": "insuranceID",
							"type": "uint256"
						},
						{
							"indexed": false,
							"internalType": "uint256",
							"name": "TA",
							"type": "uint256"
						},
						{
							"indexed": false,
							"internalType": "enum FlightDelayInsurance.FlightStatus",
							"name": "flightStatus",
							"type": "uint8"
						}
					],
					"name": "FlightInfoUpdated",
					"type": "event"
				},
				{
					"anonymous": false,
					"inputs": [
						{
							"indexed": true,
							"internalType": "uint256",
							"name": "insuranceID",
							"type": "uint256"
						},
						{
							"indexed": true,
							"internalType": "address",
							"name": "customer",
							"type": "address"
						}
					],
					"name": "InsuranceCreated",
					"type": "event"
				},
				{
					"anonymous": false,
					"inputs": [
						{
							"indexed": true,
							"internalType": "uint256",
							"name": "insuranceID",
							"type": "uint256"
						}
					],
					"name": "TerminatedNoClaim",
					"type": "event"
				},
				{
					"anonymous": false,
					"inputs": [
						{
							"indexed": true,
							"internalType": "uint256",
							"name": "insuranceID",
							"type": "uint256"
						}
					],
					"name": "TerminatedNoData",
					"type": "event"
				},
				{
					"anonymous": false,
					"inputs": [
						{
							"indexed": true,
							"internalType": "uint256",
							"name": "insuranceID",
							"type": "uint256"
						}
					],
					"name": "TerminatedOnTime",
					"type": "event"
				},
				{
					"stateMutability": "payable",
					"type": "fallback"
				},
				{
					"inputs": [],
					"name": "DEFAULT_CLAIM",
					"outputs": [
						{
							"internalType": "uint256",
							"name": "",
							"type": "uint256"
						}
					],
					"stateMutability": "view",
					"type": "function"
				},
				{
					"inputs": [],
					"name": "DEFAULT_CT",
					"outputs": [
						{
							"internalType": "uint256",
							"name": "",
							"type": "uint256"
						}
					],
					"stateMutability": "view",
					"type": "function"
				},
				{
					"inputs": [],
					"name": "DEFAULT_PREMIUM",
					"outputs": [
						{
							"internalType": "uint256",
							"name": "",
							"type": "uint256"
						}
					],
					"stateMutability": "view",
					"type": "function"
				},
				{
					"inputs": [
						{
							"internalType": "uint256",
							"name": "insuranceID",
							"type": "uint256"
						}
					],
					"name": "checkAndClaim",
					"outputs": [],
					"stateMutability": "nonpayable",
					"type": "function"
				},
				{
					"inputs": [
						{
							"internalType": "string",
							"name": "flightCode",
							"type": "string"
						},
						{
							"internalType": "uint256",
							"name": "T1",
							"type": "uint256"
						},
						{
							"internalType": "uint256",
							"name": "TP",
							"type": "uint256"
						}
					],
					"name": "createInsurance",
					"outputs": [
						{
							"internalType": "uint256",
							"name": "insuranceID",
							"type": "uint256"
						}
					],
					"stateMutability": "payable",
					"type": "function"
				},
				{
					"inputs": [
						{
							"internalType": "address",
							"name": "",
							"type": "address"
						},
						{
							"internalType": "uint256",
							"name": "",
							"type": "uint256"
						}
					],
					"name": "customerInsurances",
					"outputs": [
						{
							"internalType": "uint256",
							"name": "",
							"type": "uint256"
						}
					],
					"stateMutability": "view",
					"type": "function"
				},
				{
					"inputs": [
						{
							"internalType": "address",
							"name": "customer",
							"type": "address"
						}
					],
					"name": "getInsurancesByCustomer",
					"outputs": [
						{
							"internalType": "uint256[]",
							"name": "",
							"type": "uint256[]"
						}
					],
					"stateMutability": "view",
					"type": "function"
				},
				{
					"inputs": [
						{
							"internalType": "uint256",
							"name": "",
							"type": "uint256"
						}
					],
					"name": "insurances",
					"outputs": [
						{
							"internalType": "address payable",
							"name": "customer",
							"type": "address"
						},
						{
							"internalType": "string",
							"name": "flightCode",
							"type": "string"
						},
						{
							"internalType": "uint256",
							"name": "T1",
							"type": "uint256"
						},
						{
							"internalType": "uint256",
							"name": "TP",
							"type": "uint256"
						},
						{
							"internalType": "uint256",
							"name": "TA",
							"type": "uint256"
						},
						{
							"internalType": "uint256",
							"name": "T",
							"type": "uint256"
						},
						{
							"internalType": "uint256",
							"name": "CT",
							"type": "uint256"
						},
						{
							"internalType": "uint256",
							"name": "premium",
							"type": "uint256"
						},
						{
							"internalType": "uint256",
							"name": "claimAmount",
							"type": "uint256"
						},
						{
							"internalType": "enum FlightDelayInsurance.Status",
							"name": "status",
							"type": "uint8"
						},
						{
							"internalType": "enum FlightDelayInsurance.ClaimStatus",
							"name": "claimStatus",
							"type": "uint8"
						},
						{
							"internalType": "enum FlightDelayInsurance.FlightStatus",
							"name": "flightStatus",
							"type": "uint8"
						}
					],
					"stateMutability": "view",
					"type": "function"
				},
				{
					"inputs": [],
					"name": "oracle",
					"outputs": [
						{
							"internalType": "address",
							"name": "",
							"type": "address"
						}
					],
					"stateMutability": "view",
					"type": "function"
				},
				{
					"inputs": [],
					"name": "owner",
					"outputs": [
						{
							"internalType": "address",
							"name": "",
							"type": "address"
						}
					],
					"stateMutability": "view",
					"type": "function"
				},
				{
					"inputs": [
						{
							"internalType": "address",
							"name": "_oracle",
							"type": "address"
						}
					],
					"name": "setOracle",
					"outputs": [],
					"stateMutability": "nonpayable",
					"type": "function"
				},
				{
					"inputs": [
						{
							"internalType": "uint256",
							"name": "insuranceID",
							"type": "uint256"
						},
						{
							"internalType": "uint256",
							"name": "TA",
							"type": "uint256"
						},
						{
							"internalType": "enum FlightDelayInsurance.FlightStatus",
							"name": "flightStatus",
							"type": "uint8"
						}
					],
					"name": "updateFlightInfo",
					"outputs": [],
					"stateMutability": "nonpayable",
					"type": "function"
				},
				{
					"stateMutability": "payable",
					"type": "receive"
				}
			],
			"devdoc": {
				"kind": "dev",
				"methods": {
					"createInsurance(string,uint256,uint256)": {
						"params": {
							"T1": "Scheduled departure (UNIX timestamp)",
							"TP": "Scheduled arrival (UNIX timestamp)",
							"flightCode": "Two letters + 1–4 digits, validated off-chain"
						},
						"returns": {
							"insuranceID": "The ID assigned"
						}
					}
				},
				"stateVariables": {
					"DEFAULT_CT": {
						"details": "Base values (in smallest unit)"
					},
					"oracle": {
						"details": "Address allowed to push flight updates (e.g. Chainlink oracle)"
					},
					"owner": {
						"details": "Who deployed the contract"
					}
				},
				"title": "Flight Delay Insurance",
				"version": 1
			},
			"evm": {
				"assembly": "    /* \".deps/contract.sol\":192:6740  contract FlightDelayInsurance {... */\n  mstore(0x40, 0x80)\n    /* \".deps/contract.sol\":1619:1620  1 */\n  0x01\n    /* \".deps/contract.sol\":1585:1620  uint256 private nextInsuranceId = 1 */\n  0x02\n  sstore\n    /* \".deps/contract.sol\":2682:2772  constructor(address _oracle) {... */\n  callvalue\n  dup1\n  iszero\n  tag_1\n  jumpi\n  0x00\n  dup1\n  revert\ntag_1:\n  pop\n  mload(0x40)\n  sub(codesize, bytecodeSize)\n  dup1\n  bytecodeSize\n  dup4\n  codecopy\n  dup2\n  dup2\n  add\n  0x40\n  mstore\n  dup2\n  add\n  swap1\n  tag_2\n  swap2\n  swap1\n  tag_3\n  jump\t// in\ntag_2:\n    /* \".deps/contract.sol\":2729:2739  msg.sender */\n  caller\n    /* \".deps/contract.sol\":2721:2726  owner */\n  0x00\n  dup1\n    /* \".deps/contract.sol\":2721:2739  owner = msg.sender */\n  0x0100\n  exp\n  dup2\n  sload\n  dup2\n  0xffffffffffffffffffffffffffffffffffffffff\n  mul\n  not\n  and\n  swap1\n  dup4\n  0xffffffffffffffffffffffffffffffffffffffff\n  and\n  mul\n  or\n  swap1\n  sstore\n  pop\n    /* \".deps/contract.sol\":2758:2765  _oracle */\n  dup1\n    /* \".deps/contract.sol\":2749:2755  oracle */\n  0x01\n  0x00\n    /* \".deps/contract.sol\":2749:2765  oracle = _oracle */\n  0x0100\n  exp\n  dup2\n  sload\n  dup2\n  0xffffffffffffffffffffffffffffffffffffffff\n  mul\n  not\n  and\n  swap1\n  dup4\n  0xffffffffffffffffffffffffffffffffffffffff\n  and\n  mul\n  or\n  swap1\n  sstore\n  pop\n    /* \".deps/contract.sol\":2682:2772  constructor(address _oracle) {... */\n  pop\n    /* \".deps/contract.sol\":192:6740  contract FlightDelayInsurance {... */\n  jump(tag_6)\n    /* \"#utility.yul\":88:205   */\ntag_8:\n    /* \"#utility.yul\":197:198   */\n  0x00\n    /* \"#utility.yul\":194:195   */\n  dup1\n    /* \"#utility.yul\":187:199   */\n  revert\n    /* \"#utility.yul\":334:460   */\ntag_10:\n    /* \"#utility.yul\":371:378   */\n  0x00\n    /* \"#utility.yul\":411:453   */\n  0xffffffffffffffffffffffffffffffffffffffff\n    /* \"#utility.yul\":404:409   */\n  dup3\n    /* \"#utility.yul\":400:454   */\n  and\n    /* \"#utility.yul\":389:454   */\n  swap1\n  pop\n    /* \"#utility.yul\":334:460   */\n  swap2\n  swap1\n  pop\n  jump\t// out\n    /* \"#utility.yul\":466:562   */\ntag_11:\n    /* \"#utility.yul\":503:510   */\n  0x00\n    /* \"#utility.yul\":532:556   */\n  tag_20\n    /* \"#utility.yul\":550:555   */\n  dup3\n    /* \"#utility.yul\":532:556   */\n  tag_10\n  jump\t// in\ntag_20:\n    /* \"#utility.yul\":521:556   */\n  swap1\n  pop\n    /* \"#utility.yul\":466:562   */\n  swap2\n  swap1\n  pop\n  jump\t// out\n    /* \"#utility.yul\":568:690   */\ntag_12:\n    /* \"#utility.yul\":641:665   */\n  tag_22\n    /* \"#utility.yul\":659:664   */\n  dup2\n    /* \"#utility.yul\":641:665   */\n  tag_11\n  jump\t// in\ntag_22:\n    /* \"#utility.yul\":634:639   */\n  dup2\n    /* \"#utility.yul\":631:666   */\n  eq\n    /* \"#utility.yul\":621:684   */\n  tag_23\n  jumpi\n    /* \"#utility.yul\":680:681   */\n  0x00\n    /* \"#utility.yul\":677:678   */\n  dup1\n    /* \"#utility.yul\":670:682   */\n  revert\n    /* \"#utility.yul\":621:684   */\ntag_23:\n    /* \"#utility.yul\":568:690   */\n  pop\n  jump\t// out\n    /* \"#utility.yul\":696:839   */\ntag_13:\n    /* \"#utility.yul\":753:758   */\n  0x00\n    /* \"#utility.yul\":784:790   */\n  dup2\n    /* \"#utility.yul\":778:791   */\n  mload\n    /* \"#utility.yul\":769:791   */\n  swap1\n  pop\n    /* \"#utility.yul\":800:833   */\n  tag_25\n    /* \"#utility.yul\":827:832   */\n  dup2\n    /* \"#utility.yul\":800:833   */\n  tag_12\n  jump\t// in\ntag_25:\n    /* \"#utility.yul\":696:839   */\n  swap3\n  swap2\n  pop\n  pop\n  jump\t// out\n    /* \"#utility.yul\":845:1196   */\ntag_3:\n    /* \"#utility.yul\":915:921   */\n  0x00\n    /* \"#utility.yul\":964:966   */\n  0x20\n    /* \"#utility.yul\":952:961   */\n  dup3\n    /* \"#utility.yul\":943:950   */\n  dup5\n    /* \"#utility.yul\":939:962   */\n  sub\n    /* \"#utility.yul\":935:967   */\n  slt\n    /* \"#utility.yul\":932:1051   */\n  iszero\n  tag_27\n  jumpi\n    /* \"#utility.yul\":970:1049   */\n  tag_28\n  tag_8\n  jump\t// in\ntag_28:\n    /* \"#utility.yul\":932:1051   */\ntag_27:\n    /* \"#utility.yul\":1090:1091   */\n  0x00\n    /* \"#utility.yul\":1115:1179   */\n  tag_29\n    /* \"#utility.yul\":1171:1178   */\n  dup5\n    /* \"#utility.yul\":1162:1168   */\n  dup3\n    /* \"#utility.yul\":1151:1160   */\n  dup6\n    /* \"#utility.yul\":1147:1169   */\n  add\n    /* \"#utility.yul\":1115:1179   */\n  tag_13\n  jump\t// in\ntag_29:\n    /* \"#utility.yul\":1105:1179   */\n  swap2\n  pop\n    /* \"#utility.yul\":1061:1189   */\n  pop\n    /* \"#utility.yul\":845:1196   */\n  swap3\n  swap2\n  pop\n  pop\n  jump\t// out\n    /* \".deps/contract.sol\":192:6740  contract FlightDelayInsurance {... */\ntag_6:\n  dataSize(sub_0)\n  dup1\n  dataOffset(sub_0)\n  0x00\n  codecopy\n  0x00\n  return\nstop\n\nsub_0: assembly {\n        /* \".deps/contract.sol\":192:6740  contract FlightDelayInsurance {... */\n      mstore(0x40, 0x80)\n      jumpi(tag_1, lt(calldatasize, 0x04))\n      shr(0xe0, calldataload(0x00))\n      dup1\n      0x8d6eb55c\n      gt\n      tag_15\n      jumpi\n      dup1\n      0x8d6eb55c\n      eq\n      tag_9\n      jumpi\n      dup1\n      0x8da5cb5b\n      eq\n      tag_10\n      jumpi\n      dup1\n      0x9f62eb82\n      eq\n      tag_11\n      jumpi\n      dup1\n      0xba7b6e4f\n      eq\n      tag_12\n      jumpi\n      dup1\n      0xe6cf0653\n      eq\n      tag_13\n      jumpi\n      dup1\n      0xee6a1a8d\n      eq\n      tag_14\n      jumpi\n      jump(tag_2)\n    tag_15:\n      dup1\n      0x1f11d58c\n      eq\n      tag_3\n      jumpi\n      dup1\n      0x31b2a52a\n      eq\n      tag_4\n      jumpi\n      dup1\n      0x59fb49f9\n      eq\n      tag_5\n      jumpi\n      dup1\n      0x7adbf973\n      eq\n      tag_6\n      jumpi\n      dup1\n      0x7dc0d1d0\n      eq\n      tag_7\n      jumpi\n      dup1\n      0x8812b680\n      eq\n      tag_8\n      jumpi\n      jump(tag_2)\n    tag_1:\n      jumpi(tag_2, calldatasize)\n      stop\n    tag_2:\n      stop\n        /* \".deps/contract.sol\":6451:6623  function getInsurancesByCustomer(address customer)... */\n    tag_3:\n      callvalue\n      dup1\n      iszero\n      tag_20\n      jumpi\n      0x00\n      dup1\n      revert\n    tag_20:\n      pop\n      tag_21\n      0x04\n      dup1\n      calldatasize\n      sub\n      dup2\n      add\n      swap1\n      tag_22\n      swap2\n      swap1\n      tag_23\n      jump\t// in\n    tag_22:\n      tag_24\n      jump\t// in\n    tag_21:\n      mload(0x40)\n      tag_25\n      swap2\n      swap1\n      tag_26\n      jump\t// in\n    tag_25:\n      mload(0x40)\n      dup1\n      swap2\n      sub\n      swap1\n      return\n        /* \".deps/contract.sol\":1510:1554  uint256 public constant DEFAULT_CLAIM = 6000 */\n    tag_4:\n      callvalue\n      dup1\n      iszero\n      tag_27\n      jumpi\n      0x00\n      dup1\n      revert\n    tag_27:\n      pop\n      tag_28\n      tag_29\n      jump\t// in\n    tag_28:\n      mload(0x40)\n      tag_30\n      swap2\n      swap1\n      tag_31\n      jump\t// in\n    tag_30:\n      mload(0x40)\n      dup1\n      swap2\n      sub\n      swap1\n      return\n        /* \".deps/contract.sol\":1626:1673  mapping(uint256 => Insurance) public insurances */\n    tag_5:\n      callvalue\n      dup1\n      iszero\n      tag_32\n      jumpi\n      0x00\n      dup1\n      revert\n    tag_32:\n      pop\n      tag_33\n      0x04\n      dup1\n      calldatasize\n      sub\n      dup2\n      add\n      swap1\n      tag_34\n      swap2\n      swap1\n      tag_35\n      jump\t// in\n    tag_34:\n      tag_36\n      jump\t// in\n    tag_33:\n      mload(0x40)\n      tag_37\n      swap13\n      swap12\n      swap11\n      swap10\n      swap9\n      swap8\n      swap7\n      swap6\n      swap5\n      swap4\n      swap3\n      swap2\n      swap1\n      tag_38\n      jump\t// in\n    tag_37:\n      mload(0x40)\n      dup1\n      swap2\n      sub\n      swap1\n      return\n        /* \".deps/contract.sol\":2820:2908  function setOracle(address _oracle) external onlyOwner {... */\n    tag_6:\n      callvalue\n      dup1\n      iszero\n      tag_39\n      jumpi\n      0x00\n      dup1\n      revert\n    tag_39:\n      pop\n      tag_40\n      0x04\n      dup1\n      calldatasize\n      sub\n      dup2\n      add\n      swap1\n      tag_41\n      swap2\n      swap1\n      tag_23\n      jump\t// in\n    tag_41:\n      tag_42\n      jump\t// in\n    tag_40:\n      stop\n        /* \".deps/contract.sol\":369:390  address public oracle */\n    tag_7:\n      callvalue\n      dup1\n      iszero\n      tag_43\n      jumpi\n      0x00\n      dup1\n      revert\n    tag_43:\n      pop\n      tag_44\n      tag_45\n      jump\t// in\n    tag_44:\n      mload(0x40)\n      tag_46\n      swap2\n      swap1\n      tag_47\n      jump\t// in\n    tag_46:\n      mload(0x40)\n      dup1\n      swap2\n      sub\n      swap1\n      return\n        /* \".deps/contract.sol\":3176:4114  function createInsurance(... */\n    tag_8:\n      tag_48\n      0x04\n      dup1\n      calldatasize\n      sub\n      dup2\n      add\n      swap1\n      tag_49\n      swap2\n      swap1\n      tag_50\n      jump\t// in\n    tag_49:\n      tag_51\n      jump\t// in\n    tag_48:\n      mload(0x40)\n      tag_52\n      swap2\n      swap1\n      tag_31\n      jump\t// in\n    tag_52:\n      mload(0x40)\n      dup1\n      swap2\n      sub\n      swap1\n      return\n        /* \".deps/contract.sol\":4674:6342  function checkAndClaim(uint256 insuranceID) external {... */\n    tag_9:\n      callvalue\n      dup1\n      iszero\n      tag_53\n      jumpi\n      0x00\n      dup1\n      revert\n    tag_53:\n      pop\n      tag_54\n      0x04\n      dup1\n      calldatasize\n      sub\n      dup2\n      add\n      swap1\n      tag_55\n      swap2\n      swap1\n      tag_35\n      jump\t// in\n    tag_55:\n      tag_56\n      jump\t// in\n    tag_54:\n      stop\n        /* \".deps/contract.sol\":267:287  address public owner */\n    tag_10:\n      callvalue\n      dup1\n      iszero\n      tag_57\n      jumpi\n      0x00\n      dup1\n      revert\n    tag_57:\n      pop\n      tag_58\n      tag_59\n      jump\t// in\n    tag_58:\n      mload(0x40)\n      tag_60\n      swap2\n      swap1\n      tag_47\n      jump\t// in\n    tag_60:\n      mload(0x40)\n      dup1\n      swap2\n      sub\n      swap1\n      return\n        /* \".deps/contract.sol\":4189:4612  function updateFlightInfo(... */\n    tag_11:\n      callvalue\n      dup1\n      iszero\n      tag_61\n      jumpi\n      0x00\n      dup1\n      revert\n    tag_61:\n      pop\n      tag_62\n      0x04\n      dup1\n      calldatasize\n      sub\n      dup2\n      add\n      swap1\n      tag_63\n      swap2\n      swap1\n      tag_64\n      jump\t// in\n    tag_63:\n      tag_65\n      jump\t// in\n    tag_62:\n      stop\n        /* \".deps/contract.sol\":1679:1734  mapping(address => uint256[]) public customerInsurances */\n    tag_12:\n      callvalue\n      dup1\n      iszero\n      tag_66\n      jumpi\n      0x00\n      dup1\n      revert\n    tag_66:\n      pop\n      tag_67\n      0x04\n      dup1\n      calldatasize\n      sub\n      dup2\n      add\n      swap1\n      tag_68\n      swap2\n      swap1\n      tag_69\n      jump\t// in\n    tag_68:\n      tag_70\n      jump\t// in\n    tag_67:\n      mload(0x40)\n      tag_71\n      swap2\n      swap1\n      tag_31\n      jump\t// in\n    tag_71:\n      mload(0x40)\n      dup1\n      swap2\n      sub\n      swap1\n      return\n        /* \".deps/contract.sol\":1365:1409  uint256 public constant DEFAULT_CT = 4 hours */\n    tag_13:\n      callvalue\n      dup1\n      iszero\n      tag_72\n      jumpi\n      0x00\n      dup1\n      revert\n    tag_72:\n      pop\n      tag_73\n      tag_74\n      jump\t// in\n    tag_73:\n      mload(0x40)\n      tag_75\n      swap2\n      swap1\n      tag_31\n      jump\t// in\n    tag_75:\n      mload(0x40)\n      dup1\n      swap2\n      sub\n      swap1\n      return\n        /* \".deps/contract.sol\":1437:1482  uint256 public constant DEFAULT_PREMIUM = 300 */\n    tag_14:\n      callvalue\n      dup1\n      iszero\n      tag_76\n      jumpi\n      0x00\n      dup1\n      revert\n    tag_76:\n      pop\n      tag_77\n      tag_78\n      jump\t// in\n    tag_77:\n      mload(0x40)\n      tag_79\n      swap2\n      swap1\n      tag_31\n      jump\t// in\n    tag_79:\n      mload(0x40)\n      dup1\n      swap2\n      sub\n      swap1\n      return\n        /* \".deps/contract.sol\":6451:6623  function getInsurancesByCustomer(address customer)... */\n    tag_24:\n        /* \".deps/contract.sol\":6549:6565  uint256[] memory */\n      0x60\n        /* \".deps/contract.sol\":6588:6606  customerInsurances */\n      0x04\n        /* \".deps/contract.sol\":6588:6616  customerInsurances[customer] */\n      0x00\n        /* \".deps/contract.sol\":6607:6615  customer */\n      dup4\n        /* \".deps/contract.sol\":6588:6616  customerInsurances[customer] */\n      0xffffffffffffffffffffffffffffffffffffffff\n      and\n      0xffffffffffffffffffffffffffffffffffffffff\n      and\n      dup2\n      mstore\n      0x20\n      add\n      swap1\n      dup2\n      mstore\n      0x20\n      add\n      0x00\n      keccak256\n        /* \".deps/contract.sol\":6581:6616  return customerInsurances[customer] */\n      dup1\n      sload\n      dup1\n      0x20\n      mul\n      0x20\n      add\n      mload(0x40)\n      swap1\n      dup2\n      add\n      0x40\n      mstore\n      dup1\n      swap3\n      swap2\n      swap1\n      dup2\n      dup2\n      mstore\n      0x20\n      add\n      dup3\n      dup1\n      sload\n      dup1\n      iszero\n      tag_81\n      jumpi\n      0x20\n      mul\n      dup3\n      add\n      swap2\n      swap1\n      0x00\n      mstore\n      keccak256(0x00, 0x20)\n      swap1\n    tag_82:\n      dup2\n      sload\n      dup2\n      mstore\n      0x20\n      add\n      swap1\n      0x01\n      add\n      swap1\n      dup1\n      dup4\n      gt\n      tag_82\n      jumpi\n    tag_81:\n      pop\n      pop\n      pop\n      pop\n      pop\n      swap1\n      pop\n        /* \".deps/contract.sol\":6451:6623  function getInsurancesByCustomer(address customer)... */\n      swap2\n      swap1\n      pop\n      jump\t// out\n        /* \".deps/contract.sol\":1510:1554  uint256 public constant DEFAULT_CLAIM = 6000 */\n    tag_29:\n        /* \".deps/contract.sol\":1550:1554  6000 */\n      0x1770\n        /* \".deps/contract.sol\":1510:1554  uint256 public constant DEFAULT_CLAIM = 6000 */\n      dup2\n      jump\t// out\n        /* \".deps/contract.sol\":1626:1673  mapping(uint256 => Insurance) public insurances */\n    tag_36:\n      mstore(0x20, 0x03)\n      dup1\n      0x00\n      mstore\n      keccak256(0x00, 0x40)\n      0x00\n      swap2\n      pop\n      swap1\n      pop\n      dup1\n      0x00\n      add\n      0x00\n      swap1\n      sload\n      swap1\n      0x0100\n      exp\n      swap1\n      div\n      0xffffffffffffffffffffffffffffffffffffffff\n      and\n      swap1\n      dup1\n      0x01\n      add\n      dup1\n      sload\n      tag_83\n      swap1\n      tag_84\n      jump\t// in\n    tag_83:\n      dup1\n      0x1f\n      add\n      0x20\n      dup1\n      swap2\n      div\n      mul\n      0x20\n      add\n      mload(0x40)\n      swap1\n      dup2\n      add\n      0x40\n      mstore\n      dup1\n      swap3\n      swap2\n      swap1\n      dup2\n      dup2\n      mstore\n      0x20\n      add\n      dup3\n      dup1\n      sload\n      tag_85\n      swap1\n      tag_84\n      jump\t// in\n    tag_85:\n      dup1\n      iszero\n      tag_86\n      jumpi\n      dup1\n      0x1f\n      lt\n      tag_87\n      jumpi\n      0x0100\n      dup1\n      dup4\n      sload\n      div\n      mul\n      dup4\n      mstore\n      swap2\n      0x20\n      add\n      swap2\n      jump(tag_86)\n    tag_87:\n      dup3\n      add\n      swap2\n      swap1\n      0x00\n      mstore\n      keccak256(0x00, 0x20)\n      swap1\n    tag_88:\n      dup2\n      sload\n      dup2\n      mstore\n      swap1\n      0x01\n      add\n      swap1\n      0x20\n      add\n      dup1\n      dup4\n      gt\n      tag_88\n      jumpi\n      dup3\n      swap1\n      sub\n      0x1f\n      and\n      dup3\n      add\n      swap2\n    tag_86:\n      pop\n      pop\n      pop\n      pop\n      pop\n      swap1\n      dup1\n      0x02\n      add\n      sload\n      swap1\n      dup1\n      0x03\n      add\n      sload\n      swap1\n      dup1\n      0x04\n      add\n      sload\n      swap1\n      dup1\n      0x05\n      add\n      sload\n      swap1\n      dup1\n      0x06\n      add\n      sload\n      swap1\n      dup1\n      0x07\n      add\n      sload\n      swap1\n      dup1\n      0x08\n      add\n      sload\n      swap1\n      dup1\n      0x09\n      add\n      0x00\n      swap1\n      sload\n      swap1\n      0x0100\n      exp\n      swap1\n      div\n      0xff\n      and\n      swap1\n      dup1\n      0x09\n      add\n      0x01\n      swap1\n      sload\n      swap1\n      0x0100\n      exp\n      swap1\n      div\n      0xff\n      and\n      swap1\n      dup1\n      0x09\n      add\n      0x02\n      swap1\n      sload\n      swap1\n      0x0100\n      exp\n      swap1\n      div\n      0xff\n      and\n      swap1\n      pop\n      dup13\n      jump\t// out\n        /* \".deps/contract.sol\":2820:2908  function setOracle(address _oracle) external onlyOwner {... */\n    tag_42:\n        /* \".deps/contract.sol\":2407:2412  owner */\n      0x00\n      dup1\n      sload\n      swap1\n      0x0100\n      exp\n      swap1\n      div\n      0xffffffffffffffffffffffffffffffffffffffff\n      and\n        /* \".deps/contract.sol\":2393:2412  msg.sender == owner */\n      0xffffffffffffffffffffffffffffffffffffffff\n      and\n        /* \".deps/contract.sol\":2393:2403  msg.sender */\n      caller\n        /* \".deps/contract.sol\":2393:2412  msg.sender == owner */\n      0xffffffffffffffffffffffffffffffffffffffff\n      and\n      eq\n        /* \".deps/contract.sol\":2385:2427  require(msg.sender == owner, \"Owner only\") */\n      tag_90\n      jumpi\n      mload(0x40)\n      0x08c379a000000000000000000000000000000000000000000000000000000000\n      dup2\n      mstore\n      0x04\n      add\n      tag_91\n      swap1\n      tag_92\n      jump\t// in\n    tag_91:\n      mload(0x40)\n      dup1\n      swap2\n      sub\n      swap1\n      revert\n    tag_90:\n        /* \".deps/contract.sol\":2894:2901  _oracle */\n      dup1\n        /* \".deps/contract.sol\":2885:2891  oracle */\n      0x01\n      0x00\n        /* \".deps/contract.sol\":2885:2901  oracle = _oracle */\n      0x0100\n      exp\n      dup2\n      sload\n      dup2\n      0xffffffffffffffffffffffffffffffffffffffff\n      mul\n      not\n      and\n      swap1\n      dup4\n      0xffffffffffffffffffffffffffffffffffffffff\n      and\n      mul\n      or\n      swap1\n      sstore\n      pop\n        /* \".deps/contract.sol\":2820:2908  function setOracle(address _oracle) external onlyOwner {... */\n      pop\n      jump\t// out\n        /* \".deps/contract.sol\":369:390  address public oracle */\n    tag_45:\n      0x01\n      0x00\n      swap1\n      sload\n      swap1\n      0x0100\n      exp\n      swap1\n      div\n      0xffffffffffffffffffffffffffffffffffffffff\n      and\n      dup2\n      jump\t// out\n        /* \".deps/contract.sol\":3176:4114  function createInsurance(... */\n    tag_51:\n        /* \".deps/contract.sol\":3333:3352  uint256 insuranceID */\n      0x00\n        /* \".deps/contract.sol\":3381:3383  T1 */\n      dup3\n        /* \".deps/contract.sol\":3376:3378  TP */\n      dup3\n        /* \".deps/contract.sol\":3376:3383  TP > T1 */\n      gt\n        /* \".deps/contract.sol\":3368:3407  require(TP > T1, \"TP must be after T1\") */\n      tag_95\n      jumpi\n      mload(0x40)\n      0x08c379a000000000000000000000000000000000000000000000000000000000\n      dup2\n      mstore\n      0x04\n      add\n      tag_96\n      swap1\n      tag_97\n      jump\t// in\n    tag_96:\n      mload(0x40)\n      dup1\n      swap2\n      sub\n      swap1\n      revert\n    tag_95:\n        /* \".deps/contract.sol\":1479:1482  300 */\n      0x012c\n        /* \".deps/contract.sol\":3425:3434  msg.value */\n      callvalue\n        /* \".deps/contract.sol\":3425:3453  msg.value == DEFAULT_PREMIUM */\n      eq\n        /* \".deps/contract.sol\":3417:3480  require(msg.value == DEFAULT_PREMIUM, \"Incorrect premium sent\") */\n      tag_98\n      jumpi\n      mload(0x40)\n      0x08c379a000000000000000000000000000000000000000000000000000000000\n      dup2\n      mstore\n      0x04\n      add\n      tag_99\n      swap1\n      tag_100\n      jump\t// in\n    tag_99:\n      mload(0x40)\n      dup1\n      swap2\n      sub\n      swap1\n      revert\n    tag_98:\n        /* \".deps/contract.sol\":3505:3520  nextInsuranceId */\n      0x02\n      0x00\n        /* \".deps/contract.sol\":3505:3522  nextInsuranceId++ */\n      dup2\n      sload\n      dup1\n      swap3\n      swap2\n      swap1\n      tag_101\n      swap1\n      tag_102\n      jump\t// in\n    tag_101:\n      swap2\n      swap1\n      pop\n      sstore\n        /* \".deps/contract.sol\":3491:3522  insuranceID = nextInsuranceId++ */\n      swap1\n      pop\n        /* \".deps/contract.sol\":3532:3553  Insurance storage ins */\n      0x00\n        /* \".deps/contract.sol\":3556:3566  insurances */\n      0x03\n        /* \".deps/contract.sol\":3556:3579  insurances[insuranceID] */\n      0x00\n        /* \".deps/contract.sol\":3567:3578  insuranceID */\n      dup4\n        /* \".deps/contract.sol\":3556:3579  insurances[insuranceID] */\n      dup2\n      mstore\n      0x20\n      add\n      swap1\n      dup2\n      mstore\n      0x20\n      add\n      0x00\n      keccak256\n        /* \".deps/contract.sol\":3532:3579  Insurance storage ins = insurances[insuranceID] */\n      swap1\n      pop\n        /* \".deps/contract.sol\":3612:3622  msg.sender */\n      caller\n        /* \".deps/contract.sol\":3589:3592  ins */\n      dup2\n        /* \".deps/contract.sol\":3589:3601  ins.customer */\n      0x00\n      add\n      0x00\n        /* \".deps/contract.sol\":3589:3623  ins.customer = payable(msg.sender) */\n      0x0100\n      exp\n      dup2\n      sload\n      dup2\n      0xffffffffffffffffffffffffffffffffffffffff\n      mul\n      not\n      and\n      swap1\n      dup4\n      0xffffffffffffffffffffffffffffffffffffffff\n      and\n      mul\n      or\n      swap1\n      sstore\n      pop\n        /* \".deps/contract.sol\":3650:3660  flightCode */\n      dup6\n      dup6\n        /* \".deps/contract.sol\":3633:3636  ins */\n      dup3\n        /* \".deps/contract.sol\":3633:3647  ins.flightCode */\n      0x01\n      add\n        /* \".deps/contract.sol\":3633:3660  ins.flightCode = flightCode */\n      swap2\n      dup3\n      tag_103\n      swap3\n      swap2\n      swap1\n      tag_104\n      jump\t// in\n    tag_103:\n      pop\n        /* \".deps/contract.sol\":3679:3681  T1 */\n      dup4\n        /* \".deps/contract.sol\":3670:3673  ins */\n      dup2\n        /* \".deps/contract.sol\":3670:3676  ins.T1 */\n      0x02\n      add\n        /* \".deps/contract.sol\":3670:3681  ins.T1 = T1 */\n      dup2\n      swap1\n      sstore\n      pop\n        /* \".deps/contract.sol\":3700:3702  TP */\n      dup3\n        /* \".deps/contract.sol\":3691:3694  ins */\n      dup2\n        /* \".deps/contract.sol\":3691:3697  ins.TP */\n      0x03\n      add\n        /* \".deps/contract.sol\":3691:3702  ins.TP = TP */\n      dup2\n      swap1\n      sstore\n      pop\n        /* \".deps/contract.sol\":3721:3722  0 */\n      0x00\n        /* \".deps/contract.sol\":3712:3715  ins */\n      dup2\n        /* \".deps/contract.sol\":3712:3718  ins.TA */\n      0x04\n      add\n        /* \".deps/contract.sol\":3712:3722  ins.TA = 0 */\n      dup2\n      swap1\n      sstore\n      pop\n        /* \".deps/contract.sol\":3740:3755  block.timestamp */\n      timestamp\n        /* \".deps/contract.sol\":3732:3735  ins */\n      dup2\n        /* \".deps/contract.sol\":3732:3737  ins.T */\n      0x05\n      add\n        /* \".deps/contract.sol\":3732:3755  ins.T = block.timestamp */\n      dup2\n      swap1\n      sstore\n      pop\n        /* \".deps/contract.sol\":1402:1409  4 hours */\n      0x3840\n        /* \".deps/contract.sol\":3765:3768  ins */\n      dup2\n        /* \".deps/contract.sol\":3765:3771  ins.CT */\n      0x06\n      add\n        /* \".deps/contract.sol\":3765:3784  ins.CT = DEFAULT_CT */\n      dup2\n      swap1\n      sstore\n      pop\n        /* \".deps/contract.sol\":1479:1482  300 */\n      0x012c\n        /* \".deps/contract.sol\":3794:3797  ins */\n      dup2\n        /* \".deps/contract.sol\":3794:3805  ins.premium */\n      0x07\n      add\n        /* \".deps/contract.sol\":3794:3823  ins.premium = DEFAULT_PREMIUM */\n      dup2\n      swap1\n      sstore\n      pop\n        /* \".deps/contract.sol\":1550:1554  6000 */\n      0x1770\n        /* \".deps/contract.sol\":3833:3836  ins */\n      dup2\n        /* \".deps/contract.sol\":3833:3848  ins.claimAmount */\n      0x08\n      add\n        /* \".deps/contract.sol\":3833:3864  ins.claimAmount = DEFAULT_CLAIM */\n      dup2\n      swap1\n      sstore\n      pop\n        /* \".deps/contract.sol\":3887:3900  Status.Active */\n      0x00\n        /* \".deps/contract.sol\":3874:3877  ins */\n      dup2\n        /* \".deps/contract.sol\":3874:3884  ins.status */\n      0x09\n      add\n      0x00\n        /* \".deps/contract.sol\":3874:3900  ins.status = Status.Active */\n      0x0100\n      exp\n      dup2\n      sload\n      dup2\n      0xff\n      mul\n      not\n      and\n      swap1\n      dup4\n      0x02\n      dup2\n      gt\n      iszero\n      tag_105\n      jumpi\n      tag_106\n      tag_107\n      jump\t// in\n    tag_106:\n    tag_105:\n      mul\n      or\n      swap1\n      sstore\n      pop\n        /* \".deps/contract.sol\":3928:3944  ClaimStatus.None */\n      0x00\n        /* \".deps/contract.sol\":3910:3913  ins */\n      dup2\n        /* \".deps/contract.sol\":3910:3925  ins.claimStatus */\n      0x09\n      add\n      0x01\n        /* \".deps/contract.sol\":3910:3944  ins.claimStatus = ClaimStatus.None */\n      0x0100\n      exp\n      dup2\n      sload\n      dup2\n      0xff\n      mul\n      not\n      and\n      swap1\n      dup4\n      0x02\n      dup2\n      gt\n      iszero\n      tag_108\n      jumpi\n      tag_109\n      tag_107\n      jump\t// in\n    tag_109:\n    tag_108:\n      mul\n      or\n      swap1\n      sstore\n      pop\n        /* \".deps/contract.sol\":3973:3992  FlightStatus.Normal */\n      0x00\n        /* \".deps/contract.sol\":3954:3957  ins */\n      dup2\n        /* \".deps/contract.sol\":3954:3970  ins.flightStatus */\n      0x09\n      add\n      0x02\n        /* \".deps/contract.sol\":3954:3992  ins.flightStatus = FlightStatus.Normal */\n      0x0100\n      exp\n      dup2\n      sload\n      dup2\n      0xff\n      mul\n      not\n      and\n      swap1\n      dup4\n      0x02\n      dup2\n      gt\n      iszero\n      tag_110\n      jumpi\n      tag_111\n      tag_107\n      jump\t// in\n    tag_111:\n    tag_110:\n      mul\n      or\n      swap1\n      sstore\n      pop\n        /* \".deps/contract.sol\":4003:4021  customerInsurances */\n      0x04\n        /* \".deps/contract.sol\":4003:4033  customerInsurances[msg.sender] */\n      0x00\n        /* \".deps/contract.sol\":4022:4032  msg.sender */\n      caller\n        /* \".deps/contract.sol\":4003:4033  customerInsurances[msg.sender] */\n      0xffffffffffffffffffffffffffffffffffffffff\n      and\n      0xffffffffffffffffffffffffffffffffffffffff\n      and\n      dup2\n      mstore\n      0x20\n      add\n      swap1\n      dup2\n      mstore\n      0x20\n      add\n      0x00\n      keccak256\n        /* \".deps/contract.sol\":4039:4050  insuranceID */\n      dup3\n        /* \".deps/contract.sol\":4003:4051  customerInsurances[msg.sender].push(insuranceID) */\n      swap1\n      dup1\n      0x01\n      dup2\n      sload\n      add\n      dup1\n      dup3\n      sstore\n      dup1\n      swap2\n      pop\n      pop\n      0x01\n      swap1\n      sub\n      swap1\n      0x00\n      mstore\n      keccak256(0x00, 0x20)\n      add\n      0x00\n      swap1\n      swap2\n      swap1\n      swap2\n      swap1\n      swap2\n      pop\n      sstore\n        /* \".deps/contract.sol\":4096:4106  msg.sender */\n      caller\n        /* \".deps/contract.sol\":4066:4107  InsuranceCreated(insuranceID, msg.sender) */\n      0xffffffffffffffffffffffffffffffffffffffff\n      and\n        /* \".deps/contract.sol\":4083:4094  insuranceID */\n      dup3\n        /* \".deps/contract.sol\":4066:4107  InsuranceCreated(insuranceID, msg.sender) */\n      0x362a18d483785c7cbd3eedc8134897c38959f9330c5dfe708330173600280a4c\n      mload(0x40)\n      mload(0x40)\n      dup1\n      swap2\n      sub\n      swap1\n      log3\n        /* \".deps/contract.sol\":3358:4114  {... */\n      pop\n        /* \".deps/contract.sol\":3176:4114  function createInsurance(... */\n      swap5\n      swap4\n      pop\n      pop\n      pop\n      pop\n      jump\t// out\n        /* \".deps/contract.sol\":4674:6342  function checkAndClaim(uint256 insuranceID) external {... */\n    tag_56:\n        /* \".deps/contract.sol\":4737:4758  Insurance storage ins */\n      0x00\n        /* \".deps/contract.sol\":4761:4771  insurances */\n      0x03\n        /* \".deps/contract.sol\":4761:4784  insurances[insuranceID] */\n      0x00\n        /* \".deps/contract.sol\":4772:4783  insuranceID */\n      dup4\n        /* \".deps/contract.sol\":4761:4784  insurances[insuranceID] */\n      dup2\n      mstore\n      0x20\n      add\n      swap1\n      dup2\n      mstore\n      0x20\n      add\n      0x00\n      keccak256\n        /* \".deps/contract.sol\":4737:4784  Insurance storage ins = insurances[insuranceID] */\n      swap1\n      pop\n        /* \".deps/contract.sol\":4816:4829  Status.Active */\n      0x00\n        /* \".deps/contract.sol\":4802:4829  ins.status == Status.Active */\n      0x02\n      dup2\n      gt\n      iszero\n      tag_114\n      jumpi\n      tag_115\n      tag_107\n      jump\t// in\n    tag_115:\n    tag_114:\n        /* \".deps/contract.sol\":4802:4805  ins */\n      dup2\n        /* \".deps/contract.sol\":4802:4812  ins.status */\n      0x09\n      add\n      0x00\n      swap1\n      sload\n      swap1\n      0x0100\n      exp\n      swap1\n      div\n      0xff\n      and\n        /* \".deps/contract.sol\":4802:4829  ins.status == Status.Active */\n      0x02\n      dup2\n      gt\n      iszero\n      tag_116\n      jumpi\n      tag_117\n      tag_107\n      jump\t// in\n    tag_117:\n    tag_116:\n      eq\n        /* \".deps/contract.sol\":4794:4854  require(ins.status == Status.Active, \"Insurance not active\") */\n      tag_118\n      jumpi\n      mload(0x40)\n      0x08c379a000000000000000000000000000000000000000000000000000000000\n      dup2\n      mstore\n      0x04\n      add\n      tag_119\n      swap1\n      tag_120\n      jump\t// in\n    tag_119:\n      mload(0x40)\n      dup1\n      swap2\n      sub\n      swap1\n      revert\n    tag_118:\n        /* \".deps/contract.sol\":4937:4940  ins */\n      dup1\n        /* \".deps/contract.sol\":4937:4943  ins.CT */\n      0x06\n      add\n      sload\n        /* \".deps/contract.sol\":4928:4931  ins */\n      dup2\n        /* \".deps/contract.sol\":4928:4934  ins.TP */\n      0x03\n      add\n      sload\n        /* \".deps/contract.sol\":4928:4943  ins.TP + ins.CT */\n      tag_121\n      swap2\n      swap1\n      tag_122\n      jump\t// in\n    tag_121:\n        /* \".deps/contract.sol\":4910:4925  block.timestamp */\n      timestamp\n        /* \".deps/contract.sol\":4910:4943  block.timestamp < ins.TP + ins.CT */\n      lt\n        /* \".deps/contract.sol\":4906:5060  if (block.timestamp < ins.TP + ins.CT) {... */\n      iszero\n      tag_123\n      jumpi\n        /* \".deps/contract.sol\":4967:4982  block.timestamp */\n      timestamp\n        /* \".deps/contract.sol\":4959:4962  ins */\n      dup2\n        /* \".deps/contract.sol\":4959:4964  ins.T */\n      0x05\n      add\n        /* \".deps/contract.sol\":4959:4982  ins.T = block.timestamp */\n      dup2\n      swap1\n      sstore\n      pop\n        /* \".deps/contract.sol\":5017:5028  insuranceID */\n      dup2\n        /* \".deps/contract.sol\":5001:5029  CheckedNotReady(insuranceID) */\n      0x44ea6cd4a30857868ca250b1d94459ec789d82611c70f26164bffda153f1bc0a\n      mload(0x40)\n      mload(0x40)\n      dup1\n      swap2\n      sub\n      swap1\n      log2\n        /* \".deps/contract.sol\":5043:5050  return; */\n      pop\n      jump(tag_113)\n        /* \".deps/contract.sol\":4906:5060  if (block.timestamp < ins.TP + ins.CT) {... */\n    tag_123:\n        /* \".deps/contract.sol\":5123:5144  FlightStatus.Canceled */\n      0x01\n        /* \".deps/contract.sol\":5103:5144  ins.flightStatus == FlightStatus.Canceled */\n      0x02\n      dup2\n      gt\n      iszero\n      tag_124\n      jumpi\n      tag_125\n      tag_107\n      jump\t// in\n    tag_125:\n    tag_124:\n        /* \".deps/contract.sol\":5103:5106  ins */\n      dup2\n        /* \".deps/contract.sol\":5103:5119  ins.flightStatus */\n      0x09\n      add\n      0x02\n      swap1\n      sload\n      swap1\n      0x0100\n      exp\n      swap1\n      div\n      0xff\n      and\n        /* \".deps/contract.sol\":5103:5144  ins.flightStatus == FlightStatus.Canceled */\n      0x02\n      dup2\n      gt\n      iszero\n      tag_126\n      jumpi\n      tag_127\n      tag_107\n      jump\t// in\n    tag_127:\n    tag_126:\n      sub\n        /* \".deps/contract.sol\":5099:5320  if (ins.flightStatus == FlightStatus.Canceled) {... */\n      tag_128\n      jumpi\n        /* \".deps/contract.sol\":5173:5190  Status.Terminated */\n      0x01\n        /* \".deps/contract.sol\":5160:5163  ins */\n      dup2\n        /* \".deps/contract.sol\":5160:5170  ins.status */\n      0x09\n      add\n      0x00\n        /* \".deps/contract.sol\":5160:5190  ins.status = Status.Terminated */\n      0x0100\n      exp\n      dup2\n      sload\n      dup2\n      0xff\n      mul\n      not\n      and\n      swap1\n      dup4\n      0x02\n      dup2\n      gt\n      iszero\n      tag_129\n      jumpi\n      tag_130\n      tag_107\n      jump\t// in\n    tag_130:\n    tag_129:\n      mul\n      or\n      swap1\n      sstore\n      pop\n        /* \".deps/contract.sol\":5222:5240  ClaimStatus.Denied */\n      0x02\n        /* \".deps/contract.sol\":5204:5207  ins */\n      dup2\n        /* \".deps/contract.sol\":5204:5219  ins.claimStatus */\n      0x09\n      add\n      0x01\n        /* \".deps/contract.sol\":5204:5240  ins.claimStatus = ClaimStatus.Denied */\n      0x0100\n      exp\n      dup2\n      sload\n      dup2\n      0xff\n      mul\n      not\n      and\n      swap1\n      dup4\n      0x02\n      dup2\n      gt\n      iszero\n      tag_131\n      jumpi\n      tag_132\n      tag_107\n      jump\t// in\n    tag_132:\n    tag_131:\n      mul\n      or\n      swap1\n      sstore\n      pop\n        /* \".deps/contract.sol\":5277:5288  insuranceID */\n      dup2\n        /* \".deps/contract.sol\":5259:5289  TerminatedNoClaim(insuranceID) */\n      0xce497f2d2d439d5ac116f719fa47580e5922b4944a0f698d2327162c6eb3b7ac\n      mload(0x40)\n      mload(0x40)\n      dup1\n      swap2\n      sub\n      swap1\n      log2\n        /* \".deps/contract.sol\":5303:5310  return; */\n      pop\n      jump(tag_113)\n        /* \".deps/contract.sol\":5099:5320  if (ins.flightStatus == FlightStatus.Canceled) {... */\n    tag_128:\n        /* \".deps/contract.sol\":5391:5392  0 */\n      0x00\n        /* \".deps/contract.sol\":5381:5384  ins */\n      dup2\n        /* \".deps/contract.sol\":5381:5387  ins.TA */\n      0x04\n      add\n      sload\n        /* \".deps/contract.sol\":5381:5392  ins.TA == 0 */\n      eq\n        /* \".deps/contract.sol\":5381:5432  ins.TA == 0 && block.timestamp >= ins.TP + 72 hours */\n      dup1\n      iszero\n      tag_133\n      jumpi\n      pop\n        /* \".deps/contract.sol\":5424:5432  72 hours */\n      0x03f480\n        /* \".deps/contract.sol\":5415:5418  ins */\n      dup2\n        /* \".deps/contract.sol\":5415:5421  ins.TP */\n      0x03\n      add\n      sload\n        /* \".deps/contract.sol\":5415:5432  ins.TP + 72 hours */\n      tag_134\n      swap2\n      swap1\n      tag_122\n      jump\t// in\n    tag_134:\n        /* \".deps/contract.sol\":5396:5411  block.timestamp */\n      timestamp\n        /* \".deps/contract.sol\":5396:5432  block.timestamp >= ins.TP + 72 hours */\n      lt\n      iszero\n        /* \".deps/contract.sol\":5381:5432  ins.TA == 0 && block.timestamp >= ins.TP + 72 hours */\n    tag_133:\n        /* \".deps/contract.sol\":5377:5658  if (ins.TA == 0 && block.timestamp >= ins.TP + 72 hours) {... */\n      iszero\n      tag_135\n      jumpi\n        /* \".deps/contract.sol\":5461:5478  Status.Terminated */\n      0x01\n        /* \".deps/contract.sol\":5448:5451  ins */\n      dup2\n        /* \".deps/contract.sol\":5448:5458  ins.status */\n      0x09\n      add\n      0x00\n        /* \".deps/contract.sol\":5448:5478  ins.status = Status.Terminated */\n      0x0100\n      exp\n      dup2\n      sload\n      dup2\n      0xff\n      mul\n      not\n      and\n      swap1\n      dup4\n      0x02\n      dup2\n      gt\n      iszero\n      tag_136\n      jumpi\n      tag_137\n      tag_107\n      jump\t// in\n    tag_137:\n    tag_136:\n      mul\n      or\n      swap1\n      sstore\n      pop\n        /* \".deps/contract.sol\":5510:5528  ClaimStatus.Denied */\n      0x02\n        /* \".deps/contract.sol\":5492:5495  ins */\n      dup2\n        /* \".deps/contract.sol\":5492:5507  ins.claimStatus */\n      0x09\n      add\n      0x01\n        /* \".deps/contract.sol\":5492:5528  ins.claimStatus = ClaimStatus.Denied */\n      0x0100\n      exp\n      dup2\n      sload\n      dup2\n      0xff\n      mul\n      not\n      and\n      swap1\n      dup4\n      0x02\n      dup2\n      gt\n      iszero\n      tag_138\n      jumpi\n      tag_139\n      tag_107\n      jump\t// in\n    tag_139:\n    tag_138:\n      mul\n      or\n      swap1\n      sstore\n      pop\n        /* \".deps/contract.sol\":5561:5579  FlightStatus.Other */\n      0x02\n        /* \".deps/contract.sol\":5542:5545  ins */\n      dup2\n        /* \".deps/contract.sol\":5542:5558  ins.flightStatus */\n      0x09\n      add\n      0x02\n        /* \".deps/contract.sol\":5542:5579  ins.flightStatus = FlightStatus.Other */\n      0x0100\n      exp\n      dup2\n      sload\n      dup2\n      0xff\n      mul\n      not\n      and\n      swap1\n      dup4\n      0x02\n      dup2\n      gt\n      iszero\n      tag_140\n      jumpi\n      tag_141\n      tag_107\n      jump\t// in\n    tag_141:\n    tag_140:\n      mul\n      or\n      swap1\n      sstore\n      pop\n        /* \".deps/contract.sol\":5615:5626  insuranceID */\n      dup2\n        /* \".deps/contract.sol\":5598:5627  TerminatedNoData(insuranceID) */\n      0xac9706c516a83df0060e911fa5b8a2fd1acedc32c29e4a4dad6fe2061caceff2\n      mload(0x40)\n      mload(0x40)\n      dup1\n      swap2\n      sub\n      swap1\n      log2\n        /* \".deps/contract.sol\":5641:5648  return; */\n      pop\n      jump(tag_113)\n        /* \".deps/contract.sol\":5377:5658  if (ins.TA == 0 && block.timestamp >= ins.TP + 72 hours) {... */\n    tag_135:\n        /* \".deps/contract.sol\":5715:5716  0 */\n      0x00\n        /* \".deps/contract.sol\":5705:5708  ins */\n      dup2\n        /* \".deps/contract.sol\":5705:5711  ins.TA */\n      0x04\n      add\n      sload\n        /* \".deps/contract.sol\":5705:5716  ins.TA == 0 */\n      sub\n        /* \".deps/contract.sol\":5701:5834  if (ins.TA == 0) {... */\n      tag_142\n      jumpi\n        /* \".deps/contract.sol\":5740:5755  block.timestamp */\n      timestamp\n        /* \".deps/contract.sol\":5732:5735  ins */\n      dup2\n        /* \".deps/contract.sol\":5732:5737  ins.T */\n      0x05\n      add\n        /* \".deps/contract.sol\":5732:5755  ins.T = block.timestamp */\n      dup2\n      swap1\n      sstore\n      pop\n        /* \".deps/contract.sol\":5791:5802  insuranceID */\n      dup2\n        /* \".deps/contract.sol\":5774:5803  CheckedAwaitData(insuranceID) */\n      0xb69f5371ebf20cdf43bb4d5fb074d977d10508b688a49267b829acfcd727c026\n      mload(0x40)\n      mload(0x40)\n      dup1\n      swap2\n      sub\n      swap1\n      log2\n        /* \".deps/contract.sol\":5817:5824  return; */\n      pop\n      jump(tag_113)\n        /* \".deps/contract.sol\":5701:5834  if (ins.TA == 0) {... */\n    tag_142:\n        /* \".deps/contract.sol\":5899:5902  ins */\n      dup1\n        /* \".deps/contract.sol\":5899:5905  ins.CT */\n      0x06\n      add\n      sload\n        /* \".deps/contract.sol\":5890:5893  ins */\n      dup2\n        /* \".deps/contract.sol\":5890:5896  ins.TP */\n      0x03\n      add\n      sload\n        /* \".deps/contract.sol\":5890:5905  ins.TP + ins.CT */\n      tag_143\n      swap2\n      swap1\n      tag_122\n      jump\t// in\n    tag_143:\n        /* \".deps/contract.sol\":5880:5883  ins */\n      dup2\n        /* \".deps/contract.sol\":5880:5886  ins.TA */\n      0x04\n      add\n      sload\n        /* \".deps/contract.sol\":5880:5905  ins.TA <= ins.TP + ins.CT */\n      gt\n        /* \".deps/contract.sol\":5876:6336  if (ins.TA <= ins.TP + ins.CT) {... */\n      tag_144\n      jumpi\n        /* \".deps/contract.sol\":5934:5951  Status.Terminated */\n      0x01\n        /* \".deps/contract.sol\":5921:5924  ins */\n      dup2\n        /* \".deps/contract.sol\":5921:5931  ins.status */\n      0x09\n      add\n      0x00\n        /* \".deps/contract.sol\":5921:5951  ins.status = Status.Terminated */\n      0x0100\n      exp\n      dup2\n      sload\n      dup2\n      0xff\n      mul\n      not\n      and\n      swap1\n      dup4\n      0x02\n      dup2\n      gt\n      iszero\n      tag_145\n      jumpi\n      tag_146\n      tag_107\n      jump\t// in\n    tag_146:\n    tag_145:\n      mul\n      or\n      swap1\n      sstore\n      pop\n        /* \".deps/contract.sol\":5983:6001  ClaimStatus.Denied */\n      0x02\n        /* \".deps/contract.sol\":5965:5968  ins */\n      dup2\n        /* \".deps/contract.sol\":5965:5980  ins.claimStatus */\n      0x09\n      add\n      0x01\n        /* \".deps/contract.sol\":5965:6001  ins.claimStatus = ClaimStatus.Denied */\n      0x0100\n      exp\n      dup2\n      sload\n      dup2\n      0xff\n      mul\n      not\n      and\n      swap1\n      dup4\n      0x02\n      dup2\n      gt\n      iszero\n      tag_147\n      jumpi\n      tag_148\n      tag_107\n      jump\t// in\n    tag_148:\n    tag_147:\n      mul\n      or\n      swap1\n      sstore\n      pop\n        /* \".deps/contract.sol\":6037:6048  insuranceID */\n      dup2\n        /* \".deps/contract.sol\":6020:6049  TerminatedOnTime(insuranceID) */\n      0xa0a8cd3c30c1f1eee66987b51c20e8f2adf28114a41e24dddb595eaa93f36131\n      mload(0x40)\n      mload(0x40)\n      dup1\n      swap2\n      sub\n      swap1\n      log2\n        /* \".deps/contract.sol\":5876:6336  if (ins.TA <= ins.TP + ins.CT) {... */\n      jump(tag_149)\n    tag_144:\n        /* \".deps/contract.sol\":6112:6126  uint256 payout */\n      0x00\n        /* \".deps/contract.sol\":6129:6132  ins */\n      dup2\n        /* \".deps/contract.sol\":6129:6144  ins.claimAmount */\n      0x08\n      add\n      sload\n        /* \".deps/contract.sol\":6112:6144  uint256 payout = ins.claimAmount */\n      swap1\n      pop\n        /* \".deps/contract.sol\":6171:6185  Status.Claimed */\n      0x02\n        /* \".deps/contract.sol\":6158:6161  ins */\n      dup3\n        /* \".deps/contract.sol\":6158:6168  ins.status */\n      0x09\n      add\n      0x00\n        /* \".deps/contract.sol\":6158:6185  ins.status = Status.Claimed */\n      0x0100\n      exp\n      dup2\n      sload\n      dup2\n      0xff\n      mul\n      not\n      and\n      swap1\n      dup4\n      0x02\n      dup2\n      gt\n      iszero\n      tag_150\n      jumpi\n      tag_151\n      tag_107\n      jump\t// in\n    tag_151:\n    tag_150:\n      mul\n      or\n      swap1\n      sstore\n      pop\n        /* \".deps/contract.sol\":6217:6233  ClaimStatus.Paid */\n      0x01\n        /* \".deps/contract.sol\":6199:6202  ins */\n      dup3\n        /* \".deps/contract.sol\":6199:6214  ins.claimStatus */\n      0x09\n      add\n      0x01\n        /* \".deps/contract.sol\":6199:6233  ins.claimStatus = ClaimStatus.Paid */\n      0x0100\n      exp\n      dup2\n      sload\n      dup2\n      0xff\n      mul\n      not\n      and\n      swap1\n      dup4\n      0x02\n      dup2\n      gt\n      iszero\n      tag_152\n      jumpi\n      tag_153\n      tag_107\n      jump\t// in\n    tag_153:\n    tag_152:\n      mul\n      or\n      swap1\n      sstore\n      pop\n        /* \".deps/contract.sol\":6247:6250  ins */\n      dup2\n        /* \".deps/contract.sol\":6247:6259  ins.customer */\n      0x00\n      add\n      0x00\n      swap1\n      sload\n      swap1\n      0x0100\n      exp\n      swap1\n      div\n      0xffffffffffffffffffffffffffffffffffffffff\n      and\n        /* \".deps/contract.sol\":6247:6268  ins.customer.transfer */\n      0xffffffffffffffffffffffffffffffffffffffff\n      and\n        /* \".deps/contract.sol\":6247:6276  ins.customer.transfer(payout) */\n      0x08fc\n        /* \".deps/contract.sol\":6269:6275  payout */\n      dup3\n        /* \".deps/contract.sol\":6247:6276  ins.customer.transfer(payout) */\n      swap1\n      dup2\n      iszero\n      mul\n      swap1\n      mload(0x40)\n      0x00\n      mload(0x40)\n      dup1\n      dup4\n      sub\n      dup2\n      dup6\n      dup9\n      dup9\n      call\n      swap4\n      pop\n      pop\n      pop\n      pop\n      iszero\n      dup1\n      iszero\n      tag_155\n      jumpi\n      returndatasize\n      0x00\n      dup1\n      returndatacopy\n      revert(0x00, returndatasize)\n    tag_155:\n      pop\n        /* \".deps/contract.sol\":6305:6316  insuranceID */\n      dup3\n        /* \".deps/contract.sol\":6295:6325  ClaimPaid(insuranceID, payout) */\n      0xb0727183796e52c5bb00a257c1eb36d8e94dbee5d6d87e259287e3372ae39ace\n        /* \".deps/contract.sol\":6318:6324  payout */\n      dup3\n        /* \".deps/contract.sol\":6295:6325  ClaimPaid(insuranceID, payout) */\n      mload(0x40)\n      tag_156\n      swap2\n      swap1\n      tag_31\n      jump\t// in\n    tag_156:\n      mload(0x40)\n      dup1\n      swap2\n      sub\n      swap1\n      log2\n        /* \".deps/contract.sol\":6066:6336  {... */\n      pop\n        /* \".deps/contract.sol\":5876:6336  if (ins.TA <= ins.TP + ins.CT) {... */\n    tag_149:\n        /* \".deps/contract.sol\":4727:6342  {... */\n      pop\n        /* \".deps/contract.sol\":4674:6342  function checkAndClaim(uint256 insuranceID) external {... */\n    tag_113:\n      pop\n      jump\t// out\n        /* \".deps/contract.sol\":267:287  address public owner */\n    tag_59:\n      0x00\n      dup1\n      sload\n      swap1\n      0x0100\n      exp\n      swap1\n      div\n      0xffffffffffffffffffffffffffffffffffffffff\n      and\n      dup2\n      jump\t// out\n        /* \".deps/contract.sol\":4189:4612  function updateFlightInfo(... */\n    tag_65:\n        /* \".deps/contract.sol\":2610:2616  oracle */\n      0x01\n      0x00\n      swap1\n      sload\n      swap1\n      0x0100\n      exp\n      swap1\n      div\n      0xffffffffffffffffffffffffffffffffffffffff\n      and\n        /* \".deps/contract.sol\":2596:2616  msg.sender == oracle */\n      0xffffffffffffffffffffffffffffffffffffffff\n      and\n        /* \".deps/contract.sol\":2596:2606  msg.sender */\n      caller\n        /* \".deps/contract.sol\":2596:2616  msg.sender == oracle */\n      0xffffffffffffffffffffffffffffffffffffffff\n      and\n      eq\n        /* \".deps/contract.sol\":2596:2639  msg.sender == oracle || msg.sender == owner */\n      dup1\n      tag_158\n      jumpi\n      pop\n        /* \".deps/contract.sol\":2634:2639  owner */\n      0x00\n      dup1\n      sload\n      swap1\n      0x0100\n      exp\n      swap1\n      div\n      0xffffffffffffffffffffffffffffffffffffffff\n      and\n        /* \".deps/contract.sol\":2620:2639  msg.sender == owner */\n      0xffffffffffffffffffffffffffffffffffffffff\n      and\n        /* \".deps/contract.sol\":2620:2630  msg.sender */\n      caller\n        /* \".deps/contract.sol\":2620:2639  msg.sender == owner */\n      0xffffffffffffffffffffffffffffffffffffffff\n      and\n      eq\n        /* \".deps/contract.sol\":2596:2639  msg.sender == oracle || msg.sender == owner */\n    tag_158:\n        /* \".deps/contract.sol\":2588:2658  require(msg.sender == oracle || msg.sender == owner, \"Not authorized\") */\n      tag_159\n      jumpi\n      mload(0x40)\n      0x08c379a000000000000000000000000000000000000000000000000000000000\n      dup2\n      mstore\n      0x04\n      add\n      tag_160\n      swap1\n      tag_161\n      jump\t// in\n    tag_160:\n      mload(0x40)\n      dup1\n      swap2\n      sub\n      swap1\n      revert\n    tag_159:\n        /* \".deps/contract.sol\":4362:4383  Insurance storage ins */\n      0x00\n        /* \".deps/contract.sol\":4386:4396  insurances */\n      0x03\n        /* \".deps/contract.sol\":4386:4409  insurances[insuranceID] */\n      0x00\n        /* \".deps/contract.sol\":4397:4408  insuranceID */\n      dup6\n        /* \".deps/contract.sol\":4386:4409  insurances[insuranceID] */\n      dup2\n      mstore\n      0x20\n      add\n      swap1\n      dup2\n      mstore\n      0x20\n      add\n      0x00\n      keccak256\n        /* \".deps/contract.sol\":4362:4409  Insurance storage ins = insurances[insuranceID] */\n      swap1\n      pop\n        /* \".deps/contract.sol\":4441:4454  Status.Active */\n      0x00\n        /* \".deps/contract.sol\":4427:4454  ins.status == Status.Active */\n      0x02\n      dup2\n      gt\n      iszero\n      tag_163\n      jumpi\n      tag_164\n      tag_107\n      jump\t// in\n    tag_164:\n    tag_163:\n        /* \".deps/contract.sol\":4427:4430  ins */\n      dup2\n        /* \".deps/contract.sol\":4427:4437  ins.status */\n      0x09\n      add\n      0x00\n      swap1\n      sload\n      swap1\n      0x0100\n      exp\n      swap1\n      div\n      0xff\n      and\n        /* \".deps/contract.sol\":4427:4454  ins.status == Status.Active */\n      0x02\n      dup2\n      gt\n      iszero\n      tag_165\n      jumpi\n      tag_166\n      tag_107\n      jump\t// in\n    tag_166:\n    tag_165:\n      eq\n        /* \".deps/contract.sol\":4419:4479  require(ins.status == Status.Active, \"Insurance not active\") */\n      tag_167\n      jumpi\n      mload(0x40)\n      0x08c379a000000000000000000000000000000000000000000000000000000000\n      dup2\n      mstore\n      0x04\n      add\n      tag_168\n      swap1\n      tag_120\n      jump\t// in\n    tag_168:\n      mload(0x40)\n      dup1\n      swap2\n      sub\n      swap1\n      revert\n    tag_167:\n        /* \".deps/contract.sol\":4499:4501  TA */\n      dup3\n        /* \".deps/contract.sol\":4490:4493  ins */\n      dup2\n        /* \".deps/contract.sol\":4490:4496  ins.TA */\n      0x04\n      add\n        /* \".deps/contract.sol\":4490:4501  ins.TA = TA */\n      dup2\n      swap1\n      sstore\n      pop\n        /* \".deps/contract.sol\":4530:4542  flightStatus */\n      dup2\n        /* \".deps/contract.sol\":4511:4514  ins */\n      dup2\n        /* \".deps/contract.sol\":4511:4527  ins.flightStatus */\n      0x09\n      add\n      0x02\n        /* \".deps/contract.sol\":4511:4542  ins.flightStatus = flightStatus */\n      0x0100\n      exp\n      dup2\n      sload\n      dup2\n      0xff\n      mul\n      not\n      and\n      swap1\n      dup4\n      0x02\n      dup2\n      gt\n      iszero\n      tag_169\n      jumpi\n      tag_170\n      tag_107\n      jump\t// in\n    tag_170:\n    tag_169:\n      mul\n      or\n      swap1\n      sstore\n      pop\n        /* \".deps/contract.sol\":4575:4586  insuranceID */\n      dup4\n        /* \".deps/contract.sol\":4557:4605  FlightInfoUpdated(insuranceID, TA, flightStatus) */\n      0xefbe4568c3e8b3451436ae01df5e7365a5206dce94e54f32d21eb8b0a85e7f9e\n        /* \".deps/contract.sol\":4588:4590  TA */\n      dup5\n        /* \".deps/contract.sol\":4592:4604  flightStatus */\n      dup5\n        /* \".deps/contract.sol\":4557:4605  FlightInfoUpdated(insuranceID, TA, flightStatus) */\n      mload(0x40)\n      tag_171\n      swap3\n      swap2\n      swap1\n      tag_172\n      jump\t// in\n    tag_171:\n      mload(0x40)\n      dup1\n      swap2\n      sub\n      swap1\n      log2\n        /* \".deps/contract.sol\":4352:4612  {... */\n      pop\n        /* \".deps/contract.sol\":4189:4612  function updateFlightInfo(... */\n      pop\n      pop\n      pop\n      jump\t// out\n        /* \".deps/contract.sol\":1679:1734  mapping(address => uint256[]) public customerInsurances */\n    tag_70:\n      mstore(0x20, 0x04)\n      dup2\n      0x00\n      mstore\n      keccak256(0x00, 0x40)\n      dup2\n      dup2\n      sload\n      dup2\n      lt\n      tag_173\n      jumpi\n      0x00\n      dup1\n      revert\n    tag_173:\n      swap1\n      0x00\n      mstore\n      keccak256(0x00, 0x20)\n      add\n      0x00\n      swap2\n      pop\n      swap2\n      pop\n      pop\n      sload\n      dup2\n      jump\t// out\n        /* \".deps/contract.sol\":1365:1409  uint256 public constant DEFAULT_CT = 4 hours */\n    tag_74:\n        /* \".deps/contract.sol\":1402:1409  4 hours */\n      0x3840\n        /* \".deps/contract.sol\":1365:1409  uint256 public constant DEFAULT_CT = 4 hours */\n      dup2\n      jump\t// out\n        /* \".deps/contract.sol\":1437:1482  uint256 public constant DEFAULT_PREMIUM = 300 */\n    tag_78:\n        /* \".deps/contract.sol\":1479:1482  300 */\n      0x012c\n        /* \".deps/contract.sol\":1437:1482  uint256 public constant DEFAULT_PREMIUM = 300 */\n      dup2\n      jump\t// out\n        /* \"#utility.yul\":88:205   */\n    tag_176:\n        /* \"#utility.yul\":197:198   */\n      0x00\n        /* \"#utility.yul\":194:195   */\n      dup1\n        /* \"#utility.yul\":187:199   */\n      revert\n        /* \"#utility.yul\":211:328   */\n    tag_177:\n        /* \"#utility.yul\":320:321   */\n      0x00\n        /* \"#utility.yul\":317:318   */\n      dup1\n        /* \"#utility.yul\":310:322   */\n      revert\n        /* \"#utility.yul\":334:460   */\n    tag_178:\n        /* \"#utility.yul\":371:378   */\n      0x00\n        /* \"#utility.yul\":411:453   */\n      0xffffffffffffffffffffffffffffffffffffffff\n        /* \"#utility.yul\":404:409   */\n      dup3\n        /* \"#utility.yul\":400:454   */\n      and\n        /* \"#utility.yul\":389:454   */\n      swap1\n      pop\n        /* \"#utility.yul\":334:460   */\n      swap2\n      swap1\n      pop\n      jump\t// out\n        /* \"#utility.yul\":466:562   */\n    tag_179:\n        /* \"#utility.yul\":503:510   */\n      0x00\n        /* \"#utility.yul\":532:556   */\n      tag_254\n        /* \"#utility.yul\":550:555   */\n      dup3\n        /* \"#utility.yul\":532:556   */\n      tag_178\n      jump\t// in\n    tag_254:\n        /* \"#utility.yul\":521:556   */\n      swap1\n      pop\n        /* \"#utility.yul\":466:562   */\n      swap2\n      swap1\n      pop\n      jump\t// out\n        /* \"#utility.yul\":568:690   */\n    tag_180:\n        /* \"#utility.yul\":641:665   */\n      tag_256\n        /* \"#utility.yul\":659:664   */\n      dup2\n        /* \"#utility.yul\":641:665   */\n      tag_179\n      jump\t// in\n    tag_256:\n        /* \"#utility.yul\":634:639   */\n      dup2\n        /* \"#utility.yul\":631:666   */\n      eq\n        /* \"#utility.yul\":621:684   */\n      tag_257\n      jumpi\n        /* \"#utility.yul\":680:681   */\n      0x00\n        /* \"#utility.yul\":677:678   */\n      dup1\n        /* \"#utility.yul\":670:682   */\n      revert\n        /* \"#utility.yul\":621:684   */\n    tag_257:\n        /* \"#utility.yul\":568:690   */\n      pop\n      jump\t// out\n        /* \"#utility.yul\":696:835   */\n    tag_181:\n        /* \"#utility.yul\":742:747   */\n      0x00\n        /* \"#utility.yul\":780:786   */\n      dup2\n        /* \"#utility.yul\":767:787   */\n      calldataload\n        /* \"#utility.yul\":758:787   */\n      swap1\n      pop\n        /* \"#utility.yul\":796:829   */\n      tag_259\n        /* \"#utility.yul\":823:828   */\n      dup2\n        /* \"#utility.yul\":796:829   */\n      tag_180\n      jump\t// in\n    tag_259:\n        /* \"#utility.yul\":696:835   */\n      swap3\n      swap2\n      pop\n      pop\n      jump\t// out\n        /* \"#utility.yul\":841:1170   */\n    tag_23:\n        /* \"#utility.yul\":900:906   */\n      0x00\n        /* \"#utility.yul\":949:951   */\n      0x20\n        /* \"#utility.yul\":937:946   */\n      dup3\n        /* \"#utility.yul\":928:935   */\n      dup5\n        /* \"#utility.yul\":924:947   */\n      sub\n        /* \"#utility.yul\":920:952   */\n      slt\n        /* \"#utility.yul\":917:1036   */\n      iszero\n      tag_261\n      jumpi\n        /* \"#utility.yul\":955:1034   */\n      tag_262\n      tag_176\n      jump\t// in\n    tag_262:\n        /* \"#utility.yul\":917:1036   */\n    tag_261:\n        /* \"#utility.yul\":1075:1076   */\n      0x00\n        /* \"#utility.yul\":1100:1153   */\n      tag_263\n        /* \"#utility.yul\":1145:1152   */\n      dup5\n        /* \"#utility.yul\":1136:1142   */\n      dup3\n        /* \"#utility.yul\":1125:1134   */\n      dup6\n        /* \"#utility.yul\":1121:1143   */\n      add\n        /* \"#utility.yul\":1100:1153   */\n      tag_181\n      jump\t// in\n    tag_263:\n        /* \"#utility.yul\":1090:1153   */\n      swap2\n      pop\n        /* \"#utility.yul\":1046:1163   */\n      pop\n        /* \"#utility.yul\":841:1170   */\n      swap3\n      swap2\n      pop\n      pop\n      jump\t// out\n        /* \"#utility.yul\":1176:1290   */\n    tag_182:\n        /* \"#utility.yul\":1243:1249   */\n      0x00\n        /* \"#utility.yul\":1277:1282   */\n      dup2\n        /* \"#utility.yul\":1271:1283   */\n      mload\n        /* \"#utility.yul\":1261:1283   */\n      swap1\n      pop\n        /* \"#utility.yul\":1176:1290   */\n      swap2\n      swap1\n      pop\n      jump\t// out\n        /* \"#utility.yul\":1296:1480   */\n    tag_183:\n        /* \"#utility.yul\":1395:1406   */\n      0x00\n        /* \"#utility.yul\":1429:1435   */\n      dup3\n        /* \"#utility.yul\":1424:1427   */\n      dup3\n        /* \"#utility.yul\":1417:1436   */\n      mstore\n        /* \"#utility.yul\":1469:1473   */\n      0x20\n        /* \"#utility.yul\":1464:1467   */\n      dup3\n        /* \"#utility.yul\":1460:1474   */\n      add\n        /* \"#utility.yul\":1445:1474   */\n      swap1\n      pop\n        /* \"#utility.yul\":1296:1480   */\n      swap3\n      swap2\n      pop\n      pop\n      jump\t// out\n        /* \"#utility.yul\":1486:1618   */\n    tag_184:\n        /* \"#utility.yul\":1553:1557   */\n      0x00\n        /* \"#utility.yul\":1576:1579   */\n      dup2\n        /* \"#utility.yul\":1568:1579   */\n      swap1\n      pop\n        /* \"#utility.yul\":1606:1610   */\n      0x20\n        /* \"#utility.yul\":1601:1604   */\n      dup3\n        /* \"#utility.yul\":1597:1611   */\n      add\n        /* \"#utility.yul\":1589:1611   */\n      swap1\n      pop\n        /* \"#utility.yul\":1486:1618   */\n      swap2\n      swap1\n      pop\n      jump\t// out\n        /* \"#utility.yul\":1624:1701   */\n    tag_185:\n        /* \"#utility.yul\":1661:1668   */\n      0x00\n        /* \"#utility.yul\":1690:1695   */\n      dup2\n        /* \"#utility.yul\":1679:1695   */\n      swap1\n      pop\n        /* \"#utility.yul\":1624:1701   */\n      swap2\n      swap1\n      pop\n      jump\t// out\n        /* \"#utility.yul\":1707:1815   */\n    tag_186:\n        /* \"#utility.yul\":1784:1808   */\n      tag_269\n        /* \"#utility.yul\":1802:1807   */\n      dup2\n        /* \"#utility.yul\":1784:1808   */\n      tag_185\n      jump\t// in\n    tag_269:\n        /* \"#utility.yul\":1779:1782   */\n      dup3\n        /* \"#utility.yul\":1772:1809   */\n      mstore\n        /* \"#utility.yul\":1707:1815   */\n      pop\n      pop\n      jump\t// out\n        /* \"#utility.yul\":1821:2000   */\n    tag_187:\n        /* \"#utility.yul\":1890:1900   */\n      0x00\n        /* \"#utility.yul\":1911:1957   */\n      tag_271\n        /* \"#utility.yul\":1953:1956   */\n      dup4\n        /* \"#utility.yul\":1945:1951   */\n      dup4\n        /* \"#utility.yul\":1911:1957   */\n      tag_186\n      jump\t// in\n    tag_271:\n        /* \"#utility.yul\":1989:1993   */\n      0x20\n        /* \"#utility.yul\":1984:1987   */\n      dup4\n        /* \"#utility.yul\":1980:1994   */\n      add\n        /* \"#utility.yul\":1966:1994   */\n      swap1\n      pop\n        /* \"#utility.yul\":1821:2000   */\n      swap3\n      swap2\n      pop\n      pop\n      jump\t// out\n        /* \"#utility.yul\":2006:2119   */\n    tag_188:\n        /* \"#utility.yul\":2076:2080   */\n      0x00\n        /* \"#utility.yul\":2108:2112   */\n      0x20\n        /* \"#utility.yul\":2103:2106   */\n      dup3\n        /* \"#utility.yul\":2099:2113   */\n      add\n        /* \"#utility.yul\":2091:2113   */\n      swap1\n      pop\n        /* \"#utility.yul\":2006:2119   */\n      swap2\n      swap1\n      pop\n      jump\t// out\n        /* \"#utility.yul\":2155:2887   */\n    tag_189:\n        /* \"#utility.yul\":2274:2277   */\n      0x00\n        /* \"#utility.yul\":2303:2357   */\n      tag_274\n        /* \"#utility.yul\":2351:2356   */\n      dup3\n        /* \"#utility.yul\":2303:2357   */\n      tag_182\n      jump\t// in\n    tag_274:\n        /* \"#utility.yul\":2373:2459   */\n      tag_275\n        /* \"#utility.yul\":2452:2458   */\n      dup2\n        /* \"#utility.yul\":2447:2450   */\n      dup6\n        /* \"#utility.yul\":2373:2459   */\n      tag_183\n      jump\t// in\n    tag_275:\n        /* \"#utility.yul\":2366:2459   */\n      swap4\n      pop\n        /* \"#utility.yul\":2483:2539   */\n      tag_276\n        /* \"#utility.yul\":2533:2538   */\n      dup4\n        /* \"#utility.yul\":2483:2539   */\n      tag_184\n      jump\t// in\n    tag_276:\n        /* \"#utility.yul\":2562:2569   */\n      dup1\n        /* \"#utility.yul\":2593:2594   */\n      0x00\n        /* \"#utility.yul\":2578:2862   */\n    tag_277:\n        /* \"#utility.yul\":2603:2609   */\n      dup4\n        /* \"#utility.yul\":2600:2601   */\n      dup2\n        /* \"#utility.yul\":2597:2610   */\n      lt\n        /* \"#utility.yul\":2578:2862   */\n      iszero\n      tag_279\n      jumpi\n        /* \"#utility.yul\":2679:2685   */\n      dup2\n        /* \"#utility.yul\":2673:2686   */\n      mload\n        /* \"#utility.yul\":2706:2769   */\n      tag_280\n        /* \"#utility.yul\":2765:2768   */\n      dup9\n        /* \"#utility.yul\":2750:2763   */\n      dup3\n        /* \"#utility.yul\":2706:2769   */\n      tag_187\n      jump\t// in\n    tag_280:\n        /* \"#utility.yul\":2699:2769   */\n      swap8\n      pop\n        /* \"#utility.yul\":2792:2852   */\n      tag_281\n        /* \"#utility.yul\":2845:2851   */\n      dup4\n        /* \"#utility.yul\":2792:2852   */\n      tag_188\n      jump\t// in\n    tag_281:\n        /* \"#utility.yul\":2782:2852   */\n      swap3\n      pop\n        /* \"#utility.yul\":2638:2862   */\n      pop\n        /* \"#utility.yul\":2625:2626   */\n      0x01\n        /* \"#utility.yul\":2622:2623   */\n      dup2\n        /* \"#utility.yul\":2618:2627   */\n      add\n        /* \"#utility.yul\":2613:2627   */\n      swap1\n      pop\n        /* \"#utility.yul\":2578:2862   */\n      jump(tag_277)\n    tag_279:\n        /* \"#utility.yul\":2582:2596   */\n      pop\n        /* \"#utility.yul\":2878:2881   */\n      dup6\n        /* \"#utility.yul\":2871:2881   */\n      swap4\n      pop\n        /* \"#utility.yul\":2279:2887   */\n      pop\n      pop\n      pop\n        /* \"#utility.yul\":2155:2887   */\n      swap3\n      swap2\n      pop\n      pop\n      jump\t// out\n        /* \"#utility.yul\":2893:3266   */\n    tag_26:\n        /* \"#utility.yul\":3036:3040   */\n      0x00\n        /* \"#utility.yul\":3074:3076   */\n      0x20\n        /* \"#utility.yul\":3063:3072   */\n      dup3\n        /* \"#utility.yul\":3059:3077   */\n      add\n        /* \"#utility.yul\":3051:3077   */\n      swap1\n      pop\n        /* \"#utility.yul\":3123:3132   */\n      dup2\n        /* \"#utility.yul\":3117:3121   */\n      dup2\n        /* \"#utility.yul\":3113:3133   */\n      sub\n        /* \"#utility.yul\":3109:3110   */\n      0x00\n        /* \"#utility.yul\":3098:3107   */\n      dup4\n        /* \"#utility.yul\":3094:3111   */\n      add\n        /* \"#utility.yul\":3087:3134   */\n      mstore\n        /* \"#utility.yul\":3151:3259   */\n      tag_283\n        /* \"#utility.yul\":3254:3258   */\n      dup2\n        /* \"#utility.yul\":3245:3251   */\n      dup5\n        /* \"#utility.yul\":3151:3259   */\n      tag_189\n      jump\t// in\n    tag_283:\n        /* \"#utility.yul\":3143:3259   */\n      swap1\n      pop\n        /* \"#utility.yul\":2893:3266   */\n      swap3\n      swap2\n      pop\n      pop\n      jump\t// out\n        /* \"#utility.yul\":3272:3390   */\n    tag_190:\n        /* \"#utility.yul\":3359:3383   */\n      tag_285\n        /* \"#utility.yul\":3377:3382   */\n      dup2\n        /* \"#utility.yul\":3359:3383   */\n      tag_185\n      jump\t// in\n    tag_285:\n        /* \"#utility.yul\":3354:3357   */\n      dup3\n        /* \"#utility.yul\":3347:3384   */\n      mstore\n        /* \"#utility.yul\":3272:3390   */\n      pop\n      pop\n      jump\t// out\n        /* \"#utility.yul\":3396:3618   */\n    tag_31:\n        /* \"#utility.yul\":3489:3493   */\n      0x00\n        /* \"#utility.yul\":3527:3529   */\n      0x20\n        /* \"#utility.yul\":3516:3525   */\n      dup3\n        /* \"#utility.yul\":3512:3530   */\n      add\n        /* \"#utility.yul\":3504:3530   */\n      swap1\n      pop\n        /* \"#utility.yul\":3540:3611   */\n      tag_287\n        /* \"#utility.yul\":3608:3609   */\n      0x00\n        /* \"#utility.yul\":3597:3606   */\n      dup4\n        /* \"#utility.yul\":3593:3610   */\n      add\n        /* \"#utility.yul\":3584:3590   */\n      dup5\n        /* \"#utility.yul\":3540:3611   */\n      tag_190\n      jump\t// in\n    tag_287:\n        /* \"#utility.yul\":3396:3618   */\n      swap3\n      swap2\n      pop\n      pop\n      jump\t// out\n        /* \"#utility.yul\":3624:3746   */\n    tag_191:\n        /* \"#utility.yul\":3697:3721   */\n      tag_289\n        /* \"#utility.yul\":3715:3720   */\n      dup2\n        /* \"#utility.yul\":3697:3721   */\n      tag_185\n      jump\t// in\n    tag_289:\n        /* \"#utility.yul\":3690:3695   */\n      dup2\n        /* \"#utility.yul\":3687:3722   */\n      eq\n        /* \"#utility.yul\":3677:3740   */\n      tag_290\n      jumpi\n        /* \"#utility.yul\":3736:3737   */\n      0x00\n        /* \"#utility.yul\":3733:3734   */\n      dup1\n        /* \"#utility.yul\":3726:3738   */\n      revert\n        /* \"#utility.yul\":3677:3740   */\n    tag_290:\n        /* \"#utility.yul\":3624:3746   */\n      pop\n      jump\t// out\n        /* \"#utility.yul\":3752:3891   */\n    tag_192:\n        /* \"#utility.yul\":3798:3803   */\n      0x00\n        /* \"#utility.yul\":3836:3842   */\n      dup2\n        /* \"#utility.yul\":3823:3843   */\n      calldataload\n        /* \"#utility.yul\":3814:3843   */\n      swap1\n      pop\n        /* \"#utility.yul\":3852:3885   */\n      tag_292\n        /* \"#utility.yul\":3879:3884   */\n      dup2\n        /* \"#utility.yul\":3852:3885   */\n      tag_191\n      jump\t// in\n    tag_292:\n        /* \"#utility.yul\":3752:3891   */\n      swap3\n      swap2\n      pop\n      pop\n      jump\t// out\n        /* \"#utility.yul\":3897:4226   */\n    tag_35:\n        /* \"#utility.yul\":3956:3962   */\n      0x00\n        /* \"#utility.yul\":4005:4007   */\n      0x20\n        /* \"#utility.yul\":3993:4002   */\n      dup3\n        /* \"#utility.yul\":3984:3991   */\n      dup5\n        /* \"#utility.yul\":3980:4003   */\n      sub\n        /* \"#utility.yul\":3976:4008   */\n      slt\n        /* \"#utility.yul\":3973:4092   */\n      iszero\n      tag_294\n      jumpi\n        /* \"#utility.yul\":4011:4090   */\n      tag_295\n      tag_176\n      jump\t// in\n    tag_295:\n        /* \"#utility.yul\":3973:4092   */\n    tag_294:\n        /* \"#utility.yul\":4131:4132   */\n      0x00\n        /* \"#utility.yul\":4156:4209   */\n      tag_296\n        /* \"#utility.yul\":4201:4208   */\n      dup5\n        /* \"#utility.yul\":4192:4198   */\n      dup3\n        /* \"#utility.yul\":4181:4190   */\n      dup6\n        /* \"#utility.yul\":4177:4199   */\n      add\n        /* \"#utility.yul\":4156:4209   */\n      tag_192\n      jump\t// in\n    tag_296:\n        /* \"#utility.yul\":4146:4209   */\n      swap2\n      pop\n        /* \"#utility.yul\":4102:4219   */\n      pop\n        /* \"#utility.yul\":3897:4226   */\n      swap3\n      swap2\n      pop\n      pop\n      jump\t// out\n        /* \"#utility.yul\":4232:4336   */\n    tag_193:\n        /* \"#utility.yul\":4277:4284   */\n      0x00\n        /* \"#utility.yul\":4306:4330   */\n      tag_298\n        /* \"#utility.yul\":4324:4329   */\n      dup3\n        /* \"#utility.yul\":4306:4330   */\n      tag_178\n      jump\t// in\n    tag_298:\n        /* \"#utility.yul\":4295:4330   */\n      swap1\n      pop\n        /* \"#utility.yul\":4232:4336   */\n      swap2\n      swap1\n      pop\n      jump\t// out\n        /* \"#utility.yul\":4342:4484   */\n    tag_194:\n        /* \"#utility.yul\":4445:4477   */\n      tag_300\n        /* \"#utility.yul\":4471:4476   */\n      dup2\n        /* \"#utility.yul\":4445:4477   */\n      tag_193\n      jump\t// in\n    tag_300:\n        /* \"#utility.yul\":4440:4443   */\n      dup3\n        /* \"#utility.yul\":4433:4478   */\n      mstore\n        /* \"#utility.yul\":4342:4484   */\n      pop\n      pop\n      jump\t// out\n        /* \"#utility.yul\":4490:4589   */\n    tag_195:\n        /* \"#utility.yul\":4542:4548   */\n      0x00\n        /* \"#utility.yul\":4576:4581   */\n      dup2\n        /* \"#utility.yul\":4570:4582   */\n      mload\n        /* \"#utility.yul\":4560:4582   */\n      swap1\n      pop\n        /* \"#utility.yul\":4490:4589   */\n      swap2\n      swap1\n      pop\n      jump\t// out\n        /* \"#utility.yul\":4595:4764   */\n    tag_196:\n        /* \"#utility.yul\":4679:4690   */\n      0x00\n        /* \"#utility.yul\":4713:4719   */\n      dup3\n        /* \"#utility.yul\":4708:4711   */\n      dup3\n        /* \"#utility.yul\":4701:4720   */\n      mstore\n        /* \"#utility.yul\":4753:4757   */\n      0x20\n        /* \"#utility.yul\":4748:4751   */\n      dup3\n        /* \"#utility.yul\":4744:4758   */\n      add\n        /* \"#utility.yul\":4729:4758   */\n      swap1\n      pop\n        /* \"#utility.yul\":4595:4764   */\n      swap3\n      swap2\n      pop\n      pop\n      jump\t// out\n        /* \"#utility.yul\":4770:4909   */\n    tag_197:\n        /* \"#utility.yul\":4859:4865   */\n      dup3\n        /* \"#utility.yul\":4854:4857   */\n      dup2\n        /* \"#utility.yul\":4849:4852   */\n      dup4\n        /* \"#utility.yul\":4843:4866   */\n      mcopy\n        /* \"#utility.yul\":4900:4901   */\n      0x00\n        /* \"#utility.yul\":4891:4897   */\n      dup4\n        /* \"#utility.yul\":4886:4889   */\n      dup4\n        /* \"#utility.yul\":4882:4898   */\n      add\n        /* \"#utility.yul\":4875:4902   */\n      mstore\n        /* \"#utility.yul\":4770:4909   */\n      pop\n      pop\n      pop\n      jump\t// out\n        /* \"#utility.yul\":4915:5017   */\n    tag_198:\n        /* \"#utility.yul\":4956:4962   */\n      0x00\n        /* \"#utility.yul\":5007:5009   */\n      0x1f\n        /* \"#utility.yul\":5003:5010   */\n      not\n        /* \"#utility.yul\":4998:5000   */\n      0x1f\n        /* \"#utility.yul\":4991:4996   */\n      dup4\n        /* \"#utility.yul\":4987:5001   */\n      add\n        /* \"#utility.yul\":4983:5011   */\n      and\n        /* \"#utility.yul\":4973:5011   */\n      swap1\n      pop\n        /* \"#utility.yul\":4915:5017   */\n      swap2\n      swap1\n      pop\n      jump\t// out\n        /* \"#utility.yul\":5023:5400   */\n    tag_199:\n        /* \"#utility.yul\":5111:5114   */\n      0x00\n        /* \"#utility.yul\":5139:5178   */\n      tag_306\n        /* \"#utility.yul\":5172:5177   */\n      dup3\n        /* \"#utility.yul\":5139:5178   */\n      tag_195\n      jump\t// in\n    tag_306:\n        /* \"#utility.yul\":5194:5265   */\n      tag_307\n        /* \"#utility.yul\":5258:5264   */\n      dup2\n        /* \"#utility.yul\":5253:5256   */\n      dup6\n        /* \"#utility.yul\":5194:5265   */\n      tag_196\n      jump\t// in\n    tag_307:\n        /* \"#utility.yul\":5187:5265   */\n      swap4\n      pop\n        /* \"#utility.yul\":5274:5339   */\n      tag_308\n        /* \"#utility.yul\":5332:5338   */\n      dup2\n        /* \"#utility.yul\":5327:5330   */\n      dup6\n        /* \"#utility.yul\":5320:5324   */\n      0x20\n        /* \"#utility.yul\":5313:5318   */\n      dup7\n        /* \"#utility.yul\":5309:5325   */\n      add\n        /* \"#utility.yul\":5274:5339   */\n      tag_197\n      jump\t// in\n    tag_308:\n        /* \"#utility.yul\":5364:5393   */\n      tag_309\n        /* \"#utility.yul\":5386:5392   */\n      dup2\n        /* \"#utility.yul\":5364:5393   */\n      tag_198\n      jump\t// in\n    tag_309:\n        /* \"#utility.yul\":5359:5362   */\n      dup5\n        /* \"#utility.yul\":5355:5394   */\n      add\n        /* \"#utility.yul\":5348:5394   */\n      swap2\n      pop\n        /* \"#utility.yul\":5115:5400   */\n      pop\n        /* \"#utility.yul\":5023:5400   */\n      swap3\n      swap2\n      pop\n      pop\n      jump\t// out\n        /* \"#utility.yul\":5406:5586   */\n    tag_107:\n        /* \"#utility.yul\":5454:5531   */\n      0x4e487b7100000000000000000000000000000000000000000000000000000000\n        /* \"#utility.yul\":5451:5452   */\n      0x00\n        /* \"#utility.yul\":5444:5532   */\n      mstore\n        /* \"#utility.yul\":5551:5555   */\n      0x21\n        /* \"#utility.yul\":5548:5549   */\n      0x04\n        /* \"#utility.yul\":5541:5556   */\n      mstore\n        /* \"#utility.yul\":5575:5579   */\n      0x24\n        /* \"#utility.yul\":5572:5573   */\n      0x00\n        /* \"#utility.yul\":5565:5580   */\n      revert\n        /* \"#utility.yul\":5592:5706   */\n    tag_200:\n        /* \"#utility.yul\":5674:5675   */\n      0x03\n        /* \"#utility.yul\":5667:5672   */\n      dup2\n        /* \"#utility.yul\":5664:5676   */\n      lt\n        /* \"#utility.yul\":5654:5700   */\n      tag_312\n      jumpi\n        /* \"#utility.yul\":5680:5698   */\n      tag_313\n      tag_107\n      jump\t// in\n    tag_313:\n        /* \"#utility.yul\":5654:5700   */\n    tag_312:\n        /* \"#utility.yul\":5592:5706   */\n      pop\n      jump\t// out\n        /* \"#utility.yul\":5712:5841   */\n    tag_201:\n        /* \"#utility.yul\":5758:5765   */\n      0x00\n        /* \"#utility.yul\":5787:5792   */\n      dup2\n        /* \"#utility.yul\":5776:5792   */\n      swap1\n      pop\n        /* \"#utility.yul\":5793:5835   */\n      tag_315\n        /* \"#utility.yul\":5829:5834   */\n      dup3\n        /* \"#utility.yul\":5793:5835   */\n      tag_200\n      jump\t// in\n    tag_315:\n        /* \"#utility.yul\":5712:5841   */\n      swap2\n      swap1\n      pop\n      jump\t// out\n        /* \"#utility.yul\":5847:5976   */\n    tag_202:\n        /* \"#utility.yul\":5904:5913   */\n      0x00\n        /* \"#utility.yul\":5937:5970   */\n      tag_317\n        /* \"#utility.yul\":5964:5969   */\n      dup3\n        /* \"#utility.yul\":5937:5970   */\n      tag_201\n      jump\t// in\n    tag_317:\n        /* \"#utility.yul\":5924:5970   */\n      swap1\n      pop\n        /* \"#utility.yul\":5847:5976   */\n      swap2\n      swap1\n      pop\n      jump\t// out\n        /* \"#utility.yul\":5982:6127   */\n    tag_203:\n        /* \"#utility.yul\":6076:6120   */\n      tag_319\n        /* \"#utility.yul\":6114:6119   */\n      dup2\n        /* \"#utility.yul\":6076:6120   */\n      tag_202\n      jump\t// in\n    tag_319:\n        /* \"#utility.yul\":6071:6074   */\n      dup3\n        /* \"#utility.yul\":6064:6121   */\n      mstore\n        /* \"#utility.yul\":5982:6127   */\n      pop\n      pop\n      jump\t// out\n        /* \"#utility.yul\":6133:6252   */\n    tag_204:\n        /* \"#utility.yul\":6220:6221   */\n      0x03\n        /* \"#utility.yul\":6213:6218   */\n      dup2\n        /* \"#utility.yul\":6210:6222   */\n      lt\n        /* \"#utility.yul\":6200:6246   */\n      tag_321\n      jumpi\n        /* \"#utility.yul\":6226:6244   */\n      tag_322\n      tag_107\n      jump\t// in\n    tag_322:\n        /* \"#utility.yul\":6200:6246   */\n    tag_321:\n        /* \"#utility.yul\":6133:6252   */\n      pop\n      jump\t// out\n        /* \"#utility.yul\":6258:6397   */\n    tag_205:\n        /* \"#utility.yul\":6309:6316   */\n      0x00\n        /* \"#utility.yul\":6338:6343   */\n      dup2\n        /* \"#utility.yul\":6327:6343   */\n      swap1\n      pop\n        /* \"#utility.yul\":6344:6391   */\n      tag_324\n        /* \"#utility.yul\":6385:6390   */\n      dup3\n        /* \"#utility.yul\":6344:6391   */\n      tag_204\n      jump\t// in\n    tag_324:\n        /* \"#utility.yul\":6258:6397   */\n      swap2\n      swap1\n      pop\n      jump\t// out\n        /* \"#utility.yul\":6403:6542   */\n    tag_206:\n        /* \"#utility.yul\":6465:6474   */\n      0x00\n        /* \"#utility.yul\":6498:6536   */\n      tag_326\n        /* \"#utility.yul\":6530:6535   */\n      dup3\n        /* \"#utility.yul\":6498:6536   */\n      tag_205\n      jump\t// in\n    tag_326:\n        /* \"#utility.yul\":6485:6536   */\n      swap1\n      pop\n        /* \"#utility.yul\":6403:6542   */\n      swap2\n      swap1\n      pop\n      jump\t// out\n        /* \"#utility.yul\":6548:6703   */\n    tag_207:\n        /* \"#utility.yul\":6647:6696   */\n      tag_328\n        /* \"#utility.yul\":6690:6695   */\n      dup2\n        /* \"#utility.yul\":6647:6696   */\n      tag_206\n      jump\t// in\n    tag_328:\n        /* \"#utility.yul\":6642:6645   */\n      dup3\n        /* \"#utility.yul\":6635:6697   */\n      mstore\n        /* \"#utility.yul\":6548:6703   */\n      pop\n      pop\n      jump\t// out\n        /* \"#utility.yul\":6709:6829   */\n    tag_208:\n        /* \"#utility.yul\":6797:6798   */\n      0x03\n        /* \"#utility.yul\":6790:6795   */\n      dup2\n        /* \"#utility.yul\":6787:6799   */\n      lt\n        /* \"#utility.yul\":6777:6823   */\n      tag_330\n      jumpi\n        /* \"#utility.yul\":6803:6821   */\n      tag_331\n      tag_107\n      jump\t// in\n    tag_331:\n        /* \"#utility.yul\":6777:6823   */\n    tag_330:\n        /* \"#utility.yul\":6709:6829   */\n      pop\n      jump\t// out\n        /* \"#utility.yul\":6835:6976   */\n    tag_209:\n        /* \"#utility.yul\":6887:6894   */\n      0x00\n        /* \"#utility.yul\":6916:6921   */\n      dup2\n        /* \"#utility.yul\":6905:6921   */\n      swap1\n      pop\n        /* \"#utility.yul\":6922:6970   */\n      tag_333\n        /* \"#utility.yul\":6964:6969   */\n      dup3\n        /* \"#utility.yul\":6922:6970   */\n      tag_208\n      jump\t// in\n    tag_333:\n        /* \"#utility.yul\":6835:6976   */\n      swap2\n      swap1\n      pop\n      jump\t// out\n        /* \"#utility.yul\":6982:7123   */\n    tag_210:\n        /* \"#utility.yul\":7045:7054   */\n      0x00\n        /* \"#utility.yul\":7078:7117   */\n      tag_335\n        /* \"#utility.yul\":7111:7116   */\n      dup3\n        /* \"#utility.yul\":7078:7117   */\n      tag_209\n      jump\t// in\n    tag_335:\n        /* \"#utility.yul\":7065:7117   */\n      swap1\n      pop\n        /* \"#utility.yul\":6982:7123   */\n      swap2\n      swap1\n      pop\n      jump\t// out\n        /* \"#utility.yul\":7129:7286   */\n    tag_211:\n        /* \"#utility.yul\":7229:7279   */\n      tag_337\n        /* \"#utility.yul\":7273:7278   */\n      dup2\n        /* \"#utility.yul\":7229:7279   */\n      tag_210\n      jump\t// in\n    tag_337:\n        /* \"#utility.yul\":7224:7227   */\n      dup3\n        /* \"#utility.yul\":7217:7280   */\n      mstore\n        /* \"#utility.yul\":7129:7286   */\n      pop\n      pop\n      jump\t// out\n        /* \"#utility.yul\":7292:8924   */\n    tag_38:\n        /* \"#utility.yul\":7763:7767   */\n      0x00\n        /* \"#utility.yul\":7801:7804   */\n      0x0180\n        /* \"#utility.yul\":7790:7799   */\n      dup3\n        /* \"#utility.yul\":7786:7805   */\n      add\n        /* \"#utility.yul\":7778:7805   */\n      swap1\n      pop\n        /* \"#utility.yul\":7815:7902   */\n      tag_339\n        /* \"#utility.yul\":7899:7900   */\n      0x00\n        /* \"#utility.yul\":7888:7897   */\n      dup4\n        /* \"#utility.yul\":7884:7901   */\n      add\n        /* \"#utility.yul\":7875:7881   */\n      dup16\n        /* \"#utility.yul\":7815:7902   */\n      tag_194\n      jump\t// in\n    tag_339:\n        /* \"#utility.yul\":7949:7958   */\n      dup2\n        /* \"#utility.yul\":7943:7947   */\n      dup2\n        /* \"#utility.yul\":7939:7959   */\n      sub\n        /* \"#utility.yul\":7934:7936   */\n      0x20\n        /* \"#utility.yul\":7923:7932   */\n      dup4\n        /* \"#utility.yul\":7919:7937   */\n      add\n        /* \"#utility.yul\":7912:7960   */\n      mstore\n        /* \"#utility.yul\":7977:8055   */\n      tag_340\n        /* \"#utility.yul\":8050:8054   */\n      dup2\n        /* \"#utility.yul\":8041:8047   */\n      dup15\n        /* \"#utility.yul\":7977:8055   */\n      tag_199\n      jump\t// in\n    tag_340:\n        /* \"#utility.yul\":7969:8055   */\n      swap1\n      pop\n        /* \"#utility.yul\":8065:8137   */\n      tag_341\n        /* \"#utility.yul\":8133:8135   */\n      0x40\n        /* \"#utility.yul\":8122:8131   */\n      dup4\n        /* \"#utility.yul\":8118:8136   */\n      add\n        /* \"#utility.yul\":8109:8115   */\n      dup14\n        /* \"#utility.yul\":8065:8137   */\n      tag_190\n      jump\t// in\n    tag_341:\n        /* \"#utility.yul\":8147:8219   */\n      tag_342\n        /* \"#utility.yul\":8215:8217   */\n      0x60\n        /* \"#utility.yul\":8204:8213   */\n      dup4\n        /* \"#utility.yul\":8200:8218   */\n      add\n        /* \"#utility.yul\":8191:8197   */\n      dup13\n        /* \"#utility.yul\":8147:8219   */\n      tag_190\n      jump\t// in\n    tag_342:\n        /* \"#utility.yul\":8229:8302   */\n      tag_343\n        /* \"#utility.yul\":8297:8300   */\n      0x80\n        /* \"#utility.yul\":8286:8295   */\n      dup4\n        /* \"#utility.yul\":8282:8301   */\n      add\n        /* \"#utility.yul\":8273:8279   */\n      dup12\n        /* \"#utility.yul\":8229:8302   */\n      tag_190\n      jump\t// in\n    tag_343:\n        /* \"#utility.yul\":8312:8385   */\n      tag_344\n        /* \"#utility.yul\":8380:8383   */\n      0xa0\n        /* \"#utility.yul\":8369:8378   */\n      dup4\n        /* \"#utility.yul\":8365:8384   */\n      add\n        /* \"#utility.yul\":8356:8362   */\n      dup11\n        /* \"#utility.yul\":8312:8385   */\n      tag_190\n      jump\t// in\n    tag_344:\n        /* \"#utility.yul\":8395:8468   */\n      tag_345\n        /* \"#utility.yul\":8463:8466   */\n      0xc0\n        /* \"#utility.yul\":8452:8461   */\n      dup4\n        /* \"#utility.yul\":8448:8467   */\n      add\n        /* \"#utility.yul\":8439:8445   */\n      dup10\n        /* \"#utility.yul\":8395:8468   */\n      tag_190\n      jump\t// in\n    tag_345:\n        /* \"#utility.yul\":8478:8551   */\n      tag_346\n        /* \"#utility.yul\":8546:8549   */\n      0xe0\n        /* \"#utility.yul\":8535:8544   */\n      dup4\n        /* \"#utility.yul\":8531:8550   */\n      add\n        /* \"#utility.yul\":8522:8528   */\n      dup9\n        /* \"#utility.yul\":8478:8551   */\n      tag_190\n      jump\t// in\n    tag_346:\n        /* \"#utility.yul\":8561:8634   */\n      tag_347\n        /* \"#utility.yul\":8629:8632   */\n      0x0100\n        /* \"#utility.yul\":8618:8627   */\n      dup4\n        /* \"#utility.yul\":8614:8633   */\n      add\n        /* \"#utility.yul\":8605:8611   */\n      dup8\n        /* \"#utility.yul\":8561:8634   */\n      tag_190\n      jump\t// in\n    tag_347:\n        /* \"#utility.yul\":8644:8724   */\n      tag_348\n        /* \"#utility.yul\":8719:8722   */\n      0x0120\n        /* \"#utility.yul\":8708:8717   */\n      dup4\n        /* \"#utility.yul\":8704:8723   */\n      add\n        /* \"#utility.yul\":8695:8701   */\n      dup7\n        /* \"#utility.yul\":8644:8724   */\n      tag_203\n      jump\t// in\n    tag_348:\n        /* \"#utility.yul\":8734:8820   */\n      tag_349\n        /* \"#utility.yul\":8815:8818   */\n      0x0140\n        /* \"#utility.yul\":8804:8813   */\n      dup4\n        /* \"#utility.yul\":8800:8819   */\n      add\n        /* \"#utility.yul\":8790:8797   */\n      dup6\n        /* \"#utility.yul\":8734:8820   */\n      tag_207\n      jump\t// in\n    tag_349:\n        /* \"#utility.yul\":8830:8917   */\n      tag_350\n        /* \"#utility.yul\":8912:8915   */\n      0x0160\n        /* \"#utility.yul\":8901:8910   */\n      dup4\n        /* \"#utility.yul\":8897:8916   */\n      add\n        /* \"#utility.yul\":8887:8894   */\n      dup5\n        /* \"#utility.yul\":8830:8917   */\n      tag_211\n      jump\t// in\n    tag_350:\n        /* \"#utility.yul\":7292:8924   */\n      swap14\n      swap13\n      pop\n      pop\n      pop\n      pop\n      pop\n      pop\n      pop\n      pop\n      pop\n      pop\n      pop\n      pop\n      pop\n      jump\t// out\n        /* \"#utility.yul\":8930:9048   */\n    tag_212:\n        /* \"#utility.yul\":9017:9041   */\n      tag_352\n        /* \"#utility.yul\":9035:9040   */\n      dup2\n        /* \"#utility.yul\":9017:9041   */\n      tag_179\n      jump\t// in\n    tag_352:\n        /* \"#utility.yul\":9012:9015   */\n      dup3\n        /* \"#utility.yul\":9005:9042   */\n      mstore\n        /* \"#utility.yul\":8930:9048   */\n      pop\n      pop\n      jump\t// out\n        /* \"#utility.yul\":9054:9276   */\n    tag_47:\n        /* \"#utility.yul\":9147:9151   */\n      0x00\n        /* \"#utility.yul\":9185:9187   */\n      0x20\n        /* \"#utility.yul\":9174:9183   */\n      dup3\n        /* \"#utility.yul\":9170:9188   */\n      add\n        /* \"#utility.yul\":9162:9188   */\n      swap1\n      pop\n        /* \"#utility.yul\":9198:9269   */\n      tag_354\n        /* \"#utility.yul\":9266:9267   */\n      0x00\n        /* \"#utility.yul\":9255:9264   */\n      dup4\n        /* \"#utility.yul\":9251:9268   */\n      add\n        /* \"#utility.yul\":9242:9248   */\n      dup5\n        /* \"#utility.yul\":9198:9269   */\n      tag_212\n      jump\t// in\n    tag_354:\n        /* \"#utility.yul\":9054:9276   */\n      swap3\n      swap2\n      pop\n      pop\n      jump\t// out\n        /* \"#utility.yul\":9282:9399   */\n    tag_213:\n        /* \"#utility.yul\":9391:9392   */\n      0x00\n        /* \"#utility.yul\":9388:9389   */\n      dup1\n        /* \"#utility.yul\":9381:9393   */\n      revert\n        /* \"#utility.yul\":9405:9522   */\n    tag_214:\n        /* \"#utility.yul\":9514:9515   */\n      0x00\n        /* \"#utility.yul\":9511:9512   */\n      dup1\n        /* \"#utility.yul\":9504:9516   */\n      revert\n        /* \"#utility.yul\":9528:9645   */\n    tag_215:\n        /* \"#utility.yul\":9637:9638   */\n      0x00\n        /* \"#utility.yul\":9634:9635   */\n      dup1\n        /* \"#utility.yul\":9627:9639   */\n      revert\n        /* \"#utility.yul\":9665:10218   */\n    tag_216:\n        /* \"#utility.yul\":9723:9731   */\n      0x00\n        /* \"#utility.yul\":9733:9739   */\n      dup1\n        /* \"#utility.yul\":9783:9786   */\n      dup4\n        /* \"#utility.yul\":9776:9780   */\n      0x1f\n        /* \"#utility.yul\":9768:9774   */\n      dup5\n        /* \"#utility.yul\":9764:9781   */\n      add\n        /* \"#utility.yul\":9760:9787   */\n      slt\n        /* \"#utility.yul\":9750:9872   */\n      tag_359\n      jumpi\n        /* \"#utility.yul\":9791:9870   */\n      tag_360\n      tag_213\n      jump\t// in\n    tag_360:\n        /* \"#utility.yul\":9750:9872   */\n    tag_359:\n        /* \"#utility.yul\":9904:9910   */\n      dup3\n        /* \"#utility.yul\":9891:9911   */\n      calldataload\n        /* \"#utility.yul\":9881:9911   */\n      swap1\n      pop\n        /* \"#utility.yul\":9934:9952   */\n      0xffffffffffffffff\n        /* \"#utility.yul\":9926:9932   */\n      dup2\n        /* \"#utility.yul\":9923:9953   */\n      gt\n        /* \"#utility.yul\":9920:10037   */\n      iszero\n      tag_361\n      jumpi\n        /* \"#utility.yul\":9956:10035   */\n      tag_362\n      tag_214\n      jump\t// in\n    tag_362:\n        /* \"#utility.yul\":9920:10037   */\n    tag_361:\n        /* \"#utility.yul\":10070:10074   */\n      0x20\n        /* \"#utility.yul\":10062:10068   */\n      dup4\n        /* \"#utility.yul\":10058:10075   */\n      add\n        /* \"#utility.yul\":10046:10075   */\n      swap2\n      pop\n        /* \"#utility.yul\":10124:10127   */\n      dup4\n        /* \"#utility.yul\":10116:10120   */\n      0x01\n        /* \"#utility.yul\":10108:10114   */\n      dup3\n        /* \"#utility.yul\":10104:10121   */\n      mul\n        /* \"#utility.yul\":10094:10102   */\n      dup4\n        /* \"#utility.yul\":10090:10122   */\n      add\n        /* \"#utility.yul\":10087:10128   */\n      gt\n        /* \"#utility.yul\":10084:10212   */\n      iszero\n      tag_363\n      jumpi\n        /* \"#utility.yul\":10131:10210   */\n      tag_364\n      tag_215\n      jump\t// in\n    tag_364:\n        /* \"#utility.yul\":10084:10212   */\n    tag_363:\n        /* \"#utility.yul\":9665:10218   */\n      swap3\n      pop\n      swap3\n      swap1\n      pop\n      jump\t// out\n        /* \"#utility.yul\":10224:11043   */\n    tag_50:\n        /* \"#utility.yul\":10313:10319   */\n      0x00\n        /* \"#utility.yul\":10321:10327   */\n      dup1\n        /* \"#utility.yul\":10329:10335   */\n      0x00\n        /* \"#utility.yul\":10337:10343   */\n      dup1\n        /* \"#utility.yul\":10386:10388   */\n      0x60\n        /* \"#utility.yul\":10374:10383   */\n      dup6\n        /* \"#utility.yul\":10365:10372   */\n      dup8\n        /* \"#utility.yul\":10361:10384   */\n      sub\n        /* \"#utility.yul\":10357:10389   */\n      slt\n        /* \"#utility.yul\":10354:10473   */\n      iszero\n      tag_366\n      jumpi\n        /* \"#utility.yul\":10392:10471   */\n      tag_367\n      tag_176\n      jump\t// in\n    tag_367:\n        /* \"#utility.yul\":10354:10473   */\n    tag_366:\n        /* \"#utility.yul\":10540:10541   */\n      0x00\n        /* \"#utility.yul\":10529:10538   */\n      dup6\n        /* \"#utility.yul\":10525:10542   */\n      add\n        /* \"#utility.yul\":10512:10543   */\n      calldataload\n        /* \"#utility.yul\":10570:10588   */\n      0xffffffffffffffff\n        /* \"#utility.yul\":10562:10568   */\n      dup2\n        /* \"#utility.yul\":10559:10589   */\n      gt\n        /* \"#utility.yul\":10556:10673   */\n      iszero\n      tag_368\n      jumpi\n        /* \"#utility.yul\":10592:10671   */\n      tag_369\n      tag_177\n      jump\t// in\n    tag_369:\n        /* \"#utility.yul\":10556:10673   */\n    tag_368:\n        /* \"#utility.yul\":10705:10770   */\n      tag_370\n        /* \"#utility.yul\":10762:10769   */\n      dup8\n        /* \"#utility.yul\":10753:10759   */\n      dup3\n        /* \"#utility.yul\":10742:10751   */\n      dup9\n        /* \"#utility.yul\":10738:10760   */\n      add\n        /* \"#utility.yul\":10705:10770   */\n      tag_216\n      jump\t// in\n    tag_370:\n        /* \"#utility.yul\":10687:10770   */\n      swap5\n      pop\n      swap5\n      pop\n        /* \"#utility.yul\":10483:10780   */\n      pop\n        /* \"#utility.yul\":10819:10821   */\n      0x20\n        /* \"#utility.yul\":10845:10898   */\n      tag_371\n        /* \"#utility.yul\":10890:10897   */\n      dup8\n        /* \"#utility.yul\":10881:10887   */\n      dup3\n        /* \"#utility.yul\":10870:10879   */\n      dup9\n        /* \"#utility.yul\":10866:10888   */\n      add\n        /* \"#utility.yul\":10845:10898   */\n      tag_192\n      jump\t// in\n    tag_371:\n        /* \"#utility.yul\":10835:10898   */\n      swap3\n      pop\n        /* \"#utility.yul\":10790:10908   */\n      pop\n        /* \"#utility.yul\":10947:10949   */\n      0x40\n        /* \"#utility.yul\":10973:11026   */\n      tag_372\n        /* \"#utility.yul\":11018:11025   */\n      dup8\n        /* \"#utility.yul\":11009:11015   */\n      dup3\n        /* \"#utility.yul\":10998:11007   */\n      dup9\n        /* \"#utility.yul\":10994:11016   */\n      add\n        /* \"#utility.yul\":10973:11026   */\n      tag_192\n      jump\t// in\n    tag_372:\n        /* \"#utility.yul\":10963:11026   */\n      swap2\n      pop\n        /* \"#utility.yul\":10918:11036   */\n      pop\n        /* \"#utility.yul\":10224:11043   */\n      swap3\n      swap6\n      swap2\n      swap5\n      pop\n      swap3\n      pop\n      jump\t// out\n        /* \"#utility.yul\":11049:11163   */\n    tag_217:\n        /* \"#utility.yul\":11137:11138   */\n      0x03\n        /* \"#utility.yul\":11130:11135   */\n      dup2\n        /* \"#utility.yul\":11127:11139   */\n      lt\n        /* \"#utility.yul\":11117:11157   */\n      tag_374\n      jumpi\n        /* \"#utility.yul\":11153:11154   */\n      0x00\n        /* \"#utility.yul\":11150:11151   */\n      dup1\n        /* \"#utility.yul\":11143:11155   */\n      revert\n        /* \"#utility.yul\":11117:11157   */\n    tag_374:\n        /* \"#utility.yul\":11049:11163   */\n      pop\n      jump\t// out\n        /* \"#utility.yul\":11169:11338   */\n    tag_218:\n        /* \"#utility.yul\":11230:11235   */\n      0x00\n        /* \"#utility.yul\":11268:11274   */\n      dup2\n        /* \"#utility.yul\":11255:11275   */\n      calldataload\n        /* \"#utility.yul\":11246:11275   */\n      swap1\n      pop\n        /* \"#utility.yul\":11284:11332   */\n      tag_376\n        /* \"#utility.yul\":11326:11331   */\n      dup2\n        /* \"#utility.yul\":11284:11332   */\n      tag_217\n      jump\t// in\n    tag_376:\n        /* \"#utility.yul\":11169:11338   */\n      swap3\n      swap2\n      pop\n      pop\n      jump\t// out\n        /* \"#utility.yul\":11344:11993   */\n    tag_64:\n        /* \"#utility.yul\":11436:11442   */\n      0x00\n        /* \"#utility.yul\":11444:11450   */\n      dup1\n        /* \"#utility.yul\":11452:11458   */\n      0x00\n        /* \"#utility.yul\":11501:11503   */\n      0x60\n        /* \"#utility.yul\":11489:11498   */\n      dup5\n        /* \"#utility.yul\":11480:11487   */\n      dup7\n        /* \"#utility.yul\":11476:11499   */\n      sub\n        /* \"#utility.yul\":11472:11504   */\n      slt\n        /* \"#utility.yul\":11469:11588   */\n      iszero\n      tag_378\n      jumpi\n        /* \"#utility.yul\":11507:11586   */\n      tag_379\n      tag_176\n      jump\t// in\n    tag_379:\n        /* \"#utility.yul\":11469:11588   */\n    tag_378:\n        /* \"#utility.yul\":11627:11628   */\n      0x00\n        /* \"#utility.yul\":11652:11705   */\n      tag_380\n        /* \"#utility.yul\":11697:11704   */\n      dup7\n        /* \"#utility.yul\":11688:11694   */\n      dup3\n        /* \"#utility.yul\":11677:11686   */\n      dup8\n        /* \"#utility.yul\":11673:11695   */\n      add\n        /* \"#utility.yul\":11652:11705   */\n      tag_192\n      jump\t// in\n    tag_380:\n        /* \"#utility.yul\":11642:11705   */\n      swap4\n      pop\n        /* \"#utility.yul\":11598:11715   */\n      pop\n        /* \"#utility.yul\":11754:11756   */\n      0x20\n        /* \"#utility.yul\":11780:11833   */\n      tag_381\n        /* \"#utility.yul\":11825:11832   */\n      dup7\n        /* \"#utility.yul\":11816:11822   */\n      dup3\n        /* \"#utility.yul\":11805:11814   */\n      dup8\n        /* \"#utility.yul\":11801:11823   */\n      add\n        /* \"#utility.yul\":11780:11833   */\n      tag_192\n      jump\t// in\n    tag_381:\n        /* \"#utility.yul\":11770:11833   */\n      swap3\n      pop\n        /* \"#utility.yul\":11725:11843   */\n      pop\n        /* \"#utility.yul\":11882:11884   */\n      0x40\n        /* \"#utility.yul\":11908:11976   */\n      tag_382\n        /* \"#utility.yul\":11968:11975   */\n      dup7\n        /* \"#utility.yul\":11959:11965   */\n      dup3\n        /* \"#utility.yul\":11948:11957   */\n      dup8\n        /* \"#utility.yul\":11944:11966   */\n      add\n        /* \"#utility.yul\":11908:11976   */\n      tag_218\n      jump\t// in\n    tag_382:\n        /* \"#utility.yul\":11898:11976   */\n      swap2\n      pop\n        /* \"#utility.yul\":11853:11986   */\n      pop\n        /* \"#utility.yul\":11344:11993   */\n      swap3\n      pop\n      swap3\n      pop\n      swap3\n      jump\t// out\n        /* \"#utility.yul\":11999:12473   */\n    tag_69:\n        /* \"#utility.yul\":12067:12073   */\n      0x00\n        /* \"#utility.yul\":12075:12081   */\n      dup1\n        /* \"#utility.yul\":12124:12126   */\n      0x40\n        /* \"#utility.yul\":12112:12121   */\n      dup4\n        /* \"#utility.yul\":12103:12110   */\n      dup6\n        /* \"#utility.yul\":12099:12122   */\n      sub\n        /* \"#utility.yul\":12095:12127   */\n      slt\n        /* \"#utility.yul\":12092:12211   */\n      iszero\n      tag_384\n      jumpi\n        /* \"#utility.yul\":12130:12209   */\n      tag_385\n      tag_176\n      jump\t// in\n    tag_385:\n        /* \"#utility.yul\":12092:12211   */\n    tag_384:\n        /* \"#utility.yul\":12250:12251   */\n      0x00\n        /* \"#utility.yul\":12275:12328   */\n      tag_386\n        /* \"#utility.yul\":12320:12327   */\n      dup6\n        /* \"#utility.yul\":12311:12317   */\n      dup3\n        /* \"#utility.yul\":12300:12309   */\n      dup7\n        /* \"#utility.yul\":12296:12318   */\n      add\n        /* \"#utility.yul\":12275:12328   */\n      tag_181\n      jump\t// in\n    tag_386:\n        /* \"#utility.yul\":12265:12328   */\n      swap3\n      pop\n        /* \"#utility.yul\":12221:12338   */\n      pop\n        /* \"#utility.yul\":12377:12379   */\n      0x20\n        /* \"#utility.yul\":12403:12456   */\n      tag_387\n        /* \"#utility.yul\":12448:12455   */\n      dup6\n        /* \"#utility.yul\":12439:12445   */\n      dup3\n        /* \"#utility.yul\":12428:12437   */\n      dup7\n        /* \"#utility.yul\":12424:12446   */\n      add\n        /* \"#utility.yul\":12403:12456   */\n      tag_192\n      jump\t// in\n    tag_387:\n        /* \"#utility.yul\":12393:12456   */\n      swap2\n      pop\n        /* \"#utility.yul\":12348:12466   */\n      pop\n        /* \"#utility.yul\":11999:12473   */\n      swap3\n      pop\n      swap3\n      swap1\n      pop\n      jump\t// out\n        /* \"#utility.yul\":12479:12659   */\n    tag_219:\n        /* \"#utility.yul\":12527:12604   */\n      0x4e487b7100000000000000000000000000000000000000000000000000000000\n        /* \"#utility.yul\":12524:12525   */\n      0x00\n        /* \"#utility.yul\":12517:12605   */\n      mstore\n        /* \"#utility.yul\":12624:12628   */\n      0x22\n        /* \"#utility.yul\":12621:12622   */\n      0x04\n        /* \"#utility.yul\":12614:12629   */\n      mstore\n        /* \"#utility.yul\":12648:12652   */\n      0x24\n        /* \"#utility.yul\":12645:12646   */\n      0x00\n        /* \"#utility.yul\":12638:12653   */\n      revert\n        /* \"#utility.yul\":12665:12985   */\n    tag_84:\n        /* \"#utility.yul\":12709:12715   */\n      0x00\n        /* \"#utility.yul\":12746:12747   */\n      0x02\n        /* \"#utility.yul\":12740:12744   */\n      dup3\n        /* \"#utility.yul\":12736:12748   */\n      div\n        /* \"#utility.yul\":12726:12748   */\n      swap1\n      pop\n        /* \"#utility.yul\":12793:12794   */\n      0x01\n        /* \"#utility.yul\":12787:12791   */\n      dup3\n        /* \"#utility.yul\":12783:12795   */\n      and\n        /* \"#utility.yul\":12814:12832   */\n      dup1\n        /* \"#utility.yul\":12804:12885   */\n      tag_390\n      jumpi\n        /* \"#utility.yul\":12870:12874   */\n      0x7f\n        /* \"#utility.yul\":12862:12868   */\n      dup3\n        /* \"#utility.yul\":12858:12875   */\n      and\n        /* \"#utility.yul\":12848:12875   */\n      swap2\n      pop\n        /* \"#utility.yul\":12804:12885   */\n    tag_390:\n        /* \"#utility.yul\":12932:12934   */\n      0x20\n        /* \"#utility.yul\":12924:12930   */\n      dup3\n        /* \"#utility.yul\":12921:12935   */\n      lt\n        /* \"#utility.yul\":12901:12919   */\n      dup2\n        /* \"#utility.yul\":12898:12936   */\n      sub\n        /* \"#utility.yul\":12895:12979   */\n      tag_391\n      jumpi\n        /* \"#utility.yul\":12951:12969   */\n      tag_392\n      tag_219\n      jump\t// in\n    tag_392:\n        /* \"#utility.yul\":12895:12979   */\n    tag_391:\n        /* \"#utility.yul\":12716:12985   */\n      pop\n        /* \"#utility.yul\":12665:12985   */\n      swap2\n      swap1\n      pop\n      jump\t// out\n        /* \"#utility.yul\":12991:13151   */\n    tag_220:\n        /* \"#utility.yul\":13131:13143   */\n      0x4f776e6572206f6e6c7900000000000000000000000000000000000000000000\n        /* \"#utility.yul\":13127:13128   */\n      0x00\n        /* \"#utility.yul\":13119:13125   */\n      dup3\n        /* \"#utility.yul\":13115:13129   */\n      add\n        /* \"#utility.yul\":13108:13144   */\n      mstore\n        /* \"#utility.yul\":12991:13151   */\n      pop\n      jump\t// out\n        /* \"#utility.yul\":13157:13523   */\n    tag_221:\n        /* \"#utility.yul\":13299:13302   */\n      0x00\n        /* \"#utility.yul\":13320:13387   */\n      tag_395\n        /* \"#utility.yul\":13384:13386   */\n      0x0a\n        /* \"#utility.yul\":13379:13382   */\n      dup4\n        /* \"#utility.yul\":13320:13387   */\n      tag_196\n      jump\t// in\n    tag_395:\n        /* \"#utility.yul\":13313:13387   */\n      swap2\n      pop\n        /* \"#utility.yul\":13396:13489   */\n      tag_396\n        /* \"#utility.yul\":13485:13488   */\n      dup3\n        /* \"#utility.yul\":13396:13489   */\n      tag_220\n      jump\t// in\n    tag_396:\n        /* \"#utility.yul\":13514:13516   */\n      0x20\n        /* \"#utility.yul\":13509:13512   */\n      dup3\n        /* \"#utility.yul\":13505:13517   */\n      add\n        /* \"#utility.yul\":13498:13517   */\n      swap1\n      pop\n        /* \"#utility.yul\":13157:13523   */\n      swap2\n      swap1\n      pop\n      jump\t// out\n        /* \"#utility.yul\":13529:13948   */\n    tag_92:\n        /* \"#utility.yul\":13695:13699   */\n      0x00\n        /* \"#utility.yul\":13733:13735   */\n      0x20\n        /* \"#utility.yul\":13722:13731   */\n      dup3\n        /* \"#utility.yul\":13718:13736   */\n      add\n        /* \"#utility.yul\":13710:13736   */\n      swap1\n      pop\n        /* \"#utility.yul\":13782:13791   */\n      dup2\n        /* \"#utility.yul\":13776:13780   */\n      dup2\n        /* \"#utility.yul\":13772:13792   */\n      sub\n        /* \"#utility.yul\":13768:13769   */\n      0x00\n        /* \"#utility.yul\":13757:13766   */\n      dup4\n        /* \"#utility.yul\":13753:13770   */\n      add\n        /* \"#utility.yul\":13746:13793   */\n      mstore\n        /* \"#utility.yul\":13810:13941   */\n      tag_398\n        /* \"#utility.yul\":13936:13940   */\n      dup2\n        /* \"#utility.yul\":13810:13941   */\n      tag_221\n      jump\t// in\n    tag_398:\n        /* \"#utility.yul\":13802:13941   */\n      swap1\n      pop\n        /* \"#utility.yul\":13529:13948   */\n      swap2\n      swap1\n      pop\n      jump\t// out\n        /* \"#utility.yul\":13954:14123   */\n    tag_222:\n        /* \"#utility.yul\":14094:14115   */\n      0x5450206d75737420626520616674657220543100000000000000000000000000\n        /* \"#utility.yul\":14090:14091   */\n      0x00\n        /* \"#utility.yul\":14082:14088   */\n      dup3\n        /* \"#utility.yul\":14078:14092   */\n      add\n        /* \"#utility.yul\":14071:14116   */\n      mstore\n        /* \"#utility.yul\":13954:14123   */\n      pop\n      jump\t// out\n        /* \"#utility.yul\":14129:14495   */\n    tag_223:\n        /* \"#utility.yul\":14271:14274   */\n      0x00\n        /* \"#utility.yul\":14292:14359   */\n      tag_401\n        /* \"#utility.yul\":14356:14358   */\n      0x13\n        /* \"#utility.yul\":14351:14354   */\n      dup4\n        /* \"#utility.yul\":14292:14359   */\n      tag_196\n      jump\t// in\n    tag_401:\n        /* \"#utility.yul\":14285:14359   */\n      swap2\n      pop\n        /* \"#utility.yul\":14368:14461   */\n      tag_402\n        /* \"#utility.yul\":14457:14460   */\n      dup3\n        /* \"#utility.yul\":14368:14461   */\n      tag_222\n      jump\t// in\n    tag_402:\n        /* \"#utility.yul\":14486:14488   */\n      0x20\n        /* \"#utility.yul\":14481:14484   */\n      dup3\n        /* \"#utility.yul\":14477:14489   */\n      add\n        /* \"#utility.yul\":14470:14489   */\n      swap1\n      pop\n        /* \"#utility.yul\":14129:14495   */\n      swap2\n      swap1\n      pop\n      jump\t// out\n        /* \"#utility.yul\":14501:14920   */\n    tag_97:\n        /* \"#utility.yul\":14667:14671   */\n      0x00\n        /* \"#utility.yul\":14705:14707   */\n      0x20\n        /* \"#utility.yul\":14694:14703   */\n      dup3\n        /* \"#utility.yul\":14690:14708   */\n      add\n        /* \"#utility.yul\":14682:14708   */\n      swap1\n      pop\n        /* \"#utility.yul\":14754:14763   */\n      dup2\n        /* \"#utility.yul\":14748:14752   */\n      dup2\n        /* \"#utility.yul\":14744:14764   */\n      sub\n        /* \"#utility.yul\":14740:14741   */\n      0x00\n        /* \"#utility.yul\":14729:14738   */\n      dup4\n        /* \"#utility.yul\":14725:14742   */\n      add\n        /* \"#utility.yul\":14718:14765   */\n      mstore\n        /* \"#utility.yul\":14782:14913   */\n      tag_404\n        /* \"#utility.yul\":14908:14912   */\n      dup2\n        /* \"#utility.yul\":14782:14913   */\n      tag_223\n      jump\t// in\n    tag_404:\n        /* \"#utility.yul\":14774:14913   */\n      swap1\n      pop\n        /* \"#utility.yul\":14501:14920   */\n      swap2\n      swap1\n      pop\n      jump\t// out\n        /* \"#utility.yul\":14926:15098   */\n    tag_224:\n        /* \"#utility.yul\":15066:15090   */\n      0x496e636f7272656374207072656d69756d2073656e7400000000000000000000\n        /* \"#utility.yul\":15062:15063   */\n      0x00\n        /* \"#utility.yul\":15054:15060   */\n      dup3\n        /* \"#utility.yul\":15050:15064   */\n      add\n        /* \"#utility.yul\":15043:15091   */\n      mstore\n        /* \"#utility.yul\":14926:15098   */\n      pop\n      jump\t// out\n        /* \"#utility.yul\":15104:15470   */\n    tag_225:\n        /* \"#utility.yul\":15246:15249   */\n      0x00\n        /* \"#utility.yul\":15267:15334   */\n      tag_407\n        /* \"#utility.yul\":15331:15333   */\n      0x16\n        /* \"#utility.yul\":15326:15329   */\n      dup4\n        /* \"#utility.yul\":15267:15334   */\n      tag_196\n      jump\t// in\n    tag_407:\n        /* \"#utility.yul\":15260:15334   */\n      swap2\n      pop\n        /* \"#utility.yul\":15343:15436   */\n      tag_408\n        /* \"#utility.yul\":15432:15435   */\n      dup3\n        /* \"#utility.yul\":15343:15436   */\n      tag_224\n      jump\t// in\n    tag_408:\n        /* \"#utility.yul\":15461:15463   */\n      0x20\n        /* \"#utility.yul\":15456:15459   */\n      dup3\n        /* \"#utility.yul\":15452:15464   */\n      add\n        /* \"#utility.yul\":15445:15464   */\n      swap1\n      pop\n        /* \"#utility.yul\":15104:15470   */\n      swap2\n      swap1\n      pop\n      jump\t// out\n        /* \"#utility.yul\":15476:15895   */\n    tag_100:\n        /* \"#utility.yul\":15642:15646   */\n      0x00\n        /* \"#utility.yul\":15680:15682   */\n      0x20\n        /* \"#utility.yul\":15669:15678   */\n      dup3\n        /* \"#utility.yul\":15665:15683   */\n      add\n        /* \"#utility.yul\":15657:15683   */\n      swap1\n      pop\n        /* \"#utility.yul\":15729:15738   */\n      dup2\n        /* \"#utility.yul\":15723:15727   */\n      dup2\n        /* \"#utility.yul\":15719:15739   */\n      sub\n        /* \"#utility.yul\":15715:15716   */\n      0x00\n        /* \"#utility.yul\":15704:15713   */\n      dup4\n        /* \"#utility.yul\":15700:15717   */\n      add\n        /* \"#utility.yul\":15693:15740   */\n      mstore\n        /* \"#utility.yul\":15757:15888   */\n      tag_410\n        /* \"#utility.yul\":15883:15887   */\n      dup2\n        /* \"#utility.yul\":15757:15888   */\n      tag_225\n      jump\t// in\n    tag_410:\n        /* \"#utility.yul\":15749:15888   */\n      swap1\n      pop\n        /* \"#utility.yul\":15476:15895   */\n      swap2\n      swap1\n      pop\n      jump\t// out\n        /* \"#utility.yul\":15901:16081   */\n    tag_226:\n        /* \"#utility.yul\":15949:16026   */\n      0x4e487b7100000000000000000000000000000000000000000000000000000000\n        /* \"#utility.yul\":15946:15947   */\n      0x00\n        /* \"#utility.yul\":15939:16027   */\n      mstore\n        /* \"#utility.yul\":16046:16050   */\n      0x11\n        /* \"#utility.yul\":16043:16044   */\n      0x04\n        /* \"#utility.yul\":16036:16051   */\n      mstore\n        /* \"#utility.yul\":16070:16074   */\n      0x24\n        /* \"#utility.yul\":16067:16068   */\n      0x00\n        /* \"#utility.yul\":16060:16075   */\n      revert\n        /* \"#utility.yul\":16087:16320   */\n    tag_102:\n        /* \"#utility.yul\":16126:16129   */\n      0x00\n        /* \"#utility.yul\":16149:16173   */\n      tag_413\n        /* \"#utility.yul\":16167:16172   */\n      dup3\n        /* \"#utility.yul\":16149:16173   */\n      tag_185\n      jump\t// in\n    tag_413:\n        /* \"#utility.yul\":16140:16173   */\n      swap2\n      pop\n        /* \"#utility.yul\":16195:16261   */\n      0xffffffffffffffffffffffffffffffffffffffffffffffffffffffffffffffff\n        /* \"#utility.yul\":16188:16193   */\n      dup3\n        /* \"#utility.yul\":16185:16262   */\n      sub\n        /* \"#utility.yul\":16182:16285   */\n      tag_414\n      jumpi\n        /* \"#utility.yul\":16265:16283   */\n      tag_415\n      tag_226\n      jump\t// in\n    tag_415:\n        /* \"#utility.yul\":16182:16285   */\n    tag_414:\n        /* \"#utility.yul\":16312:16313   */\n      0x01\n        /* \"#utility.yul\":16305:16310   */\n      dup3\n        /* \"#utility.yul\":16301:16314   */\n      add\n        /* \"#utility.yul\":16294:16314   */\n      swap1\n      pop\n        /* \"#utility.yul\":16087:16320   */\n      swap2\n      swap1\n      pop\n      jump\t// out\n        /* \"#utility.yul\":16326:16423   */\n    tag_227:\n        /* \"#utility.yul\":16385:16391   */\n      0x00\n        /* \"#utility.yul\":16413:16416   */\n      dup3\n        /* \"#utility.yul\":16403:16416   */\n      swap1\n      pop\n        /* \"#utility.yul\":16326:16423   */\n      swap3\n      swap2\n      pop\n      pop\n      jump\t// out\n        /* \"#utility.yul\":16429:16609   */\n    tag_228:\n        /* \"#utility.yul\":16477:16554   */\n      0x4e487b7100000000000000000000000000000000000000000000000000000000\n        /* \"#utility.yul\":16474:16475   */\n      0x00\n        /* \"#utility.yul\":16467:16555   */\n      mstore\n        /* \"#utility.yul\":16574:16578   */\n      0x41\n        /* \"#utility.yul\":16571:16572   */\n      0x04\n        /* \"#utility.yul\":16564:16579   */\n      mstore\n        /* \"#utility.yul\":16598:16602   */\n      0x24\n        /* \"#utility.yul\":16595:16596   */\n      0x00\n        /* \"#utility.yul\":16588:16603   */\n      revert\n        /* \"#utility.yul\":16615:16756   */\n    tag_229:\n        /* \"#utility.yul\":16664:16668   */\n      0x00\n        /* \"#utility.yul\":16687:16690   */\n      dup2\n        /* \"#utility.yul\":16679:16690   */\n      swap1\n      pop\n        /* \"#utility.yul\":16710:16713   */\n      dup2\n        /* \"#utility.yul\":16707:16708   */\n      0x00\n        /* \"#utility.yul\":16700:16714   */\n      mstore\n        /* \"#utility.yul\":16744:16748   */\n      0x20\n        /* \"#utility.yul\":16741:16742   */\n      0x00\n        /* \"#utility.yul\":16731:16749   */\n      keccak256\n        /* \"#utility.yul\":16723:16749   */\n      swap1\n      pop\n        /* \"#utility.yul\":16615:16756   */\n      swap2\n      swap1\n      pop\n      jump\t// out\n        /* \"#utility.yul\":16762:16855   */\n    tag_230:\n        /* \"#utility.yul\":16799:16805   */\n      0x00\n        /* \"#utility.yul\":16846:16848   */\n      0x20\n        /* \"#utility.yul\":16841:16843   */\n      0x1f\n        /* \"#utility.yul\":16834:16839   */\n      dup4\n        /* \"#utility.yul\":16830:16844   */\n      add\n        /* \"#utility.yul\":16826:16849   */\n      div\n        /* \"#utility.yul\":16816:16849   */\n      swap1\n      pop\n        /* \"#utility.yul\":16762:16855   */\n      swap2\n      swap1\n      pop\n      jump\t// out\n        /* \"#utility.yul\":16861:16968   */\n    tag_231:\n        /* \"#utility.yul\":16905:16913   */\n      0x00\n        /* \"#utility.yul\":16955:16960   */\n      dup3\n        /* \"#utility.yul\":16949:16953   */\n      dup3\n        /* \"#utility.yul\":16945:16961   */\n      shl\n        /* \"#utility.yul\":16924:16961   */\n      swap1\n      pop\n        /* \"#utility.yul\":16861:16968   */\n      swap3\n      swap2\n      pop\n      pop\n      jump\t// out\n        /* \"#utility.yul\":16974:17367   */\n    tag_232:\n        /* \"#utility.yul\":17043:17049   */\n      0x00\n        /* \"#utility.yul\":17093:17094   */\n      0x08\n        /* \"#utility.yul\":17081:17091   */\n      dup4\n        /* \"#utility.yul\":17077:17095   */\n      mul\n        /* \"#utility.yul\":17116:17213   */\n      tag_422\n        /* \"#utility.yul\":17146:17212   */\n      0xffffffffffffffffffffffffffffffffffffffffffffffffffffffffffffffff\n        /* \"#utility.yul\":17135:17144   */\n      dup3\n        /* \"#utility.yul\":17116:17213   */\n      tag_231\n      jump\t// in\n    tag_422:\n        /* \"#utility.yul\":17234:17273   */\n      tag_423\n        /* \"#utility.yul\":17264:17272   */\n      dup7\n        /* \"#utility.yul\":17253:17262   */\n      dup4\n        /* \"#utility.yul\":17234:17273   */\n      tag_231\n      jump\t// in\n    tag_423:\n        /* \"#utility.yul\":17222:17273   */\n      swap6\n      pop\n        /* \"#utility.yul\":17306:17310   */\n      dup1\n        /* \"#utility.yul\":17302:17311   */\n      not\n        /* \"#utility.yul\":17295:17300   */\n      dup5\n        /* \"#utility.yul\":17291:17312   */\n      and\n        /* \"#utility.yul\":17282:17312   */\n      swap4\n      pop\n        /* \"#utility.yul\":17355:17359   */\n      dup1\n        /* \"#utility.yul\":17345:17353   */\n      dup7\n        /* \"#utility.yul\":17341:17360   */\n      and\n        /* \"#utility.yul\":17334:17339   */\n      dup5\n        /* \"#utility.yul\":17331:17361   */\n      or\n        /* \"#utility.yul\":17321:17361   */\n      swap3\n      pop\n        /* \"#utility.yul\":17050:17367   */\n      pop\n      pop\n        /* \"#utility.yul\":16974:17367   */\n      swap4\n      swap3\n      pop\n      pop\n      pop\n      jump\t// out\n        /* \"#utility.yul\":17373:17433   */\n    tag_233:\n        /* \"#utility.yul\":17401:17404   */\n      0x00\n        /* \"#utility.yul\":17422:17427   */\n      dup2\n        /* \"#utility.yul\":17415:17427   */\n      swap1\n      pop\n        /* \"#utility.yul\":17373:17433   */\n      swap2\n      swap1\n      pop\n      jump\t// out\n        /* \"#utility.yul\":17439:17581   */\n    tag_234:\n        /* \"#utility.yul\":17489:17498   */\n      0x00\n        /* \"#utility.yul\":17522:17575   */\n      tag_426\n        /* \"#utility.yul\":17540:17574   */\n      tag_427\n        /* \"#utility.yul\":17549:17573   */\n      tag_428\n        /* \"#utility.yul\":17567:17572   */\n      dup5\n        /* \"#utility.yul\":17549:17573   */\n      tag_185\n      jump\t// in\n    tag_428:\n        /* \"#utility.yul\":17540:17574   */\n      tag_233\n      jump\t// in\n    tag_427:\n        /* \"#utility.yul\":17522:17575   */\n      tag_185\n      jump\t// in\n    tag_426:\n        /* \"#utility.yul\":17509:17575   */\n      swap1\n      pop\n        /* \"#utility.yul\":17439:17581   */\n      swap2\n      swap1\n      pop\n      jump\t// out\n        /* \"#utility.yul\":17587:17662   */\n    tag_235:\n        /* \"#utility.yul\":17630:17633   */\n      0x00\n        /* \"#utility.yul\":17651:17656   */\n      dup2\n        /* \"#utility.yul\":17644:17656   */\n      swap1\n      pop\n        /* \"#utility.yul\":17587:17662   */\n      swap2\n      swap1\n      pop\n      jump\t// out\n        /* \"#utility.yul\":17668:17937   */\n    tag_236:\n        /* \"#utility.yul\":17778:17817   */\n      tag_431\n        /* \"#utility.yul\":17809:17816   */\n      dup4\n        /* \"#utility.yul\":17778:17817   */\n      tag_234\n      jump\t// in\n    tag_431:\n        /* \"#utility.yul\":17839:17930   */\n      tag_432\n        /* \"#utility.yul\":17888:17929   */\n      tag_433\n        /* \"#utility.yul\":17912:17928   */\n      dup3\n        /* \"#utility.yul\":17888:17929   */\n      tag_235\n      jump\t// in\n    tag_433:\n        /* \"#utility.yul\":17880:17886   */\n      dup5\n        /* \"#utility.yul\":17873:17877   */\n      dup5\n        /* \"#utility.yul\":17867:17878   */\n      sload\n        /* \"#utility.yul\":17839:17930   */\n      tag_232\n      jump\t// in\n    tag_432:\n        /* \"#utility.yul\":17833:17837   */\n      dup3\n        /* \"#utility.yul\":17826:17931   */\n      sstore\n        /* \"#utility.yul\":17744:17937   */\n      pop\n        /* \"#utility.yul\":17668:17937   */\n      pop\n      pop\n      pop\n      jump\t// out\n        /* \"#utility.yul\":17943:18016   */\n    tag_237:\n        /* \"#utility.yul\":17988:17991   */\n      0x00\n        /* \"#utility.yul\":17943:18016   */\n      swap1\n      jump\t// out\n        /* \"#utility.yul\":18022:18211   */\n    tag_238:\n        /* \"#utility.yul\":18099:18131   */\n      tag_436\n      tag_237\n      jump\t// in\n    tag_436:\n        /* \"#utility.yul\":18140:18205   */\n      tag_437\n        /* \"#utility.yul\":18198:18204   */\n      dup2\n        /* \"#utility.yul\":18190:18196   */\n      dup5\n        /* \"#utility.yul\":18184:18188   */\n      dup5\n        /* \"#utility.yul\":18140:18205   */\n      tag_236\n      jump\t// in\n    tag_437:\n        /* \"#utility.yul\":18075:18211   */\n      pop\n        /* \"#utility.yul\":18022:18211   */\n      pop\n      pop\n      jump\t// out\n        /* \"#utility.yul\":18217:18403   */\n    tag_239:\n        /* \"#utility.yul\":18277:18397   */\n    tag_439:\n        /* \"#utility.yul\":18294:18297   */\n      dup2\n        /* \"#utility.yul\":18287:18292   */\n      dup2\n        /* \"#utility.yul\":18284:18298   */\n      lt\n        /* \"#utility.yul\":18277:18397   */\n      iszero\n      tag_441\n      jumpi\n        /* \"#utility.yul\":18348:18387   */\n      tag_442\n        /* \"#utility.yul\":18385:18386   */\n      0x00\n        /* \"#utility.yul\":18378:18383   */\n      dup3\n        /* \"#utility.yul\":18348:18387   */\n      tag_238\n      jump\t// in\n    tag_442:\n        /* \"#utility.yul\":18321:18322   */\n      0x01\n        /* \"#utility.yul\":18314:18319   */\n      dup2\n        /* \"#utility.yul\":18310:18323   */\n      add\n        /* \"#utility.yul\":18301:18323   */\n      swap1\n      pop\n        /* \"#utility.yul\":18277:18397   */\n      jump(tag_439)\n    tag_441:\n        /* \"#utility.yul\":18217:18403   */\n      pop\n      pop\n      jump\t// out\n        /* \"#utility.yul\":18409:18952   */\n    tag_240:\n        /* \"#utility.yul\":18510:18512   */\n      0x1f\n        /* \"#utility.yul\":18505:18508   */\n      dup3\n        /* \"#utility.yul\":18502:18513   */\n      gt\n        /* \"#utility.yul\":18499:18945   */\n      iszero\n      tag_444\n      jumpi\n        /* \"#utility.yul\":18544:18582   */\n      tag_445\n        /* \"#utility.yul\":18576:18581   */\n      dup2\n        /* \"#utility.yul\":18544:18582   */\n      tag_229\n      jump\t// in\n    tag_445:\n        /* \"#utility.yul\":18628:18657   */\n      tag_446\n        /* \"#utility.yul\":18646:18656   */\n      dup5\n        /* \"#utility.yul\":18628:18657   */\n      tag_230\n      jump\t// in\n    tag_446:\n        /* \"#utility.yul\":18618:18626   */\n      dup2\n        /* \"#utility.yul\":18614:18658   */\n      add\n        /* \"#utility.yul\":18811:18813   */\n      0x20\n        /* \"#utility.yul\":18799:18809   */\n      dup6\n        /* \"#utility.yul\":18796:18814   */\n      lt\n        /* \"#utility.yul\":18793:18842   */\n      iszero\n      tag_447\n      jumpi\n        /* \"#utility.yul\":18832:18840   */\n      dup2\n        /* \"#utility.yul\":18817:18840   */\n      swap1\n      pop\n        /* \"#utility.yul\":18793:18842   */\n    tag_447:\n        /* \"#utility.yul\":18855:18935   */\n      tag_448\n        /* \"#utility.yul\":18911:18933   */\n      tag_449\n        /* \"#utility.yul\":18929:18932   */\n      dup6\n        /* \"#utility.yul\":18911:18933   */\n      tag_230\n      jump\t// in\n    tag_449:\n        /* \"#utility.yul\":18901:18909   */\n      dup4\n        /* \"#utility.yul\":18897:18934   */\n      add\n        /* \"#utility.yul\":18884:18895   */\n      dup3\n        /* \"#utility.yul\":18855:18935   */\n      tag_239\n      jump\t// in\n    tag_448:\n        /* \"#utility.yul\":18514:18945   */\n      pop\n      pop\n        /* \"#utility.yul\":18499:18945   */\n    tag_444:\n        /* \"#utility.yul\":18409:18952   */\n      pop\n      pop\n      pop\n      jump\t// out\n        /* \"#utility.yul\":18958:19075   */\n    tag_241:\n        /* \"#utility.yul\":19012:19020   */\n      0x00\n        /* \"#utility.yul\":19062:19067   */\n      dup3\n        /* \"#utility.yul\":19056:19060   */\n      dup3\n        /* \"#utility.yul\":19052:19068   */\n      shr\n        /* \"#utility.yul\":19031:19068   */\n      swap1\n      pop\n        /* \"#utility.yul\":18958:19075   */\n      swap3\n      swap2\n      pop\n      pop\n      jump\t// out\n        /* \"#utility.yul\":19081:19250   */\n    tag_242:\n        /* \"#utility.yul\":19125:19131   */\n      0x00\n        /* \"#utility.yul\":19158:19209   */\n      tag_452\n        /* \"#utility.yul\":19206:19207   */\n      0x00\n        /* \"#utility.yul\":19202:19208   */\n      not\n        /* \"#utility.yul\":19194:19199   */\n      dup5\n        /* \"#utility.yul\":19191:19192   */\n      0x08\n        /* \"#utility.yul\":19187:19200   */\n      mul\n        /* \"#utility.yul\":19158:19209   */\n      tag_241\n      jump\t// in\n    tag_452:\n        /* \"#utility.yul\":19154:19210   */\n      not\n        /* \"#utility.yul\":19239:19243   */\n      dup1\n        /* \"#utility.yul\":19233:19237   */\n      dup4\n        /* \"#utility.yul\":19229:19244   */\n      and\n        /* \"#utility.yul\":19219:19244   */\n      swap2\n      pop\n        /* \"#utility.yul\":19132:19250   */\n      pop\n        /* \"#utility.yul\":19081:19250   */\n      swap3\n      swap2\n      pop\n      pop\n      jump\t// out\n        /* \"#utility.yul\":19255:19550   */\n    tag_243:\n        /* \"#utility.yul\":19331:19335   */\n      0x00\n        /* \"#utility.yul\":19477:19506   */\n      tag_454\n        /* \"#utility.yul\":19502:19505   */\n      dup4\n        /* \"#utility.yul\":19496:19500   */\n      dup4\n        /* \"#utility.yul\":19477:19506   */\n      tag_242\n      jump\t// in\n    tag_454:\n        /* \"#utility.yul\":19469:19506   */\n      swap2\n      pop\n        /* \"#utility.yul\":19539:19542   */\n      dup3\n        /* \"#utility.yul\":19536:19537   */\n      0x02\n        /* \"#utility.yul\":19532:19543   */\n      mul\n        /* \"#utility.yul\":19526:19530   */\n      dup3\n        /* \"#utility.yul\":19523:19544   */\n      or\n        /* \"#utility.yul\":19515:19544   */\n      swap1\n      pop\n        /* \"#utility.yul\":19255:19550   */\n      swap3\n      swap2\n      pop\n      pop\n      jump\t// out\n        /* \"#utility.yul\":19555:20958   */\n    tag_104:\n        /* \"#utility.yul\":19679:19723   */\n      tag_456\n        /* \"#utility.yul\":19719:19722   */\n      dup4\n        /* \"#utility.yul\":19714:19717   */\n      dup4\n        /* \"#utility.yul\":19679:19723   */\n      tag_227\n      jump\t// in\n    tag_456:\n        /* \"#utility.yul\":19788:19806   */\n      0xffffffffffffffff\n        /* \"#utility.yul\":19780:19786   */\n      dup2\n        /* \"#utility.yul\":19777:19807   */\n      gt\n        /* \"#utility.yul\":19774:19830   */\n      iszero\n      tag_457\n      jumpi\n        /* \"#utility.yul\":19810:19828   */\n      tag_458\n      tag_228\n      jump\t// in\n    tag_458:\n        /* \"#utility.yul\":19774:19830   */\n    tag_457:\n        /* \"#utility.yul\":19854:19892   */\n      tag_459\n        /* \"#utility.yul\":19886:19890   */\n      dup3\n        /* \"#utility.yul\":19880:19891   */\n      sload\n        /* \"#utility.yul\":19854:19892   */\n      tag_84\n      jump\t// in\n    tag_459:\n        /* \"#utility.yul\":19939:20006   */\n      tag_460\n        /* \"#utility.yul\":19999:20005   */\n      dup3\n        /* \"#utility.yul\":19991:19997   */\n      dup3\n        /* \"#utility.yul\":19985:19989   */\n      dup6\n        /* \"#utility.yul\":19939:20006   */\n      tag_240\n      jump\t// in\n    tag_460:\n        /* \"#utility.yul\":20033:20034   */\n      0x00\n        /* \"#utility.yul\":20062:20064   */\n      0x1f\n        /* \"#utility.yul\":20054:20060   */\n      dup4\n        /* \"#utility.yul\":20051:20065   */\n      gt\n        /* \"#utility.yul\":20079:20080   */\n      0x01\n        /* \"#utility.yul\":20074:20706   */\n      dup2\n      eq\n      tag_462\n      jumpi\n        /* \"#utility.yul\":20750:20751   */\n      0x00\n        /* \"#utility.yul\":20767:20773   */\n      dup5\n        /* \"#utility.yul\":20764:20848   */\n      iszero\n      tag_463\n      jumpi\n        /* \"#utility.yul\":20823:20832   */\n      dup3\n        /* \"#utility.yul\":20818:20821   */\n      dup8\n        /* \"#utility.yul\":20814:20833   */\n      add\n        /* \"#utility.yul\":20801:20834   */\n      calldataload\n        /* \"#utility.yul\":20792:20834   */\n      swap1\n      pop\n        /* \"#utility.yul\":20764:20848   */\n    tag_463:\n        /* \"#utility.yul\":20874:20941   */\n      tag_464\n        /* \"#utility.yul\":20934:20940   */\n      dup6\n        /* \"#utility.yul\":20927:20932   */\n      dup3\n        /* \"#utility.yul\":20874:20941   */\n      tag_243\n      jump\t// in\n    tag_464:\n        /* \"#utility.yul\":20868:20872   */\n      dup7\n        /* \"#utility.yul\":20861:20942   */\n      sstore\n        /* \"#utility.yul\":20723:20952   */\n      pop\n        /* \"#utility.yul\":20044:20952   */\n      jump(tag_461)\n        /* \"#utility.yul\":20074:20706   */\n    tag_462:\n        /* \"#utility.yul\":20126:20130   */\n      0x1f\n        /* \"#utility.yul\":20122:20131   */\n      not\n        /* \"#utility.yul\":20114:20120   */\n      dup5\n        /* \"#utility.yul\":20110:20132   */\n      and\n        /* \"#utility.yul\":20160:20197   */\n      tag_465\n        /* \"#utility.yul\":20192:20196   */\n      dup7\n        /* \"#utility.yul\":20160:20197   */\n      tag_229\n      jump\t// in\n    tag_465:\n        /* \"#utility.yul\":20219:20220   */\n      0x00\n        /* \"#utility.yul\":20233:20448   */\n    tag_466:\n        /* \"#utility.yul\":20247:20254   */\n      dup3\n        /* \"#utility.yul\":20244:20245   */\n      dup2\n        /* \"#utility.yul\":20241:20255   */\n      lt\n        /* \"#utility.yul\":20233:20448   */\n      iszero\n      tag_468\n      jumpi\n        /* \"#utility.yul\":20333:20342   */\n      dup5\n        /* \"#utility.yul\":20328:20331   */\n      dup10\n        /* \"#utility.yul\":20324:20343   */\n      add\n        /* \"#utility.yul\":20311:20344   */\n      calldataload\n        /* \"#utility.yul\":20303:20309   */\n      dup3\n        /* \"#utility.yul\":20296:20345   */\n      sstore\n        /* \"#utility.yul\":20384:20385   */\n      0x01\n        /* \"#utility.yul\":20376:20382   */\n      dup3\n        /* \"#utility.yul\":20372:20386   */\n      add\n        /* \"#utility.yul\":20362:20386   */\n      swap2\n      pop\n        /* \"#utility.yul\":20431:20433   */\n      0x20\n        /* \"#utility.yul\":20420:20429   */\n      dup6\n        /* \"#utility.yul\":20416:20434   */\n      add\n        /* \"#utility.yul\":20403:20434   */\n      swap5\n      pop\n        /* \"#utility.yul\":20270:20274   */\n      0x20\n        /* \"#utility.yul\":20267:20268   */\n      dup2\n        /* \"#utility.yul\":20263:20275   */\n      add\n        /* \"#utility.yul\":20258:20275   */\n      swap1\n      pop\n        /* \"#utility.yul\":20233:20448   */\n      jump(tag_466)\n    tag_468:\n        /* \"#utility.yul\":20476:20482   */\n      dup7\n        /* \"#utility.yul\":20467:20474   */\n      dup4\n        /* \"#utility.yul\":20464:20483   */\n      lt\n        /* \"#utility.yul\":20461:20647   */\n      iszero\n      tag_469\n      jumpi\n        /* \"#utility.yul\":20541:20550   */\n      dup5\n        /* \"#utility.yul\":20536:20539   */\n      dup10\n        /* \"#utility.yul\":20532:20551   */\n      add\n        /* \"#utility.yul\":20519:20552   */\n      calldataload\n        /* \"#utility.yul\":20584:20632   */\n      tag_470\n        /* \"#utility.yul\":20626:20630   */\n      0x1f\n        /* \"#utility.yul\":20618:20624   */\n      dup10\n        /* \"#utility.yul\":20614:20631   */\n      and\n        /* \"#utility.yul\":20603:20612   */\n      dup3\n        /* \"#utility.yul\":20584:20632   */\n      tag_242\n      jump\t// in\n    tag_470:\n        /* \"#utility.yul\":20576:20582   */\n      dup4\n        /* \"#utility.yul\":20569:20633   */\n      sstore\n        /* \"#utility.yul\":20484:20647   */\n      pop\n        /* \"#utility.yul\":20461:20647   */\n    tag_469:\n        /* \"#utility.yul\":20693:20694   */\n      0x01\n        /* \"#utility.yul\":20689:20690   */\n      0x02\n        /* \"#utility.yul\":20681:20687   */\n      dup9\n        /* \"#utility.yul\":20677:20691   */\n      mul\n        /* \"#utility.yul\":20673:20695   */\n      add\n        /* \"#utility.yul\":20667:20671   */\n      dup9\n        /* \"#utility.yul\":20660:20696   */\n      sstore\n        /* \"#utility.yul\":20081:20706   */\n      pop\n      pop\n      pop\n        /* \"#utility.yul\":20044:20952   */\n    tag_461:\n      pop\n        /* \"#utility.yul\":19654:20958   */\n      pop\n      pop\n      pop\n        /* \"#utility.yul\":19555:20958   */\n      pop\n      pop\n      pop\n      jump\t// out\n        /* \"#utility.yul\":20964:21134   */\n    tag_244:\n        /* \"#utility.yul\":21104:21126   */\n      0x496e737572616e6365206e6f7420616374697665000000000000000000000000\n        /* \"#utility.yul\":21100:21101   */\n      0x00\n        /* \"#utility.yul\":21092:21098   */\n      dup3\n        /* \"#utility.yul\":21088:21102   */\n      add\n        /* \"#utility.yul\":21081:21127   */\n      mstore\n        /* \"#utility.yul\":20964:21134   */\n      pop\n      jump\t// out\n        /* \"#utility.yul\":21140:21506   */\n    tag_245:\n        /* \"#utility.yul\":21282:21285   */\n      0x00\n        /* \"#utility.yul\":21303:21370   */\n      tag_473\n        /* \"#utility.yul\":21367:21369   */\n      0x14\n        /* \"#utility.yul\":21362:21365   */\n      dup4\n        /* \"#utility.yul\":21303:21370   */\n      tag_196\n      jump\t// in\n    tag_473:\n        /* \"#utility.yul\":21296:21370   */\n      swap2\n      pop\n        /* \"#utility.yul\":21379:21472   */\n      tag_474\n        /* \"#utility.yul\":21468:21471   */\n      dup3\n        /* \"#utility.yul\":21379:21472   */\n      tag_244\n      jump\t// in\n    tag_474:\n        /* \"#utility.yul\":21497:21499   */\n      0x20\n        /* \"#utility.yul\":21492:21495   */\n      dup3\n        /* \"#utility.yul\":21488:21500   */\n      add\n        /* \"#utility.yul\":21481:21500   */\n      swap1\n      pop\n        /* \"#utility.yul\":21140:21506   */\n      swap2\n      swap1\n      pop\n      jump\t// out\n        /* \"#utility.yul\":21512:21931   */\n    tag_120:\n        /* \"#utility.yul\":21678:21682   */\n      0x00\n        /* \"#utility.yul\":21716:21718   */\n      0x20\n        /* \"#utility.yul\":21705:21714   */\n      dup3\n        /* \"#utility.yul\":21701:21719   */\n      add\n        /* \"#utility.yul\":21693:21719   */\n      swap1\n      pop\n        /* \"#utility.yul\":21765:21774   */\n      dup2\n        /* \"#utility.yul\":21759:21763   */\n      dup2\n        /* \"#utility.yul\":21755:21775   */\n      sub\n        /* \"#utility.yul\":21751:21752   */\n      0x00\n        /* \"#utility.yul\":21740:21749   */\n      dup4\n        /* \"#utility.yul\":21736:21753   */\n      add\n        /* \"#utility.yul\":21729:21776   */\n      mstore\n        /* \"#utility.yul\":21793:21924   */\n      tag_476\n        /* \"#utility.yul\":21919:21923   */\n      dup2\n        /* \"#utility.yul\":21793:21924   */\n      tag_245\n      jump\t// in\n    tag_476:\n        /* \"#utility.yul\":21785:21924   */\n      swap1\n      pop\n        /* \"#utility.yul\":21512:21931   */\n      swap2\n      swap1\n      pop\n      jump\t// out\n        /* \"#utility.yul\":21937:22128   */\n    tag_122:\n        /* \"#utility.yul\":21977:21980   */\n      0x00\n        /* \"#utility.yul\":21996:22016   */\n      tag_478\n        /* \"#utility.yul\":22014:22015   */\n      dup3\n        /* \"#utility.yul\":21996:22016   */\n      tag_185\n      jump\t// in\n    tag_478:\n        /* \"#utility.yul\":21991:22016   */\n      swap2\n      pop\n        /* \"#utility.yul\":22030:22050   */\n      tag_479\n        /* \"#utility.yul\":22048:22049   */\n      dup4\n        /* \"#utility.yul\":22030:22050   */\n      tag_185\n      jump\t// in\n    tag_479:\n        /* \"#utility.yul\":22025:22050   */\n      swap3\n      pop\n        /* \"#utility.yul\":22073:22074   */\n      dup3\n        /* \"#utility.yul\":22070:22071   */\n      dup3\n        /* \"#utility.yul\":22066:22075   */\n      add\n        /* \"#utility.yul\":22059:22075   */\n      swap1\n      pop\n        /* \"#utility.yul\":22094:22097   */\n      dup1\n        /* \"#utility.yul\":22091:22092   */\n      dup3\n        /* \"#utility.yul\":22088:22098   */\n      gt\n        /* \"#utility.yul\":22085:22121   */\n      iszero\n      tag_480\n      jumpi\n        /* \"#utility.yul\":22101:22119   */\n      tag_481\n      tag_226\n      jump\t// in\n    tag_481:\n        /* \"#utility.yul\":22085:22121   */\n    tag_480:\n        /* \"#utility.yul\":21937:22128   */\n      swap3\n      swap2\n      pop\n      pop\n      jump\t// out\n        /* \"#utility.yul\":22134:22298   */\n    tag_246:\n        /* \"#utility.yul\":22274:22290   */\n      0x4e6f7420617574686f72697a6564000000000000000000000000000000000000\n        /* \"#utility.yul\":22270:22271   */\n      0x00\n        /* \"#utility.yul\":22262:22268   */\n      dup3\n        /* \"#utility.yul\":22258:22272   */\n      add\n        /* \"#utility.yul\":22251:22291   */\n      mstore\n        /* \"#utility.yul\":22134:22298   */\n      pop\n      jump\t// out\n        /* \"#utility.yul\":22304:22670   */\n    tag_247:\n        /* \"#utility.yul\":22446:22449   */\n      0x00\n        /* \"#utility.yul\":22467:22534   */\n      tag_484\n        /* \"#utility.yul\":22531:22533   */\n      0x0e\n        /* \"#utility.yul\":22526:22529   */\n      dup4\n        /* \"#utility.yul\":22467:22534   */\n      tag_196\n      jump\t// in\n    tag_484:\n        /* \"#utility.yul\":22460:22534   */\n      swap2\n      pop\n        /* \"#utility.yul\":22543:22636   */\n      tag_485\n        /* \"#utility.yul\":22632:22635   */\n      dup3\n        /* \"#utility.yul\":22543:22636   */\n      tag_246\n      jump\t// in\n    tag_485:\n        /* \"#utility.yul\":22661:22663   */\n      0x20\n        /* \"#utility.yul\":22656:22659   */\n      dup3\n        /* \"#utility.yul\":22652:22664   */\n      add\n        /* \"#utility.yul\":22645:22664   */\n      swap1\n      pop\n        /* \"#utility.yul\":22304:22670   */\n      swap2\n      swap1\n      pop\n      jump\t// out\n        /* \"#utility.yul\":22676:23095   */\n    tag_161:\n        /* \"#utility.yul\":22842:22846   */\n      0x00\n        /* \"#utility.yul\":22880:22882   */\n      0x20\n        /* \"#utility.yul\":22869:22878   */\n      dup3\n        /* \"#utility.yul\":22865:22883   */\n      add\n        /* \"#utility.yul\":22857:22883   */\n      swap1\n      pop\n        /* \"#utility.yul\":22929:22938   */\n      dup2\n        /* \"#utility.yul\":22923:22927   */\n      dup2\n        /* \"#utility.yul\":22919:22939   */\n      sub\n        /* \"#utility.yul\":22915:22916   */\n      0x00\n        /* \"#utility.yul\":22904:22913   */\n      dup4\n        /* \"#utility.yul\":22900:22917   */\n      add\n        /* \"#utility.yul\":22893:22940   */\n      mstore\n        /* \"#utility.yul\":22957:23088   */\n      tag_487\n        /* \"#utility.yul\":23083:23087   */\n      dup2\n        /* \"#utility.yul\":22957:23088   */\n      tag_247\n      jump\t// in\n    tag_487:\n        /* \"#utility.yul\":22949:23088   */\n      swap1\n      pop\n        /* \"#utility.yul\":22676:23095   */\n      swap2\n      swap1\n      pop\n      jump\t// out\n        /* \"#utility.yul\":23101:23459   */\n    tag_172:\n        /* \"#utility.yul\":23235:23239   */\n      0x00\n        /* \"#utility.yul\":23273:23275   */\n      0x40\n        /* \"#utility.yul\":23262:23271   */\n      dup3\n        /* \"#utility.yul\":23258:23276   */\n      add\n        /* \"#utility.yul\":23250:23276   */\n      swap1\n      pop\n        /* \"#utility.yul\":23286:23357   */\n      tag_489\n        /* \"#utility.yul\":23354:23355   */\n      0x00\n        /* \"#utility.yul\":23343:23352   */\n      dup4\n        /* \"#utility.yul\":23339:23356   */\n      add\n        /* \"#utility.yul\":23330:23336   */\n      dup6\n        /* \"#utility.yul\":23286:23357   */\n      tag_190\n      jump\t// in\n    tag_489:\n        /* \"#utility.yul\":23367:23452   */\n      tag_490\n        /* \"#utility.yul\":23448:23450   */\n      0x20\n        /* \"#utility.yul\":23437:23446   */\n      dup4\n        /* \"#utility.yul\":23433:23451   */\n      add\n        /* \"#utility.yul\":23424:23430   */\n      dup5\n        /* \"#utility.yul\":23367:23452   */\n      tag_211\n      jump\t// in\n    tag_490:\n        /* \"#utility.yul\":23101:23459   */\n      swap4\n      swap3\n      pop\n      pop\n      pop\n      jump\t// out\n\n    auxdata: 0xa2646970667358221220f5f162908007c513b108b93ae86342071d26d65263e196664fa47e28279289e064736f6c634300081a0033\n}\n",
				"bytecode": {
					"linkReferences": {},
					"object": "60806040526001600255348015610014575f80fd5b50604051611c1d380380611c1d83398181016040528101906100369190610119565b335f806101000a81548173ffffffffffffffffffffffffffffffffffffffff021916908373ffffffffffffffffffffffffffffffffffffffff1602179055508060015f6101000a81548173ffffffffffffffffffffffffffffffffffffffff021916908373ffffffffffffffffffffffffffffffffffffffff16021790555050610144565b5f80fd5b5f73ffffffffffffffffffffffffffffffffffffffff82169050919050565b5f6100e8826100bf565b9050919050565b6100f8816100de565b8114610102575f80fd5b50565b5f81519050610113816100ef565b92915050565b5f6020828403121561012e5761012d6100bb565b5b5f61013b84828501610105565b91505092915050565b611acc806101515f395ff3fe6080604052600436106100aa575f3560e01c80638d6eb55c116100635780638d6eb55c146101e25780638da5cb5b1461020a5780639f62eb8214610234578063ba7b6e4f1461025c578063e6cf065314610298578063ee6a1a8d146102c2576100b1565b80631f11d58c146100b357806331b2a52a146100ef57806359fb49f9146101195780637adbf973146101605780637dc0d1d0146101885780638812b680146101b2576100b1565b366100b157005b005b3480156100be575f80fd5b506100d960048036038101906100d49190610f41565b6102ec565b6040516100e6919061102c565b60405180910390f35b3480156100fa575f80fd5b5061010361037f565b604051610110919061105b565b60405180910390f35b348015610124575f80fd5b5061013f600480360381019061013a919061109e565b610385565b6040516101579c9b9a99989796959493929190611258565b60405180910390f35b34801561016b575f80fd5b5061018660048036038101906101819190610f41565b6104ac565b005b348015610193575f80fd5b5061019c61057c565b6040516101a99190611326565b60405180910390f35b6101cc60048036038101906101c791906113a0565b6105a1565b6040516101d9919061105b565b60405180910390f35b3480156101ed575f80fd5b506102086004803603810190610203919061109e565b61081f565b005b348015610215575f80fd5b5061021e610ca2565b60405161022b9190611326565b60405180910390f35b34801561023f575f80fd5b5061025a60048036038101906102559190611434565b610cc5565b005b348015610267575f80fd5b50610282600480360381019061027d9190611484565b610ea8565b60405161028f919061105b565b60405180910390f35b3480156102a3575f80fd5b506102ac610ed3565b6040516102b9919061105b565b60405180910390f35b3480156102cd575f80fd5b506102d6610ed9565b6040516102e3919061105b565b60405180910390f35b606060045f8373ffffffffffffffffffffffffffffffffffffffff1673ffffffffffffffffffffffffffffffffffffffff1681526020019081526020015f2080548060200260200160405190810160405280929190818152602001828054801561037357602002820191905f5260205f20905b81548152602001906001019080831161035f575b50505050509050919050565b61177081565b6003602052805f5260405f205f91509050805f015f9054906101000a900473ffffffffffffffffffffffffffffffffffffffff16908060010180546103c9906114ef565b80601f01602080910402602001604051908101604052809291908181526020018280546103f5906114ef565b80156104405780601f1061041757610100808354040283529160200191610440565b820191905f5260205f20905b81548152906001019060200180831161042357829003601f168201915b505050505090806002015490806003015490806004015490806005015490806006015490806007015490806008015490806009015f9054906101000a900460ff16908060090160019054906101000a900460ff16908060090160029054906101000a900460ff1690508c565b5f8054906101000a900473ffffffffffffffffffffffffffffffffffffffff1673ffffffffffffffffffffffffffffffffffffffff163373ffffffffffffffffffffffffffffffffffffffff1614610539576040517f08c379a000000000000000000000000000000000000000000000000000000000815260040161053090611569565b60405180910390fd5b8060015f6101000a81548173ffffffffffffffffffffffffffffffffffffffff021916908373ffffffffffffffffffffffffffffffffffffffff16021790555050565b60015f9054906101000a900473ffffffffffffffffffffffffffffffffffffffff1681565b5f8282116105e4576040517f08c379a00000000000000000000000000000000000000000000000000000000081526004016105db906115d1565b60405180910390fd5b61012c3414610628576040517f08c379a000000000000000000000000000000000000000000000000000000000815260040161061f90611639565b60405180910390fd5b60025f81548092919061063a90611684565b9190505590505f60035f8381526020019081526020015f20905033815f015f6101000a81548173ffffffffffffffffffffffffffffffffffffffff021916908373ffffffffffffffffffffffffffffffffffffffff16021790555085858260010191826106a892919061189f565b508381600201819055508281600301819055505f8160040181905550428160050181905550613840816006018190555061012c816007018190555061177081600801819055505f816009015f6101000a81548160ff0219169083600281111561071457610713611159565b5b02179055505f8160090160016101000a81548160ff021916908360028111156107405761073f611159565b5b02179055505f8160090160026101000a81548160ff0219169083600281111561076c5761076b611159565b5b021790555060045f3373ffffffffffffffffffffffffffffffffffffffff1673ffffffffffffffffffffffffffffffffffffffff1681526020019081526020015f2082908060018154018082558091505060019003905f5260205f20015f90919091909150553373ffffffffffffffffffffffffffffffffffffffff16827f362a18d483785c7cbd3eedc8134897c38959f9330c5dfe708330173600280a4c60405160405180910390a350949350505050565b5f60035f8381526020019081526020015f2090505f600281111561084657610845611159565b5b816009015f9054906101000a900460ff16600281111561086957610868611159565b5b146108a9576040517f08c379a00000000000000000000000000000000000000000000000000000000081526004016108a0906119b6565b60405180910390fd5b806006015481600301546108bd91906119d4565b42101561090057428160050181905550817f44ea6cd4a30857868ca250b1d94459ec789d82611c70f26164bffda153f1bc0a60405160405180910390a250610c9f565b6001600281111561091457610913611159565b5b8160090160029054906101000a900460ff16600281111561093857610937611159565b5b036109c9576001816009015f6101000a81548160ff0219169083600281111561096457610963611159565b5b021790555060028160090160016101000a81548160ff0219169083600281111561099157610990611159565b5b0217905550817fce497f2d2d439d5ac116f719fa47580e5922b4944a0f698d2327162c6eb3b7ac60405160405180910390a250610c9f565b5f81600401541480156109ee57506203f48081600301546109ea91906119d4565b4210155b15610aac576001816009015f6101000a81548160ff02191690836002811115610a1a57610a19611159565b5b021790555060028160090160016101000a81548160ff02191690836002811115610a4757610a46611159565b5b021790555060028160090160026101000a81548160ff02191690836002811115610a7457610a73611159565b5b0217905550817fac9706c516a83df0060e911fa5b8a2fd1acedc32c29e4a4dad6fe2061caceff260405160405180910390a250610c9f565b5f816004015403610af357428160050181905550817fb69f5371ebf20cdf43bb4d5fb074d977d10508b688a49267b829acfcd727c02660405160405180910390a250610c9f565b80600601548160030154610b0791906119d4565b816004015411610b9c576001816009015f6101000a81548160ff02191690836002811115610b3857610b37611159565b5b021790555060028160090160016101000a81548160ff02191690836002811115610b6557610b64611159565b5b0217905550817fa0a8cd3c30c1f1eee66987b51c20e8f2adf28114a41e24dddb595eaa93f3613160405160405180910390a2610c9d565b5f816008015490506002826009015f6101000a81548160ff02191690836002811115610bcb57610bca611159565b5b021790555060018260090160016101000a81548160ff02191690836002811115610bf857610bf7611159565b5b0217905550815f015f9054906101000a900473ffffffffffffffffffffffffffffffffffffffff1673ffffffffffffffffffffffffffffffffffffffff166108fc8290811502906040515f60405180830381858888f19350505050158015610c62573d5f803e3d5ffd5b50827fb0727183796e52c5bb00a257c1eb36d8e94dbee5d6d87e259287e3372ae39ace82604051610c93919061105b565b60405180910390a2505b505b50565b5f8054906101000a900473ffffffffffffffffffffffffffffffffffffffff1681565b60015f9054906101000a900473ffffffffffffffffffffffffffffffffffffffff1673ffffffffffffffffffffffffffffffffffffffff163373ffffffffffffffffffffffffffffffffffffffff161480610d6a57505f8054906101000a900473ffffffffffffffffffffffffffffffffffffffff1673ffffffffffffffffffffffffffffffffffffffff163373ffffffffffffffffffffffffffffffffffffffff16145b610da9576040517f08c379a0000000000000000000000000000000000000000000000000000000008152600401610da090611a51565b60405180910390fd5b5f60035f8581526020019081526020015f2090505f6002811115610dd057610dcf611159565b5b816009015f9054906101000a900460ff166002811115610df357610df2611159565b5b14610e33576040517f08c379a0000000000000000000000000000000000000000000000000000000008152600401610e2a906119b6565b60405180910390fd5b828160040181905550818160090160026101000a81548160ff02191690836002811115610e6357610e62611159565b5b0217905550837fefbe4568c3e8b3451436ae01df5e7365a5206dce94e54f32d21eb8b0a85e7f9e8484604051610e9a929190611a6f565b60405180910390a250505050565b6004602052815f5260405f208181548110610ec1575f80fd5b905f5260205f20015f91509150505481565b61384081565b61012c81565b5f80fd5b5f80fd5b5f73ffffffffffffffffffffffffffffffffffffffff82169050919050565b5f610f1082610ee7565b9050919050565b610f2081610f06565b8114610f2a575f80fd5b50565b5f81359050610f3b81610f17565b92915050565b5f60208284031215610f5657610f55610edf565b5b5f610f6384828501610f2d565b91505092915050565b5f81519050919050565b5f82825260208201905092915050565b5f819050602082019050919050565b5f819050919050565b610fa781610f95565b82525050565b5f610fb88383610f9e565b60208301905092915050565b5f602082019050919050565b5f610fda82610f6c565b610fe48185610f76565b9350610fef83610f86565b805f5b8381101561101f5781516110068882610fad565b975061101183610fc4565b925050600181019050610ff2565b5085935050505092915050565b5f6020820190508181035f8301526110448184610fd0565b905092915050565b61105581610f95565b82525050565b5f60208201905061106e5f83018461104c565b92915050565b61107d81610f95565b8114611087575f80fd5b50565b5f8135905061109881611074565b92915050565b5f602082840312156110b3576110b2610edf565b5b5f6110c08482850161108a565b91505092915050565b5f6110d382610ee7565b9050919050565b6110e3816110c9565b82525050565b5f81519050919050565b5f82825260208201905092915050565b8281835e5f83830152505050565b5f601f19601f8301169050919050565b5f61112b826110e9565b61113581856110f3565b9350611145818560208601611103565b61114e81611111565b840191505092915050565b7f4e487b71000000000000000000000000000000000000000000000000000000005f52602160045260245ffd5b6003811061119757611196611159565b5b50565b5f8190506111a782611186565b919050565b5f6111b68261119a565b9050919050565b6111c6816111ac565b82525050565b600381106111dd576111dc611159565b5b50565b5f8190506111ed826111cc565b919050565b5f6111fc826111e0565b9050919050565b61120c816111f2565b82525050565b6003811061122357611222611159565b5b50565b5f81905061123382611212565b919050565b5f61124282611226565b9050919050565b61125281611238565b82525050565b5f6101808201905061126c5f83018f6110da565b818103602083015261127e818e611121565b905061128d604083018d61104c565b61129a606083018c61104c565b6112a7608083018b61104c565b6112b460a083018a61104c565b6112c160c083018961104c565b6112ce60e083018861104c565b6112dc61010083018761104c565b6112ea6101208301866111bd565b6112f8610140830185611203565b611306610160830184611249565b9d9c50505050505050505050505050565b61132081610f06565b82525050565b5f6020820190506113395f830184611317565b92915050565b5f80fd5b5f80fd5b5f80fd5b5f8083601f8401126113605761135f61133f565b5b8235905067ffffffffffffffff81111561137d5761137c611343565b5b60208301915083600182028301111561139957611398611347565b5b9250929050565b5f805f80606085870312156113b8576113b7610edf565b5b5f85013567ffffffffffffffff8111156113d5576113d4610ee3565b5b6113e18782880161134b565b945094505060206113f48782880161108a565b92505060406114058782880161108a565b91505092959194509250565b6003811061141d575f80fd5b50565b5f8135905061142e81611411565b92915050565b5f805f6060848603121561144b5761144a610edf565b5b5f6114588682870161108a565b93505060206114698682870161108a565b925050604061147a86828701611420565b9150509250925092565b5f806040838503121561149a57611499610edf565b5b5f6114a785828601610f2d565b92505060206114b88582860161108a565b9150509250929050565b7f4e487b71000000000000000000000000000000000000000000000000000000005f52602260045260245ffd5b5f600282049050600182168061150657607f821691505b602082108103611519576115186114c2565b5b50919050565b7f4f776e6572206f6e6c79000000000000000000000000000000000000000000005f82015250565b5f611553600a836110f3565b915061155e8261151f565b602082019050919050565b5f6020820190508181035f83015261158081611547565b9050919050565b7f5450206d757374206265206166746572205431000000000000000000000000005f82015250565b5f6115bb6013836110f3565b91506115c682611587565b602082019050919050565b5f6020820190508181035f8301526115e8816115af565b9050919050565b7f496e636f7272656374207072656d69756d2073656e74000000000000000000005f82015250565b5f6116236016836110f3565b915061162e826115ef565b602082019050919050565b5f6020820190508181035f83015261165081611617565b9050919050565b7f4e487b71000000000000000000000000000000000000000000000000000000005f52601160045260245ffd5b5f61168e82610f95565b91507fffffffffffffffffffffffffffffffffffffffffffffffffffffffffffffffff82036116c0576116bf611657565b5b600182019050919050565b5f82905092915050565b7f4e487b71000000000000000000000000000000000000000000000000000000005f52604160045260245ffd5b5f819050815f5260205f209050919050565b5f6020601f8301049050919050565b5f82821b905092915050565b5f6008830261175e7fffffffffffffffffffffffffffffffffffffffffffffffffffffffffffffffff82611723565b6117688683611723565b95508019841693508086168417925050509392505050565b5f819050919050565b5f6117a361179e61179984610f95565b611780565b610f95565b9050919050565b5f819050919050565b6117bc83611789565b6117d06117c8826117aa565b84845461172f565b825550505050565b5f90565b6117e46117d8565b6117ef8184846117b3565b505050565b5b81811015611812576118075f826117dc565b6001810190506117f5565b5050565b601f8211156118575761182881611702565b61183184611714565b81016020851015611840578190505b61185461184c85611714565b8301826117f4565b50505b505050565b5f82821c905092915050565b5f6118775f198460080261185c565b1980831691505092915050565b5f61188f8383611868565b9150826002028217905092915050565b6118a983836116cb565b67ffffffffffffffff8111156118c2576118c16116d5565b5b6118cc82546114ef565b6118d7828285611816565b5f601f831160018114611904575f84156118f2578287013590505b6118fc8582611884565b865550611963565b601f19841661191286611702565b5f5b8281101561193957848901358255600182019150602085019450602081019050611914565b868310156119565784890135611952601f891682611868565b8355505b6001600288020188555050505b50505050505050565b7f496e737572616e6365206e6f74206163746976650000000000000000000000005f82015250565b5f6119a06014836110f3565b91506119ab8261196c565b602082019050919050565b5f6020820190508181035f8301526119cd81611994565b9050919050565b5f6119de82610f95565b91506119e983610f95565b9250828201905080821115611a0157611a00611657565b5b92915050565b7f4e6f7420617574686f72697a65640000000000000000000000000000000000005f82015250565b5f611a3b600e836110f3565b9150611a4682611a07565b602082019050919050565b5f6020820190508181035f830152611a6881611a2f565b9050919050565b5f604082019050611a825f83018561104c565b611a8f6020830184611249565b939250505056fea2646970667358221220f5f162908007c513b108b93ae86342071d26d65263e196664fa47e28279289e064736f6c634300081a0033",
					"opcodes": "PUSH1 0x80 PUSH1 0x40 MSTORE PUSH1 0x1 PUSH1 0x2 SSTORE CALLVALUE DUP1 ISZERO PUSH2 0x14 JUMPI PUSH0 DUP1 REVERT JUMPDEST POP PUSH1 0x40 MLOAD PUSH2 0x1C1D CODESIZE SUB DUP1 PUSH2 0x1C1D DUP4 CODECOPY DUP2 DUP2 ADD PUSH1 0x40 MSTORE DUP2 ADD SWAP1 PUSH2 0x36 SWAP2 SWAP1 PUSH2 0x119 JUMP JUMPDEST CALLER PUSH0 DUP1 PUSH2 0x100 EXP DUP2 SLOAD DUP2 PUSH20 0xFFFFFFFFFFFFFFFFFFFFFFFFFFFFFFFFFFFFFFFF MUL NOT AND SWAP1 DUP4 PUSH20 0xFFFFFFFFFFFFFFFFFFFFFFFFFFFFFFFFFFFFFFFF AND MUL OR SWAP1 SSTORE POP DUP1 PUSH1 0x1 PUSH0 PUSH2 0x100 EXP DUP2 SLOAD DUP2 PUSH20 0xFFFFFFFFFFFFFFFFFFFFFFFFFFFFFFFFFFFFFFFF MUL NOT AND SWAP1 DUP4 PUSH20 0xFFFFFFFFFFFFFFFFFFFFFFFFFFFFFFFFFFFFFFFF AND MUL OR SWAP1 SSTORE POP POP PUSH2 0x144 JUMP JUMPDEST PUSH0 DUP1 REVERT JUMPDEST PUSH0 PUSH20 0xFFFFFFFFFFFFFFFFFFFFFFFFFFFFFFFFFFFFFFFF DUP3 AND SWAP1 POP SWAP2 SWAP1 POP JUMP JUMPDEST PUSH0 PUSH2 0xE8 DUP3 PUSH2 0xBF JUMP JUMPDEST SWAP1 POP SWAP2 SWAP1 POP JUMP JUMPDEST PUSH2 0xF8 DUP2 PUSH2 0xDE JUMP JUMPDEST DUP2 EQ PUSH2 0x102 JUMPI PUSH0 DUP1 REVERT JUMPDEST POP JUMP JUMPDEST PUSH0 DUP2 MLOAD SWAP1 POP PUSH2 0x113 DUP2 PUSH2 0xEF JUMP JUMPDEST SWAP3 SWAP2 POP POP JUMP JUMPDEST PUSH0 PUSH1 0x20 DUP3 DUP5 SUB SLT ISZERO PUSH2 0x12E JUMPI PUSH2 0x12D PUSH2 0xBB JUMP JUMPDEST JUMPDEST PUSH0 PUSH2 0x13B DUP5 DUP3 DUP6 ADD PUSH2 0x105 JUMP JUMPDEST SWAP2 POP POP SWAP3 SWAP2 POP POP JUMP JUMPDEST PUSH2 0x1ACC DUP1 PUSH2 0x151 PUSH0 CODECOPY PUSH0 RETURN INVALID PUSH1 0x80 PUSH1 0x40 MSTORE PUSH1 0x4 CALLDATASIZE LT PUSH2 0xAA JUMPI PUSH0 CALLDATALOAD PUSH1 0xE0 SHR DUP1 PUSH4 0x8D6EB55C GT PUSH2 0x63 JUMPI DUP1 PUSH4 0x8D6EB55C EQ PUSH2 0x1E2 JUMPI DUP1 PUSH4 0x8DA5CB5B EQ PUSH2 0x20A JUMPI DUP1 PUSH4 0x9F62EB82 EQ PUSH2 0x234 JUMPI DUP1 PUSH4 0xBA7B6E4F EQ PUSH2 0x25C JUMPI DUP1 PUSH4 0xE6CF0653 EQ PUSH2 0x298 JUMPI DUP1 PUSH4 0xEE6A1A8D EQ PUSH2 0x2C2 JUMPI PUSH2 0xB1 JUMP JUMPDEST DUP1 PUSH4 0x1F11D58C EQ PUSH2 0xB3 JUMPI DUP1 PUSH4 0x31B2A52A EQ PUSH2 0xEF JUMPI DUP1 PUSH4 0x59FB49F9 EQ PUSH2 0x119 JUMPI DUP1 PUSH4 0x7ADBF973 EQ PUSH2 0x160 JUMPI DUP1 PUSH4 0x7DC0D1D0 EQ PUSH2 0x188 JUMPI DUP1 PUSH4 0x8812B680 EQ PUSH2 0x1B2 JUMPI PUSH2 0xB1 JUMP JUMPDEST CALLDATASIZE PUSH2 0xB1 JUMPI STOP JUMPDEST STOP JUMPDEST CALLVALUE DUP1 ISZERO PUSH2 0xBE JUMPI PUSH0 DUP1 REVERT JUMPDEST POP PUSH2 0xD9 PUSH1 0x4 DUP1 CALLDATASIZE SUB DUP2 ADD SWAP1 PUSH2 0xD4 SWAP2 SWAP1 PUSH2 0xF41 JUMP JUMPDEST PUSH2 0x2EC JUMP JUMPDEST PUSH1 0x40 MLOAD PUSH2 0xE6 SWAP2 SWAP1 PUSH2 0x102C JUMP JUMPDEST PUSH1 0x40 MLOAD DUP1 SWAP2 SUB SWAP1 RETURN JUMPDEST CALLVALUE DUP1 ISZERO PUSH2 0xFA JUMPI PUSH0 DUP1 REVERT JUMPDEST POP PUSH2 0x103 PUSH2 0x37F JUMP JUMPDEST PUSH1 0x40 MLOAD PUSH2 0x110 SWAP2 SWAP1 PUSH2 0x105B JUMP JUMPDEST PUSH1 0x40 MLOAD DUP1 SWAP2 SUB SWAP1 RETURN JUMPDEST CALLVALUE DUP1 ISZERO PUSH2 0x124 JUMPI PUSH0 DUP1 REVERT JUMPDEST POP PUSH2 0x13F PUSH1 0x4 DUP1 CALLDATASIZE SUB DUP2 ADD SWAP1 PUSH2 0x13A SWAP2 SWAP1 PUSH2 0x109E JUMP JUMPDEST PUSH2 0x385 JUMP JUMPDEST PUSH1 0x40 MLOAD PUSH2 0x157 SWAP13 SWAP12 SWAP11 SWAP10 SWAP9 SWAP8 SWAP7 SWAP6 SWAP5 SWAP4 SWAP3 SWAP2 SWAP1 PUSH2 0x1258 JUMP JUMPDEST PUSH1 0x40 MLOAD DUP1 SWAP2 SUB SWAP1 RETURN JUMPDEST CALLVALUE DUP1 ISZERO PUSH2 0x16B JUMPI PUSH0 DUP1 REVERT JUMPDEST POP PUSH2 0x186 PUSH1 0x4 DUP1 CALLDATASIZE SUB DUP2 ADD SWAP1 PUSH2 0x181 SWAP2 SWAP1 PUSH2 0xF41 JUMP JUMPDEST PUSH2 0x4AC JUMP JUMPDEST STOP JUMPDEST CALLVALUE DUP1 ISZERO PUSH2 0x193 JUMPI PUSH0 DUP1 REVERT JUMPDEST POP PUSH2 0x19C PUSH2 0x57C JUMP JUMPDEST PUSH1 0x40 MLOAD PUSH2 0x1A9 SWAP2 SWAP1 PUSH2 0x1326 JUMP JUMPDEST PUSH1 0x40 MLOAD DUP1 SWAP2 SUB SWAP1 RETURN JUMPDEST PUSH2 0x1CC PUSH1 0x4 DUP1 CALLDATASIZE SUB DUP2 ADD SWAP1 PUSH2 0x1C7 SWAP2 SWAP1 PUSH2 0x13A0 JUMP JUMPDEST PUSH2 0x5A1 JUMP JUMPDEST PUSH1 0x40 MLOAD PUSH2 0x1D9 SWAP2 SWAP1 PUSH2 0x105B JUMP JUMPDEST PUSH1 0x40 MLOAD DUP1 SWAP2 SUB SWAP1 RETURN JUMPDEST CALLVALUE DUP1 ISZERO PUSH2 0x1ED JUMPI PUSH0 DUP1 REVERT JUMPDEST POP PUSH2 0x208 PUSH1 0x4 DUP1 CALLDATASIZE SUB DUP2 ADD SWAP1 PUSH2 0x203 SWAP2 SWAP1 PUSH2 0x109E JUMP JUMPDEST PUSH2 0x81F JUMP JUMPDEST STOP JUMPDEST CALLVALUE DUP1 ISZERO PUSH2 0x215 JUMPI PUSH0 DUP1 REVERT JUMPDEST POP PUSH2 0x21E PUSH2 0xCA2 JUMP JUMPDEST PUSH1 0x40 MLOAD PUSH2 0x22B SWAP2 SWAP1 PUSH2 0x1326 JUMP JUMPDEST PUSH1 0x40 MLOAD DUP1 SWAP2 SUB SWAP1 RETURN JUMPDEST CALLVALUE DUP1 ISZERO PUSH2 0x23F JUMPI PUSH0 DUP1 REVERT JUMPDEST POP PUSH2 0x25A PUSH1 0x4 DUP1 CALLDATASIZE SUB DUP2 ADD SWAP1 PUSH2 0x255 SWAP2 SWAP1 PUSH2 0x1434 JUMP JUMPDEST PUSH2 0xCC5 JUMP JUMPDEST STOP JUMPDEST CALLVALUE DUP1 ISZERO PUSH2 0x267 JUMPI PUSH0 DUP1 REVERT JUMPDEST POP PUSH2 0x282 PUSH1 0x4 DUP1 CALLDATASIZE SUB DUP2 ADD SWAP1 PUSH2 0x27D SWAP2 SWAP1 PUSH2 0x1484 JUMP JUMPDEST PUSH2 0xEA8 JUMP JUMPDEST PUSH1 0x40 MLOAD PUSH2 0x28F SWAP2 SWAP1 PUSH2 0x105B JUMP JUMPDEST PUSH1 0x40 MLOAD DUP1 SWAP2 SUB SWAP1 RETURN JUMPDEST CALLVALUE DUP1 ISZERO PUSH2 0x2A3 JUMPI PUSH0 DUP1 REVERT JUMPDEST POP PUSH2 0x2AC PUSH2 0xED3 JUMP JUMPDEST PUSH1 0x40 MLOAD PUSH2 0x2B9 SWAP2 SWAP1 PUSH2 0x105B JUMP JUMPDEST PUSH1 0x40 MLOAD DUP1 SWAP2 SUB SWAP1 RETURN JUMPDEST CALLVALUE DUP1 ISZERO PUSH2 0x2CD JUMPI PUSH0 DUP1 REVERT JUMPDEST POP PUSH2 0x2D6 PUSH2 0xED9 JUMP JUMPDEST PUSH1 0x40 MLOAD PUSH2 0x2E3 SWAP2 SWAP1 PUSH2 0x105B JUMP JUMPDEST PUSH1 0x40 MLOAD DUP1 SWAP2 SUB SWAP1 RETURN JUMPDEST PUSH1 0x60 PUSH1 0x4 PUSH0 DUP4 PUSH20 0xFFFFFFFFFFFFFFFFFFFFFFFFFFFFFFFFFFFFFFFF AND PUSH20 0xFFFFFFFFFFFFFFFFFFFFFFFFFFFFFFFFFFFFFFFF AND DUP2 MSTORE PUSH1 0x20 ADD SWAP1 DUP2 MSTORE PUSH1 0x20 ADD PUSH0 KECCAK256 DUP1 SLOAD DUP1 PUSH1 0x20 MUL PUSH1 0x20 ADD PUSH1 0x40 MLOAD SWAP1 DUP2 ADD PUSH1 0x40 MSTORE DUP1 SWAP3 SWAP2 SWAP1 DUP2 DUP2 MSTORE PUSH1 0x20 ADD DUP3 DUP1 SLOAD DUP1 ISZERO PUSH2 0x373 JUMPI PUSH1 0x20 MUL DUP3 ADD SWAP2 SWAP1 PUSH0 MSTORE PUSH1 0x20 PUSH0 KECCAK256 SWAP1 JUMPDEST DUP2 SLOAD DUP2 MSTORE PUSH1 0x20 ADD SWAP1 PUSH1 0x1 ADD SWAP1 DUP1 DUP4 GT PUSH2 0x35F JUMPI JUMPDEST POP POP POP POP POP SWAP1 POP SWAP2 SWAP1 POP JUMP JUMPDEST PUSH2 0x1770 DUP2 JUMP JUMPDEST PUSH1 0x3 PUSH1 0x20 MSTORE DUP1 PUSH0 MSTORE PUSH1 0x40 PUSH0 KECCAK256 PUSH0 SWAP2 POP SWAP1 POP DUP1 PUSH0 ADD PUSH0 SWAP1 SLOAD SWAP1 PUSH2 0x100 EXP SWAP1 DIV PUSH20 0xFFFFFFFFFFFFFFFFFFFFFFFFFFFFFFFFFFFFFFFF AND SWAP1 DUP1 PUSH1 0x1 ADD DUP1 SLOAD PUSH2 0x3C9 SWAP1 PUSH2 0x14EF JUMP JUMPDEST DUP1 PUSH1 0x1F ADD PUSH1 0x20 DUP1 SWAP2 DIV MUL PUSH1 0x20 ADD PUSH1 0x40 MLOAD SWAP1 DUP2 ADD PUSH1 0x40 MSTORE DUP1 SWAP3 SWAP2 SWAP1 DUP2 DUP2 MSTORE PUSH1 0x20 ADD DUP3 DUP1 SLOAD PUSH2 0x3F5 SWAP1 PUSH2 0x14EF JUMP JUMPDEST DUP1 ISZERO PUSH2 0x440 JUMPI DUP1 PUSH1 0x1F LT PUSH2 0x417 JUMPI PUSH2 0x100 DUP1 DUP4 SLOAD DIV MUL DUP4 MSTORE SWAP2 PUSH1 0x20 ADD SWAP2 PUSH2 0x440 JUMP JUMPDEST DUP3 ADD SWAP2 SWAP1 PUSH0 MSTORE PUSH1 0x20 PUSH0 KECCAK256 SWAP1 JUMPDEST DUP2 SLOAD DUP2 MSTORE SWAP1 PUSH1 0x1 ADD SWAP1 PUSH1 0x20 ADD DUP1 DUP4 GT PUSH2 0x423 JUMPI DUP3 SWAP1 SUB PUSH1 0x1F AND DUP3 ADD SWAP2 JUMPDEST POP POP POP POP POP SWAP1 DUP1 PUSH1 0x2 ADD SLOAD SWAP1 DUP1 PUSH1 0x3 ADD SLOAD SWAP1 DUP1 PUSH1 0x4 ADD SLOAD SWAP1 DUP1 PUSH1 0x5 ADD SLOAD SWAP1 DUP1 PUSH1 0x6 ADD SLOAD SWAP1 DUP1 PUSH1 0x7 ADD SLOAD SWAP1 DUP1 PUSH1 0x8 ADD SLOAD SWAP1 DUP1 PUSH1 0x9 ADD PUSH0 SWAP1 SLOAD SWAP1 PUSH2 0x100 EXP SWAP1 DIV PUSH1 0xFF AND SWAP1 DUP1 PUSH1 0x9 ADD PUSH1 0x1 SWAP1 SLOAD SWAP1 PUSH2 0x100 EXP SWAP1 DIV PUSH1 0xFF AND SWAP1 DUP1 PUSH1 0x9 ADD PUSH1 0x2 SWAP1 SLOAD SWAP1 PUSH2 0x100 EXP SWAP1 DIV PUSH1 0xFF AND SWAP1 POP DUP13 JUMP JUMPDEST PUSH0 DUP1 SLOAD SWAP1 PUSH2 0x100 EXP SWAP1 DIV PUSH20 0xFFFFFFFFFFFFFFFFFFFFFFFFFFFFFFFFFFFFFFFF AND PUSH20 0xFFFFFFFFFFFFFFFFFFFFFFFFFFFFFFFFFFFFFFFF AND CALLER PUSH20 0xFFFFFFFFFFFFFFFFFFFFFFFFFFFFFFFFFFFFFFFF AND EQ PUSH2 0x539 JUMPI PUSH1 0x40 MLOAD PUSH32 0x8C379A000000000000000000000000000000000000000000000000000000000 DUP2 MSTORE PUSH1 0x4 ADD PUSH2 0x530 SWAP1 PUSH2 0x1569 JUMP JUMPDEST PUSH1 0x40 MLOAD DUP1 SWAP2 SUB SWAP1 REVERT JUMPDEST DUP1 PUSH1 0x1 PUSH0 PUSH2 0x100 EXP DUP2 SLOAD DUP2 PUSH20 0xFFFFFFFFFFFFFFFFFFFFFFFFFFFFFFFFFFFFFFFF MUL NOT AND SWAP1 DUP4 PUSH20 0xFFFFFFFFFFFFFFFFFFFFFFFFFFFFFFFFFFFFFFFF AND MUL OR SWAP1 SSTORE POP POP JUMP JUMPDEST PUSH1 0x1 PUSH0 SWAP1 SLOAD SWAP1 PUSH2 0x100 EXP SWAP1 DIV PUSH20 0xFFFFFFFFFFFFFFFFFFFFFFFFFFFFFFFFFFFFFFFF AND DUP2 JUMP JUMPDEST PUSH0 DUP3 DUP3 GT PUSH2 0x5E4 JUMPI PUSH1 0x40 MLOAD PUSH32 0x8C379A000000000000000000000000000000000000000000000000000000000 DUP2 MSTORE PUSH1 0x4 ADD PUSH2 0x5DB SWAP1 PUSH2 0x15D1 JUMP JUMPDEST PUSH1 0x40 MLOAD DUP1 SWAP2 SUB SWAP1 REVERT JUMPDEST PUSH2 0x12C CALLVALUE EQ PUSH2 0x628 JUMPI PUSH1 0x40 MLOAD PUSH32 0x8C379A000000000000000000000000000000000000000000000000000000000 DUP2 MSTORE PUSH1 0x4 ADD PUSH2 0x61F SWAP1 PUSH2 0x1639 JUMP JUMPDEST PUSH1 0x40 MLOAD DUP1 SWAP2 SUB SWAP1 REVERT JUMPDEST PUSH1 0x2 PUSH0 DUP2 SLOAD DUP1 SWAP3 SWAP2 SWAP1 PUSH2 0x63A SWAP1 PUSH2 0x1684 JUMP JUMPDEST SWAP2 SWAP1 POP SSTORE SWAP1 POP PUSH0 PUSH1 0x3 PUSH0 DUP4 DUP2 MSTORE PUSH1 0x20 ADD SWAP1 DUP2 MSTORE PUSH1 0x20 ADD PUSH0 KECCAK256 SWAP1 POP CALLER DUP2 PUSH0 ADD PUSH0 PUSH2 0x100 EXP DUP2 SLOAD DUP2 PUSH20 0xFFFFFFFFFFFFFFFFFFFFFFFFFFFFFFFFFFFFFFFF MUL NOT AND SWAP1 DUP4 PUSH20 0xFFFFFFFFFFFFFFFFFFFFFFFFFFFFFFFFFFFFFFFF AND MUL OR SWAP1 SSTORE POP DUP6 DUP6 DUP3 PUSH1 0x1 ADD SWAP2 DUP3 PUSH2 0x6A8 SWAP3 SWAP2 SWAP1 PUSH2 0x189F JUMP JUMPDEST POP DUP4 DUP2 PUSH1 0x2 ADD DUP2 SWAP1 SSTORE POP DUP3 DUP2 PUSH1 0x3 ADD DUP2 SWAP1 SSTORE POP PUSH0 DUP2 PUSH1 0x4 ADD DUP2 SWAP1 SSTORE POP TIMESTAMP DUP2 PUSH1 0x5 ADD DUP2 SWAP1 SSTORE POP PUSH2 0x3840 DUP2 PUSH1 0x6 ADD DUP2 SWAP1 SSTORE POP PUSH2 0x12C DUP2 PUSH1 0x7 ADD DUP2 SWAP1 SSTORE POP PUSH2 0x1770 DUP2 PUSH1 0x8 ADD DUP2 SWAP1 SSTORE POP PUSH0 DUP2 PUSH1 0x9 ADD PUSH0 PUSH2 0x100 EXP DUP2 SLOAD DUP2 PUSH1 0xFF MUL NOT AND SWAP1 DUP4 PUSH1 0x2 DUP2 GT ISZERO PUSH2 0x714 JUMPI PUSH2 0x713 PUSH2 0x1159 JUMP JUMPDEST JUMPDEST MUL OR SWAP1 SSTORE POP PUSH0 DUP2 PUSH1 0x9 ADD PUSH1 0x1 PUSH2 0x100 EXP DUP2 SLOAD DUP2 PUSH1 0xFF MUL NOT AND SWAP1 DUP4 PUSH1 0x2 DUP2 GT ISZERO PUSH2 0x740 JUMPI PUSH2 0x73F PUSH2 0x1159 JUMP JUMPDEST JUMPDEST MUL OR SWAP1 SSTORE POP PUSH0 DUP2 PUSH1 0x9 ADD PUSH1 0x2 PUSH2 0x100 EXP DUP2 SLOAD DUP2 PUSH1 0xFF MUL NOT AND SWAP1 DUP4 PUSH1 0x2 DUP2 GT ISZERO PUSH2 0x76C JUMPI PUSH2 0x76B PUSH2 0x1159 JUMP JUMPDEST JUMPDEST MUL OR SWAP1 SSTORE POP PUSH1 0x4 PUSH0 CALLER PUSH20 0xFFFFFFFFFFFFFFFFFFFFFFFFFFFFFFFFFFFFFFFF AND PUSH20 0xFFFFFFFFFFFFFFFFFFFFFFFFFFFFFFFFFFFFFFFF AND DUP2 MSTORE PUSH1 0x20 ADD SWAP1 DUP2 MSTORE PUSH1 0x20 ADD PUSH0 KECCAK256 DUP3 SWAP1 DUP1 PUSH1 0x1 DUP2 SLOAD ADD DUP1 DUP3 SSTORE DUP1 SWAP2 POP POP PUSH1 0x1 SWAP1 SUB SWAP1 PUSH0 MSTORE PUSH1 0x20 PUSH0 KECCAK256 ADD PUSH0 SWAP1 SWAP2 SWAP1 SWAP2 SWAP1 SWAP2 POP SSTORE CALLER PUSH20 0xFFFFFFFFFFFFFFFFFFFFFFFFFFFFFFFFFFFFFFFF AND DUP3 PUSH32 0x362A18D483785C7CBD3EEDC8134897C38959F9330C5DFE708330173600280A4C PUSH1 0x40 MLOAD PUSH1 0x40 MLOAD DUP1 SWAP2 SUB SWAP1 LOG3 POP SWAP5 SWAP4 POP POP POP POP JUMP JUMPDEST PUSH0 PUSH1 0x3 PUSH0 DUP4 DUP2 MSTORE PUSH1 0x20 ADD SWAP1 DUP2 MSTORE PUSH1 0x20 ADD PUSH0 KECCAK256 SWAP1 POP PUSH0 PUSH1 0x2 DUP2 GT ISZERO PUSH2 0x846 JUMPI PUSH2 0x845 PUSH2 0x1159 JUMP JUMPDEST JUMPDEST DUP2 PUSH1 0x9 ADD PUSH0 SWAP1 SLOAD SWAP1 PUSH2 0x100 EXP SWAP1 DIV PUSH1 0xFF AND PUSH1 0x2 DUP2 GT ISZERO PUSH2 0x869 JUMPI PUSH2 0x868 PUSH2 0x1159 JUMP JUMPDEST JUMPDEST EQ PUSH2 0x8A9 JUMPI PUSH1 0x40 MLOAD PUSH32 0x8C379A000000000000000000000000000000000000000000000000000000000 DUP2 MSTORE PUSH1 0x4 ADD PUSH2 0x8A0 SWAP1 PUSH2 0x19B6 JUMP JUMPDEST PUSH1 0x40 MLOAD DUP1 SWAP2 SUB SWAP1 REVERT JUMPDEST DUP1 PUSH1 0x6 ADD SLOAD DUP2 PUSH1 0x3 ADD SLOAD PUSH2 0x8BD SWAP2 SWAP1 PUSH2 0x19D4 JUMP JUMPDEST TIMESTAMP LT ISZERO PUSH2 0x900 JUMPI TIMESTAMP DUP2 PUSH1 0x5 ADD DUP2 SWAP1 SSTORE POP DUP2 PUSH32 0x44EA6CD4A30857868CA250B1D94459EC789D82611C70F26164BFFDA153F1BC0A PUSH1 0x40 MLOAD PUSH1 0x40 MLOAD DUP1 SWAP2 SUB SWAP1 LOG2 POP PUSH2 0xC9F JUMP JUMPDEST PUSH1 0x1 PUSH1 0x2 DUP2 GT ISZERO PUSH2 0x914 JUMPI PUSH2 0x913 PUSH2 0x1159 JUMP JUMPDEST JUMPDEST DUP2 PUSH1 0x9 ADD PUSH1 0x2 SWAP1 SLOAD SWAP1 PUSH2 0x100 EXP SWAP1 DIV PUSH1 0xFF AND PUSH1 0x2 DUP2 GT ISZERO PUSH2 0x938 JUMPI PUSH2 0x937 PUSH2 0x1159 JUMP JUMPDEST JUMPDEST SUB PUSH2 0x9C9 JUMPI PUSH1 0x1 DUP2 PUSH1 0x9 ADD PUSH0 PUSH2 0x100 EXP DUP2 SLOAD DUP2 PUSH1 0xFF MUL NOT AND SWAP1 DUP4 PUSH1 0x2 DUP2 GT ISZERO PUSH2 0x964 JUMPI PUSH2 0x963 PUSH2 0x1159 JUMP JUMPDEST JUMPDEST MUL OR SWAP1 SSTORE POP PUSH1 0x2 DUP2 PUSH1 0x9 ADD PUSH1 0x1 PUSH2 0x100 EXP DUP2 SLOAD DUP2 PUSH1 0xFF MUL NOT AND SWAP1 DUP4 PUSH1 0x2 DUP2 GT ISZERO PUSH2 0x991 JUMPI PUSH2 0x990 PUSH2 0x1159 JUMP JUMPDEST JUMPDEST MUL OR SWAP1 SSTORE POP DUP2 PUSH32 0xCE497F2D2D439D5AC116F719FA47580E5922B4944A0F698D2327162C6EB3B7AC PUSH1 0x40 MLOAD PUSH1 0x40 MLOAD DUP1 SWAP2 SUB SWAP1 LOG2 POP PUSH2 0xC9F JUMP JUMPDEST PUSH0 DUP2 PUSH1 0x4 ADD SLOAD EQ DUP1 ISZERO PUSH2 0x9EE JUMPI POP PUSH3 0x3F480 DUP2 PUSH1 0x3 ADD SLOAD PUSH2 0x9EA SWAP2 SWAP1 PUSH2 0x19D4 JUMP JUMPDEST TIMESTAMP LT ISZERO JUMPDEST ISZERO PUSH2 0xAAC JUMPI PUSH1 0x1 DUP2 PUSH1 0x9 ADD PUSH0 PUSH2 0x100 EXP DUP2 SLOAD DUP2 PUSH1 0xFF MUL NOT AND SWAP1 DUP4 PUSH1 0x2 DUP2 GT ISZERO PUSH2 0xA1A JUMPI PUSH2 0xA19 PUSH2 0x1159 JUMP JUMPDEST JUMPDEST MUL OR SWAP1 SSTORE POP PUSH1 0x2 DUP2 PUSH1 0x9 ADD PUSH1 0x1 PUSH2 0x100 EXP DUP2 SLOAD DUP2 PUSH1 0xFF MUL NOT AND SWAP1 DUP4 PUSH1 0x2 DUP2 GT ISZERO PUSH2 0xA47 JUMPI PUSH2 0xA46 PUSH2 0x1159 JUMP JUMPDEST JUMPDEST MUL OR SWAP1 SSTORE POP PUSH1 0x2 DUP2 PUSH1 0x9 ADD PUSH1 0x2 PUSH2 0x100 EXP DUP2 SLOAD DUP2 PUSH1 0xFF MUL NOT AND SWAP1 DUP4 PUSH1 0x2 DUP2 GT ISZERO PUSH2 0xA74 JUMPI PUSH2 0xA73 PUSH2 0x1159 JUMP JUMPDEST JUMPDEST MUL OR SWAP1 SSTORE POP DUP2 PUSH32 0xAC9706C516A83DF0060E911FA5B8A2FD1ACEDC32C29E4A4DAD6FE2061CACEFF2 PUSH1 0x40 MLOAD PUSH1 0x40 MLOAD DUP1 SWAP2 SUB SWAP1 LOG2 POP PUSH2 0xC9F JUMP JUMPDEST PUSH0 DUP2 PUSH1 0x4 ADD SLOAD SUB PUSH2 0xAF3 JUMPI TIMESTAMP DUP2 PUSH1 0x5 ADD DUP2 SWAP1 SSTORE POP DUP2 PUSH32 0xB69F5371EBF20CDF43BB4D5FB074D977D10508B688A49267B829ACFCD727C026 PUSH1 0x40 MLOAD PUSH1 0x40 MLOAD DUP1 SWAP2 SUB SWAP1 LOG2 POP PUSH2 0xC9F JUMP JUMPDEST DUP1 PUSH1 0x6 ADD SLOAD DUP2 PUSH1 0x3 ADD SLOAD PUSH2 0xB07 SWAP2 SWAP1 PUSH2 0x19D4 JUMP JUMPDEST DUP2 PUSH1 0x4 ADD SLOAD GT PUSH2 0xB9C JUMPI PUSH1 0x1 DUP2 PUSH1 0x9 ADD PUSH0 PUSH2 0x100 EXP DUP2 SLOAD DUP2 PUSH1 0xFF MUL NOT AND SWAP1 DUP4 PUSH1 0x2 DUP2 GT ISZERO PUSH2 0xB38 JUMPI PUSH2 0xB37 PUSH2 0x1159 JUMP JUMPDEST JUMPDEST MUL OR SWAP1 SSTORE POP PUSH1 0x2 DUP2 PUSH1 0x9 ADD PUSH1 0x1 PUSH2 0x100 EXP DUP2 SLOAD DUP2 PUSH1 0xFF MUL NOT AND SWAP1 DUP4 PUSH1 0x2 DUP2 GT ISZERO PUSH2 0xB65 JUMPI PUSH2 0xB64 PUSH2 0x1159 JUMP JUMPDEST JUMPDEST MUL OR SWAP1 SSTORE POP DUP2 PUSH32 0xA0A8CD3C30C1F1EEE66987B51C20E8F2ADF28114A41E24DDDB595EAA93F36131 PUSH1 0x40 MLOAD PUSH1 0x40 MLOAD DUP1 SWAP2 SUB SWAP1 LOG2 PUSH2 0xC9D JUMP JUMPDEST PUSH0 DUP2 PUSH1 0x8 ADD SLOAD SWAP1 POP PUSH1 0x2 DUP3 PUSH1 0x9 ADD PUSH0 PUSH2 0x100 EXP DUP2 SLOAD DUP2 PUSH1 0xFF MUL NOT AND SWAP1 DUP4 PUSH1 0x2 DUP2 GT ISZERO PUSH2 0xBCB JUMPI PUSH2 0xBCA PUSH2 0x1159 JUMP JUMPDEST JUMPDEST MUL OR SWAP1 SSTORE POP PUSH1 0x1 DUP3 PUSH1 0x9 ADD PUSH1 0x1 PUSH2 0x100 EXP DUP2 SLOAD DUP2 PUSH1 0xFF MUL NOT AND SWAP1 DUP4 PUSH1 0x2 DUP2 GT ISZERO PUSH2 0xBF8 JUMPI PUSH2 0xBF7 PUSH2 0x1159 JUMP JUMPDEST JUMPDEST MUL OR SWAP1 SSTORE POP DUP2 PUSH0 ADD PUSH0 SWAP1 SLOAD SWAP1 PUSH2 0x100 EXP SWAP1 DIV PUSH20 0xFFFFFFFFFFFFFFFFFFFFFFFFFFFFFFFFFFFFFFFF AND PUSH20 0xFFFFFFFFFFFFFFFFFFFFFFFFFFFFFFFFFFFFFFFF AND PUSH2 0x8FC DUP3 SWAP1 DUP2 ISZERO MUL SWAP1 PUSH1 0x40 MLOAD PUSH0 PUSH1 0x40 MLOAD DUP1 DUP4 SUB DUP2 DUP6 DUP9 DUP9 CALL SWAP4 POP POP POP POP ISZERO DUP1 ISZERO PUSH2 0xC62 JUMPI RETURNDATASIZE PUSH0 DUP1 RETURNDATACOPY RETURNDATASIZE PUSH0 REVERT JUMPDEST POP DUP3 PUSH32 0xB0727183796E52C5BB00A257C1EB36D8E94DBEE5D6D87E259287E3372AE39ACE DUP3 PUSH1 0x40 MLOAD PUSH2 0xC93 SWAP2 SWAP1 PUSH2 0x105B JUMP JUMPDEST PUSH1 0x40 MLOAD DUP1 SWAP2 SUB SWAP1 LOG2 POP JUMPDEST POP JUMPDEST POP JUMP JUMPDEST PUSH0 DUP1 SLOAD SWAP1 PUSH2 0x100 EXP SWAP1 DIV PUSH20 0xFFFFFFFFFFFFFFFFFFFFFFFFFFFFFFFFFFFFFFFF AND DUP2 JUMP JUMPDEST PUSH1 0x1 PUSH0 SWAP1 SLOAD SWAP1 PUSH2 0x100 EXP SWAP1 DIV PUSH20 0xFFFFFFFFFFFFFFFFFFFFFFFFFFFFFFFFFFFFFFFF AND PUSH20 0xFFFFFFFFFFFFFFFFFFFFFFFFFFFFFFFFFFFFFFFF AND CALLER PUSH20 0xFFFFFFFFFFFFFFFFFFFFFFFFFFFFFFFFFFFFFFFF AND EQ DUP1 PUSH2 0xD6A JUMPI POP PUSH0 DUP1 SLOAD SWAP1 PUSH2 0x100 EXP SWAP1 DIV PUSH20 0xFFFFFFFFFFFFFFFFFFFFFFFFFFFFFFFFFFFFFFFF AND PUSH20 0xFFFFFFFFFFFFFFFFFFFFFFFFFFFFFFFFFFFFFFFF AND CALLER PUSH20 0xFFFFFFFFFFFFFFFFFFFFFFFFFFFFFFFFFFFFFFFF AND EQ JUMPDEST PUSH2 0xDA9 JUMPI PUSH1 0x40 MLOAD PUSH32 0x8C379A000000000000000000000000000000000000000000000000000000000 DUP2 MSTORE PUSH1 0x4 ADD PUSH2 0xDA0 SWAP1 PUSH2 0x1A51 JUMP JUMPDEST PUSH1 0x40 MLOAD DUP1 SWAP2 SUB SWAP1 REVERT JUMPDEST PUSH0 PUSH1 0x3 PUSH0 DUP6 DUP2 MSTORE PUSH1 0x20 ADD SWAP1 DUP2 MSTORE PUSH1 0x20 ADD PUSH0 KECCAK256 SWAP1 POP PUSH0 PUSH1 0x2 DUP2 GT ISZERO PUSH2 0xDD0 JUMPI PUSH2 0xDCF PUSH2 0x1159 JUMP JUMPDEST JUMPDEST DUP2 PUSH1 0x9 ADD PUSH0 SWAP1 SLOAD SWAP1 PUSH2 0x100 EXP SWAP1 DIV PUSH1 0xFF AND PUSH1 0x2 DUP2 GT ISZERO PUSH2 0xDF3 JUMPI PUSH2 0xDF2 PUSH2 0x1159 JUMP JUMPDEST JUMPDEST EQ PUSH2 0xE33 JUMPI PUSH1 0x40 MLOAD PUSH32 0x8C379A000000000000000000000000000000000000000000000000000000000 DUP2 MSTORE PUSH1 0x4 ADD PUSH2 0xE2A SWAP1 PUSH2 0x19B6 JUMP JUMPDEST PUSH1 0x40 MLOAD DUP1 SWAP2 SUB SWAP1 REVERT JUMPDEST DUP3 DUP2 PUSH1 0x4 ADD DUP2 SWAP1 SSTORE POP DUP2 DUP2 PUSH1 0x9 ADD PUSH1 0x2 PUSH2 0x100 EXP DUP2 SLOAD DUP2 PUSH1 0xFF MUL NOT AND SWAP1 DUP4 PUSH1 0x2 DUP2 GT ISZERO PUSH2 0xE63 JUMPI PUSH2 0xE62 PUSH2 0x1159 JUMP JUMPDEST JUMPDEST MUL OR SWAP1 SSTORE POP DUP4 PUSH32 0xEFBE4568C3E8B3451436AE01DF5E7365A5206DCE94E54F32D21EB8B0A85E7F9E DUP5 DUP5 PUSH1 0x40 MLOAD PUSH2 0xE9A SWAP3 SWAP2 SWAP1 PUSH2 0x1A6F JUMP JUMPDEST PUSH1 0x40 MLOAD DUP1 SWAP2 SUB SWAP1 LOG2 POP POP POP POP JUMP JUMPDEST PUSH1 0x4 PUSH1 0x20 MSTORE DUP2 PUSH0 MSTORE PUSH1 0x40 PUSH0 KECCAK256 DUP2 DUP2 SLOAD DUP2 LT PUSH2 0xEC1 JUMPI PUSH0 DUP1 REVERT JUMPDEST SWAP1 PUSH0 MSTORE PUSH1 0x20 PUSH0 KECCAK256 ADD PUSH0 SWAP2 POP SWAP2 POP POP SLOAD DUP2 JUMP JUMPDEST PUSH2 0x3840 DUP2 JUMP JUMPDEST PUSH2 0x12C DUP2 JUMP JUMPDEST PUSH0 DUP1 REVERT JUMPDEST PUSH0 DUP1 REVERT JUMPDEST PUSH0 PUSH20 0xFFFFFFFFFFFFFFFFFFFFFFFFFFFFFFFFFFFFFFFF DUP3 AND SWAP1 POP SWAP2 SWAP1 POP JUMP JUMPDEST PUSH0 PUSH2 0xF10 DUP3 PUSH2 0xEE7 JUMP JUMPDEST SWAP1 POP SWAP2 SWAP1 POP JUMP JUMPDEST PUSH2 0xF20 DUP2 PUSH2 0xF06 JUMP JUMPDEST DUP2 EQ PUSH2 0xF2A JUMPI PUSH0 DUP1 REVERT JUMPDEST POP JUMP JUMPDEST PUSH0 DUP2 CALLDATALOAD SWAP1 POP PUSH2 0xF3B DUP2 PUSH2 0xF17 JUMP JUMPDEST SWAP3 SWAP2 POP POP JUMP JUMPDEST PUSH0 PUSH1 0x20 DUP3 DUP5 SUB SLT ISZERO PUSH2 0xF56 JUMPI PUSH2 0xF55 PUSH2 0xEDF JUMP JUMPDEST JUMPDEST PUSH0 PUSH2 0xF63 DUP5 DUP3 DUP6 ADD PUSH2 0xF2D JUMP JUMPDEST SWAP2 POP POP SWAP3 SWAP2 POP POP JUMP JUMPDEST PUSH0 DUP2 MLOAD SWAP1 POP SWAP2 SWAP1 POP JUMP JUMPDEST PUSH0 DUP3 DUP3 MSTORE PUSH1 0x20 DUP3 ADD SWAP1 POP SWAP3 SWAP2 POP POP JUMP JUMPDEST PUSH0 DUP2 SWAP1 POP PUSH1 0x20 DUP3 ADD SWAP1 POP SWAP2 SWAP1 POP JUMP JUMPDEST PUSH0 DUP2 SWAP1 POP SWAP2 SWAP1 POP JUMP JUMPDEST PUSH2 0xFA7 DUP2 PUSH2 0xF95 JUMP JUMPDEST DUP3 MSTORE POP POP JUMP JUMPDEST PUSH0 PUSH2 0xFB8 DUP4 DUP4 PUSH2 0xF9E JUMP JUMPDEST PUSH1 0x20 DUP4 ADD SWAP1 POP SWAP3 SWAP2 POP POP JUMP JUMPDEST PUSH0 PUSH1 0x20 DUP3 ADD SWAP1 POP SWAP2 SWAP1 POP JUMP JUMPDEST PUSH0 PUSH2 0xFDA DUP3 PUSH2 0xF6C JUMP JUMPDEST PUSH2 0xFE4 DUP2 DUP6 PUSH2 0xF76 JUMP JUMPDEST SWAP4 POP PUSH2 0xFEF DUP4 PUSH2 0xF86 JUMP JUMPDEST DUP1 PUSH0 JUMPDEST DUP4 DUP2 LT ISZERO PUSH2 0x101F JUMPI DUP2 MLOAD PUSH2 0x1006 DUP9 DUP3 PUSH2 0xFAD JUMP JUMPDEST SWAP8 POP PUSH2 0x1011 DUP4 PUSH2 0xFC4 JUMP JUMPDEST SWAP3 POP POP PUSH1 0x1 DUP2 ADD SWAP1 POP PUSH2 0xFF2 JUMP JUMPDEST POP DUP6 SWAP4 POP POP POP POP SWAP3 SWAP2 POP POP JUMP JUMPDEST PUSH0 PUSH1 0x20 DUP3 ADD SWAP1 POP DUP2 DUP2 SUB PUSH0 DUP4 ADD MSTORE PUSH2 0x1044 DUP2 DUP5 PUSH2 0xFD0 JUMP JUMPDEST SWAP1 POP SWAP3 SWAP2 POP POP JUMP JUMPDEST PUSH2 0x1055 DUP2 PUSH2 0xF95 JUMP JUMPDEST DUP3 MSTORE POP POP JUMP JUMPDEST PUSH0 PUSH1 0x20 DUP3 ADD SWAP1 POP PUSH2 0x106E PUSH0 DUP4 ADD DUP5 PUSH2 0x104C JUMP JUMPDEST SWAP3 SWAP2 POP POP JUMP JUMPDEST PUSH2 0x107D DUP2 PUSH2 0xF95 JUMP JUMPDEST DUP2 EQ PUSH2 0x1087 JUMPI PUSH0 DUP1 REVERT JUMPDEST POP JUMP JUMPDEST PUSH0 DUP2 CALLDATALOAD SWAP1 POP PUSH2 0x1098 DUP2 PUSH2 0x1074 JUMP JUMPDEST SWAP3 SWAP2 POP POP JUMP JUMPDEST PUSH0 PUSH1 0x20 DUP3 DUP5 SUB SLT ISZERO PUSH2 0x10B3 JUMPI PUSH2 0x10B2 PUSH2 0xEDF JUMP JUMPDEST JUMPDEST PUSH0 PUSH2 0x10C0 DUP5 DUP3 DUP6 ADD PUSH2 0x108A JUMP JUMPDEST SWAP2 POP POP SWAP3 SWAP2 POP POP JUMP JUMPDEST PUSH0 PUSH2 0x10D3 DUP3 PUSH2 0xEE7 JUMP JUMPDEST SWAP1 POP SWAP2 SWAP1 POP JUMP JUMPDEST PUSH2 0x10E3 DUP2 PUSH2 0x10C9 JUMP JUMPDEST DUP3 MSTORE POP POP JUMP JUMPDEST PUSH0 DUP2 MLOAD SWAP1 POP SWAP2 SWAP1 POP JUMP JUMPDEST PUSH0 DUP3 DUP3 MSTORE PUSH1 0x20 DUP3 ADD SWAP1 POP SWAP3 SWAP2 POP POP JUMP JUMPDEST DUP3 DUP2 DUP4 MCOPY PUSH0 DUP4 DUP4 ADD MSTORE POP POP POP JUMP JUMPDEST PUSH0 PUSH1 0x1F NOT PUSH1 0x1F DUP4 ADD AND SWAP1 POP SWAP2 SWAP1 POP JUMP JUMPDEST PUSH0 PUSH2 0x112B DUP3 PUSH2 0x10E9 JUMP JUMPDEST PUSH2 0x1135 DUP2 DUP6 PUSH2 0x10F3 JUMP JUMPDEST SWAP4 POP PUSH2 0x1145 DUP2 DUP6 PUSH1 0x20 DUP7 ADD PUSH2 0x1103 JUMP JUMPDEST PUSH2 0x114E DUP2 PUSH2 0x1111 JUMP JUMPDEST DUP5 ADD SWAP2 POP POP SWAP3 SWAP2 POP POP JUMP JUMPDEST PUSH32 0x4E487B7100000000000000000000000000000000000000000000000000000000 PUSH0 MSTORE PUSH1 0x21 PUSH1 0x4 MSTORE PUSH1 0x24 PUSH0 REVERT JUMPDEST PUSH1 0x3 DUP2 LT PUSH2 0x1197 JUMPI PUSH2 0x1196 PUSH2 0x1159 JUMP JUMPDEST JUMPDEST POP JUMP JUMPDEST PUSH0 DUP2 SWAP1 POP PUSH2 0x11A7 DUP3 PUSH2 0x1186 JUMP JUMPDEST SWAP2 SWAP1 POP JUMP JUMPDEST PUSH0 PUSH2 0x11B6 DUP3 PUSH2 0x119A JUMP JUMPDEST SWAP1 POP SWAP2 SWAP1 POP JUMP JUMPDEST PUSH2 0x11C6 DUP2 PUSH2 0x11AC JUMP JUMPDEST DUP3 MSTORE POP POP JUMP JUMPDEST PUSH1 0x3 DUP2 LT PUSH2 0x11DD JUMPI PUSH2 0x11DC PUSH2 0x1159 JUMP JUMPDEST JUMPDEST POP JUMP JUMPDEST PUSH0 DUP2 SWAP1 POP PUSH2 0x11ED DUP3 PUSH2 0x11CC JUMP JUMPDEST SWAP2 SWAP1 POP JUMP JUMPDEST PUSH0 PUSH2 0x11FC DUP3 PUSH2 0x11E0 JUMP JUMPDEST SWAP1 POP SWAP2 SWAP1 POP JUMP JUMPDEST PUSH2 0x120C DUP2 PUSH2 0x11F2 JUMP JUMPDEST DUP3 MSTORE POP POP JUMP JUMPDEST PUSH1 0x3 DUP2 LT PUSH2 0x1223 JUMPI PUSH2 0x1222 PUSH2 0x1159 JUMP JUMPDEST JUMPDEST POP JUMP JUMPDEST PUSH0 DUP2 SWAP1 POP PUSH2 0x1233 DUP3 PUSH2 0x1212 JUMP JUMPDEST SWAP2 SWAP1 POP JUMP JUMPDEST PUSH0 PUSH2 0x1242 DUP3 PUSH2 0x1226 JUMP JUMPDEST SWAP1 POP SWAP2 SWAP1 POP JUMP JUMPDEST PUSH2 0x1252 DUP2 PUSH2 0x1238 JUMP JUMPDEST DUP3 MSTORE POP POP JUMP JUMPDEST PUSH0 PUSH2 0x180 DUP3 ADD SWAP1 POP PUSH2 0x126C PUSH0 DUP4 ADD DUP16 PUSH2 0x10DA JUMP JUMPDEST DUP2 DUP2 SUB PUSH1 0x20 DUP4 ADD MSTORE PUSH2 0x127E DUP2 DUP15 PUSH2 0x1121 JUMP JUMPDEST SWAP1 POP PUSH2 0x128D PUSH1 0x40 DUP4 ADD DUP14 PUSH2 0x104C JUMP JUMPDEST PUSH2 0x129A PUSH1 0x60 DUP4 ADD DUP13 PUSH2 0x104C JUMP JUMPDEST PUSH2 0x12A7 PUSH1 0x80 DUP4 ADD DUP12 PUSH2 0x104C JUMP JUMPDEST PUSH2 0x12B4 PUSH1 0xA0 DUP4 ADD DUP11 PUSH2 0x104C JUMP JUMPDEST PUSH2 0x12C1 PUSH1 0xC0 DUP4 ADD DUP10 PUSH2 0x104C JUMP JUMPDEST PUSH2 0x12CE PUSH1 0xE0 DUP4 ADD DUP9 PUSH2 0x104C JUMP JUMPDEST PUSH2 0x12DC PUSH2 0x100 DUP4 ADD DUP8 PUSH2 0x104C JUMP JUMPDEST PUSH2 0x12EA PUSH2 0x120 DUP4 ADD DUP7 PUSH2 0x11BD JUMP JUMPDEST PUSH2 0x12F8 PUSH2 0x140 DUP4 ADD DUP6 PUSH2 0x1203 JUMP JUMPDEST PUSH2 0x1306 PUSH2 0x160 DUP4 ADD DUP5 PUSH2 0x1249 JUMP JUMPDEST SWAP14 SWAP13 POP POP POP POP POP POP POP POP POP POP POP POP POP JUMP JUMPDEST PUSH2 0x1320 DUP2 PUSH2 0xF06 JUMP JUMPDEST DUP3 MSTORE POP POP JUMP JUMPDEST PUSH0 PUSH1 0x20 DUP3 ADD SWAP1 POP PUSH2 0x1339 PUSH0 DUP4 ADD DUP5 PUSH2 0x1317 JUMP JUMPDEST SWAP3 SWAP2 POP POP JUMP JUMPDEST PUSH0 DUP1 REVERT JUMPDEST PUSH0 DUP1 REVERT JUMPDEST PUSH0 DUP1 REVERT JUMPDEST PUSH0 DUP1 DUP4 PUSH1 0x1F DUP5 ADD SLT PUSH2 0x1360 JUMPI PUSH2 0x135F PUSH2 0x133F JUMP JUMPDEST JUMPDEST DUP3 CALLDATALOAD SWAP1 POP PUSH8 0xFFFFFFFFFFFFFFFF DUP2 GT ISZERO PUSH2 0x137D JUMPI PUSH2 0x137C PUSH2 0x1343 JUMP JUMPDEST JUMPDEST PUSH1 0x20 DUP4 ADD SWAP2 POP DUP4 PUSH1 0x1 DUP3 MUL DUP4 ADD GT ISZERO PUSH2 0x1399 JUMPI PUSH2 0x1398 PUSH2 0x1347 JUMP JUMPDEST JUMPDEST SWAP3 POP SWAP3 SWAP1 POP JUMP JUMPDEST PUSH0 DUP1 PUSH0 DUP1 PUSH1 0x60 DUP6 DUP8 SUB SLT ISZERO PUSH2 0x13B8 JUMPI PUSH2 0x13B7 PUSH2 0xEDF JUMP JUMPDEST JUMPDEST PUSH0 DUP6 ADD CALLDATALOAD PUSH8 0xFFFFFFFFFFFFFFFF DUP2 GT ISZERO PUSH2 0x13D5 JUMPI PUSH2 0x13D4 PUSH2 0xEE3 JUMP JUMPDEST JUMPDEST PUSH2 0x13E1 DUP8 DUP3 DUP9 ADD PUSH2 0x134B JUMP JUMPDEST SWAP5 POP SWAP5 POP POP PUSH1 0x20 PUSH2 0x13F4 DUP8 DUP3 DUP9 ADD PUSH2 0x108A JUMP JUMPDEST SWAP3 POP POP PUSH1 0x40 PUSH2 0x1405 DUP8 DUP3 DUP9 ADD PUSH2 0x108A JUMP JUMPDEST SWAP2 POP POP SWAP3 SWAP6 SWAP2 SWAP5 POP SWAP3 POP JUMP JUMPDEST PUSH1 0x3 DUP2 LT PUSH2 0x141D JUMPI PUSH0 DUP1 REVERT JUMPDEST POP JUMP JUMPDEST PUSH0 DUP2 CALLDATALOAD SWAP1 POP PUSH2 0x142E DUP2 PUSH2 0x1411 JUMP JUMPDEST SWAP3 SWAP2 POP POP JUMP JUMPDEST PUSH0 DUP1 PUSH0 PUSH1 0x60 DUP5 DUP7 SUB SLT ISZERO PUSH2 0x144B JUMPI PUSH2 0x144A PUSH2 0xEDF JUMP JUMPDEST JUMPDEST PUSH0 PUSH2 0x1458 DUP7 DUP3 DUP8 ADD PUSH2 0x108A JUMP JUMPDEST SWAP4 POP POP PUSH1 0x20 PUSH2 0x1469 DUP7 DUP3 DUP8 ADD PUSH2 0x108A JUMP JUMPDEST SWAP3 POP POP PUSH1 0x40 PUSH2 0x147A DUP7 DUP3 DUP8 ADD PUSH2 0x1420 JUMP JUMPDEST SWAP2 POP POP SWAP3 POP SWAP3 POP SWAP3 JUMP JUMPDEST PUSH0 DUP1 PUSH1 0x40 DUP4 DUP6 SUB SLT ISZERO PUSH2 0x149A JUMPI PUSH2 0x1499 PUSH2 0xEDF JUMP JUMPDEST JUMPDEST PUSH0 PUSH2 0x14A7 DUP6 DUP3 DUP7 ADD PUSH2 0xF2D JUMP JUMPDEST SWAP3 POP POP PUSH1 0x20 PUSH2 0x14B8 DUP6 DUP3 DUP7 ADD PUSH2 0x108A JUMP JUMPDEST SWAP2 POP POP SWAP3 POP SWAP3 SWAP1 POP JUMP JUMPDEST PUSH32 0x4E487B7100000000000000000000000000000000000000000000000000000000 PUSH0 MSTORE PUSH1 0x22 PUSH1 0x4 MSTORE PUSH1 0x24 PUSH0 REVERT JUMPDEST PUSH0 PUSH1 0x2 DUP3 DIV SWAP1 POP PUSH1 0x1 DUP3 AND DUP1 PUSH2 0x1506 JUMPI PUSH1 0x7F DUP3 AND SWAP2 POP JUMPDEST PUSH1 0x20 DUP3 LT DUP2 SUB PUSH2 0x1519 JUMPI PUSH2 0x1518 PUSH2 0x14C2 JUMP JUMPDEST JUMPDEST POP SWAP2 SWAP1 POP JUMP JUMPDEST PUSH32 0x4F776E6572206F6E6C7900000000000000000000000000000000000000000000 PUSH0 DUP3 ADD MSTORE POP JUMP JUMPDEST PUSH0 PUSH2 0x1553 PUSH1 0xA DUP4 PUSH2 0x10F3 JUMP JUMPDEST SWAP2 POP PUSH2 0x155E DUP3 PUSH2 0x151F JUMP JUMPDEST PUSH1 0x20 DUP3 ADD SWAP1 POP SWAP2 SWAP1 POP JUMP JUMPDEST PUSH0 PUSH1 0x20 DUP3 ADD SWAP1 POP DUP2 DUP2 SUB PUSH0 DUP4 ADD MSTORE PUSH2 0x1580 DUP2 PUSH2 0x1547 JUMP JUMPDEST SWAP1 POP SWAP2 SWAP1 POP JUMP JUMPDEST PUSH32 0x5450206D75737420626520616674657220543100000000000000000000000000 PUSH0 DUP3 ADD MSTORE POP JUMP JUMPDEST PUSH0 PUSH2 0x15BB PUSH1 0x13 DUP4 PUSH2 0x10F3 JUMP JUMPDEST SWAP2 POP PUSH2 0x15C6 DUP3 PUSH2 0x1587 JUMP JUMPDEST PUSH1 0x20 DUP3 ADD SWAP1 POP SWAP2 SWAP1 POP JUMP JUMPDEST PUSH0 PUSH1 0x20 DUP3 ADD SWAP1 POP DUP2 DUP2 SUB PUSH0 DUP4 ADD MSTORE PUSH2 0x15E8 DUP2 PUSH2 0x15AF JUMP JUMPDEST SWAP1 POP SWAP2 SWAP1 POP JUMP JUMPDEST PUSH32 0x496E636F7272656374207072656D69756D2073656E7400000000000000000000 PUSH0 DUP3 ADD MSTORE POP JUMP JUMPDEST PUSH0 PUSH2 0x1623 PUSH1 0x16 DUP4 PUSH2 0x10F3 JUMP JUMPDEST SWAP2 POP PUSH2 0x162E DUP3 PUSH2 0x15EF JUMP JUMPDEST PUSH1 0x20 DUP3 ADD SWAP1 POP SWAP2 SWAP1 POP JUMP JUMPDEST PUSH0 PUSH1 0x20 DUP3 ADD SWAP1 POP DUP2 DUP2 SUB PUSH0 DUP4 ADD MSTORE PUSH2 0x1650 DUP2 PUSH2 0x1617 JUMP JUMPDEST SWAP1 POP SWAP2 SWAP1 POP JUMP JUMPDEST PUSH32 0x4E487B7100000000000000000000000000000000000000000000000000000000 PUSH0 MSTORE PUSH1 0x11 PUSH1 0x4 MSTORE PUSH1 0x24 PUSH0 REVERT JUMPDEST PUSH0 PUSH2 0x168E DUP3 PUSH2 0xF95 JUMP JUMPDEST SWAP2 POP PUSH32 0xFFFFFFFFFFFFFFFFFFFFFFFFFFFFFFFFFFFFFFFFFFFFFFFFFFFFFFFFFFFFFFFF DUP3 SUB PUSH2 0x16C0 JUMPI PUSH2 0x16BF PUSH2 0x1657 JUMP JUMPDEST JUMPDEST PUSH1 0x1 DUP3 ADD SWAP1 POP SWAP2 SWAP1 POP JUMP JUMPDEST PUSH0 DUP3 SWAP1 POP SWAP3 SWAP2 POP POP JUMP JUMPDEST PUSH32 0x4E487B7100000000000000000000000000000000000000000000000000000000 PUSH0 MSTORE PUSH1 0x41 PUSH1 0x4 MSTORE PUSH1 0x24 PUSH0 REVERT JUMPDEST PUSH0 DUP2 SWAP1 POP DUP2 PUSH0 MSTORE PUSH1 0x20 PUSH0 KECCAK256 SWAP1 POP SWAP2 SWAP1 POP JUMP JUMPDEST PUSH0 PUSH1 0x20 PUSH1 0x1F DUP4 ADD DIV SWAP1 POP SWAP2 SWAP1 POP JUMP JUMPDEST PUSH0 DUP3 DUP3 SHL SWAP1 POP SWAP3 SWAP2 POP POP JUMP JUMPDEST PUSH0 PUSH1 0x8 DUP4 MUL PUSH2 0x175E PUSH32 0xFFFFFFFFFFFFFFFFFFFFFFFFFFFFFFFFFFFFFFFFFFFFFFFFFFFFFFFFFFFFFFFF DUP3 PUSH2 0x1723 JUMP JUMPDEST PUSH2 0x1768 DUP7 DUP4 PUSH2 0x1723 JUMP JUMPDEST SWAP6 POP DUP1 NOT DUP5 AND SWAP4 POP DUP1 DUP7 AND DUP5 OR SWAP3 POP POP POP SWAP4 SWAP3 POP POP POP JUMP JUMPDEST PUSH0 DUP2 SWAP1 POP SWAP2 SWAP1 POP JUMP JUMPDEST PUSH0 PUSH2 0x17A3 PUSH2 0x179E PUSH2 0x1799 DUP5 PUSH2 0xF95 JUMP JUMPDEST PUSH2 0x1780 JUMP JUMPDEST PUSH2 0xF95 JUMP JUMPDEST SWAP1 POP SWAP2 SWAP1 POP JUMP JUMPDEST PUSH0 DUP2 SWAP1 POP SWAP2 SWAP1 POP JUMP JUMPDEST PUSH2 0x17BC DUP4 PUSH2 0x1789 JUMP JUMPDEST PUSH2 0x17D0 PUSH2 0x17C8 DUP3 PUSH2 0x17AA JUMP JUMPDEST DUP5 DUP5 SLOAD PUSH2 0x172F JUMP JUMPDEST DUP3 SSTORE POP POP POP POP JUMP JUMPDEST PUSH0 SWAP1 JUMP JUMPDEST PUSH2 0x17E4 PUSH2 0x17D8 JUMP JUMPDEST PUSH2 0x17EF DUP2 DUP5 DUP5 PUSH2 0x17B3 JUMP JUMPDEST POP POP POP JUMP JUMPDEST JUMPDEST DUP2 DUP2 LT ISZERO PUSH2 0x1812 JUMPI PUSH2 0x1807 PUSH0 DUP3 PUSH2 0x17DC JUMP JUMPDEST PUSH1 0x1 DUP2 ADD SWAP1 POP PUSH2 0x17F5 JUMP JUMPDEST POP POP JUMP JUMPDEST PUSH1 0x1F DUP3 GT ISZERO PUSH2 0x1857 JUMPI PUSH2 0x1828 DUP2 PUSH2 0x1702 JUMP JUMPDEST PUSH2 0x1831 DUP5 PUSH2 0x1714 JUMP JUMPDEST DUP2 ADD PUSH1 0x20 DUP6 LT ISZERO PUSH2 0x1840 JUMPI DUP2 SWAP1 POP JUMPDEST PUSH2 0x1854 PUSH2 0x184C DUP6 PUSH2 0x1714 JUMP JUMPDEST DUP4 ADD DUP3 PUSH2 0x17F4 JUMP JUMPDEST POP POP JUMPDEST POP POP POP JUMP JUMPDEST PUSH0 DUP3 DUP3 SHR SWAP1 POP SWAP3 SWAP2 POP POP JUMP JUMPDEST PUSH0 PUSH2 0x1877 PUSH0 NOT DUP5 PUSH1 0x8 MUL PUSH2 0x185C JUMP JUMPDEST NOT DUP1 DUP4 AND SWAP2 POP POP SWAP3 SWAP2 POP POP JUMP JUMPDEST PUSH0 PUSH2 0x188F DUP4 DUP4 PUSH2 0x1868 JUMP JUMPDEST SWAP2 POP DUP3 PUSH1 0x2 MUL DUP3 OR SWAP1 POP SWAP3 SWAP2 POP POP JUMP JUMPDEST PUSH2 0x18A9 DUP4 DUP4 PUSH2 0x16CB JUMP JUMPDEST PUSH8 0xFFFFFFFFFFFFFFFF DUP2 GT ISZERO PUSH2 0x18C2 JUMPI PUSH2 0x18C1 PUSH2 0x16D5 JUMP JUMPDEST JUMPDEST PUSH2 0x18CC DUP3 SLOAD PUSH2 0x14EF JUMP JUMPDEST PUSH2 0x18D7 DUP3 DUP3 DUP6 PUSH2 0x1816 JUMP JUMPDEST PUSH0 PUSH1 0x1F DUP4 GT PUSH1 0x1 DUP2 EQ PUSH2 0x1904 JUMPI PUSH0 DUP5 ISZERO PUSH2 0x18F2 JUMPI DUP3 DUP8 ADD CALLDATALOAD SWAP1 POP JUMPDEST PUSH2 0x18FC DUP6 DUP3 PUSH2 0x1884 JUMP JUMPDEST DUP7 SSTORE POP PUSH2 0x1963 JUMP JUMPDEST PUSH1 0x1F NOT DUP5 AND PUSH2 0x1912 DUP7 PUSH2 0x1702 JUMP JUMPDEST PUSH0 JUMPDEST DUP3 DUP2 LT ISZERO PUSH2 0x1939 JUMPI DUP5 DUP10 ADD CALLDATALOAD DUP3 SSTORE PUSH1 0x1 DUP3 ADD SWAP2 POP PUSH1 0x20 DUP6 ADD SWAP5 POP PUSH1 0x20 DUP2 ADD SWAP1 POP PUSH2 0x1914 JUMP JUMPDEST DUP7 DUP4 LT ISZERO PUSH2 0x1956 JUMPI DUP5 DUP10 ADD CALLDATALOAD PUSH2 0x1952 PUSH1 0x1F DUP10 AND DUP3 PUSH2 0x1868 JUMP JUMPDEST DUP4 SSTORE POP JUMPDEST PUSH1 0x1 PUSH1 0x2 DUP9 MUL ADD DUP9 SSTORE POP POP POP JUMPDEST POP POP POP POP POP POP POP JUMP JUMPDEST PUSH32 0x496E737572616E6365206E6F7420616374697665000000000000000000000000 PUSH0 DUP3 ADD MSTORE POP JUMP JUMPDEST PUSH0 PUSH2 0x19A0 PUSH1 0x14 DUP4 PUSH2 0x10F3 JUMP JUMPDEST SWAP2 POP PUSH2 0x19AB DUP3 PUSH2 0x196C JUMP JUMPDEST PUSH1 0x20 DUP3 ADD SWAP1 POP SWAP2 SWAP1 POP JUMP JUMPDEST PUSH0 PUSH1 0x20 DUP3 ADD SWAP1 POP DUP2 DUP2 SUB PUSH0 DUP4 ADD MSTORE PUSH2 0x19CD DUP2 PUSH2 0x1994 JUMP JUMPDEST SWAP1 POP SWAP2 SWAP1 POP JUMP JUMPDEST PUSH0 PUSH2 0x19DE DUP3 PUSH2 0xF95 JUMP JUMPDEST SWAP2 POP PUSH2 0x19E9 DUP4 PUSH2 0xF95 JUMP JUMPDEST SWAP3 POP DUP3 DUP3 ADD SWAP1 POP DUP1 DUP3 GT ISZERO PUSH2 0x1A01 JUMPI PUSH2 0x1A00 PUSH2 0x1657 JUMP JUMPDEST JUMPDEST SWAP3 SWAP2 POP POP JUMP JUMPDEST PUSH32 0x4E6F7420617574686F72697A6564000000000000000000000000000000000000 PUSH0 DUP3 ADD MSTORE POP JUMP JUMPDEST PUSH0 PUSH2 0x1A3B PUSH1 0xE DUP4 PUSH2 0x10F3 JUMP JUMPDEST SWAP2 POP PUSH2 0x1A46 DUP3 PUSH2 0x1A07 JUMP JUMPDEST PUSH1 0x20 DUP3 ADD SWAP1 POP SWAP2 SWAP1 POP JUMP JUMPDEST PUSH0 PUSH1 0x20 DUP3 ADD SWAP1 POP DUP2 DUP2 SUB PUSH0 DUP4 ADD MSTORE PUSH2 0x1A68 DUP2 PUSH2 0x1A2F JUMP JUMPDEST SWAP1 POP SWAP2 SWAP1 POP JUMP JUMPDEST PUSH0 PUSH1 0x40 DUP3 ADD SWAP1 POP PUSH2 0x1A82 PUSH0 DUP4 ADD DUP6 PUSH2 0x104C JUMP JUMPDEST PUSH2 0x1A8F PUSH1 0x20 DUP4 ADD DUP5 PUSH2 0x1249 JUMP JUMPDEST SWAP4 SWAP3 POP POP POP JUMP INVALID LOG2 PUSH5 0x6970667358 0x22 SLT KECCAK256 CREATE2 CALL PUSH3 0x908007 0xC5 SGT 0xB1 ADDMOD 0xB9 GASPRICE 0xE8 PUSH4 0x42071D26 0xD6 MSTORE PUSH4 0xE196664F LOG4 PUSH31 0x28279289E064736F6C634300081A0033000000000000000000000000000000 "
				},
				"gasEstimates": {
					"creation": {
						"codeDepositCost": "1372000",
						"executionCost": "infinite",
						"totalCost": "infinite"
					},
					"external": {
						"": "217",
						"DEFAULT_CLAIM()": "348",
						"DEFAULT_CT()": "413",
						"DEFAULT_PREMIUM()": "435",
						"checkAndClaim(uint256)": "infinite",
						"createInsurance(string,uint256,uint256)": "infinite",
						"customerInsurances(address,uint256)": "infinite",
						"getInsurancesByCustomer(address)": "infinite",
						"insurances(uint256)": "infinite",
						"oracle()": "2597",
						"owner()": "2527",
						"setOracle(address)": "26948",
						"updateFlightInfo(uint256,uint256,uint8)": "infinite"
					}
				},
				"methodIdentifiers": {
					"DEFAULT_CLAIM()": "31b2a52a",
					"DEFAULT_CT()": "e6cf0653",
					"DEFAULT_PREMIUM()": "ee6a1a8d",
					"checkAndClaim(uint256)": "8d6eb55c",
					"createInsurance(string,uint256,uint256)": "8812b680",
					"customerInsurances(address,uint256)": "ba7b6e4f",
					"getInsurancesByCustomer(address)": "1f11d58c",
					"insurances(uint256)": "59fb49f9",
					"oracle()": "7dc0d1d0",
					"owner()": "8da5cb5b",
					"setOracle(address)": "7adbf973",
					"updateFlightInfo(uint256,uint256,uint8)": "9f62eb82"
				}
			},
			"storageLayout": {
				"storage": [
					{
						"astId": 5,
						"contract": ".deps/contract.sol:FlightDelayInsurance",
						"label": "owner",
						"offset": 0,
						"slot": "0",
						"type": "t_address"
					},
					{
						"astId": 8,
						"contract": ".deps/contract.sol:FlightDelayInsurance",
						"label": "oracle",
						"offset": 0,
						"slot": "1",
						"type": "t_address"
					},
					{
						"astId": 64,
						"contract": ".deps/contract.sol:FlightDelayInsurance",
						"label": "nextInsuranceId",
						"offset": 0,
						"slot": "2",
						"type": "t_uint256"
					},
					{
						"astId": 69,
						"contract": ".deps/contract.sol:FlightDelayInsurance",
						"label": "insurances",
						"offset": 0,
						"slot": "3",
						"type": "t_mapping(t_uint256,t_struct(Insurance)51_storage)"
					},
					{
						"astId": 74,
						"contract": ".deps/contract.sol:FlightDelayInsurance",
						"label": "customerInsurances",
						"offset": 0,
						"slot": "4",
						"type": "t_mapping(t_address,t_array(t_uint256)dyn_storage)"
					}
				],
				"types": {
					"t_address": {
						"encoding": "inplace",
						"label": "address",
						"numberOfBytes": "20"
					},
					"t_address_payable": {
						"encoding": "inplace",
						"label": "address payable",
						"numberOfBytes": "20"
					},
					"t_array(t_uint256)dyn_storage": {
						"base": "t_uint256",
						"encoding": "dynamic_array",
						"label": "uint256[]",
						"numberOfBytes": "32"
					},
					"t_enum(ClaimStatus)18": {
						"encoding": "inplace",
						"label": "enum FlightDelayInsurance.ClaimStatus",
						"numberOfBytes": "1"
					},
					"t_enum(FlightStatus)23": {
						"encoding": "inplace",
						"label": "enum FlightDelayInsurance.FlightStatus",
						"numberOfBytes": "1"
					},
					"t_enum(Status)13": {
						"encoding": "inplace",
						"label": "enum FlightDelayInsurance.Status",
						"numberOfBytes": "1"
					},
					"t_mapping(t_address,t_array(t_uint256)dyn_storage)": {
						"encoding": "mapping",
						"key": "t_address",
						"label": "mapping(address => uint256[])",
						"numberOfBytes": "32",
						"value": "t_array(t_uint256)dyn_storage"
					},
					"t_mapping(t_uint256,t_struct(Insurance)51_storage)": {
						"encoding": "mapping",
						"key": "t_uint256",
						"label": "mapping(uint256 => struct FlightDelayInsurance.Insurance)",
						"numberOfBytes": "32",
						"value": "t_struct(Insurance)51_storage"
					},
					"t_string_storage": {
						"encoding": "bytes",
						"label": "string",
						"numberOfBytes": "32"
					},
					"t_struct(Insurance)51_storage": {
						"encoding": "inplace",
						"label": "struct FlightDelayInsurance.Insurance",
						"members": [
							{
								"astId": 25,
								"contract": ".deps/contract.sol:FlightDelayInsurance",
								"label": "customer",
								"offset": 0,
								"slot": "0",
								"type": "t_address_payable"
							},
							{
								"astId": 27,
								"contract": ".deps/contract.sol:FlightDelayInsurance",
								"label": "flightCode",
								"offset": 0,
								"slot": "1",
								"type": "t_string_storage"
							},
							{
								"astId": 29,
								"contract": ".deps/contract.sol:FlightDelayInsurance",
								"label": "T1",
								"offset": 0,
								"slot": "2",
								"type": "t_uint256"
							},
							{
								"astId": 31,
								"contract": ".deps/contract.sol:FlightDelayInsurance",
								"label": "TP",
								"offset": 0,
								"slot": "3",
								"type": "t_uint256"
							},
							{
								"astId": 33,
								"contract": ".deps/contract.sol:FlightDelayInsurance",
								"label": "TA",
								"offset": 0,
								"slot": "4",
								"type": "t_uint256"
							},
							{
								"astId": 35,
								"contract": ".deps/contract.sol:FlightDelayInsurance",
								"label": "T",
								"offset": 0,
								"slot": "5",
								"type": "t_uint256"
							},
							{
								"astId": 37,
								"contract": ".deps/contract.sol:FlightDelayInsurance",
								"label": "CT",
								"offset": 0,
								"slot": "6",
								"type": "t_uint256"
							},
							{
								"astId": 39,
								"contract": ".deps/contract.sol:FlightDelayInsurance",
								"label": "premium",
								"offset": 0,
								"slot": "7",
								"type": "t_uint256"
							},
							{
								"astId": 41,
								"contract": ".deps/contract.sol:FlightDelayInsurance",
								"label": "claimAmount",
								"offset": 0,
								"slot": "8",
								"type": "t_uint256"
							},
							{
								"astId": 44,
								"contract": ".deps/contract.sol:FlightDelayInsurance",
								"label": "status",
								"offset": 0,
								"slot": "9",
								"type": "t_enum(Status)13"
							},
							{
								"astId": 47,
								"contract": ".deps/contract.sol:FlightDelayInsurance",
								"label": "claimStatus",
								"offset": 1,
								"slot": "9",
								"type": "t_enum(ClaimStatus)18"
							},
							{
								"astId": 50,
								"contract": ".deps/contract.sol:FlightDelayInsurance",
								"label": "flightStatus",
								"offset": 2,
								"slot": "9",
								"type": "t_enum(FlightStatus)23"
							}
						],
						"numberOfBytes": "320"
					},
					"t_uint256": {
						"encoding": "inplace",
						"label": "uint256",
						"numberOfBytes": "32"
					}
				}
			},
			"userdoc": {
				"kind": "user",
				"methods": {
					"checkAndClaim(uint256)": {
						"notice": "Check conditions and optionally pay out"
					},
					"createInsurance(string,uint256,uint256)": {
						"notice": "Buy a new insurance"
					},
					"getInsurancesByCustomer(address)": {
						"notice": "Get list of insurance IDs for a customer"
					},
					"setOracle(address)": {
						"notice": "Change the oracle address"
					},
					"updateFlightInfo(uint256,uint256,uint8)": {
						"notice": "Update actual arrival and flight status (via oracle)"
					}
				},
				"notice": "Simple on-chain insurance contract: pays out if flight arrives more than CT seconds late",
				"version": 1
			}
		}
	}
}