{
	".deps/auto_contract.sol": {
		"FlightDelayInsurance": {
			"abi": [
				{
					"inputs": [
						{
							"internalType": "address",
							"name": "_oracle",
							"type": "address"
						}
					],
					"stateMutability": "nonpayable",
					"type": "constructor"
				},
				{
					"anonymous": false,
					"inputs": [
						{
							"indexed": true,
							"internalType": "uint256",
							"name": "insuranceID",
							"type": "uint256"
						}
					],
					"name": "CheckedAwaitData",
					"type": "event"
				},
				{
					"anonymous": false,
					"inputs": [
						{
							"indexed": true,
							"internalType": "uint256",
							"name": "insuranceID",
							"type": "uint256"
						}
					],
					"name": "CheckedNotReady",
					"type": "event"
				},
				{
					"anonymous": false,
					"inputs": [
						{
							"indexed": true,
							"internalType": "uint256",
							"name": "insuranceID",
							"type": "uint256"
						},
						{
							"indexed": false,
							"internalType": "uint256",
							"name": "amount",
							"type": "uint256"
						}
					],
					"name": "ClaimPaid",
					"type": "event"
				},
				{
					"anonymous": false,
					"inputs": [
						{
							"indexed": true,
							"internalType": "uint256",
							"name": "insuranceID",
							"type": "uint256"
						},
						{
							"indexed": false,
							"internalType": "uint256",
							"name": "TA",
							"type": "uint256"
						},
						{
							"indexed": false,
							"internalType": "enum FlightDelayInsurance.FlightStatus",
							"name": "flightStatus",
							"type": "uint8"
						}
					],
					"name": "FlightInfoUpdated",
					"type": "event"
				},
				{
					"anonymous": false,
					"inputs": [
						{
							"indexed": true,
							"internalType": "uint256",
							"name": "insuranceID",
							"type": "uint256"
						},
						{
							"indexed": true,
							"internalType": "address",
							"name": "customer",
							"type": "address"
						}
					],
					"name": "InsuranceCreated",
					"type": "event"
				},
				{
					"anonymous": false,
					"inputs": [
						{
							"indexed": true,
							"internalType": "uint256",
							"name": "insuranceID",
							"type": "uint256"
						},
						{
							"indexed": false,
							"internalType": "string",
							"name": "flightCode",
							"type": "string"
						}
					],
					"name": "NeedFlightData",
					"type": "event"
				},
				{
					"anonymous": false,
					"inputs": [
						{
							"indexed": true,
							"internalType": "uint256",
							"name": "insuranceID",
							"type": "uint256"
						}
					],
					"name": "TerminatedNoClaim",
					"type": "event"
				},
				{
					"anonymous": false,
					"inputs": [
						{
							"indexed": true,
							"internalType": "uint256",
							"name": "insuranceID",
							"type": "uint256"
						}
					],
					"name": "TerminatedNoData",
					"type": "event"
				},
				{
					"anonymous": false,
					"inputs": [
						{
							"indexed": true,
							"internalType": "uint256",
							"name": "insuranceID",
							"type": "uint256"
						}
					],
					"name": "TerminatedOnTime",
					"type": "event"
				},
				{
					"stateMutability": "payable",
					"type": "fallback"
				},
				{
					"inputs": [],
					"name": "AUTOMATION_INTERVAL",
					"outputs": [
						{
							"internalType": "uint256",
							"name": "",
							"type": "uint256"
						}
					],
					"stateMutability": "view",
					"type": "function"
				},
				{
					"inputs": [],
					"name": "DEFAULT_CLAIM",
					"outputs": [
						{
							"internalType": "uint256",
							"name": "",
							"type": "uint256"
						}
					],
					"stateMutability": "view",
					"type": "function"
				},
				{
					"inputs": [],
					"name": "DEFAULT_CT",
					"outputs": [
						{
							"internalType": "uint256",
							"name": "",
							"type": "uint256"
						}
					],
					"stateMutability": "view",
					"type": "function"
				},
				{
					"inputs": [],
					"name": "DEFAULT_PREMIUM",
					"outputs": [
						{
							"internalType": "uint256",
							"name": "",
							"type": "uint256"
						}
					],
					"stateMutability": "view",
					"type": "function"
				},
				{
					"inputs": [
						{
							"internalType": "uint256",
							"name": "insuranceID",
							"type": "uint256"
						}
					],
					"name": "checkAndClaim",
					"outputs": [],
					"stateMutability": "nonpayable",
					"type": "function"
				},
				{
					"inputs": [
						{
							"internalType": "bytes",
							"name": "",
							"type": "bytes"
						}
					],
					"name": "checkUpkeep",
					"outputs": [
						{
							"internalType": "bool",
							"name": "upkeepNeeded",
							"type": "bool"
						},
						{
							"internalType": "bytes",
							"name": "performData",
							"type": "bytes"
						}
					],
					"stateMutability": "view",
					"type": "function"
				},
				{
					"inputs": [
						{
							"internalType": "string",
							"name": "flightCode",
							"type": "string"
						},
						{
							"internalType": "uint256",
							"name": "T1",
							"type": "uint256"
						},
						{
							"internalType": "uint256",
							"name": "TP",
							"type": "uint256"
						}
					],
					"name": "createInsurance",
					"outputs": [
						{
							"internalType": "uint256",
							"name": "insuranceID",
							"type": "uint256"
						}
					],
					"stateMutability": "payable",
					"type": "function"
				},
				{
					"inputs": [
						{
							"internalType": "address",
							"name": "",
							"type": "address"
						},
						{
							"internalType": "uint256",
							"name": "",
							"type": "uint256"
						}
					],
					"name": "customerInsurances",
					"outputs": [
						{
							"internalType": "uint256",
							"name": "",
							"type": "uint256"
						}
					],
					"stateMutability": "view",
					"type": "function"
				},
				{
					"inputs": [
						{
							"internalType": "address",
							"name": "customer",
							"type": "address"
						}
					],
					"name": "getInsurancesByCustomer",
					"outputs": [
						{
							"internalType": "uint256[]",
							"name": "",
							"type": "uint256[]"
						}
					],
					"stateMutability": "view",
					"type": "function"
				},
				{
					"inputs": [
						{
							"internalType": "uint256",
							"name": "",
							"type": "uint256"
						}
					],
					"name": "insurances",
					"outputs": [
						{
							"internalType": "address payable",
							"name": "customer",
							"type": "address"
						},
						{
							"internalType": "string",
							"name": "flightCode",
							"type": "string"
						},
						{
							"internalType": "uint256",
							"name": "T1",
							"type": "uint256"
						},
						{
							"internalType": "uint256",
							"name": "TP",
							"type": "uint256"
						},
						{
							"internalType": "uint256",
							"name": "TA",
							"type": "uint256"
						},
						{
							"internalType": "uint256",
							"name": "T",
							"type": "uint256"
						},
						{
							"internalType": "uint256",
							"name": "CT",
							"type": "uint256"
						},
						{
							"internalType": "uint256",
							"name": "premium",
							"type": "uint256"
						},
						{
							"internalType": "uint256",
							"name": "claimAmount",
							"type": "uint256"
						},
						{
							"internalType": "enum FlightDelayInsurance.Status",
							"name": "status",
							"type": "uint8"
						},
						{
							"internalType": "enum FlightDelayInsurance.ClaimStatus",
							"name": "claimStatus",
							"type": "uint8"
						},
						{
							"internalType": "enum FlightDelayInsurance.FlightStatus",
							"name": "flightStatus",
							"type": "uint8"
						}
					],
					"stateMutability": "view",
					"type": "function"
				},
				{
					"inputs": [],
					"name": "lastAutomationTime",
					"outputs": [
						{
							"internalType": "uint256",
							"name": "",
							"type": "uint256"
						}
					],
					"stateMutability": "view",
					"type": "function"
				},
				{
					"inputs": [],
					"name": "oracle",
					"outputs": [
						{
							"internalType": "address",
							"name": "",
							"type": "address"
						}
					],
					"stateMutability": "view",
					"type": "function"
				},
				{
					"inputs": [],
					"name": "owner",
					"outputs": [
						{
							"internalType": "address",
							"name": "",
							"type": "address"
						}
					],
					"stateMutability": "view",
					"type": "function"
				},
				{
					"inputs": [
						{
							"internalType": "bytes",
							"name": "",
							"type": "bytes"
						}
					],
					"name": "performUpkeep",
					"outputs": [],
					"stateMutability": "nonpayable",
					"type": "function"
				},
				{
					"inputs": [
						{
							"internalType": "address",
							"name": "_oracle",
							"type": "address"
						}
					],
					"name": "setOracle",
					"outputs": [],
					"stateMutability": "nonpayable",
					"type": "function"
				},
				{
					"inputs": [
						{
							"internalType": "uint256",
							"name": "insuranceID",
							"type": "uint256"
						},
						{
							"internalType": "uint256",
							"name": "TA",
							"type": "uint256"
						},
						{
							"internalType": "enum FlightDelayInsurance.FlightStatus",
							"name": "flightStatus",
							"type": "uint8"
						}
					],
					"name": "updateFlightInfo",
					"outputs": [],
					"stateMutability": "nonpayable",
					"type": "function"
				},
				{
					"inputs": [],
					"name": "withdraw",
					"outputs": [],
					"stateMutability": "nonpayable",
					"type": "function"
				},
				{
					"stateMutability": "payable",
					"type": "receive"
				}
			],
			"devdoc": {
				"kind": "dev",
				"methods": {},
				"title": "Flight Delay Insurance",
				"version": 1
			},
			"evm": {
				"assembly": "    /* \".deps/auto_contract.sol\":443:8813  contract FlightDelayInsurance is KeeperCompatibleInterface {... */\n  mstore(0x40, 0x80)\n    /* \".deps/auto_contract.sol\":3342:3433  constructor(address _oracle) {... */\n  callvalue\n  dup1\n  iszero\n  tag_1\n  jumpi\n  0x00\n  dup1\n  revert\ntag_1:\n  pop\n  mload(0x40)\n  sub(codesize, bytecodeSize)\n  dup1\n  bytecodeSize\n  dup4\n  codecopy\n  dup2\n  dup2\n  add\n  0x40\n  mstore\n  dup2\n  add\n  swap1\n  tag_2\n  swap2\n  swap1\n  tag_3\n  jump\t// in\ntag_2:\n    /* \".deps/auto_contract.sol\":3390:3400  msg.sender */\n  caller\n    /* \".deps/auto_contract.sol\":3381:3386  owner */\n  0x00\n  dup1\n    /* \".deps/auto_contract.sol\":3381:3400  owner  = msg.sender */\n  0x0100\n  exp\n  dup2\n  sload\n  dup2\n  0xffffffffffffffffffffffffffffffffffffffff\n  mul\n  not\n  and\n  swap1\n  dup4\n  0xffffffffffffffffffffffffffffffffffffffff\n  and\n  mul\n  or\n  swap1\n  sstore\n  pop\n    /* \".deps/auto_contract.sol\":3419:3426  _oracle */\n  dup1\n    /* \".deps/auto_contract.sol\":3410:3416  oracle */\n  0x01\n  0x00\n    /* \".deps/auto_contract.sol\":3410:3426  oracle = _oracle */\n  0x0100\n  exp\n  dup2\n  sload\n  dup2\n  0xffffffffffffffffffffffffffffffffffffffff\n  mul\n  not\n  and\n  swap1\n  dup4\n  0xffffffffffffffffffffffffffffffffffffffff\n  and\n  mul\n  or\n  swap1\n  sstore\n  pop\n    /* \".deps/auto_contract.sol\":3342:3433  constructor(address _oracle) {... */\n  pop\n    /* \".deps/auto_contract.sol\":443:8813  contract FlightDelayInsurance is KeeperCompatibleInterface {... */\n  jump(tag_6)\n    /* \"#utility.yul\":88:205   */\ntag_8:\n    /* \"#utility.yul\":197:198   */\n  0x00\n    /* \"#utility.yul\":194:195   */\n  dup1\n    /* \"#utility.yul\":187:199   */\n  revert\n    /* \"#utility.yul\":334:460   */\ntag_10:\n    /* \"#utility.yul\":371:378   */\n  0x00\n    /* \"#utility.yul\":411:453   */\n  0xffffffffffffffffffffffffffffffffffffffff\n    /* \"#utility.yul\":404:409   */\n  dup3\n    /* \"#utility.yul\":400:454   */\n  and\n    /* \"#utility.yul\":389:454   */\n  swap1\n  pop\n    /* \"#utility.yul\":334:460   */\n  swap2\n  swap1\n  pop\n  jump\t// out\n    /* \"#utility.yul\":466:562   */\ntag_11:\n    /* \"#utility.yul\":503:510   */\n  0x00\n    /* \"#utility.yul\":532:556   */\n  tag_20\n    /* \"#utility.yul\":550:555   */\n  dup3\n    /* \"#utility.yul\":532:556   */\n  tag_10\n  jump\t// in\ntag_20:\n    /* \"#utility.yul\":521:556   */\n  swap1\n  pop\n    /* \"#utility.yul\":466:562   */\n  swap2\n  swap1\n  pop\n  jump\t// out\n    /* \"#utility.yul\":568:690   */\ntag_12:\n    /* \"#utility.yul\":641:665   */\n  tag_22\n    /* \"#utility.yul\":659:664   */\n  dup2\n    /* \"#utility.yul\":641:665   */\n  tag_11\n  jump\t// in\ntag_22:\n    /* \"#utility.yul\":634:639   */\n  dup2\n    /* \"#utility.yul\":631:666   */\n  eq\n    /* \"#utility.yul\":621:684   */\n  tag_23\n  jumpi\n    /* \"#utility.yul\":680:681   */\n  0x00\n    /* \"#utility.yul\":677:678   */\n  dup1\n    /* \"#utility.yul\":670:682   */\n  revert\n    /* \"#utility.yul\":621:684   */\ntag_23:\n    /* \"#utility.yul\":568:690   */\n  pop\n  jump\t// out\n    /* \"#utility.yul\":696:839   */\ntag_13:\n    /* \"#utility.yul\":753:758   */\n  0x00\n    /* \"#utility.yul\":784:790   */\n  dup2\n    /* \"#utility.yul\":778:791   */\n  mload\n    /* \"#utility.yul\":769:791   */\n  swap1\n  pop\n    /* \"#utility.yul\":800:833   */\n  tag_25\n    /* \"#utility.yul\":827:832   */\n  dup2\n    /* \"#utility.yul\":800:833   */\n  tag_12\n  jump\t// in\ntag_25:\n    /* \"#utility.yul\":696:839   */\n  swap3\n  swap2\n  pop\n  pop\n  jump\t// out\n    /* \"#utility.yul\":845:1196   */\ntag_3:\n    /* \"#utility.yul\":915:921   */\n  0x00\n    /* \"#utility.yul\":964:966   */\n  0x20\n    /* \"#utility.yul\":952:961   */\n  dup3\n    /* \"#utility.yul\":943:950   */\n  dup5\n    /* \"#utility.yul\":939:962   */\n  sub\n    /* \"#utility.yul\":935:967   */\n  slt\n    /* \"#utility.yul\":932:1051   */\n  iszero\n  tag_27\n  jumpi\n    /* \"#utility.yul\":970:1049   */\n  tag_28\n  tag_8\n  jump\t// in\ntag_28:\n    /* \"#utility.yul\":932:1051   */\ntag_27:\n    /* \"#utility.yul\":1090:1091   */\n  0x00\n    /* \"#utility.yul\":1115:1179   */\n  tag_29\n    /* \"#utility.yul\":1171:1178   */\n  dup5\n    /* \"#utility.yul\":1162:1168   */\n  dup3\n    /* \"#utility.yul\":1151:1160   */\n  dup6\n    /* \"#utility.yul\":1147:1169   */\n  add\n    /* \"#utility.yul\":1115:1179   */\n  tag_13\n  jump\t// in\ntag_29:\n    /* \"#utility.yul\":1105:1179   */\n  swap2\n  pop\n    /* \"#utility.yul\":1061:1189   */\n  pop\n    /* \"#utility.yul\":845:1196   */\n  swap3\n  swap2\n  pop\n  pop\n  jump\t// out\n    /* \".deps/auto_contract.sol\":443:8813  contract FlightDelayInsurance is KeeperCompatibleInterface {... */\ntag_6:\n  dataSize(sub_0)\n  dup1\n  dataOffset(sub_0)\n  0x00\n  codecopy\n  0x00\n  return\nstop\n\nsub_0: assembly {\n        /* \".deps/auto_contract.sol\":443:8813  contract FlightDelayInsurance is KeeperCompatibleInterface {... */\n      mstore(0x40, 0x80)\n      jumpi(tag_1, lt(calldatasize, 0x04))\n      shr(0xe0, calldataload(0x00))\n      dup1\n      0x7adbf973\n      gt\n      tag_20\n      jumpi\n      dup1\n      0x8da5cb5b\n      gt\n      tag_21\n      jumpi\n      dup1\n      0x8da5cb5b\n      eq\n      tag_15\n      jumpi\n      dup1\n      0x9f62eb82\n      eq\n      tag_16\n      jumpi\n      dup1\n      0xba7b6e4f\n      eq\n      tag_17\n      jumpi\n      dup1\n      0xe6cf0653\n      eq\n      tag_18\n      jumpi\n      dup1\n      0xee6a1a8d\n      eq\n      tag_19\n      jumpi\n      jump(tag_2)\n    tag_21:\n      dup1\n      0x7adbf973\n      eq\n      tag_11\n      jumpi\n      dup1\n      0x7dc0d1d0\n      eq\n      tag_12\n      jumpi\n      dup1\n      0x8812b680\n      eq\n      tag_13\n      jumpi\n      dup1\n      0x8d6eb55c\n      eq\n      tag_14\n      jumpi\n      jump(tag_2)\n    tag_20:\n      dup1\n      0x507b1e4e\n      gt\n      tag_22\n      jumpi\n      dup1\n      0x507b1e4e\n      eq\n      tag_7\n      jumpi\n      dup1\n      0x511671ee\n      eq\n      tag_8\n      jumpi\n      dup1\n      0x59fb49f9\n      eq\n      tag_9\n      jumpi\n      dup1\n      0x6e04ff0d\n      eq\n      tag_10\n      jumpi\n      jump(tag_2)\n    tag_22:\n      dup1\n      0x1f11d58c\n      eq\n      tag_3\n      jumpi\n      dup1\n      0x31b2a52a\n      eq\n      tag_4\n      jumpi\n      dup1\n      0x3ccfd60b\n      eq\n      tag_5\n      jumpi\n      dup1\n      0x4585e33b\n      eq\n      tag_6\n      jumpi\n      jump(tag_2)\n    tag_1:\n      jumpi(tag_2, calldatasize)\n      stop\n    tag_2:\n      stop\n        /* \".deps/auto_contract.sol\":8393:8565  function getInsurancesByCustomer(address customer)... */\n    tag_3:\n      callvalue\n      dup1\n      iszero\n      tag_27\n      jumpi\n      0x00\n      dup1\n      revert\n    tag_27:\n      pop\n      tag_28\n      0x04\n      dup1\n      calldatasize\n      sub\n      dup2\n      add\n      swap1\n      tag_29\n      swap2\n      swap1\n      tag_30\n      jump\t// in\n    tag_29:\n      tag_31\n      jump\t// in\n    tag_28:\n      mload(0x40)\n      tag_32\n      swap2\n      swap1\n      tag_33\n      jump\t// in\n    tag_32:\n      mload(0x40)\n      dup1\n      swap2\n      sub\n      swap1\n      return\n        /* \".deps/auto_contract.sol\":1592:1641  uint256 public constant DEFAULT_CLAIM  = 6000 wei */\n    tag_4:\n      callvalue\n      dup1\n      iszero\n      tag_34\n      jumpi\n      0x00\n      dup1\n      revert\n    tag_34:\n      pop\n      tag_35\n      tag_36\n      jump\t// in\n    tag_35:\n      mload(0x40)\n      tag_37\n      swap2\n      swap1\n      tag_38\n      jump\t// in\n    tag_37:\n      mload(0x40)\n      dup1\n      swap2\n      sub\n      swap1\n      return\n        /* \".deps/auto_contract.sol\":8571:8741  function withdraw() external onlyOwner {... */\n    tag_5:\n      callvalue\n      dup1\n      iszero\n      tag_39\n      jumpi\n      0x00\n      dup1\n      revert\n    tag_39:\n      pop\n      tag_40\n      tag_41\n      jump\t// in\n    tag_40:\n      stop\n        /* \".deps/auto_contract.sol\":7770:8198  function performUpkeep(bytes calldata) external override {... */\n    tag_6:\n      callvalue\n      dup1\n      iszero\n      tag_42\n      jumpi\n      0x00\n      dup1\n      revert\n    tag_42:\n      pop\n      tag_43\n      0x04\n      dup1\n      calldatasize\n      sub\n      dup2\n      add\n      swap1\n      tag_44\n      swap2\n      swap1\n      tag_45\n      jump\t// in\n    tag_44:\n      tag_46\n      jump\t// in\n    tag_43:\n      stop\n        /* \".deps/auto_contract.sol\":1853:1906  uint256 public constant AUTOMATION_INTERVAL = 1 hours */\n    tag_7:\n      callvalue\n      dup1\n      iszero\n      tag_47\n      jumpi\n      0x00\n      dup1\n      revert\n    tag_47:\n      pop\n      tag_48\n      tag_49\n      jump\t// in\n    tag_48:\n      mload(0x40)\n      tag_50\n      swap2\n      swap1\n      tag_38\n      jump\t// in\n    tag_50:\n      mload(0x40)\n      dup1\n      swap2\n      sub\n      swap1\n      return\n        /* \".deps/auto_contract.sol\":1814:1847  uint256 public lastAutomationTime */\n    tag_8:\n      callvalue\n      dup1\n      iszero\n      tag_51\n      jumpi\n      0x00\n      dup1\n      revert\n    tag_51:\n      pop\n      tag_52\n      tag_53\n      jump\t// in\n    tag_52:\n      mload(0x40)\n      tag_54\n      swap2\n      swap1\n      tag_38\n      jump\t// in\n    tag_54:\n      mload(0x40)\n      dup1\n      swap2\n      sub\n      swap1\n      return\n        /* \".deps/auto_contract.sol\":1685:1739  mapping(uint256 => Insurance)        public insurances */\n    tag_9:\n      callvalue\n      dup1\n      iszero\n      tag_55\n      jumpi\n      0x00\n      dup1\n      revert\n    tag_55:\n      pop\n      tag_56\n      0x04\n      dup1\n      calldatasize\n      sub\n      dup2\n      add\n      swap1\n      tag_57\n      swap2\n      swap1\n      tag_58\n      jump\t// in\n    tag_57:\n      tag_59\n      jump\t// in\n    tag_56:\n      mload(0x40)\n      tag_60\n      swap13\n      swap12\n      swap11\n      swap10\n      swap9\n      swap8\n      swap7\n      swap6\n      swap5\n      swap4\n      swap3\n      swap2\n      swap1\n      tag_61\n      jump\t// in\n    tag_60:\n      mload(0x40)\n      dup1\n      swap2\n      sub\n      swap1\n      return\n        /* \".deps/auto_contract.sol\":7494:7764  function checkUpkeep(bytes calldata)... */\n    tag_10:\n      callvalue\n      dup1\n      iszero\n      tag_62\n      jumpi\n      0x00\n      dup1\n      revert\n    tag_62:\n      pop\n      tag_63\n      0x04\n      dup1\n      calldatasize\n      sub\n      dup2\n      add\n      swap1\n      tag_64\n      swap2\n      swap1\n      tag_45\n      jump\t// in\n    tag_64:\n      tag_65\n      jump\t// in\n    tag_63:\n      mload(0x40)\n      tag_66\n      swap3\n      swap2\n      swap1\n      tag_67\n      jump\t// in\n    tag_66:\n      mload(0x40)\n      dup1\n      swap2\n      sub\n      swap1\n      return\n        /* \".deps/auto_contract.sol\":3439:3527  function setOracle(address _oracle) external onlyOwner {... */\n    tag_11:\n      callvalue\n      dup1\n      iszero\n      tag_68\n      jumpi\n      0x00\n      dup1\n      revert\n    tag_68:\n      pop\n      tag_69\n      0x04\n      dup1\n      calldatasize\n      sub\n      dup2\n      add\n      swap1\n      tag_70\n      swap2\n      swap1\n      tag_30\n      jump\t// in\n    tag_70:\n      tag_71\n      jump\t// in\n    tag_69:\n      stop\n        /* \".deps/auto_contract.sol\":718:739  address public oracle */\n    tag_12:\n      callvalue\n      dup1\n      iszero\n      tag_72\n      jumpi\n      0x00\n      dup1\n      revert\n    tag_72:\n      pop\n      tag_73\n      tag_74\n      jump\t// in\n    tag_73:\n      mload(0x40)\n      tag_75\n      swap2\n      swap1\n      tag_76\n      jump\t// in\n    tag_75:\n      mload(0x40)\n      dup1\n      swap2\n      sub\n      swap1\n      return\n        /* \".deps/auto_contract.sol\":3725:4754  function createInsurance(... */\n    tag_13:\n      tag_77\n      0x04\n      dup1\n      calldatasize\n      sub\n      dup2\n      add\n      swap1\n      tag_78\n      swap2\n      swap1\n      tag_79\n      jump\t// in\n    tag_78:\n      tag_80\n      jump\t// in\n    tag_77:\n      mload(0x40)\n      tag_81\n      swap2\n      swap1\n      tag_38\n      jump\t// in\n    tag_81:\n      mload(0x40)\n      dup1\n      swap2\n      sub\n      swap1\n      return\n        /* \".deps/auto_contract.sol\":5488:7297  function checkAndClaim(uint256 insuranceID) public {... */\n    tag_14:\n      callvalue\n      dup1\n      iszero\n      tag_82\n      jumpi\n      0x00\n      dup1\n      revert\n    tag_82:\n      pop\n      tag_83\n      0x04\n      dup1\n      calldatasize\n      sub\n      dup2\n      add\n      swap1\n      tag_84\n      swap2\n      swap1\n      tag_58\n      jump\t// in\n    tag_84:\n      tag_85\n      jump\t// in\n    tag_83:\n      stop\n        /* \".deps/auto_contract.sol\":692:712  address public owner */\n    tag_15:\n      callvalue\n      dup1\n      iszero\n      tag_86\n      jumpi\n      0x00\n      dup1\n      revert\n    tag_86:\n      pop\n      tag_87\n      tag_88\n      jump\t// in\n    tag_87:\n      mload(0x40)\n      tag_89\n      swap2\n      swap1\n      tag_76\n      jump\t// in\n    tag_89:\n      mload(0x40)\n      dup1\n      swap2\n      sub\n      swap1\n      return\n        /* \".deps/auto_contract.sol\":4832:5253  function updateFlightInfo(... */\n    tag_16:\n      callvalue\n      dup1\n      iszero\n      tag_90\n      jumpi\n      0x00\n      dup1\n      revert\n    tag_90:\n      pop\n      tag_91\n      0x04\n      dup1\n      calldatasize\n      sub\n      dup2\n      add\n      swap1\n      tag_92\n      swap2\n      swap1\n      tag_93\n      jump\t// in\n    tag_92:\n      tag_94\n      jump\t// in\n    tag_91:\n      stop\n        /* \".deps/auto_contract.sol\":1745:1807  mapping(address  => uint256[])       public customerInsurances */\n    tag_17:\n      callvalue\n      dup1\n      iszero\n      tag_95\n      jumpi\n      0x00\n      dup1\n      revert\n    tag_95:\n      pop\n      tag_96\n      0x04\n      dup1\n      calldatasize\n      sub\n      dup2\n      add\n      swap1\n      tag_97\n      swap2\n      swap1\n      tag_98\n      jump\t// in\n    tag_97:\n      tag_99\n      jump\t// in\n    tag_96:\n      mload(0x40)\n      tag_100\n      swap2\n      swap1\n      tag_38\n      jump\t// in\n    tag_100:\n      mload(0x40)\n      dup1\n      swap2\n      sub\n      swap1\n      return\n        /* \".deps/auto_contract.sol\":1482:1532  uint256 public constant DEFAULT_CT     = 4 minutes */\n    tag_18:\n      callvalue\n      dup1\n      iszero\n      tag_101\n      jumpi\n      0x00\n      dup1\n      revert\n    tag_101:\n      pop\n      tag_102\n      tag_103\n      jump\t// in\n    tag_102:\n      mload(0x40)\n      tag_104\n      swap2\n      swap1\n      tag_38\n      jump\t// in\n    tag_104:\n      mload(0x40)\n      dup1\n      swap2\n      sub\n      swap1\n      return\n        /* \".deps/auto_contract.sol\":1538:1586  uint256 public constant DEFAULT_PREMIUM= 300 wei */\n    tag_19:\n      callvalue\n      dup1\n      iszero\n      tag_105\n      jumpi\n      0x00\n      dup1\n      revert\n    tag_105:\n      pop\n      tag_106\n      tag_107\n      jump\t// in\n    tag_106:\n      mload(0x40)\n      tag_108\n      swap2\n      swap1\n      tag_38\n      jump\t// in\n    tag_108:\n      mload(0x40)\n      dup1\n      swap2\n      sub\n      swap1\n      return\n        /* \".deps/auto_contract.sol\":8393:8565  function getInsurancesByCustomer(address customer)... */\n    tag_31:\n        /* \".deps/auto_contract.sol\":8491:8507  uint256[] memory */\n      0x60\n        /* \".deps/auto_contract.sol\":8530:8548  customerInsurances */\n      0x04\n        /* \".deps/auto_contract.sol\":8530:8558  customerInsurances[customer] */\n      0x00\n        /* \".deps/auto_contract.sol\":8549:8557  customer */\n      dup4\n        /* \".deps/auto_contract.sol\":8530:8558  customerInsurances[customer] */\n      0xffffffffffffffffffffffffffffffffffffffff\n      and\n      0xffffffffffffffffffffffffffffffffffffffff\n      and\n      dup2\n      mstore\n      0x20\n      add\n      swap1\n      dup2\n      mstore\n      0x20\n      add\n      0x00\n      keccak256\n        /* \".deps/auto_contract.sol\":8523:8558  return customerInsurances[customer] */\n      dup1\n      sload\n      dup1\n      0x20\n      mul\n      0x20\n      add\n      mload(0x40)\n      swap1\n      dup2\n      add\n      0x40\n      mstore\n      dup1\n      swap3\n      swap2\n      swap1\n      dup2\n      dup2\n      mstore\n      0x20\n      add\n      dup3\n      dup1\n      sload\n      dup1\n      iszero\n      tag_110\n      jumpi\n      0x20\n      mul\n      dup3\n      add\n      swap2\n      swap1\n      0x00\n      mstore\n      keccak256(0x00, 0x20)\n      swap1\n    tag_111:\n      dup2\n      sload\n      dup2\n      mstore\n      0x20\n      add\n      swap1\n      0x01\n      add\n      swap1\n      dup1\n      dup4\n      gt\n      tag_111\n      jumpi\n    tag_110:\n      pop\n      pop\n      pop\n      pop\n      pop\n      swap1\n      pop\n        /* \".deps/auto_contract.sol\":8393:8565  function getInsurancesByCustomer(address customer)... */\n      swap2\n      swap1\n      pop\n      jump\t// out\n        /* \".deps/auto_contract.sol\":1592:1641  uint256 public constant DEFAULT_CLAIM  = 6000 wei */\n    tag_36:\n        /* \".deps/auto_contract.sol\":1633:1641  6000 wei */\n      0x1770\n        /* \".deps/auto_contract.sol\":1592:1641  uint256 public constant DEFAULT_CLAIM  = 6000 wei */\n      dup2\n      jump\t// out\n        /* \".deps/auto_contract.sol\":8571:8741  function withdraw() external onlyOwner {... */\n    tag_41:\n        /* \".deps/auto_contract.sol\":2978:2983  owner */\n      0x00\n      dup1\n      sload\n      swap1\n      0x0100\n      exp\n      swap1\n      div\n      0xffffffffffffffffffffffffffffffffffffffff\n      and\n        /* \".deps/auto_contract.sol\":2964:2983  msg.sender == owner */\n      0xffffffffffffffffffffffffffffffffffffffff\n      and\n        /* \".deps/auto_contract.sol\":2964:2974  msg.sender */\n      caller\n        /* \".deps/auto_contract.sol\":2964:2983  msg.sender == owner */\n      0xffffffffffffffffffffffffffffffffffffffff\n      and\n      eq\n        /* \".deps/auto_contract.sol\":2956:2998  require(msg.sender == owner, \"Owner only\") */\n      tag_113\n      jumpi\n      mload(0x40)\n      0x08c379a000000000000000000000000000000000000000000000000000000000\n      dup2\n      mstore\n      0x04\n      add\n      tag_114\n      swap1\n      tag_115\n      jump\t// in\n    tag_114:\n      mload(0x40)\n      dup1\n      swap2\n      sub\n      swap1\n      revert\n    tag_113:\n        /* \".deps/auto_contract.sol\":8621:8628  bool ok */\n      0x00\n        /* \".deps/auto_contract.sol\":8642:8652  msg.sender */\n      caller\n        /* \".deps/auto_contract.sol\":8634:8658  payable(msg.sender).call */\n      0xffffffffffffffffffffffffffffffffffffffff\n      and\n        /* \".deps/auto_contract.sol\":8667:8688  address(this).balance */\n      selfbalance\n        /* \".deps/auto_contract.sol\":8634:8694  payable(msg.sender).call{ value: address(this).balance }(\"\") */\n      mload(0x40)\n      tag_117\n      swap1\n      tag_118\n      jump\t// in\n    tag_117:\n      0x00\n      mload(0x40)\n      dup1\n      dup4\n      sub\n      dup2\n      dup6\n      dup8\n      gas\n      call\n      swap3\n      pop\n      pop\n      pop\n      returndatasize\n      dup1\n      0x00\n      dup2\n      eq\n      tag_121\n      jumpi\n      mload(0x40)\n      swap2\n      pop\n      and(add(returndatasize, 0x3f), not(0x1f))\n      dup3\n      add\n      0x40\n      mstore\n      returndatasize\n      dup3\n      mstore\n      returndatasize\n      0x00\n      0x20\n      dup5\n      add\n      returndatacopy\n      jump(tag_120)\n    tag_121:\n      0x60\n      swap2\n      pop\n    tag_120:\n      pop\n        /* \".deps/auto_contract.sol\":8620:8694  (bool ok, ) = payable(msg.sender).call{ value: address(this).balance }(\"\") */\n      pop\n      swap1\n      pop\n        /* \".deps/auto_contract.sol\":8712:8714  ok */\n      dup1\n        /* \".deps/auto_contract.sol\":8704:8734  require(ok, \"Withdraw failed\") */\n      tag_122\n      jumpi\n      mload(0x40)\n      0x08c379a000000000000000000000000000000000000000000000000000000000\n      dup2\n      mstore\n      0x04\n      add\n      tag_123\n      swap1\n      tag_124\n      jump\t// in\n    tag_123:\n      mload(0x40)\n      dup1\n      swap2\n      sub\n      swap1\n      revert\n    tag_122:\n        /* \".deps/auto_contract.sol\":8610:8741  {... */\n      pop\n        /* \".deps/auto_contract.sol\":8571:8741  function withdraw() external onlyOwner {... */\n      jump\t// out\n        /* \".deps/auto_contract.sol\":7770:8198  function performUpkeep(bytes calldata) external override {... */\n    tag_46:\n        /* \".deps/auto_contract.sol\":7858:7873  block.timestamp */\n      timestamp\n        /* \".deps/auto_contract.sol\":7837:7855  lastAutomationTime */\n      0x05\n        /* \".deps/auto_contract.sol\":7837:7873  lastAutomationTime = block.timestamp */\n      dup2\n      swap1\n      sstore\n      pop\n        /* \".deps/auto_contract.sol\":7951:7961  uint256 id */\n      0x00\n        /* \".deps/auto_contract.sol\":7946:8192  for (uint256 id = 0; id < nextInsuranceId; ++id) {... */\n    tag_126:\n        /* \".deps/auto_contract.sol\":7972:7987  nextInsuranceId */\n      sload(0x02)\n        /* \".deps/auto_contract.sol\":7967:7969  id */\n      dup2\n        /* \".deps/auto_contract.sol\":7967:7987  id < nextInsuranceId */\n      lt\n        /* \".deps/auto_contract.sol\":7946:8192  for (uint256 id = 0; id < nextInsuranceId; ++id) {... */\n      iszero\n      tag_127\n      jumpi\n        /* \".deps/auto_contract.sol\":8009:8030  Insurance storage ins */\n      0x00\n        /* \".deps/auto_contract.sol\":8033:8043  insurances */\n      0x03\n        /* \".deps/auto_contract.sol\":8033:8047  insurances[id] */\n      0x00\n        /* \".deps/auto_contract.sol\":8044:8046  id */\n      dup4\n        /* \".deps/auto_contract.sol\":8033:8047  insurances[id] */\n      dup2\n      mstore\n      0x20\n      add\n      swap1\n      dup2\n      mstore\n      0x20\n      add\n      0x00\n      keccak256\n        /* \".deps/auto_contract.sol\":8009:8047  Insurance storage ins = insurances[id] */\n      swap1\n      pop\n        /* \".deps/auto_contract.sol\":8079:8092  Status.Active */\n      0x00\n        /* \".deps/auto_contract.sol\":8065:8092  ins.status == Status.Active */\n      0x02\n      dup2\n      gt\n      iszero\n      tag_129\n      jumpi\n      tag_130\n      tag_131\n      jump\t// in\n    tag_130:\n    tag_129:\n        /* \".deps/auto_contract.sol\":8065:8068  ins */\n      dup2\n        /* \".deps/auto_contract.sol\":8065:8075  ins.status */\n      0x09\n      add\n      0x00\n      swap1\n      sload\n      swap1\n      0x0100\n      exp\n      swap1\n      div\n      0xff\n      and\n        /* \".deps/auto_contract.sol\":8065:8092  ins.status == Status.Active */\n      0x02\n      dup2\n      gt\n      iszero\n      tag_132\n      jumpi\n      tag_133\n      tag_131\n      jump\t// in\n    tag_133:\n    tag_132:\n      eq\n        /* \".deps/auto_contract.sol\":8065:8130  ins.status == Status.Active && block.timestamp >= ins.TP + ins.CT */\n      dup1\n      iszero\n      tag_134\n      jumpi\n      pop\n        /* \".deps/auto_contract.sol\":8124:8127  ins */\n      dup1\n        /* \".deps/auto_contract.sol\":8124:8130  ins.CT */\n      0x06\n      add\n      sload\n        /* \".deps/auto_contract.sol\":8115:8118  ins */\n      dup2\n        /* \".deps/auto_contract.sol\":8115:8121  ins.TP */\n      0x03\n      add\n      sload\n        /* \".deps/auto_contract.sol\":8115:8130  ins.TP + ins.CT */\n      tag_135\n      swap2\n      swap1\n      tag_136\n      jump\t// in\n    tag_135:\n        /* \".deps/auto_contract.sol\":8096:8111  block.timestamp */\n      timestamp\n        /* \".deps/auto_contract.sol\":8096:8130  block.timestamp >= ins.TP + ins.CT */\n      lt\n      iszero\n        /* \".deps/auto_contract.sol\":8065:8130  ins.status == Status.Active && block.timestamp >= ins.TP + ins.CT */\n    tag_134:\n        /* \".deps/auto_contract.sol\":8061:8182  if (ins.status == Status.Active && block.timestamp >= ins.TP + ins.CT) {... */\n      iszero\n      tag_137\n      jumpi\n        /* \".deps/auto_contract.sol\":8150:8167  checkAndClaim(id) */\n      tag_138\n        /* \".deps/auto_contract.sol\":8164:8166  id */\n      dup3\n        /* \".deps/auto_contract.sol\":8150:8163  checkAndClaim */\n      tag_85\n        /* \".deps/auto_contract.sol\":8150:8167  checkAndClaim(id) */\n      jump\t// in\n    tag_138:\n        /* \".deps/auto_contract.sol\":8061:8182  if (ins.status == Status.Active && block.timestamp >= ins.TP + ins.CT) {... */\n    tag_137:\n        /* \".deps/auto_contract.sol\":7995:8192  {... */\n      pop\n        /* \".deps/auto_contract.sol\":7989:7993  ++id */\n      dup1\n      0x01\n      add\n      swap1\n      pop\n        /* \".deps/auto_contract.sol\":7946:8192  for (uint256 id = 0; id < nextInsuranceId; ++id) {... */\n      jump(tag_126)\n    tag_127:\n      pop\n        /* \".deps/auto_contract.sol\":7770:8198  function performUpkeep(bytes calldata) external override {... */\n      pop\n      pop\n      jump\t// out\n        /* \".deps/auto_contract.sol\":1853:1906  uint256 public constant AUTOMATION_INTERVAL = 1 hours */\n    tag_49:\n        /* \".deps/auto_contract.sol\":1899:1906  1 hours */\n      0x0e10\n        /* \".deps/auto_contract.sol\":1853:1906  uint256 public constant AUTOMATION_INTERVAL = 1 hours */\n      dup2\n      jump\t// out\n        /* \".deps/auto_contract.sol\":1814:1847  uint256 public lastAutomationTime */\n    tag_53:\n      sload(0x05)\n      dup2\n      jump\t// out\n        /* \".deps/auto_contract.sol\":1685:1739  mapping(uint256 => Insurance)        public insurances */\n    tag_59:\n      mstore(0x20, 0x03)\n      dup1\n      0x00\n      mstore\n      keccak256(0x00, 0x40)\n      0x00\n      swap2\n      pop\n      swap1\n      pop\n      dup1\n      0x00\n      add\n      0x00\n      swap1\n      sload\n      swap1\n      0x0100\n      exp\n      swap1\n      div\n      0xffffffffffffffffffffffffffffffffffffffff\n      and\n      swap1\n      dup1\n      0x01\n      add\n      dup1\n      sload\n      tag_139\n      swap1\n      tag_140\n      jump\t// in\n    tag_139:\n      dup1\n      0x1f\n      add\n      0x20\n      dup1\n      swap2\n      div\n      mul\n      0x20\n      add\n      mload(0x40)\n      swap1\n      dup2\n      add\n      0x40\n      mstore\n      dup1\n      swap3\n      swap2\n      swap1\n      dup2\n      dup2\n      mstore\n      0x20\n      add\n      dup3\n      dup1\n      sload\n      tag_141\n      swap1\n      tag_140\n      jump\t// in\n    tag_141:\n      dup1\n      iszero\n      tag_142\n      jumpi\n      dup1\n      0x1f\n      lt\n      tag_143\n      jumpi\n      0x0100\n      dup1\n      dup4\n      sload\n      div\n      mul\n      dup4\n      mstore\n      swap2\n      0x20\n      add\n      swap2\n      jump(tag_142)\n    tag_143:\n      dup3\n      add\n      swap2\n      swap1\n      0x00\n      mstore\n      keccak256(0x00, 0x20)\n      swap1\n    tag_144:\n      dup2\n      sload\n      dup2\n      mstore\n      swap1\n      0x01\n      add\n      swap1\n      0x20\n      add\n      dup1\n      dup4\n      gt\n      tag_144\n      jumpi\n      dup3\n      swap1\n      sub\n      0x1f\n      and\n      dup3\n      add\n      swap2\n    tag_142:\n      pop\n      pop\n      pop\n      pop\n      pop\n      swap1\n      dup1\n      0x02\n      add\n      sload\n      swap1\n      dup1\n      0x03\n      add\n      sload\n      swap1\n      dup1\n      0x04\n      add\n      sload\n      swap1\n      dup1\n      0x05\n      add\n      sload\n      swap1\n      dup1\n      0x06\n      add\n      sload\n      swap1\n      dup1\n      0x07\n      add\n      sload\n      swap1\n      dup1\n      0x08\n      add\n      sload\n      swap1\n      dup1\n      0x09\n      add\n      0x00\n      swap1\n      sload\n      swap1\n      0x0100\n      exp\n      swap1\n      div\n      0xff\n      and\n      swap1\n      dup1\n      0x09\n      add\n      0x01\n      swap1\n      sload\n      swap1\n      0x0100\n      exp\n      swap1\n      div\n      0xff\n      and\n      swap1\n      dup1\n      0x09\n      add\n      0x02\n      swap1\n      sload\n      swap1\n      0x0100\n      exp\n      swap1\n      div\n      0xff\n      and\n      swap1\n      pop\n      dup13\n      jump\t// out\n        /* \".deps/auto_contract.sol\":7494:7764  function checkUpkeep(bytes calldata)... */\n    tag_65:\n        /* \".deps/auto_contract.sol\":7595:7612  bool upkeepNeeded */\n      0x00\n        /* \".deps/auto_contract.sol\":7614:7638  bytes memory performData */\n      0x60\n        /* \".deps/auto_contract.sol\":1899:1906  1 hours */\n      0x0e10\n        /* \".deps/auto_contract.sol\":7689:7707  lastAutomationTime */\n      sload(0x05)\n        /* \".deps/auto_contract.sol\":7689:7729  lastAutomationTime + AUTOMATION_INTERVAL */\n      tag_146\n      swap2\n      swap1\n      tag_136\n      jump\t// in\n    tag_146:\n        /* \".deps/auto_contract.sol\":7670:7685  block.timestamp */\n      timestamp\n        /* \".deps/auto_contract.sol\":7670:7729  block.timestamp >= lastAutomationTime + AUTOMATION_INTERVAL */\n      lt\n      iszero\n        /* \".deps/auto_contract.sol\":7654:7730  upkeepNeeded = (block.timestamp >= lastAutomationTime + AUTOMATION_INTERVAL) */\n      swap2\n      pop\n        /* \".deps/auto_contract.sol\":7740:7757  performData  = \"\" */\n      mload(0x40)\n      dup1\n      0x20\n      add\n      0x40\n      mstore\n      dup1\n      0x00\n      dup2\n      mstore\n      pop\n      swap1\n      pop\n        /* \".deps/auto_contract.sol\":7494:7764  function checkUpkeep(bytes calldata)... */\n      swap3\n      pop\n      swap3\n      swap1\n      pop\n      jump\t// out\n        /* \".deps/auto_contract.sol\":3439:3527  function setOracle(address _oracle) external onlyOwner {... */\n    tag_71:\n        /* \".deps/auto_contract.sol\":2978:2983  owner */\n      0x00\n      dup1\n      sload\n      swap1\n      0x0100\n      exp\n      swap1\n      div\n      0xffffffffffffffffffffffffffffffffffffffff\n      and\n        /* \".deps/auto_contract.sol\":2964:2983  msg.sender == owner */\n      0xffffffffffffffffffffffffffffffffffffffff\n      and\n        /* \".deps/auto_contract.sol\":2964:2974  msg.sender */\n      caller\n        /* \".deps/auto_contract.sol\":2964:2983  msg.sender == owner */\n      0xffffffffffffffffffffffffffffffffffffffff\n      and\n      eq\n        /* \".deps/auto_contract.sol\":2956:2998  require(msg.sender == owner, \"Owner only\") */\n      tag_148\n      jumpi\n      mload(0x40)\n      0x08c379a000000000000000000000000000000000000000000000000000000000\n      dup2\n      mstore\n      0x04\n      add\n      tag_149\n      swap1\n      tag_115\n      jump\t// in\n    tag_149:\n      mload(0x40)\n      dup1\n      swap2\n      sub\n      swap1\n      revert\n    tag_148:\n        /* \".deps/auto_contract.sol\":3513:3520  _oracle */\n      dup1\n        /* \".deps/auto_contract.sol\":3504:3510  oracle */\n      0x01\n      0x00\n        /* \".deps/auto_contract.sol\":3504:3520  oracle = _oracle */\n      0x0100\n      exp\n      dup2\n      sload\n      dup2\n      0xffffffffffffffffffffffffffffffffffffffff\n      mul\n      not\n      and\n      swap1\n      dup4\n      0xffffffffffffffffffffffffffffffffffffffff\n      and\n      mul\n      or\n      swap1\n      sstore\n      pop\n        /* \".deps/auto_contract.sol\":3439:3527  function setOracle(address _oracle) external onlyOwner {... */\n      pop\n      jump\t// out\n        /* \".deps/auto_contract.sol\":718:739  address public oracle */\n    tag_74:\n      0x01\n      0x00\n      swap1\n      sload\n      swap1\n      0x0100\n      exp\n      swap1\n      div\n      0xffffffffffffffffffffffffffffffffffffffff\n      and\n      dup2\n      jump\t// out\n        /* \".deps/auto_contract.sol\":3725:4754  function createInsurance(... */\n    tag_80:\n        /* \".deps/auto_contract.sol\":3882:3901  uint256 insuranceID */\n      0x00\n        /* \".deps/auto_contract.sol\":3930:3932  T1 */\n      dup3\n        /* \".deps/auto_contract.sol\":3925:3927  TP */\n      dup3\n        /* \".deps/auto_contract.sol\":3925:3932  TP > T1 */\n      gt\n        /* \".deps/auto_contract.sol\":3917:3972  require(TP > T1,                 \"TP must be after T1\") */\n      tag_152\n      jumpi\n      mload(0x40)\n      0x08c379a000000000000000000000000000000000000000000000000000000000\n      dup2\n      mstore\n      0x04\n      add\n      tag_153\n      swap1\n      tag_154\n      jump\t// in\n    tag_153:\n      mload(0x40)\n      dup1\n      swap2\n      sub\n      swap1\n      revert\n    tag_152:\n        /* \".deps/auto_contract.sol\":1579:1586  300 wei */\n      0x012c\n        /* \".deps/auto_contract.sol\":3990:3999  msg.value */\n      callvalue\n        /* \".deps/auto_contract.sol\":3990:4018  msg.value == DEFAULT_PREMIUM */\n      eq\n        /* \".deps/auto_contract.sol\":3982:4040  require(msg.value == DEFAULT_PREMIUM, \"Incorrect premium\") */\n      tag_155\n      jumpi\n      mload(0x40)\n      0x08c379a000000000000000000000000000000000000000000000000000000000\n      dup2\n      mstore\n      0x04\n      add\n      tag_156\n      swap1\n      tag_157\n      jump\t// in\n    tag_156:\n      mload(0x40)\n      dup1\n      swap2\n      sub\n      swap1\n      revert\n    tag_155:\n        /* \".deps/auto_contract.sol\":4065:4080  nextInsuranceId */\n      0x02\n      0x00\n        /* \".deps/auto_contract.sol\":4065:4082  nextInsuranceId++ */\n      dup2\n      sload\n      dup1\n      swap3\n      swap2\n      swap1\n      tag_158\n      swap1\n      tag_159\n      jump\t// in\n    tag_158:\n      swap2\n      swap1\n      pop\n      sstore\n        /* \".deps/auto_contract.sol\":4051:4082  insuranceID = nextInsuranceId++ */\n      swap1\n      pop\n        /* \".deps/auto_contract.sol\":4093:4114  Insurance storage ins */\n      0x00\n        /* \".deps/auto_contract.sol\":4117:4127  insurances */\n      0x03\n        /* \".deps/auto_contract.sol\":4117:4140  insurances[insuranceID] */\n      0x00\n        /* \".deps/auto_contract.sol\":4128:4139  insuranceID */\n      dup4\n        /* \".deps/auto_contract.sol\":4117:4140  insurances[insuranceID] */\n      dup2\n      mstore\n      0x20\n      add\n      swap1\n      dup2\n      mstore\n      0x20\n      add\n      0x00\n      keccak256\n        /* \".deps/auto_contract.sol\":4093:4140  Insurance storage ins = insurances[insuranceID] */\n      swap1\n      pop\n        /* \".deps/auto_contract.sol\":4177:4187  msg.sender */\n      caller\n        /* \".deps/auto_contract.sol\":4150:4153  ins */\n      dup2\n        /* \".deps/auto_contract.sol\":4150:4162  ins.customer */\n      0x00\n      add\n      0x00\n        /* \".deps/auto_contract.sol\":4150:4188  ins.customer     = payable(msg.sender) */\n      0x0100\n      exp\n      dup2\n      sload\n      dup2\n      0xffffffffffffffffffffffffffffffffffffffff\n      mul\n      not\n      and\n      swap1\n      dup4\n      0xffffffffffffffffffffffffffffffffffffffff\n      and\n      mul\n      or\n      swap1\n      sstore\n      pop\n        /* \".deps/auto_contract.sol\":4217:4227  flightCode */\n      dup6\n      dup6\n        /* \".deps/auto_contract.sol\":4198:4201  ins */\n      dup3\n        /* \".deps/auto_contract.sol\":4198:4212  ins.flightCode */\n      0x01\n      add\n        /* \".deps/auto_contract.sol\":4198:4227  ins.flightCode   = flightCode */\n      swap2\n      dup3\n      tag_160\n      swap3\n      swap2\n      swap1\n      tag_161\n      jump\t// in\n    tag_160:\n      pop\n        /* \".deps/auto_contract.sol\":4256:4258  T1 */\n      dup4\n        /* \".deps/auto_contract.sol\":4237:4240  ins */\n      dup2\n        /* \".deps/auto_contract.sol\":4237:4243  ins.T1 */\n      0x02\n      add\n        /* \".deps/auto_contract.sol\":4237:4258  ins.T1           = T1 */\n      dup2\n      swap1\n      sstore\n      pop\n        /* \".deps/auto_contract.sol\":4287:4289  TP */\n      dup3\n        /* \".deps/auto_contract.sol\":4268:4271  ins */\n      dup2\n        /* \".deps/auto_contract.sol\":4268:4274  ins.TP */\n      0x03\n      add\n        /* \".deps/auto_contract.sol\":4268:4289  ins.TP           = TP */\n      dup2\n      swap1\n      sstore\n      pop\n        /* \".deps/auto_contract.sol\":1523:1532  4 minutes */\n      0xf0\n        /* \".deps/auto_contract.sol\":4299:4302  ins */\n      dup2\n        /* \".deps/auto_contract.sol\":4299:4305  ins.CT */\n      0x06\n      add\n        /* \".deps/auto_contract.sol\":4299:4328  ins.CT           = DEFAULT_CT */\n      dup2\n      swap1\n      sstore\n      pop\n        /* \".deps/auto_contract.sol\":1579:1586  300 wei */\n      0x012c\n        /* \".deps/auto_contract.sol\":4338:4341  ins */\n      dup2\n        /* \".deps/auto_contract.sol\":4338:4349  ins.premium */\n      0x07\n      add\n        /* \".deps/auto_contract.sol\":4338:4372  ins.premium      = DEFAULT_PREMIUM */\n      dup2\n      swap1\n      sstore\n      pop\n        /* \".deps/auto_contract.sol\":1633:1641  6000 wei */\n      0x1770\n        /* \".deps/auto_contract.sol\":4382:4385  ins */\n      dup2\n        /* \".deps/auto_contract.sol\":4382:4397  ins.claimAmount */\n      0x08\n      add\n        /* \".deps/auto_contract.sol\":4382:4414  ins.claimAmount  = DEFAULT_CLAIM */\n      dup2\n      swap1\n      sstore\n      pop\n        /* \".deps/auto_contract.sol\":4443:4456  Status.Active */\n      0x00\n        /* \".deps/auto_contract.sol\":4424:4427  ins */\n      dup2\n        /* \".deps/auto_contract.sol\":4424:4434  ins.status */\n      0x09\n      add\n      0x00\n        /* \".deps/auto_contract.sol\":4424:4456  ins.status       = Status.Active */\n      0x0100\n      exp\n      dup2\n      sload\n      dup2\n      0xff\n      mul\n      not\n      and\n      swap1\n      dup4\n      0x02\n      dup2\n      gt\n      iszero\n      tag_162\n      jumpi\n      tag_163\n      tag_131\n      jump\t// in\n    tag_163:\n    tag_162:\n      mul\n      or\n      swap1\n      sstore\n      pop\n        /* \".deps/auto_contract.sol\":4485:4501  ClaimStatus.None */\n      0x00\n        /* \".deps/auto_contract.sol\":4466:4469  ins */\n      dup2\n        /* \".deps/auto_contract.sol\":4466:4481  ins.claimStatus */\n      0x09\n      add\n      0x01\n        /* \".deps/auto_contract.sol\":4466:4501  ins.claimStatus  = ClaimStatus.None */\n      0x0100\n      exp\n      dup2\n      sload\n      dup2\n      0xff\n      mul\n      not\n      and\n      swap1\n      dup4\n      0x02\n      dup2\n      gt\n      iszero\n      tag_164\n      jumpi\n      tag_165\n      tag_131\n      jump\t// in\n    tag_165:\n    tag_164:\n      mul\n      or\n      swap1\n      sstore\n      pop\n        /* \".deps/auto_contract.sol\":4530:4549  FlightStatus.Normal */\n      0x00\n        /* \".deps/auto_contract.sol\":4511:4514  ins */\n      dup2\n        /* \".deps/auto_contract.sol\":4511:4527  ins.flightStatus */\n      0x09\n      add\n      0x02\n        /* \".deps/auto_contract.sol\":4511:4549  ins.flightStatus = FlightStatus.Normal */\n      0x0100\n      exp\n      dup2\n      sload\n      dup2\n      0xff\n      mul\n      not\n      and\n      swap1\n      dup4\n      0x02\n      dup2\n      gt\n      iszero\n      tag_166\n      jumpi\n      tag_167\n      tag_131\n      jump\t// in\n    tag_167:\n    tag_166:\n      mul\n      or\n      swap1\n      sstore\n      pop\n        /* \".deps/auto_contract.sol\":4578:4593  block.timestamp */\n      timestamp\n        /* \".deps/auto_contract.sol\":4559:4562  ins */\n      dup2\n        /* \".deps/auto_contract.sol\":4559:4564  ins.T */\n      0x05\n      add\n        /* \".deps/auto_contract.sol\":4559:4593  ins.T            = block.timestamp */\n      dup2\n      swap1\n      sstore\n      pop\n        /* \".deps/auto_contract.sol\":4643:4661  customerInsurances */\n      0x04\n        /* \".deps/auto_contract.sol\":4643:4673  customerInsurances[msg.sender] */\n      0x00\n        /* \".deps/auto_contract.sol\":4662:4672  msg.sender */\n      caller\n        /* \".deps/auto_contract.sol\":4643:4673  customerInsurances[msg.sender] */\n      0xffffffffffffffffffffffffffffffffffffffff\n      and\n      0xffffffffffffffffffffffffffffffffffffffff\n      and\n      dup2\n      mstore\n      0x20\n      add\n      swap1\n      dup2\n      mstore\n      0x20\n      add\n      0x00\n      keccak256\n        /* \".deps/auto_contract.sol\":4679:4690  insuranceID */\n      dup3\n        /* \".deps/auto_contract.sol\":4643:4691  customerInsurances[msg.sender].push(insuranceID) */\n      swap1\n      dup1\n      0x01\n      dup2\n      sload\n      add\n      dup1\n      dup3\n      sstore\n      dup1\n      swap2\n      pop\n      pop\n      0x01\n      swap1\n      sub\n      swap1\n      0x00\n      mstore\n      keccak256(0x00, 0x20)\n      add\n      0x00\n      swap1\n      swap2\n      swap1\n      swap2\n      swap1\n      swap2\n      pop\n      sstore\n        /* \".deps/auto_contract.sol\":4736:4746  msg.sender */\n      caller\n        /* \".deps/auto_contract.sol\":4706:4747  InsuranceCreated(insuranceID, msg.sender) */\n      0xffffffffffffffffffffffffffffffffffffffff\n      and\n        /* \".deps/auto_contract.sol\":4723:4734  insuranceID */\n      dup3\n        /* \".deps/auto_contract.sol\":4706:4747  InsuranceCreated(insuranceID, msg.sender) */\n      0x362a18d483785c7cbd3eedc8134897c38959f9330c5dfe708330173600280a4c\n      mload(0x40)\n      mload(0x40)\n      dup1\n      swap2\n      sub\n      swap1\n      log3\n        /* \".deps/auto_contract.sol\":3907:4754  {... */\n      pop\n        /* \".deps/auto_contract.sol\":3725:4754  function createInsurance(... */\n      swap5\n      swap4\n      pop\n      pop\n      pop\n      pop\n      jump\t// out\n        /* \".deps/auto_contract.sol\":5488:7297  function checkAndClaim(uint256 insuranceID) public {... */\n    tag_85:\n        /* \".deps/auto_contract.sol\":5549:5570  Insurance storage ins */\n      0x00\n        /* \".deps/auto_contract.sol\":5573:5583  insurances */\n      0x03\n        /* \".deps/auto_contract.sol\":5573:5596  insurances[insuranceID] */\n      0x00\n        /* \".deps/auto_contract.sol\":5584:5595  insuranceID */\n      dup4\n        /* \".deps/auto_contract.sol\":5573:5596  insurances[insuranceID] */\n      dup2\n      mstore\n      0x20\n      add\n      swap1\n      dup2\n      mstore\n      0x20\n      add\n      0x00\n      keccak256\n        /* \".deps/auto_contract.sol\":5549:5596  Insurance storage ins = insurances[insuranceID] */\n      swap1\n      pop\n        /* \".deps/auto_contract.sol\":5628:5641  Status.Active */\n      0x00\n        /* \".deps/auto_contract.sol\":5614:5641  ins.status == Status.Active */\n      0x02\n      dup2\n      gt\n      iszero\n      tag_170\n      jumpi\n      tag_171\n      tag_131\n      jump\t// in\n    tag_171:\n    tag_170:\n        /* \".deps/auto_contract.sol\":5614:5617  ins */\n      dup2\n        /* \".deps/auto_contract.sol\":5614:5624  ins.status */\n      0x09\n      add\n      0x00\n      swap1\n      sload\n      swap1\n      0x0100\n      exp\n      swap1\n      div\n      0xff\n      and\n        /* \".deps/auto_contract.sol\":5614:5641  ins.status == Status.Active */\n      0x02\n      dup2\n      gt\n      iszero\n      tag_172\n      jumpi\n      tag_173\n      tag_131\n      jump\t// in\n    tag_173:\n    tag_172:\n      eq\n        /* \".deps/auto_contract.sol\":5606:5656  require(ins.status == Status.Active, \"Not active\") */\n      tag_174\n      jumpi\n      mload(0x40)\n      0x08c379a000000000000000000000000000000000000000000000000000000000\n      dup2\n      mstore\n      0x04\n      add\n      tag_175\n      swap1\n      tag_176\n      jump\t// in\n    tag_175:\n      mload(0x40)\n      dup1\n      swap2\n      sub\n      swap1\n      revert\n    tag_174:\n        /* \".deps/auto_contract.sol\":5740:5743  ins */\n      dup1\n        /* \".deps/auto_contract.sol\":5740:5746  ins.CT */\n      0x06\n      add\n      sload\n        /* \".deps/auto_contract.sol\":5731:5734  ins */\n      dup2\n        /* \".deps/auto_contract.sol\":5731:5737  ins.TP */\n      0x03\n      add\n      sload\n        /* \".deps/auto_contract.sol\":5731:5746  ins.TP + ins.CT */\n      tag_177\n      swap2\n      swap1\n      tag_136\n      jump\t// in\n    tag_177:\n        /* \".deps/auto_contract.sol\":5713:5728  block.timestamp */\n      timestamp\n        /* \".deps/auto_contract.sol\":5713:5746  block.timestamp < ins.TP + ins.CT */\n      lt\n        /* \".deps/auto_contract.sol\":5709:5863  if (block.timestamp < ins.TP + ins.CT) {... */\n      iszero\n      tag_178\n      jumpi\n        /* \".deps/auto_contract.sol\":5770:5785  block.timestamp */\n      timestamp\n        /* \".deps/auto_contract.sol\":5762:5765  ins */\n      dup2\n        /* \".deps/auto_contract.sol\":5762:5767  ins.T */\n      0x05\n      add\n        /* \".deps/auto_contract.sol\":5762:5785  ins.T = block.timestamp */\n      dup2\n      swap1\n      sstore\n      pop\n        /* \".deps/auto_contract.sol\":5820:5831  insuranceID */\n      dup2\n        /* \".deps/auto_contract.sol\":5804:5832  CheckedNotReady(insuranceID) */\n      0x44ea6cd4a30857868ca250b1d94459ec789d82611c70f26164bffda153f1bc0a\n      mload(0x40)\n      mload(0x40)\n      dup1\n      swap2\n      sub\n      swap1\n      log2\n        /* \".deps/auto_contract.sol\":5846:5853  return; */\n      pop\n      jump(tag_169)\n        /* \".deps/auto_contract.sol\":5709:5863  if (block.timestamp < ins.TP + ins.CT) {... */\n    tag_178:\n        /* \".deps/auto_contract.sol\":5939:5960  FlightStatus.Canceled */\n      0x01\n        /* \".deps/auto_contract.sol\":5919:5960  ins.flightStatus == FlightStatus.Canceled */\n      0x02\n      dup2\n      gt\n      iszero\n      tag_179\n      jumpi\n      tag_180\n      tag_131\n      jump\t// in\n    tag_180:\n    tag_179:\n        /* \".deps/auto_contract.sol\":5919:5922  ins */\n      dup2\n        /* \".deps/auto_contract.sol\":5919:5935  ins.flightStatus */\n      0x09\n      add\n      0x02\n      swap1\n      sload\n      swap1\n      0x0100\n      exp\n      swap1\n      div\n      0xff\n      and\n        /* \".deps/auto_contract.sol\":5919:5960  ins.flightStatus == FlightStatus.Canceled */\n      0x02\n      dup2\n      gt\n      iszero\n      tag_181\n      jumpi\n      tag_182\n      tag_131\n      jump\t// in\n    tag_182:\n    tag_181:\n      sub\n        /* \".deps/auto_contract.sol\":5915:6141  if (ins.flightStatus == FlightStatus.Canceled) {... */\n      tag_183\n      jumpi\n        /* \".deps/auto_contract.sol\":5994:6011  Status.Terminated */\n      0x01\n        /* \".deps/auto_contract.sol\":5976:5979  ins */\n      dup2\n        /* \".deps/auto_contract.sol\":5976:5986  ins.status */\n      0x09\n      add\n      0x00\n        /* \".deps/auto_contract.sol\":5976:6011  ins.status      = Status.Terminated */\n      0x0100\n      exp\n      dup2\n      sload\n      dup2\n      0xff\n      mul\n      not\n      and\n      swap1\n      dup4\n      0x02\n      dup2\n      gt\n      iszero\n      tag_184\n      jumpi\n      tag_185\n      tag_131\n      jump\t// in\n    tag_185:\n    tag_184:\n      mul\n      or\n      swap1\n      sstore\n      pop\n        /* \".deps/auto_contract.sol\":6043:6061  ClaimStatus.Denied */\n      0x02\n        /* \".deps/auto_contract.sol\":6025:6028  ins */\n      dup2\n        /* \".deps/auto_contract.sol\":6025:6040  ins.claimStatus */\n      0x09\n      add\n      0x01\n        /* \".deps/auto_contract.sol\":6025:6061  ins.claimStatus = ClaimStatus.Denied */\n      0x0100\n      exp\n      dup2\n      sload\n      dup2\n      0xff\n      mul\n      not\n      and\n      swap1\n      dup4\n      0x02\n      dup2\n      gt\n      iszero\n      tag_186\n      jumpi\n      tag_187\n      tag_131\n      jump\t// in\n    tag_187:\n    tag_186:\n      mul\n      or\n      swap1\n      sstore\n      pop\n        /* \".deps/auto_contract.sol\":6098:6109  insuranceID */\n      dup2\n        /* \".deps/auto_contract.sol\":6080:6110  TerminatedNoClaim(insuranceID) */\n      0xce497f2d2d439d5ac116f719fa47580e5922b4944a0f698d2327162c6eb3b7ac\n      mload(0x40)\n      mload(0x40)\n      dup1\n      swap2\n      sub\n      swap1\n      log2\n        /* \".deps/auto_contract.sol\":6124:6131  return; */\n      pop\n      jump(tag_169)\n        /* \".deps/auto_contract.sol\":5915:6141  if (ins.flightStatus == FlightStatus.Canceled) {... */\n    tag_183:\n        /* \".deps/auto_contract.sol\":6225:6226  0 */\n      0x00\n        /* \".deps/auto_contract.sol\":6215:6218  ins */\n      dup2\n        /* \".deps/auto_contract.sol\":6215:6221  ins.TA */\n      0x04\n      add\n      sload\n        /* \".deps/auto_contract.sol\":6215:6226  ins.TA == 0 */\n      eq\n        /* \".deps/auto_contract.sol\":6215:6266  ins.TA == 0 && block.timestamp >= ins.TP + 72 hours */\n      dup1\n      iszero\n      tag_188\n      jumpi\n      pop\n        /* \".deps/auto_contract.sol\":6258:6266  72 hours */\n      0x03f480\n        /* \".deps/auto_contract.sol\":6249:6252  ins */\n      dup2\n        /* \".deps/auto_contract.sol\":6249:6255  ins.TP */\n      0x03\n      add\n      sload\n        /* \".deps/auto_contract.sol\":6249:6266  ins.TP + 72 hours */\n      tag_189\n      swap2\n      swap1\n      tag_136\n      jump\t// in\n    tag_189:\n        /* \".deps/auto_contract.sol\":6230:6245  block.timestamp */\n      timestamp\n        /* \".deps/auto_contract.sol\":6230:6266  block.timestamp >= ins.TP + 72 hours */\n      lt\n      iszero\n        /* \".deps/auto_contract.sol\":6215:6266  ins.TA == 0 && block.timestamp >= ins.TP + 72 hours */\n    tag_188:\n        /* \".deps/auto_contract.sol\":6211:6499  if (ins.TA == 0 && block.timestamp >= ins.TP + 72 hours) {... */\n      iszero\n      tag_190\n      jumpi\n        /* \".deps/auto_contract.sol\":6301:6318  Status.Terminated */\n      0x01\n        /* \".deps/auto_contract.sol\":6282:6285  ins */\n      dup2\n        /* \".deps/auto_contract.sol\":6282:6292  ins.status */\n      0x09\n      add\n      0x00\n        /* \".deps/auto_contract.sol\":6282:6318  ins.status       = Status.Terminated */\n      0x0100\n      exp\n      dup2\n      sload\n      dup2\n      0xff\n      mul\n      not\n      and\n      swap1\n      dup4\n      0x02\n      dup2\n      gt\n      iszero\n      tag_191\n      jumpi\n      tag_192\n      tag_131\n      jump\t// in\n    tag_192:\n    tag_191:\n      mul\n      or\n      swap1\n      sstore\n      pop\n        /* \".deps/auto_contract.sol\":6351:6369  ClaimStatus.Denied */\n      0x02\n        /* \".deps/auto_contract.sol\":6332:6335  ins */\n      dup2\n        /* \".deps/auto_contract.sol\":6332:6347  ins.claimStatus */\n      0x09\n      add\n      0x01\n        /* \".deps/auto_contract.sol\":6332:6369  ins.claimStatus  = ClaimStatus.Denied */\n      0x0100\n      exp\n      dup2\n      sload\n      dup2\n      0xff\n      mul\n      not\n      and\n      swap1\n      dup4\n      0x02\n      dup2\n      gt\n      iszero\n      tag_193\n      jumpi\n      tag_194\n      tag_131\n      jump\t// in\n    tag_194:\n    tag_193:\n      mul\n      or\n      swap1\n      sstore\n      pop\n        /* \".deps/auto_contract.sol\":6402:6420  FlightStatus.Other */\n      0x02\n        /* \".deps/auto_contract.sol\":6383:6386  ins */\n      dup2\n        /* \".deps/auto_contract.sol\":6383:6399  ins.flightStatus */\n      0x09\n      add\n      0x02\n        /* \".deps/auto_contract.sol\":6383:6420  ins.flightStatus = FlightStatus.Other */\n      0x0100\n      exp\n      dup2\n      sload\n      dup2\n      0xff\n      mul\n      not\n      and\n      swap1\n      dup4\n      0x02\n      dup2\n      gt\n      iszero\n      tag_195\n      jumpi\n      tag_196\n      tag_131\n      jump\t// in\n    tag_196:\n    tag_195:\n      mul\n      or\n      swap1\n      sstore\n      pop\n        /* \".deps/auto_contract.sol\":6456:6467  insuranceID */\n      dup2\n        /* \".deps/auto_contract.sol\":6439:6468  TerminatedNoData(insuranceID) */\n      0xac9706c516a83df0060e911fa5b8a2fd1acedc32c29e4a4dad6fe2061caceff2\n      mload(0x40)\n      mload(0x40)\n      dup1\n      swap2\n      sub\n      swap1\n      log2\n        /* \".deps/auto_contract.sol\":6482:6489  return; */\n      pop\n      jump(tag_169)\n        /* \".deps/auto_contract.sol\":6211:6499  if (ins.TA == 0 && block.timestamp >= ins.TP + 72 hours) {... */\n    tag_190:\n        /* \".deps/auto_contract.sol\":6598:6599  0 */\n      0x00\n        /* \".deps/auto_contract.sol\":6588:6591  ins */\n      dup2\n        /* \".deps/auto_contract.sol\":6588:6594  ins.TA */\n      0x04\n      add\n      sload\n        /* \".deps/auto_contract.sol\":6588:6599  ins.TA == 0 */\n      sub\n        /* \".deps/auto_contract.sol\":6584:6795  if (ins.TA == 0) {... */\n      tag_197\n      jumpi\n        /* \".deps/auto_contract.sol\":6623:6638  block.timestamp */\n      timestamp\n        /* \".deps/auto_contract.sol\":6615:6618  ins */\n      dup2\n        /* \".deps/auto_contract.sol\":6615:6620  ins.T */\n      0x05\n      add\n        /* \".deps/auto_contract.sol\":6615:6638  ins.T = block.timestamp */\n      dup2\n      swap1\n      sstore\n      pop\n        /* \".deps/auto_contract.sol\":6672:6683  insuranceID */\n      dup2\n        /* \".deps/auto_contract.sol\":6657:6700  NeedFlightData(insuranceID, ins.flightCode) */\n      0xd423cf817b1e9b6729656dfffcb8186f2dd028ac4dbd0226b332f3108f9565a5\n        /* \".deps/auto_contract.sol\":6685:6688  ins */\n      dup3\n        /* \".deps/auto_contract.sol\":6685:6699  ins.flightCode */\n      0x01\n      add\n        /* \".deps/auto_contract.sol\":6657:6700  NeedFlightData(insuranceID, ins.flightCode) */\n      mload(0x40)\n      tag_198\n      swap2\n      swap1\n      tag_199\n      jump\t// in\n    tag_198:\n      mload(0x40)\n      dup1\n      swap2\n      sub\n      swap1\n      log2\n        /* \".deps/auto_contract.sol\":6752:6763  insuranceID */\n      dup2\n        /* \".deps/auto_contract.sol\":6735:6764  CheckedAwaitData(insuranceID) */\n      0xb69f5371ebf20cdf43bb4d5fb074d977d10508b688a49267b829acfcd727c026\n      mload(0x40)\n      mload(0x40)\n      dup1\n      swap2\n      sub\n      swap1\n      log2\n        /* \".deps/auto_contract.sol\":6778:6785  return; */\n      pop\n      jump(tag_169)\n        /* \".deps/auto_contract.sol\":6584:6795  if (ins.TA == 0) {... */\n    tag_197:\n        /* \".deps/auto_contract.sol\":6875:6878  ins */\n      dup1\n        /* \".deps/auto_contract.sol\":6875:6881  ins.CT */\n      0x06\n      add\n      sload\n        /* \".deps/auto_contract.sol\":6866:6869  ins */\n      dup2\n        /* \".deps/auto_contract.sol\":6866:6872  ins.TP */\n      0x03\n      add\n      sload\n        /* \".deps/auto_contract.sol\":6866:6881  ins.TP + ins.CT */\n      tag_200\n      swap2\n      swap1\n      tag_136\n      jump\t// in\n    tag_200:\n        /* \".deps/auto_contract.sol\":6856:6859  ins */\n      dup2\n        /* \".deps/auto_contract.sol\":6856:6862  ins.TA */\n      0x04\n      add\n      sload\n        /* \".deps/auto_contract.sol\":6856:6881  ins.TA <= ins.TP + ins.CT */\n      gt\n        /* \".deps/auto_contract.sol\":6852:7291  if (ins.TA <= ins.TP + ins.CT) {... */\n      tag_201\n      jumpi\n        /* \".deps/auto_contract.sol\":6915:6932  Status.Terminated */\n      0x01\n        /* \".deps/auto_contract.sol\":6897:6900  ins */\n      dup2\n        /* \".deps/auto_contract.sol\":6897:6907  ins.status */\n      0x09\n      add\n      0x00\n        /* \".deps/auto_contract.sol\":6897:6932  ins.status      = Status.Terminated */\n      0x0100\n      exp\n      dup2\n      sload\n      dup2\n      0xff\n      mul\n      not\n      and\n      swap1\n      dup4\n      0x02\n      dup2\n      gt\n      iszero\n      tag_202\n      jumpi\n      tag_203\n      tag_131\n      jump\t// in\n    tag_203:\n    tag_202:\n      mul\n      or\n      swap1\n      sstore\n      pop\n        /* \".deps/auto_contract.sol\":6964:6982  ClaimStatus.Denied */\n      0x02\n        /* \".deps/auto_contract.sol\":6946:6949  ins */\n      dup2\n        /* \".deps/auto_contract.sol\":6946:6961  ins.claimStatus */\n      0x09\n      add\n      0x01\n        /* \".deps/auto_contract.sol\":6946:6982  ins.claimStatus = ClaimStatus.Denied */\n      0x0100\n      exp\n      dup2\n      sload\n      dup2\n      0xff\n      mul\n      not\n      and\n      swap1\n      dup4\n      0x02\n      dup2\n      gt\n      iszero\n      tag_204\n      jumpi\n      tag_205\n      tag_131\n      jump\t// in\n    tag_205:\n    tag_204:\n      mul\n      or\n      swap1\n      sstore\n      pop\n        /* \".deps/auto_contract.sol\":7018:7029  insuranceID */\n      dup2\n        /* \".deps/auto_contract.sol\":7001:7030  TerminatedOnTime(insuranceID) */\n      0xa0a8cd3c30c1f1eee66987b51c20e8f2adf28114a41e24dddb595eaa93f36131\n      mload(0x40)\n      mload(0x40)\n      dup1\n      swap2\n      sub\n      swap1\n      log2\n        /* \".deps/auto_contract.sol\":6852:7291  if (ins.TA <= ins.TP + ins.CT) {... */\n      jump(tag_206)\n    tag_201:\n        /* \".deps/auto_contract.sol\":7061:7075  uint256 payout */\n      0x00\n        /* \".deps/auto_contract.sol\":7079:7082  ins */\n      dup2\n        /* \".deps/auto_contract.sol\":7079:7094  ins.claimAmount */\n      0x08\n      add\n      sload\n        /* \".deps/auto_contract.sol\":7061:7094  uint256 payout  = ins.claimAmount */\n      swap1\n      pop\n        /* \".deps/auto_contract.sol\":7126:7140  Status.Claimed */\n      0x02\n        /* \".deps/auto_contract.sol\":7108:7111  ins */\n      dup3\n        /* \".deps/auto_contract.sol\":7108:7118  ins.status */\n      0x09\n      add\n      0x00\n        /* \".deps/auto_contract.sol\":7108:7140  ins.status      = Status.Claimed */\n      0x0100\n      exp\n      dup2\n      sload\n      dup2\n      0xff\n      mul\n      not\n      and\n      swap1\n      dup4\n      0x02\n      dup2\n      gt\n      iszero\n      tag_207\n      jumpi\n      tag_208\n      tag_131\n      jump\t// in\n    tag_208:\n    tag_207:\n      mul\n      or\n      swap1\n      sstore\n      pop\n        /* \".deps/auto_contract.sol\":7172:7188  ClaimStatus.Paid */\n      0x01\n        /* \".deps/auto_contract.sol\":7154:7157  ins */\n      dup3\n        /* \".deps/auto_contract.sol\":7154:7169  ins.claimStatus */\n      0x09\n      add\n      0x01\n        /* \".deps/auto_contract.sol\":7154:7188  ins.claimStatus = ClaimStatus.Paid */\n      0x0100\n      exp\n      dup2\n      sload\n      dup2\n      0xff\n      mul\n      not\n      and\n      swap1\n      dup4\n      0x02\n      dup2\n      gt\n      iszero\n      tag_209\n      jumpi\n      tag_210\n      tag_131\n      jump\t// in\n    tag_210:\n    tag_209:\n      mul\n      or\n      swap1\n      sstore\n      pop\n        /* \".deps/auto_contract.sol\":7202:7205  ins */\n      dup2\n        /* \".deps/auto_contract.sol\":7202:7214  ins.customer */\n      0x00\n      add\n      0x00\n      swap1\n      sload\n      swap1\n      0x0100\n      exp\n      swap1\n      div\n      0xffffffffffffffffffffffffffffffffffffffff\n      and\n        /* \".deps/auto_contract.sol\":7202:7223  ins.customer.transfer */\n      0xffffffffffffffffffffffffffffffffffffffff\n      and\n        /* \".deps/auto_contract.sol\":7202:7231  ins.customer.transfer(payout) */\n      0x08fc\n        /* \".deps/auto_contract.sol\":7224:7230  payout */\n      dup3\n        /* \".deps/auto_contract.sol\":7202:7231  ins.customer.transfer(payout) */\n      swap1\n      dup2\n      iszero\n      mul\n      swap1\n      mload(0x40)\n      0x00\n      mload(0x40)\n      dup1\n      dup4\n      sub\n      dup2\n      dup6\n      dup9\n      dup9\n      call\n      swap4\n      pop\n      pop\n      pop\n      pop\n      iszero\n      dup1\n      iszero\n      tag_212\n      jumpi\n      returndatasize\n      0x00\n      dup1\n      returndatacopy\n      revert(0x00, returndatasize)\n    tag_212:\n      pop\n        /* \".deps/auto_contract.sol\":7260:7271  insuranceID */\n      dup3\n        /* \".deps/auto_contract.sol\":7250:7280  ClaimPaid(insuranceID, payout) */\n      0xb0727183796e52c5bb00a257c1eb36d8e94dbee5d6d87e259287e3372ae39ace\n        /* \".deps/auto_contract.sol\":7273:7279  payout */\n      dup3\n        /* \".deps/auto_contract.sol\":7250:7280  ClaimPaid(insuranceID, payout) */\n      mload(0x40)\n      tag_213\n      swap2\n      swap1\n      tag_38\n      jump\t// in\n    tag_213:\n      mload(0x40)\n      dup1\n      swap2\n      sub\n      swap1\n      log2\n        /* \".deps/auto_contract.sol\":7047:7291  {... */\n      pop\n        /* \".deps/auto_contract.sol\":6852:7291  if (ins.TA <= ins.TP + ins.CT) {... */\n    tag_206:\n        /* \".deps/auto_contract.sol\":5539:7297  {... */\n      pop\n        /* \".deps/auto_contract.sol\":5488:7297  function checkAndClaim(uint256 insuranceID) public {... */\n    tag_169:\n      pop\n      jump\t// out\n        /* \".deps/auto_contract.sol\":692:712  address public owner */\n    tag_88:\n      0x00\n      dup1\n      sload\n      swap1\n      0x0100\n      exp\n      swap1\n      div\n      0xffffffffffffffffffffffffffffffffffffffff\n      and\n      dup2\n      jump\t// out\n        /* \".deps/auto_contract.sol\":4832:5253  function updateFlightInfo(... */\n    tag_94:\n        /* \".deps/auto_contract.sol\":3082:3088  oracle */\n      0x01\n      0x00\n      swap1\n      sload\n      swap1\n      0x0100\n      exp\n      swap1\n      div\n      0xffffffffffffffffffffffffffffffffffffffff\n      and\n        /* \".deps/auto_contract.sol\":3068:3088  msg.sender == oracle */\n      0xffffffffffffffffffffffffffffffffffffffff\n      and\n        /* \".deps/auto_contract.sol\":3068:3078  msg.sender */\n      caller\n        /* \".deps/auto_contract.sol\":3068:3088  msg.sender == oracle */\n      0xffffffffffffffffffffffffffffffffffffffff\n      and\n      eq\n        /* \".deps/auto_contract.sol\":3068:3111  msg.sender == oracle || msg.sender == owner */\n      dup1\n      tag_215\n      jumpi\n      pop\n        /* \".deps/auto_contract.sol\":3106:3111  owner */\n      0x00\n      dup1\n      sload\n      swap1\n      0x0100\n      exp\n      swap1\n      div\n      0xffffffffffffffffffffffffffffffffffffffff\n      and\n        /* \".deps/auto_contract.sol\":3092:3111  msg.sender == owner */\n      0xffffffffffffffffffffffffffffffffffffffff\n      and\n        /* \".deps/auto_contract.sol\":3092:3102  msg.sender */\n      caller\n        /* \".deps/auto_contract.sol\":3092:3111  msg.sender == owner */\n      0xffffffffffffffffffffffffffffffffffffffff\n      and\n      eq\n        /* \".deps/auto_contract.sol\":3068:3111  msg.sender == oracle || msg.sender == owner */\n    tag_215:\n        /* \".deps/auto_contract.sol\":3060:3130  require(msg.sender == oracle || msg.sender == owner, \"Not authorised\") */\n      tag_216\n      jumpi\n      mload(0x40)\n      0x08c379a000000000000000000000000000000000000000000000000000000000\n      dup2\n      mstore\n      0x04\n      add\n      tag_217\n      swap1\n      tag_218\n      jump\t// in\n    tag_217:\n      mload(0x40)\n      dup1\n      swap2\n      sub\n      swap1\n      revert\n    tag_216:\n        /* \".deps/auto_contract.sol\":5005:5026  Insurance storage ins */\n      0x00\n        /* \".deps/auto_contract.sol\":5029:5039  insurances */\n      0x03\n        /* \".deps/auto_contract.sol\":5029:5052  insurances[insuranceID] */\n      0x00\n        /* \".deps/auto_contract.sol\":5040:5051  insuranceID */\n      dup6\n        /* \".deps/auto_contract.sol\":5029:5052  insurances[insuranceID] */\n      dup2\n      mstore\n      0x20\n      add\n      swap1\n      dup2\n      mstore\n      0x20\n      add\n      0x00\n      keccak256\n        /* \".deps/auto_contract.sol\":5005:5052  Insurance storage ins = insurances[insuranceID] */\n      swap1\n      pop\n        /* \".deps/auto_contract.sol\":5084:5097  Status.Active */\n      0x00\n        /* \".deps/auto_contract.sol\":5070:5097  ins.status == Status.Active */\n      0x02\n      dup2\n      gt\n      iszero\n      tag_220\n      jumpi\n      tag_221\n      tag_131\n      jump\t// in\n    tag_221:\n    tag_220:\n        /* \".deps/auto_contract.sol\":5070:5073  ins */\n      dup2\n        /* \".deps/auto_contract.sol\":5070:5080  ins.status */\n      0x09\n      add\n      0x00\n      swap1\n      sload\n      swap1\n      0x0100\n      exp\n      swap1\n      div\n      0xff\n      and\n        /* \".deps/auto_contract.sol\":5070:5097  ins.status == Status.Active */\n      0x02\n      dup2\n      gt\n      iszero\n      tag_222\n      jumpi\n      tag_223\n      tag_131\n      jump\t// in\n    tag_223:\n    tag_222:\n      eq\n        /* \".deps/auto_contract.sol\":5062:5112  require(ins.status == Status.Active, \"Not active\") */\n      tag_224\n      jumpi\n      mload(0x40)\n      0x08c379a000000000000000000000000000000000000000000000000000000000\n      dup2\n      mstore\n      0x04\n      add\n      tag_225\n      swap1\n      tag_176\n      jump\t// in\n    tag_225:\n      mload(0x40)\n      dup1\n      swap2\n      sub\n      swap1\n      revert\n    tag_224:\n        /* \".deps/auto_contract.sol\":5141:5143  TA */\n      dup3\n        /* \".deps/auto_contract.sol\":5123:5126  ins */\n      dup2\n        /* \".deps/auto_contract.sol\":5123:5129  ins.TA */\n      0x04\n      add\n        /* \".deps/auto_contract.sol\":5123:5143  ins.TA          = TA */\n      dup2\n      swap1\n      sstore\n      pop\n        /* \".deps/auto_contract.sol\":5171:5183  flightStatus */\n      dup2\n        /* \".deps/auto_contract.sol\":5153:5156  ins */\n      dup2\n        /* \".deps/auto_contract.sol\":5153:5169  ins.flightStatus */\n      0x09\n      add\n      0x02\n        /* \".deps/auto_contract.sol\":5153:5183  ins.flightStatus= flightStatus */\n      0x0100\n      exp\n      dup2\n      sload\n      dup2\n      0xff\n      mul\n      not\n      and\n      swap1\n      dup4\n      0x02\n      dup2\n      gt\n      iszero\n      tag_226\n      jumpi\n      tag_227\n      tag_131\n      jump\t// in\n    tag_227:\n    tag_226:\n      mul\n      or\n      swap1\n      sstore\n      pop\n        /* \".deps/auto_contract.sol\":5216:5227  insuranceID */\n      dup4\n        /* \".deps/auto_contract.sol\":5198:5246  FlightInfoUpdated(insuranceID, TA, flightStatus) */\n      0xefbe4568c3e8b3451436ae01df5e7365a5206dce94e54f32d21eb8b0a85e7f9e\n        /* \".deps/auto_contract.sol\":5229:5231  TA */\n      dup5\n        /* \".deps/auto_contract.sol\":5233:5245  flightStatus */\n      dup5\n        /* \".deps/auto_contract.sol\":5198:5246  FlightInfoUpdated(insuranceID, TA, flightStatus) */\n      mload(0x40)\n      tag_228\n      swap3\n      swap2\n      swap1\n      tag_229\n      jump\t// in\n    tag_228:\n      mload(0x40)\n      dup1\n      swap2\n      sub\n      swap1\n      log2\n        /* \".deps/auto_contract.sol\":4995:5253  {... */\n      pop\n        /* \".deps/auto_contract.sol\":4832:5253  function updateFlightInfo(... */\n      pop\n      pop\n      pop\n      jump\t// out\n        /* \".deps/auto_contract.sol\":1745:1807  mapping(address  => uint256[])       public customerInsurances */\n    tag_99:\n      mstore(0x20, 0x04)\n      dup2\n      0x00\n      mstore\n      keccak256(0x00, 0x40)\n      dup2\n      dup2\n      sload\n      dup2\n      lt\n      tag_230\n      jumpi\n      0x00\n      dup1\n      revert\n    tag_230:\n      swap1\n      0x00\n      mstore\n      keccak256(0x00, 0x20)\n      add\n      0x00\n      swap2\n      pop\n      swap2\n      pop\n      pop\n      sload\n      dup2\n      jump\t// out\n        /* \".deps/auto_contract.sol\":1482:1532  uint256 public constant DEFAULT_CT     = 4 minutes */\n    tag_103:\n        /* \".deps/auto_contract.sol\":1523:1532  4 minutes */\n      0xf0\n        /* \".deps/auto_contract.sol\":1482:1532  uint256 public constant DEFAULT_CT     = 4 minutes */\n      dup2\n      jump\t// out\n        /* \".deps/auto_contract.sol\":1538:1586  uint256 public constant DEFAULT_PREMIUM= 300 wei */\n    tag_107:\n        /* \".deps/auto_contract.sol\":1579:1586  300 wei */\n      0x012c\n        /* \".deps/auto_contract.sol\":1538:1586  uint256 public constant DEFAULT_PREMIUM= 300 wei */\n      dup2\n      jump\t// out\n        /* \"#utility.yul\":88:205   */\n    tag_233:\n        /* \"#utility.yul\":197:198   */\n      0x00\n        /* \"#utility.yul\":194:195   */\n      dup1\n        /* \"#utility.yul\":187:199   */\n      revert\n        /* \"#utility.yul\":211:328   */\n    tag_234:\n        /* \"#utility.yul\":320:321   */\n      0x00\n        /* \"#utility.yul\":317:318   */\n      dup1\n        /* \"#utility.yul\":310:322   */\n      revert\n        /* \"#utility.yul\":334:460   */\n    tag_235:\n        /* \"#utility.yul\":371:378   */\n      0x00\n        /* \"#utility.yul\":411:453   */\n      0xffffffffffffffffffffffffffffffffffffffff\n        /* \"#utility.yul\":404:409   */\n      dup3\n        /* \"#utility.yul\":400:454   */\n      and\n        /* \"#utility.yul\":389:454   */\n      swap1\n      pop\n        /* \"#utility.yul\":334:460   */\n      swap2\n      swap1\n      pop\n      jump\t// out\n        /* \"#utility.yul\":466:562   */\n    tag_236:\n        /* \"#utility.yul\":503:510   */\n      0x00\n        /* \"#utility.yul\":532:556   */\n      tag_323\n        /* \"#utility.yul\":550:555   */\n      dup3\n        /* \"#utility.yul\":532:556   */\n      tag_235\n      jump\t// in\n    tag_323:\n        /* \"#utility.yul\":521:556   */\n      swap1\n      pop\n        /* \"#utility.yul\":466:562   */\n      swap2\n      swap1\n      pop\n      jump\t// out\n        /* \"#utility.yul\":568:690   */\n    tag_237:\n        /* \"#utility.yul\":641:665   */\n      tag_325\n        /* \"#utility.yul\":659:664   */\n      dup2\n        /* \"#utility.yul\":641:665   */\n      tag_236\n      jump\t// in\n    tag_325:\n        /* \"#utility.yul\":634:639   */\n      dup2\n        /* \"#utility.yul\":631:666   */\n      eq\n        /* \"#utility.yul\":621:684   */\n      tag_326\n      jumpi\n        /* \"#utility.yul\":680:681   */\n      0x00\n        /* \"#utility.yul\":677:678   */\n      dup1\n        /* \"#utility.yul\":670:682   */\n      revert\n        /* \"#utility.yul\":621:684   */\n    tag_326:\n        /* \"#utility.yul\":568:690   */\n      pop\n      jump\t// out\n        /* \"#utility.yul\":696:835   */\n    tag_238:\n        /* \"#utility.yul\":742:747   */\n      0x00\n        /* \"#utility.yul\":780:786   */\n      dup2\n        /* \"#utility.yul\":767:787   */\n      calldataload\n        /* \"#utility.yul\":758:787   */\n      swap1\n      pop\n        /* \"#utility.yul\":796:829   */\n      tag_328\n        /* \"#utility.yul\":823:828   */\n      dup2\n        /* \"#utility.yul\":796:829   */\n      tag_237\n      jump\t// in\n    tag_328:\n        /* \"#utility.yul\":696:835   */\n      swap3\n      swap2\n      pop\n      pop\n      jump\t// out\n        /* \"#utility.yul\":841:1170   */\n    tag_30:\n        /* \"#utility.yul\":900:906   */\n      0x00\n        /* \"#utility.yul\":949:951   */\n      0x20\n        /* \"#utility.yul\":937:946   */\n      dup3\n        /* \"#utility.yul\":928:935   */\n      dup5\n        /* \"#utility.yul\":924:947   */\n      sub\n        /* \"#utility.yul\":920:952   */\n      slt\n        /* \"#utility.yul\":917:1036   */\n      iszero\n      tag_330\n      jumpi\n        /* \"#utility.yul\":955:1034   */\n      tag_331\n      tag_233\n      jump\t// in\n    tag_331:\n        /* \"#utility.yul\":917:1036   */\n    tag_330:\n        /* \"#utility.yul\":1075:1076   */\n      0x00\n        /* \"#utility.yul\":1100:1153   */\n      tag_332\n        /* \"#utility.yul\":1145:1152   */\n      dup5\n        /* \"#utility.yul\":1136:1142   */\n      dup3\n        /* \"#utility.yul\":1125:1134   */\n      dup6\n        /* \"#utility.yul\":1121:1143   */\n      add\n        /* \"#utility.yul\":1100:1153   */\n      tag_238\n      jump\t// in\n    tag_332:\n        /* \"#utility.yul\":1090:1153   */\n      swap2\n      pop\n        /* \"#utility.yul\":1046:1163   */\n      pop\n        /* \"#utility.yul\":841:1170   */\n      swap3\n      swap2\n      pop\n      pop\n      jump\t// out\n        /* \"#utility.yul\":1176:1290   */\n    tag_239:\n        /* \"#utility.yul\":1243:1249   */\n      0x00\n        /* \"#utility.yul\":1277:1282   */\n      dup2\n        /* \"#utility.yul\":1271:1283   */\n      mload\n        /* \"#utility.yul\":1261:1283   */\n      swap1\n      pop\n        /* \"#utility.yul\":1176:1290   */\n      swap2\n      swap1\n      pop\n      jump\t// out\n        /* \"#utility.yul\":1296:1480   */\n    tag_240:\n        /* \"#utility.yul\":1395:1406   */\n      0x00\n        /* \"#utility.yul\":1429:1435   */\n      dup3\n        /* \"#utility.yul\":1424:1427   */\n      dup3\n        /* \"#utility.yul\":1417:1436   */\n      mstore\n        /* \"#utility.yul\":1469:1473   */\n      0x20\n        /* \"#utility.yul\":1464:1467   */\n      dup3\n        /* \"#utility.yul\":1460:1474   */\n      add\n        /* \"#utility.yul\":1445:1474   */\n      swap1\n      pop\n        /* \"#utility.yul\":1296:1480   */\n      swap3\n      swap2\n      pop\n      pop\n      jump\t// out\n        /* \"#utility.yul\":1486:1618   */\n    tag_241:\n        /* \"#utility.yul\":1553:1557   */\n      0x00\n        /* \"#utility.yul\":1576:1579   */\n      dup2\n        /* \"#utility.yul\":1568:1579   */\n      swap1\n      pop\n        /* \"#utility.yul\":1606:1610   */\n      0x20\n        /* \"#utility.yul\":1601:1604   */\n      dup3\n        /* \"#utility.yul\":1597:1611   */\n      add\n        /* \"#utility.yul\":1589:1611   */\n      swap1\n      pop\n        /* \"#utility.yul\":1486:1618   */\n      swap2\n      swap1\n      pop\n      jump\t// out\n        /* \"#utility.yul\":1624:1701   */\n    tag_242:\n        /* \"#utility.yul\":1661:1668   */\n      0x00\n        /* \"#utility.yul\":1690:1695   */\n      dup2\n        /* \"#utility.yul\":1679:1695   */\n      swap1\n      pop\n        /* \"#utility.yul\":1624:1701   */\n      swap2\n      swap1\n      pop\n      jump\t// out\n        /* \"#utility.yul\":1707:1815   */\n    tag_243:\n        /* \"#utility.yul\":1784:1808   */\n      tag_338\n        /* \"#utility.yul\":1802:1807   */\n      dup2\n        /* \"#utility.yul\":1784:1808   */\n      tag_242\n      jump\t// in\n    tag_338:\n        /* \"#utility.yul\":1779:1782   */\n      dup3\n        /* \"#utility.yul\":1772:1809   */\n      mstore\n        /* \"#utility.yul\":1707:1815   */\n      pop\n      pop\n      jump\t// out\n        /* \"#utility.yul\":1821:2000   */\n    tag_244:\n        /* \"#utility.yul\":1890:1900   */\n      0x00\n        /* \"#utility.yul\":1911:1957   */\n      tag_340\n        /* \"#utility.yul\":1953:1956   */\n      dup4\n        /* \"#utility.yul\":1945:1951   */\n      dup4\n        /* \"#utility.yul\":1911:1957   */\n      tag_243\n      jump\t// in\n    tag_340:\n        /* \"#utility.yul\":1989:1993   */\n      0x20\n        /* \"#utility.yul\":1984:1987   */\n      dup4\n        /* \"#utility.yul\":1980:1994   */\n      add\n        /* \"#utility.yul\":1966:1994   */\n      swap1\n      pop\n        /* \"#utility.yul\":1821:2000   */\n      swap3\n      swap2\n      pop\n      pop\n      jump\t// out\n        /* \"#utility.yul\":2006:2119   */\n    tag_245:\n        /* \"#utility.yul\":2076:2080   */\n      0x00\n        /* \"#utility.yul\":2108:2112   */\n      0x20\n        /* \"#utility.yul\":2103:2106   */\n      dup3\n        /* \"#utility.yul\":2099:2113   */\n      add\n        /* \"#utility.yul\":2091:2113   */\n      swap1\n      pop\n        /* \"#utility.yul\":2006:2119   */\n      swap2\n      swap1\n      pop\n      jump\t// out\n        /* \"#utility.yul\":2155:2887   */\n    tag_246:\n        /* \"#utility.yul\":2274:2277   */\n      0x00\n        /* \"#utility.yul\":2303:2357   */\n      tag_343\n        /* \"#utility.yul\":2351:2356   */\n      dup3\n        /* \"#utility.yul\":2303:2357   */\n      tag_239\n      jump\t// in\n    tag_343:\n        /* \"#utility.yul\":2373:2459   */\n      tag_344\n        /* \"#utility.yul\":2452:2458   */\n      dup2\n        /* \"#utility.yul\":2447:2450   */\n      dup6\n        /* \"#utility.yul\":2373:2459   */\n      tag_240\n      jump\t// in\n    tag_344:\n        /* \"#utility.yul\":2366:2459   */\n      swap4\n      pop\n        /* \"#utility.yul\":2483:2539   */\n      tag_345\n        /* \"#utility.yul\":2533:2538   */\n      dup4\n        /* \"#utility.yul\":2483:2539   */\n      tag_241\n      jump\t// in\n    tag_345:\n        /* \"#utility.yul\":2562:2569   */\n      dup1\n        /* \"#utility.yul\":2593:2594   */\n      0x00\n        /* \"#utility.yul\":2578:2862   */\n    tag_346:\n        /* \"#utility.yul\":2603:2609   */\n      dup4\n        /* \"#utility.yul\":2600:2601   */\n      dup2\n        /* \"#utility.yul\":2597:2610   */\n      lt\n        /* \"#utility.yul\":2578:2862   */\n      iszero\n      tag_348\n      jumpi\n        /* \"#utility.yul\":2679:2685   */\n      dup2\n        /* \"#utility.yul\":2673:2686   */\n      mload\n        /* \"#utility.yul\":2706:2769   */\n      tag_349\n        /* \"#utility.yul\":2765:2768   */\n      dup9\n        /* \"#utility.yul\":2750:2763   */\n      dup3\n        /* \"#utility.yul\":2706:2769   */\n      tag_244\n      jump\t// in\n    tag_349:\n        /* \"#utility.yul\":2699:2769   */\n      swap8\n      pop\n        /* \"#utility.yul\":2792:2852   */\n      tag_350\n        /* \"#utility.yul\":2845:2851   */\n      dup4\n        /* \"#utility.yul\":2792:2852   */\n      tag_245\n      jump\t// in\n    tag_350:\n        /* \"#utility.yul\":2782:2852   */\n      swap3\n      pop\n        /* \"#utility.yul\":2638:2862   */\n      pop\n        /* \"#utility.yul\":2625:2626   */\n      0x01\n        /* \"#utility.yul\":2622:2623   */\n      dup2\n        /* \"#utility.yul\":2618:2627   */\n      add\n        /* \"#utility.yul\":2613:2627   */\n      swap1\n      pop\n        /* \"#utility.yul\":2578:2862   */\n      jump(tag_346)\n    tag_348:\n        /* \"#utility.yul\":2582:2596   */\n      pop\n        /* \"#utility.yul\":2878:2881   */\n      dup6\n        /* \"#utility.yul\":2871:2881   */\n      swap4\n      pop\n        /* \"#utility.yul\":2279:2887   */\n      pop\n      pop\n      pop\n        /* \"#utility.yul\":2155:2887   */\n      swap3\n      swap2\n      pop\n      pop\n      jump\t// out\n        /* \"#utility.yul\":2893:3266   */\n    tag_33:\n        /* \"#utility.yul\":3036:3040   */\n      0x00\n        /* \"#utility.yul\":3074:3076   */\n      0x20\n        /* \"#utility.yul\":3063:3072   */\n      dup3\n        /* \"#utility.yul\":3059:3077   */\n      add\n        /* \"#utility.yul\":3051:3077   */\n      swap1\n      pop\n        /* \"#utility.yul\":3123:3132   */\n      dup2\n        /* \"#utility.yul\":3117:3121   */\n      dup2\n        /* \"#utility.yul\":3113:3133   */\n      sub\n        /* \"#utility.yul\":3109:3110   */\n      0x00\n        /* \"#utility.yul\":3098:3107   */\n      dup4\n        /* \"#utility.yul\":3094:3111   */\n      add\n        /* \"#utility.yul\":3087:3134   */\n      mstore\n        /* \"#utility.yul\":3151:3259   */\n      tag_352\n        /* \"#utility.yul\":3254:3258   */\n      dup2\n        /* \"#utility.yul\":3245:3251   */\n      dup5\n        /* \"#utility.yul\":3151:3259   */\n      tag_246\n      jump\t// in\n    tag_352:\n        /* \"#utility.yul\":3143:3259   */\n      swap1\n      pop\n        /* \"#utility.yul\":2893:3266   */\n      swap3\n      swap2\n      pop\n      pop\n      jump\t// out\n        /* \"#utility.yul\":3272:3390   */\n    tag_247:\n        /* \"#utility.yul\":3359:3383   */\n      tag_354\n        /* \"#utility.yul\":3377:3382   */\n      dup2\n        /* \"#utility.yul\":3359:3383   */\n      tag_242\n      jump\t// in\n    tag_354:\n        /* \"#utility.yul\":3354:3357   */\n      dup3\n        /* \"#utility.yul\":3347:3384   */\n      mstore\n        /* \"#utility.yul\":3272:3390   */\n      pop\n      pop\n      jump\t// out\n        /* \"#utility.yul\":3396:3618   */\n    tag_38:\n        /* \"#utility.yul\":3489:3493   */\n      0x00\n        /* \"#utility.yul\":3527:3529   */\n      0x20\n        /* \"#utility.yul\":3516:3525   */\n      dup3\n        /* \"#utility.yul\":3512:3530   */\n      add\n        /* \"#utility.yul\":3504:3530   */\n      swap1\n      pop\n        /* \"#utility.yul\":3540:3611   */\n      tag_356\n        /* \"#utility.yul\":3608:3609   */\n      0x00\n        /* \"#utility.yul\":3597:3606   */\n      dup4\n        /* \"#utility.yul\":3593:3610   */\n      add\n        /* \"#utility.yul\":3584:3590   */\n      dup5\n        /* \"#utility.yul\":3540:3611   */\n      tag_247\n      jump\t// in\n    tag_356:\n        /* \"#utility.yul\":3396:3618   */\n      swap3\n      swap2\n      pop\n      pop\n      jump\t// out\n        /* \"#utility.yul\":3624:3741   */\n    tag_248:\n        /* \"#utility.yul\":3733:3734   */\n      0x00\n        /* \"#utility.yul\":3730:3731   */\n      dup1\n        /* \"#utility.yul\":3723:3735   */\n      revert\n        /* \"#utility.yul\":3747:3864   */\n    tag_249:\n        /* \"#utility.yul\":3856:3857   */\n      0x00\n        /* \"#utility.yul\":3853:3854   */\n      dup1\n        /* \"#utility.yul\":3846:3858   */\n      revert\n        /* \"#utility.yul\":3870:3987   */\n    tag_250:\n        /* \"#utility.yul\":3979:3980   */\n      0x00\n        /* \"#utility.yul\":3976:3977   */\n      dup1\n        /* \"#utility.yul\":3969:3981   */\n      revert\n        /* \"#utility.yul\":4006:4558   */\n    tag_251:\n        /* \"#utility.yul\":4063:4071   */\n      0x00\n        /* \"#utility.yul\":4073:4079   */\n      dup1\n        /* \"#utility.yul\":4123:4126   */\n      dup4\n        /* \"#utility.yul\":4116:4120   */\n      0x1f\n        /* \"#utility.yul\":4108:4114   */\n      dup5\n        /* \"#utility.yul\":4104:4121   */\n      add\n        /* \"#utility.yul\":4100:4127   */\n      slt\n        /* \"#utility.yul\":4090:4212   */\n      tag_361\n      jumpi\n        /* \"#utility.yul\":4131:4210   */\n      tag_362\n      tag_248\n      jump\t// in\n    tag_362:\n        /* \"#utility.yul\":4090:4212   */\n    tag_361:\n        /* \"#utility.yul\":4244:4250   */\n      dup3\n        /* \"#utility.yul\":4231:4251   */\n      calldataload\n        /* \"#utility.yul\":4221:4251   */\n      swap1\n      pop\n        /* \"#utility.yul\":4274:4292   */\n      0xffffffffffffffff\n        /* \"#utility.yul\":4266:4272   */\n      dup2\n        /* \"#utility.yul\":4263:4293   */\n      gt\n        /* \"#utility.yul\":4260:4377   */\n      iszero\n      tag_363\n      jumpi\n        /* \"#utility.yul\":4296:4375   */\n      tag_364\n      tag_249\n      jump\t// in\n    tag_364:\n        /* \"#utility.yul\":4260:4377   */\n    tag_363:\n        /* \"#utility.yul\":4410:4414   */\n      0x20\n        /* \"#utility.yul\":4402:4408   */\n      dup4\n        /* \"#utility.yul\":4398:4415   */\n      add\n        /* \"#utility.yul\":4386:4415   */\n      swap2\n      pop\n        /* \"#utility.yul\":4464:4467   */\n      dup4\n        /* \"#utility.yul\":4456:4460   */\n      0x01\n        /* \"#utility.yul\":4448:4454   */\n      dup3\n        /* \"#utility.yul\":4444:4461   */\n      mul\n        /* \"#utility.yul\":4434:4442   */\n      dup4\n        /* \"#utility.yul\":4430:4462   */\n      add\n        /* \"#utility.yul\":4427:4468   */\n      gt\n        /* \"#utility.yul\":4424:4552   */\n      iszero\n      tag_365\n      jumpi\n        /* \"#utility.yul\":4471:4550   */\n      tag_366\n      tag_250\n      jump\t// in\n    tag_366:\n        /* \"#utility.yul\":4424:4552   */\n    tag_365:\n        /* \"#utility.yul\":4006:4558   */\n      swap3\n      pop\n      swap3\n      swap1\n      pop\n      jump\t// out\n        /* \"#utility.yul\":4564:5091   */\n    tag_45:\n        /* \"#utility.yul\":4634:4640   */\n      0x00\n        /* \"#utility.yul\":4642:4648   */\n      dup1\n        /* \"#utility.yul\":4691:4693   */\n      0x20\n        /* \"#utility.yul\":4679:4688   */\n      dup4\n        /* \"#utility.yul\":4670:4677   */\n      dup6\n        /* \"#utility.yul\":4666:4689   */\n      sub\n        /* \"#utility.yul\":4662:4694   */\n      slt\n        /* \"#utility.yul\":4659:4778   */\n      iszero\n      tag_368\n      jumpi\n        /* \"#utility.yul\":4697:4776   */\n      tag_369\n      tag_233\n      jump\t// in\n    tag_369:\n        /* \"#utility.yul\":4659:4778   */\n    tag_368:\n        /* \"#utility.yul\":4845:4846   */\n      0x00\n        /* \"#utility.yul\":4834:4843   */\n      dup4\n        /* \"#utility.yul\":4830:4847   */\n      add\n        /* \"#utility.yul\":4817:4848   */\n      calldataload\n        /* \"#utility.yul\":4875:4893   */\n      0xffffffffffffffff\n        /* \"#utility.yul\":4867:4873   */\n      dup2\n        /* \"#utility.yul\":4864:4894   */\n      gt\n        /* \"#utility.yul\":4861:4978   */\n      iszero\n      tag_370\n      jumpi\n        /* \"#utility.yul\":4897:4976   */\n      tag_371\n      tag_234\n      jump\t// in\n    tag_371:\n        /* \"#utility.yul\":4861:4978   */\n    tag_370:\n        /* \"#utility.yul\":5010:5074   */\n      tag_372\n        /* \"#utility.yul\":5066:5073   */\n      dup6\n        /* \"#utility.yul\":5057:5063   */\n      dup3\n        /* \"#utility.yul\":5046:5055   */\n      dup7\n        /* \"#utility.yul\":5042:5064   */\n      add\n        /* \"#utility.yul\":5010:5074   */\n      tag_251\n      jump\t// in\n    tag_372:\n        /* \"#utility.yul\":4992:5074   */\n      swap3\n      pop\n      swap3\n      pop\n        /* \"#utility.yul\":4788:5084   */\n      pop\n        /* \"#utility.yul\":4564:5091   */\n      swap3\n      pop\n      swap3\n      swap1\n      pop\n      jump\t// out\n        /* \"#utility.yul\":5097:5219   */\n    tag_252:\n        /* \"#utility.yul\":5170:5194   */\n      tag_374\n        /* \"#utility.yul\":5188:5193   */\n      dup2\n        /* \"#utility.yul\":5170:5194   */\n      tag_242\n      jump\t// in\n    tag_374:\n        /* \"#utility.yul\":5163:5168   */\n      dup2\n        /* \"#utility.yul\":5160:5195   */\n      eq\n        /* \"#utility.yul\":5150:5213   */\n      tag_375\n      jumpi\n        /* \"#utility.yul\":5209:5210   */\n      0x00\n        /* \"#utility.yul\":5206:5207   */\n      dup1\n        /* \"#utility.yul\":5199:5211   */\n      revert\n        /* \"#utility.yul\":5150:5213   */\n    tag_375:\n        /* \"#utility.yul\":5097:5219   */\n      pop\n      jump\t// out\n        /* \"#utility.yul\":5225:5364   */\n    tag_253:\n        /* \"#utility.yul\":5271:5276   */\n      0x00\n        /* \"#utility.yul\":5309:5315   */\n      dup2\n        /* \"#utility.yul\":5296:5316   */\n      calldataload\n        /* \"#utility.yul\":5287:5316   */\n      swap1\n      pop\n        /* \"#utility.yul\":5325:5358   */\n      tag_377\n        /* \"#utility.yul\":5352:5357   */\n      dup2\n        /* \"#utility.yul\":5325:5358   */\n      tag_252\n      jump\t// in\n    tag_377:\n        /* \"#utility.yul\":5225:5364   */\n      swap3\n      swap2\n      pop\n      pop\n      jump\t// out\n        /* \"#utility.yul\":5370:5699   */\n    tag_58:\n        /* \"#utility.yul\":5429:5435   */\n      0x00\n        /* \"#utility.yul\":5478:5480   */\n      0x20\n        /* \"#utility.yul\":5466:5475   */\n      dup3\n        /* \"#utility.yul\":5457:5464   */\n      dup5\n        /* \"#utility.yul\":5453:5476   */\n      sub\n        /* \"#utility.yul\":5449:5481   */\n      slt\n        /* \"#utility.yul\":5446:5565   */\n      iszero\n      tag_379\n      jumpi\n        /* \"#utility.yul\":5484:5563   */\n      tag_380\n      tag_233\n      jump\t// in\n    tag_380:\n        /* \"#utility.yul\":5446:5565   */\n    tag_379:\n        /* \"#utility.yul\":5604:5605   */\n      0x00\n        /* \"#utility.yul\":5629:5682   */\n      tag_381\n        /* \"#utility.yul\":5674:5681   */\n      dup5\n        /* \"#utility.yul\":5665:5671   */\n      dup3\n        /* \"#utility.yul\":5654:5663   */\n      dup6\n        /* \"#utility.yul\":5650:5672   */\n      add\n        /* \"#utility.yul\":5629:5682   */\n      tag_253\n      jump\t// in\n    tag_381:\n        /* \"#utility.yul\":5619:5682   */\n      swap2\n      pop\n        /* \"#utility.yul\":5575:5692   */\n      pop\n        /* \"#utility.yul\":5370:5699   */\n      swap3\n      swap2\n      pop\n      pop\n      jump\t// out\n        /* \"#utility.yul\":5705:5809   */\n    tag_254:\n        /* \"#utility.yul\":5750:5757   */\n      0x00\n        /* \"#utility.yul\":5779:5803   */\n      tag_383\n        /* \"#utility.yul\":5797:5802   */\n      dup3\n        /* \"#utility.yul\":5779:5803   */\n      tag_235\n      jump\t// in\n    tag_383:\n        /* \"#utility.yul\":5768:5803   */\n      swap1\n      pop\n        /* \"#utility.yul\":5705:5809   */\n      swap2\n      swap1\n      pop\n      jump\t// out\n        /* \"#utility.yul\":5815:5957   */\n    tag_255:\n        /* \"#utility.yul\":5918:5950   */\n      tag_385\n        /* \"#utility.yul\":5944:5949   */\n      dup2\n        /* \"#utility.yul\":5918:5950   */\n      tag_254\n      jump\t// in\n    tag_385:\n        /* \"#utility.yul\":5913:5916   */\n      dup3\n        /* \"#utility.yul\":5906:5951   */\n      mstore\n        /* \"#utility.yul\":5815:5957   */\n      pop\n      pop\n      jump\t// out\n        /* \"#utility.yul\":5963:6062   */\n    tag_256:\n        /* \"#utility.yul\":6015:6021   */\n      0x00\n        /* \"#utility.yul\":6049:6054   */\n      dup2\n        /* \"#utility.yul\":6043:6055   */\n      mload\n        /* \"#utility.yul\":6033:6055   */\n      swap1\n      pop\n        /* \"#utility.yul\":5963:6062   */\n      swap2\n      swap1\n      pop\n      jump\t// out\n        /* \"#utility.yul\":6068:6237   */\n    tag_257:\n        /* \"#utility.yul\":6152:6163   */\n      0x00\n        /* \"#utility.yul\":6186:6192   */\n      dup3\n        /* \"#utility.yul\":6181:6184   */\n      dup3\n        /* \"#utility.yul\":6174:6193   */\n      mstore\n        /* \"#utility.yul\":6226:6230   */\n      0x20\n        /* \"#utility.yul\":6221:6224   */\n      dup3\n        /* \"#utility.yul\":6217:6231   */\n      add\n        /* \"#utility.yul\":6202:6231   */\n      swap1\n      pop\n        /* \"#utility.yul\":6068:6237   */\n      swap3\n      swap2\n      pop\n      pop\n      jump\t// out\n        /* \"#utility.yul\":6243:6382   */\n    tag_258:\n        /* \"#utility.yul\":6332:6338   */\n      dup3\n        /* \"#utility.yul\":6327:6330   */\n      dup2\n        /* \"#utility.yul\":6322:6325   */\n      dup4\n        /* \"#utility.yul\":6316:6339   */\n      mcopy\n        /* \"#utility.yul\":6373:6374   */\n      0x00\n        /* \"#utility.yul\":6364:6370   */\n      dup4\n        /* \"#utility.yul\":6359:6362   */\n      dup4\n        /* \"#utility.yul\":6355:6371   */\n      add\n        /* \"#utility.yul\":6348:6375   */\n      mstore\n        /* \"#utility.yul\":6243:6382   */\n      pop\n      pop\n      pop\n      jump\t// out\n        /* \"#utility.yul\":6388:6490   */\n    tag_259:\n        /* \"#utility.yul\":6429:6435   */\n      0x00\n        /* \"#utility.yul\":6480:6482   */\n      0x1f\n        /* \"#utility.yul\":6476:6483   */\n      not\n        /* \"#utility.yul\":6471:6473   */\n      0x1f\n        /* \"#utility.yul\":6464:6469   */\n      dup4\n        /* \"#utility.yul\":6460:6474   */\n      add\n        /* \"#utility.yul\":6456:6484   */\n      and\n        /* \"#utility.yul\":6446:6484   */\n      swap1\n      pop\n        /* \"#utility.yul\":6388:6490   */\n      swap2\n      swap1\n      pop\n      jump\t// out\n        /* \"#utility.yul\":6496:6873   */\n    tag_260:\n        /* \"#utility.yul\":6584:6587   */\n      0x00\n        /* \"#utility.yul\":6612:6651   */\n      tag_391\n        /* \"#utility.yul\":6645:6650   */\n      dup3\n        /* \"#utility.yul\":6612:6651   */\n      tag_256\n      jump\t// in\n    tag_391:\n        /* \"#utility.yul\":6667:6738   */\n      tag_392\n        /* \"#utility.yul\":6731:6737   */\n      dup2\n        /* \"#utility.yul\":6726:6729   */\n      dup6\n        /* \"#utility.yul\":6667:6738   */\n      tag_257\n      jump\t// in\n    tag_392:\n        /* \"#utility.yul\":6660:6738   */\n      swap4\n      pop\n        /* \"#utility.yul\":6747:6812   */\n      tag_393\n        /* \"#utility.yul\":6805:6811   */\n      dup2\n        /* \"#utility.yul\":6800:6803   */\n      dup6\n        /* \"#utility.yul\":6793:6797   */\n      0x20\n        /* \"#utility.yul\":6786:6791   */\n      dup7\n        /* \"#utility.yul\":6782:6798   */\n      add\n        /* \"#utility.yul\":6747:6812   */\n      tag_258\n      jump\t// in\n    tag_393:\n        /* \"#utility.yul\":6837:6866   */\n      tag_394\n        /* \"#utility.yul\":6859:6865   */\n      dup2\n        /* \"#utility.yul\":6837:6866   */\n      tag_259\n      jump\t// in\n    tag_394:\n        /* \"#utility.yul\":6832:6835   */\n      dup5\n        /* \"#utility.yul\":6828:6867   */\n      add\n        /* \"#utility.yul\":6821:6867   */\n      swap2\n      pop\n        /* \"#utility.yul\":6588:6873   */\n      pop\n        /* \"#utility.yul\":6496:6873   */\n      swap3\n      swap2\n      pop\n      pop\n      jump\t// out\n        /* \"#utility.yul\":6879:7059   */\n    tag_131:\n        /* \"#utility.yul\":6927:7004   */\n      0x4e487b7100000000000000000000000000000000000000000000000000000000\n        /* \"#utility.yul\":6924:6925   */\n      0x00\n        /* \"#utility.yul\":6917:7005   */\n      mstore\n        /* \"#utility.yul\":7024:7028   */\n      0x21\n        /* \"#utility.yul\":7021:7022   */\n      0x04\n        /* \"#utility.yul\":7014:7029   */\n      mstore\n        /* \"#utility.yul\":7048:7052   */\n      0x24\n        /* \"#utility.yul\":7045:7046   */\n      0x00\n        /* \"#utility.yul\":7038:7053   */\n      revert\n        /* \"#utility.yul\":7065:7179   */\n    tag_261:\n        /* \"#utility.yul\":7147:7148   */\n      0x03\n        /* \"#utility.yul\":7140:7145   */\n      dup2\n        /* \"#utility.yul\":7137:7149   */\n      lt\n        /* \"#utility.yul\":7127:7173   */\n      tag_397\n      jumpi\n        /* \"#utility.yul\":7153:7171   */\n      tag_398\n      tag_131\n      jump\t// in\n    tag_398:\n        /* \"#utility.yul\":7127:7173   */\n    tag_397:\n        /* \"#utility.yul\":7065:7179   */\n      pop\n      jump\t// out\n        /* \"#utility.yul\":7185:7314   */\n    tag_262:\n        /* \"#utility.yul\":7231:7238   */\n      0x00\n        /* \"#utility.yul\":7260:7265   */\n      dup2\n        /* \"#utility.yul\":7249:7265   */\n      swap1\n      pop\n        /* \"#utility.yul\":7266:7308   */\n      tag_400\n        /* \"#utility.yul\":7302:7307   */\n      dup3\n        /* \"#utility.yul\":7266:7308   */\n      tag_261\n      jump\t// in\n    tag_400:\n        /* \"#utility.yul\":7185:7314   */\n      swap2\n      swap1\n      pop\n      jump\t// out\n        /* \"#utility.yul\":7320:7449   */\n    tag_263:\n        /* \"#utility.yul\":7377:7386   */\n      0x00\n        /* \"#utility.yul\":7410:7443   */\n      tag_402\n        /* \"#utility.yul\":7437:7442   */\n      dup3\n        /* \"#utility.yul\":7410:7443   */\n      tag_262\n      jump\t// in\n    tag_402:\n        /* \"#utility.yul\":7397:7443   */\n      swap1\n      pop\n        /* \"#utility.yul\":7320:7449   */\n      swap2\n      swap1\n      pop\n      jump\t// out\n        /* \"#utility.yul\":7455:7600   */\n    tag_264:\n        /* \"#utility.yul\":7549:7593   */\n      tag_404\n        /* \"#utility.yul\":7587:7592   */\n      dup2\n        /* \"#utility.yul\":7549:7593   */\n      tag_263\n      jump\t// in\n    tag_404:\n        /* \"#utility.yul\":7544:7547   */\n      dup3\n        /* \"#utility.yul\":7537:7594   */\n      mstore\n        /* \"#utility.yul\":7455:7600   */\n      pop\n      pop\n      jump\t// out\n        /* \"#utility.yul\":7606:7725   */\n    tag_265:\n        /* \"#utility.yul\":7693:7694   */\n      0x03\n        /* \"#utility.yul\":7686:7691   */\n      dup2\n        /* \"#utility.yul\":7683:7695   */\n      lt\n        /* \"#utility.yul\":7673:7719   */\n      tag_406\n      jumpi\n        /* \"#utility.yul\":7699:7717   */\n      tag_407\n      tag_131\n      jump\t// in\n    tag_407:\n        /* \"#utility.yul\":7673:7719   */\n    tag_406:\n        /* \"#utility.yul\":7606:7725   */\n      pop\n      jump\t// out\n        /* \"#utility.yul\":7731:7870   */\n    tag_266:\n        /* \"#utility.yul\":7782:7789   */\n      0x00\n        /* \"#utility.yul\":7811:7816   */\n      dup2\n        /* \"#utility.yul\":7800:7816   */\n      swap1\n      pop\n        /* \"#utility.yul\":7817:7864   */\n      tag_409\n        /* \"#utility.yul\":7858:7863   */\n      dup3\n        /* \"#utility.yul\":7817:7864   */\n      tag_265\n      jump\t// in\n    tag_409:\n        /* \"#utility.yul\":7731:7870   */\n      swap2\n      swap1\n      pop\n      jump\t// out\n        /* \"#utility.yul\":7876:8015   */\n    tag_267:\n        /* \"#utility.yul\":7938:7947   */\n      0x00\n        /* \"#utility.yul\":7971:8009   */\n      tag_411\n        /* \"#utility.yul\":8003:8008   */\n      dup3\n        /* \"#utility.yul\":7971:8009   */\n      tag_266\n      jump\t// in\n    tag_411:\n        /* \"#utility.yul\":7958:8009   */\n      swap1\n      pop\n        /* \"#utility.yul\":7876:8015   */\n      swap2\n      swap1\n      pop\n      jump\t// out\n        /* \"#utility.yul\":8021:8176   */\n    tag_268:\n        /* \"#utility.yul\":8120:8169   */\n      tag_413\n        /* \"#utility.yul\":8163:8168   */\n      dup2\n        /* \"#utility.yul\":8120:8169   */\n      tag_267\n      jump\t// in\n    tag_413:\n        /* \"#utility.yul\":8115:8118   */\n      dup3\n        /* \"#utility.yul\":8108:8170   */\n      mstore\n        /* \"#utility.yul\":8021:8176   */\n      pop\n      pop\n      jump\t// out\n        /* \"#utility.yul\":8182:8302   */\n    tag_269:\n        /* \"#utility.yul\":8270:8271   */\n      0x03\n        /* \"#utility.yul\":8263:8268   */\n      dup2\n        /* \"#utility.yul\":8260:8272   */\n      lt\n        /* \"#utility.yul\":8250:8296   */\n      tag_415\n      jumpi\n        /* \"#utility.yul\":8276:8294   */\n      tag_416\n      tag_131\n      jump\t// in\n    tag_416:\n        /* \"#utility.yul\":8250:8296   */\n    tag_415:\n        /* \"#utility.yul\":8182:8302   */\n      pop\n      jump\t// out\n        /* \"#utility.yul\":8308:8449   */\n    tag_270:\n        /* \"#utility.yul\":8360:8367   */\n      0x00\n        /* \"#utility.yul\":8389:8394   */\n      dup2\n        /* \"#utility.yul\":8378:8394   */\n      swap1\n      pop\n        /* \"#utility.yul\":8395:8443   */\n      tag_418\n        /* \"#utility.yul\":8437:8442   */\n      dup3\n        /* \"#utility.yul\":8395:8443   */\n      tag_269\n      jump\t// in\n    tag_418:\n        /* \"#utility.yul\":8308:8449   */\n      swap2\n      swap1\n      pop\n      jump\t// out\n        /* \"#utility.yul\":8455:8596   */\n    tag_271:\n        /* \"#utility.yul\":8518:8527   */\n      0x00\n        /* \"#utility.yul\":8551:8590   */\n      tag_420\n        /* \"#utility.yul\":8584:8589   */\n      dup3\n        /* \"#utility.yul\":8551:8590   */\n      tag_270\n      jump\t// in\n    tag_420:\n        /* \"#utility.yul\":8538:8590   */\n      swap1\n      pop\n        /* \"#utility.yul\":8455:8596   */\n      swap2\n      swap1\n      pop\n      jump\t// out\n        /* \"#utility.yul\":8602:8759   */\n    tag_272:\n        /* \"#utility.yul\":8702:8752   */\n      tag_422\n        /* \"#utility.yul\":8746:8751   */\n      dup2\n        /* \"#utility.yul\":8702:8752   */\n      tag_271\n      jump\t// in\n    tag_422:\n        /* \"#utility.yul\":8697:8700   */\n      dup3\n        /* \"#utility.yul\":8690:8753   */\n      mstore\n        /* \"#utility.yul\":8602:8759   */\n      pop\n      pop\n      jump\t// out\n        /* \"#utility.yul\":8765:10397   */\n    tag_61:\n        /* \"#utility.yul\":9236:9240   */\n      0x00\n        /* \"#utility.yul\":9274:9277   */\n      0x0180\n        /* \"#utility.yul\":9263:9272   */\n      dup3\n        /* \"#utility.yul\":9259:9278   */\n      add\n        /* \"#utility.yul\":9251:9278   */\n      swap1\n      pop\n        /* \"#utility.yul\":9288:9375   */\n      tag_424\n        /* \"#utility.yul\":9372:9373   */\n      0x00\n        /* \"#utility.yul\":9361:9370   */\n      dup4\n        /* \"#utility.yul\":9357:9374   */\n      add\n        /* \"#utility.yul\":9348:9354   */\n      dup16\n        /* \"#utility.yul\":9288:9375   */\n      tag_255\n      jump\t// in\n    tag_424:\n        /* \"#utility.yul\":9422:9431   */\n      dup2\n        /* \"#utility.yul\":9416:9420   */\n      dup2\n        /* \"#utility.yul\":9412:9432   */\n      sub\n        /* \"#utility.yul\":9407:9409   */\n      0x20\n        /* \"#utility.yul\":9396:9405   */\n      dup4\n        /* \"#utility.yul\":9392:9410   */\n      add\n        /* \"#utility.yul\":9385:9433   */\n      mstore\n        /* \"#utility.yul\":9450:9528   */\n      tag_425\n        /* \"#utility.yul\":9523:9527   */\n      dup2\n        /* \"#utility.yul\":9514:9520   */\n      dup15\n        /* \"#utility.yul\":9450:9528   */\n      tag_260\n      jump\t// in\n    tag_425:\n        /* \"#utility.yul\":9442:9528   */\n      swap1\n      pop\n        /* \"#utility.yul\":9538:9610   */\n      tag_426\n        /* \"#utility.yul\":9606:9608   */\n      0x40\n        /* \"#utility.yul\":9595:9604   */\n      dup4\n        /* \"#utility.yul\":9591:9609   */\n      add\n        /* \"#utility.yul\":9582:9588   */\n      dup14\n        /* \"#utility.yul\":9538:9610   */\n      tag_247\n      jump\t// in\n    tag_426:\n        /* \"#utility.yul\":9620:9692   */\n      tag_427\n        /* \"#utility.yul\":9688:9690   */\n      0x60\n        /* \"#utility.yul\":9677:9686   */\n      dup4\n        /* \"#utility.yul\":9673:9691   */\n      add\n        /* \"#utility.yul\":9664:9670   */\n      dup13\n        /* \"#utility.yul\":9620:9692   */\n      tag_247\n      jump\t// in\n    tag_427:\n        /* \"#utility.yul\":9702:9775   */\n      tag_428\n        /* \"#utility.yul\":9770:9773   */\n      0x80\n        /* \"#utility.yul\":9759:9768   */\n      dup4\n        /* \"#utility.yul\":9755:9774   */\n      add\n        /* \"#utility.yul\":9746:9752   */\n      dup12\n        /* \"#utility.yul\":9702:9775   */\n      tag_247\n      jump\t// in\n    tag_428:\n        /* \"#utility.yul\":9785:9858   */\n      tag_429\n        /* \"#utility.yul\":9853:9856   */\n      0xa0\n        /* \"#utility.yul\":9842:9851   */\n      dup4\n        /* \"#utility.yul\":9838:9857   */\n      add\n        /* \"#utility.yul\":9829:9835   */\n      dup11\n        /* \"#utility.yul\":9785:9858   */\n      tag_247\n      jump\t// in\n    tag_429:\n        /* \"#utility.yul\":9868:9941   */\n      tag_430\n        /* \"#utility.yul\":9936:9939   */\n      0xc0\n        /* \"#utility.yul\":9925:9934   */\n      dup4\n        /* \"#utility.yul\":9921:9940   */\n      add\n        /* \"#utility.yul\":9912:9918   */\n      dup10\n        /* \"#utility.yul\":9868:9941   */\n      tag_247\n      jump\t// in\n    tag_430:\n        /* \"#utility.yul\":9951:10024   */\n      tag_431\n        /* \"#utility.yul\":10019:10022   */\n      0xe0\n        /* \"#utility.yul\":10008:10017   */\n      dup4\n        /* \"#utility.yul\":10004:10023   */\n      add\n        /* \"#utility.yul\":9995:10001   */\n      dup9\n        /* \"#utility.yul\":9951:10024   */\n      tag_247\n      jump\t// in\n    tag_431:\n        /* \"#utility.yul\":10034:10107   */\n      tag_432\n        /* \"#utility.yul\":10102:10105   */\n      0x0100\n        /* \"#utility.yul\":10091:10100   */\n      dup4\n        /* \"#utility.yul\":10087:10106   */\n      add\n        /* \"#utility.yul\":10078:10084   */\n      dup8\n        /* \"#utility.yul\":10034:10107   */\n      tag_247\n      jump\t// in\n    tag_432:\n        /* \"#utility.yul\":10117:10197   */\n      tag_433\n        /* \"#utility.yul\":10192:10195   */\n      0x0120\n        /* \"#utility.yul\":10181:10190   */\n      dup4\n        /* \"#utility.yul\":10177:10196   */\n      add\n        /* \"#utility.yul\":10168:10174   */\n      dup7\n        /* \"#utility.yul\":10117:10197   */\n      tag_264\n      jump\t// in\n    tag_433:\n        /* \"#utility.yul\":10207:10293   */\n      tag_434\n        /* \"#utility.yul\":10288:10291   */\n      0x0140\n        /* \"#utility.yul\":10277:10286   */\n      dup4\n        /* \"#utility.yul\":10273:10292   */\n      add\n        /* \"#utility.yul\":10263:10270   */\n      dup6\n        /* \"#utility.yul\":10207:10293   */\n      tag_268\n      jump\t// in\n    tag_434:\n        /* \"#utility.yul\":10303:10390   */\n      tag_435\n        /* \"#utility.yul\":10385:10388   */\n      0x0160\n        /* \"#utility.yul\":10374:10383   */\n      dup4\n        /* \"#utility.yul\":10370:10389   */\n      add\n        /* \"#utility.yul\":10360:10367   */\n      dup5\n        /* \"#utility.yul\":10303:10390   */\n      tag_272\n      jump\t// in\n    tag_435:\n        /* \"#utility.yul\":8765:10397   */\n      swap14\n      swap13\n      pop\n      pop\n      pop\n      pop\n      pop\n      pop\n      pop\n      pop\n      pop\n      pop\n      pop\n      pop\n      pop\n      jump\t// out\n        /* \"#utility.yul\":10403:10493   */\n    tag_273:\n        /* \"#utility.yul\":10437:10444   */\n      0x00\n        /* \"#utility.yul\":10480:10485   */\n      dup2\n        /* \"#utility.yul\":10473:10486   */\n      iszero\n        /* \"#utility.yul\":10466:10487   */\n      iszero\n        /* \"#utility.yul\":10455:10487   */\n      swap1\n      pop\n        /* \"#utility.yul\":10403:10493   */\n      swap2\n      swap1\n      pop\n      jump\t// out\n        /* \"#utility.yul\":10499:10608   */\n    tag_274:\n        /* \"#utility.yul\":10580:10601   */\n      tag_438\n        /* \"#utility.yul\":10595:10600   */\n      dup2\n        /* \"#utility.yul\":10580:10601   */\n      tag_273\n      jump\t// in\n    tag_438:\n        /* \"#utility.yul\":10575:10578   */\n      dup3\n        /* \"#utility.yul\":10568:10602   */\n      mstore\n        /* \"#utility.yul\":10499:10608   */\n      pop\n      pop\n      jump\t// out\n        /* \"#utility.yul\":10614:10712   */\n    tag_275:\n        /* \"#utility.yul\":10665:10671   */\n      0x00\n        /* \"#utility.yul\":10699:10704   */\n      dup2\n        /* \"#utility.yul\":10693:10705   */\n      mload\n        /* \"#utility.yul\":10683:10705   */\n      swap1\n      pop\n        /* \"#utility.yul\":10614:10712   */\n      swap2\n      swap1\n      pop\n      jump\t// out\n        /* \"#utility.yul\":10718:10886   */\n    tag_276:\n        /* \"#utility.yul\":10801:10812   */\n      0x00\n        /* \"#utility.yul\":10835:10841   */\n      dup3\n        /* \"#utility.yul\":10830:10833   */\n      dup3\n        /* \"#utility.yul\":10823:10842   */\n      mstore\n        /* \"#utility.yul\":10875:10879   */\n      0x20\n        /* \"#utility.yul\":10870:10873   */\n      dup3\n        /* \"#utility.yul\":10866:10880   */\n      add\n        /* \"#utility.yul\":10851:10880   */\n      swap1\n      pop\n        /* \"#utility.yul\":10718:10886   */\n      swap3\n      swap2\n      pop\n      pop\n      jump\t// out\n        /* \"#utility.yul\":10892:11265   */\n    tag_277:\n        /* \"#utility.yul\":10978:10981   */\n      0x00\n        /* \"#utility.yul\":11006:11044   */\n      tag_442\n        /* \"#utility.yul\":11038:11043   */\n      dup3\n        /* \"#utility.yul\":11006:11044   */\n      tag_275\n      jump\t// in\n    tag_442:\n        /* \"#utility.yul\":11060:11130   */\n      tag_443\n        /* \"#utility.yul\":11123:11129   */\n      dup2\n        /* \"#utility.yul\":11118:11121   */\n      dup6\n        /* \"#utility.yul\":11060:11130   */\n      tag_276\n      jump\t// in\n    tag_443:\n        /* \"#utility.yul\":11053:11130   */\n      swap4\n      pop\n        /* \"#utility.yul\":11139:11204   */\n      tag_444\n        /* \"#utility.yul\":11197:11203   */\n      dup2\n        /* \"#utility.yul\":11192:11195   */\n      dup6\n        /* \"#utility.yul\":11185:11189   */\n      0x20\n        /* \"#utility.yul\":11178:11183   */\n      dup7\n        /* \"#utility.yul\":11174:11190   */\n      add\n        /* \"#utility.yul\":11139:11204   */\n      tag_258\n      jump\t// in\n    tag_444:\n        /* \"#utility.yul\":11229:11258   */\n      tag_445\n        /* \"#utility.yul\":11251:11257   */\n      dup2\n        /* \"#utility.yul\":11229:11258   */\n      tag_259\n      jump\t// in\n    tag_445:\n        /* \"#utility.yul\":11224:11227   */\n      dup5\n        /* \"#utility.yul\":11220:11259   */\n      add\n        /* \"#utility.yul\":11213:11259   */\n      swap2\n      pop\n        /* \"#utility.yul\":10982:11265   */\n      pop\n        /* \"#utility.yul\":10892:11265   */\n      swap3\n      swap2\n      pop\n      pop\n      jump\t// out\n        /* \"#utility.yul\":11271:11678   */\n    tag_67:\n        /* \"#utility.yul\":11404:11408   */\n      0x00\n        /* \"#utility.yul\":11442:11444   */\n      0x40\n        /* \"#utility.yul\":11431:11440   */\n      dup3\n        /* \"#utility.yul\":11427:11445   */\n      add\n        /* \"#utility.yul\":11419:11445   */\n      swap1\n      pop\n        /* \"#utility.yul\":11455:11520   */\n      tag_447\n        /* \"#utility.yul\":11517:11518   */\n      0x00\n        /* \"#utility.yul\":11506:11515   */\n      dup4\n        /* \"#utility.yul\":11502:11519   */\n      add\n        /* \"#utility.yul\":11493:11499   */\n      dup6\n        /* \"#utility.yul\":11455:11520   */\n      tag_274\n      jump\t// in\n    tag_447:\n        /* \"#utility.yul\":11567:11576   */\n      dup2\n        /* \"#utility.yul\":11561:11565   */\n      dup2\n        /* \"#utility.yul\":11557:11577   */\n      sub\n        /* \"#utility.yul\":11552:11554   */\n      0x20\n        /* \"#utility.yul\":11541:11550   */\n      dup4\n        /* \"#utility.yul\":11537:11555   */\n      add\n        /* \"#utility.yul\":11530:11578   */\n      mstore\n        /* \"#utility.yul\":11595:11671   */\n      tag_448\n        /* \"#utility.yul\":11666:11670   */\n      dup2\n        /* \"#utility.yul\":11657:11663   */\n      dup5\n        /* \"#utility.yul\":11595:11671   */\n      tag_277\n      jump\t// in\n    tag_448:\n        /* \"#utility.yul\":11587:11671   */\n      swap1\n      pop\n        /* \"#utility.yul\":11271:11678   */\n      swap4\n      swap3\n      pop\n      pop\n      pop\n      jump\t// out\n        /* \"#utility.yul\":11684:11802   */\n    tag_278:\n        /* \"#utility.yul\":11771:11795   */\n      tag_450\n        /* \"#utility.yul\":11789:11794   */\n      dup2\n        /* \"#utility.yul\":11771:11795   */\n      tag_236\n      jump\t// in\n    tag_450:\n        /* \"#utility.yul\":11766:11769   */\n      dup3\n        /* \"#utility.yul\":11759:11796   */\n      mstore\n        /* \"#utility.yul\":11684:11802   */\n      pop\n      pop\n      jump\t// out\n        /* \"#utility.yul\":11808:12030   */\n    tag_76:\n        /* \"#utility.yul\":11901:11905   */\n      0x00\n        /* \"#utility.yul\":11939:11941   */\n      0x20\n        /* \"#utility.yul\":11928:11937   */\n      dup3\n        /* \"#utility.yul\":11924:11942   */\n      add\n        /* \"#utility.yul\":11916:11942   */\n      swap1\n      pop\n        /* \"#utility.yul\":11952:12023   */\n      tag_452\n        /* \"#utility.yul\":12020:12021   */\n      0x00\n        /* \"#utility.yul\":12009:12018   */\n      dup4\n        /* \"#utility.yul\":12005:12022   */\n      add\n        /* \"#utility.yul\":11996:12002   */\n      dup5\n        /* \"#utility.yul\":11952:12023   */\n      tag_278\n      jump\t// in\n    tag_452:\n        /* \"#utility.yul\":11808:12030   */\n      swap3\n      swap2\n      pop\n      pop\n      jump\t// out\n        /* \"#utility.yul\":12050:12603   */\n    tag_279:\n        /* \"#utility.yul\":12108:12116   */\n      0x00\n        /* \"#utility.yul\":12118:12124   */\n      dup1\n        /* \"#utility.yul\":12168:12171   */\n      dup4\n        /* \"#utility.yul\":12161:12165   */\n      0x1f\n        /* \"#utility.yul\":12153:12159   */\n      dup5\n        /* \"#utility.yul\":12149:12166   */\n      add\n        /* \"#utility.yul\":12145:12172   */\n      slt\n        /* \"#utility.yul\":12135:12257   */\n      tag_454\n      jumpi\n        /* \"#utility.yul\":12176:12255   */\n      tag_455\n      tag_248\n      jump\t// in\n    tag_455:\n        /* \"#utility.yul\":12135:12257   */\n    tag_454:\n        /* \"#utility.yul\":12289:12295   */\n      dup3\n        /* \"#utility.yul\":12276:12296   */\n      calldataload\n        /* \"#utility.yul\":12266:12296   */\n      swap1\n      pop\n        /* \"#utility.yul\":12319:12337   */\n      0xffffffffffffffff\n        /* \"#utility.yul\":12311:12317   */\n      dup2\n        /* \"#utility.yul\":12308:12338   */\n      gt\n        /* \"#utility.yul\":12305:12422   */\n      iszero\n      tag_456\n      jumpi\n        /* \"#utility.yul\":12341:12420   */\n      tag_457\n      tag_249\n      jump\t// in\n    tag_457:\n        /* \"#utility.yul\":12305:12422   */\n    tag_456:\n        /* \"#utility.yul\":12455:12459   */\n      0x20\n        /* \"#utility.yul\":12447:12453   */\n      dup4\n        /* \"#utility.yul\":12443:12460   */\n      add\n        /* \"#utility.yul\":12431:12460   */\n      swap2\n      pop\n        /* \"#utility.yul\":12509:12512   */\n      dup4\n        /* \"#utility.yul\":12501:12505   */\n      0x01\n        /* \"#utility.yul\":12493:12499   */\n      dup3\n        /* \"#utility.yul\":12489:12506   */\n      mul\n        /* \"#utility.yul\":12479:12487   */\n      dup4\n        /* \"#utility.yul\":12475:12507   */\n      add\n        /* \"#utility.yul\":12472:12513   */\n      gt\n        /* \"#utility.yul\":12469:12597   */\n      iszero\n      tag_458\n      jumpi\n        /* \"#utility.yul\":12516:12595   */\n      tag_459\n      tag_250\n      jump\t// in\n    tag_459:\n        /* \"#utility.yul\":12469:12597   */\n    tag_458:\n        /* \"#utility.yul\":12050:12603   */\n      swap3\n      pop\n      swap3\n      swap1\n      pop\n      jump\t// out\n        /* \"#utility.yul\":12609:13428   */\n    tag_79:\n        /* \"#utility.yul\":12698:12704   */\n      0x00\n        /* \"#utility.yul\":12706:12712   */\n      dup1\n        /* \"#utility.yul\":12714:12720   */\n      0x00\n        /* \"#utility.yul\":12722:12728   */\n      dup1\n        /* \"#utility.yul\":12771:12773   */\n      0x60\n        /* \"#utility.yul\":12759:12768   */\n      dup6\n        /* \"#utility.yul\":12750:12757   */\n      dup8\n        /* \"#utility.yul\":12746:12769   */\n      sub\n        /* \"#utility.yul\":12742:12774   */\n      slt\n        /* \"#utility.yul\":12739:12858   */\n      iszero\n      tag_461\n      jumpi\n        /* \"#utility.yul\":12777:12856   */\n      tag_462\n      tag_233\n      jump\t// in\n    tag_462:\n        /* \"#utility.yul\":12739:12858   */\n    tag_461:\n        /* \"#utility.yul\":12925:12926   */\n      0x00\n        /* \"#utility.yul\":12914:12923   */\n      dup6\n        /* \"#utility.yul\":12910:12927   */\n      add\n        /* \"#utility.yul\":12897:12928   */\n      calldataload\n        /* \"#utility.yul\":12955:12973   */\n      0xffffffffffffffff\n        /* \"#utility.yul\":12947:12953   */\n      dup2\n        /* \"#utility.yul\":12944:12974   */\n      gt\n        /* \"#utility.yul\":12941:13058   */\n      iszero\n      tag_463\n      jumpi\n        /* \"#utility.yul\":12977:13056   */\n      tag_464\n      tag_234\n      jump\t// in\n    tag_464:\n        /* \"#utility.yul\":12941:13058   */\n    tag_463:\n        /* \"#utility.yul\":13090:13155   */\n      tag_465\n        /* \"#utility.yul\":13147:13154   */\n      dup8\n        /* \"#utility.yul\":13138:13144   */\n      dup3\n        /* \"#utility.yul\":13127:13136   */\n      dup9\n        /* \"#utility.yul\":13123:13145   */\n      add\n        /* \"#utility.yul\":13090:13155   */\n      tag_279\n      jump\t// in\n    tag_465:\n        /* \"#utility.yul\":13072:13155   */\n      swap5\n      pop\n      swap5\n      pop\n        /* \"#utility.yul\":12868:13165   */\n      pop\n        /* \"#utility.yul\":13204:13206   */\n      0x20\n        /* \"#utility.yul\":13230:13283   */\n      tag_466\n        /* \"#utility.yul\":13275:13282   */\n      dup8\n        /* \"#utility.yul\":13266:13272   */\n      dup3\n        /* \"#utility.yul\":13255:13264   */\n      dup9\n        /* \"#utility.yul\":13251:13273   */\n      add\n        /* \"#utility.yul\":13230:13283   */\n      tag_253\n      jump\t// in\n    tag_466:\n        /* \"#utility.yul\":13220:13283   */\n      swap3\n      pop\n        /* \"#utility.yul\":13175:13293   */\n      pop\n        /* \"#utility.yul\":13332:13334   */\n      0x40\n        /* \"#utility.yul\":13358:13411   */\n      tag_467\n        /* \"#utility.yul\":13403:13410   */\n      dup8\n        /* \"#utility.yul\":13394:13400   */\n      dup3\n        /* \"#utility.yul\":13383:13392   */\n      dup9\n        /* \"#utility.yul\":13379:13401   */\n      add\n        /* \"#utility.yul\":13358:13411   */\n      tag_253\n      jump\t// in\n    tag_467:\n        /* \"#utility.yul\":13348:13411   */\n      swap2\n      pop\n        /* \"#utility.yul\":13303:13421   */\n      pop\n        /* \"#utility.yul\":12609:13428   */\n      swap3\n      swap6\n      swap2\n      swap5\n      pop\n      swap3\n      pop\n      jump\t// out\n        /* \"#utility.yul\":13434:13548   */\n    tag_280:\n        /* \"#utility.yul\":13522:13523   */\n      0x03\n        /* \"#utility.yul\":13515:13520   */\n      dup2\n        /* \"#utility.yul\":13512:13524   */\n      lt\n        /* \"#utility.yul\":13502:13542   */\n      tag_469\n      jumpi\n        /* \"#utility.yul\":13538:13539   */\n      0x00\n        /* \"#utility.yul\":13535:13536   */\n      dup1\n        /* \"#utility.yul\":13528:13540   */\n      revert\n        /* \"#utility.yul\":13502:13542   */\n    tag_469:\n        /* \"#utility.yul\":13434:13548   */\n      pop\n      jump\t// out\n        /* \"#utility.yul\":13554:13723   */\n    tag_281:\n        /* \"#utility.yul\":13615:13620   */\n      0x00\n        /* \"#utility.yul\":13653:13659   */\n      dup2\n        /* \"#utility.yul\":13640:13660   */\n      calldataload\n        /* \"#utility.yul\":13631:13660   */\n      swap1\n      pop\n        /* \"#utility.yul\":13669:13717   */\n      tag_471\n        /* \"#utility.yul\":13711:13716   */\n      dup2\n        /* \"#utility.yul\":13669:13717   */\n      tag_280\n      jump\t// in\n    tag_471:\n        /* \"#utility.yul\":13554:13723   */\n      swap3\n      swap2\n      pop\n      pop\n      jump\t// out\n        /* \"#utility.yul\":13729:14378   */\n    tag_93:\n        /* \"#utility.yul\":13821:13827   */\n      0x00\n        /* \"#utility.yul\":13829:13835   */\n      dup1\n        /* \"#utility.yul\":13837:13843   */\n      0x00\n        /* \"#utility.yul\":13886:13888   */\n      0x60\n        /* \"#utility.yul\":13874:13883   */\n      dup5\n        /* \"#utility.yul\":13865:13872   */\n      dup7\n        /* \"#utility.yul\":13861:13884   */\n      sub\n        /* \"#utility.yul\":13857:13889   */\n      slt\n        /* \"#utility.yul\":13854:13973   */\n      iszero\n      tag_473\n      jumpi\n        /* \"#utility.yul\":13892:13971   */\n      tag_474\n      tag_233\n      jump\t// in\n    tag_474:\n        /* \"#utility.yul\":13854:13973   */\n    tag_473:\n        /* \"#utility.yul\":14012:14013   */\n      0x00\n        /* \"#utility.yul\":14037:14090   */\n      tag_475\n        /* \"#utility.yul\":14082:14089   */\n      dup7\n        /* \"#utility.yul\":14073:14079   */\n      dup3\n        /* \"#utility.yul\":14062:14071   */\n      dup8\n        /* \"#utility.yul\":14058:14080   */\n      add\n        /* \"#utility.yul\":14037:14090   */\n      tag_253\n      jump\t// in\n    tag_475:\n        /* \"#utility.yul\":14027:14090   */\n      swap4\n      pop\n        /* \"#utility.yul\":13983:14100   */\n      pop\n        /* \"#utility.yul\":14139:14141   */\n      0x20\n        /* \"#utility.yul\":14165:14218   */\n      tag_476\n        /* \"#utility.yul\":14210:14217   */\n      dup7\n        /* \"#utility.yul\":14201:14207   */\n      dup3\n        /* \"#utility.yul\":14190:14199   */\n      dup8\n        /* \"#utility.yul\":14186:14208   */\n      add\n        /* \"#utility.yul\":14165:14218   */\n      tag_253\n      jump\t// in\n    tag_476:\n        /* \"#utility.yul\":14155:14218   */\n      swap3\n      pop\n        /* \"#utility.yul\":14110:14228   */\n      pop\n        /* \"#utility.yul\":14267:14269   */\n      0x40\n        /* \"#utility.yul\":14293:14361   */\n      tag_477\n        /* \"#utility.yul\":14353:14360   */\n      dup7\n        /* \"#utility.yul\":14344:14350   */\n      dup3\n        /* \"#utility.yul\":14333:14342   */\n      dup8\n        /* \"#utility.yul\":14329:14351   */\n      add\n        /* \"#utility.yul\":14293:14361   */\n      tag_281\n      jump\t// in\n    tag_477:\n        /* \"#utility.yul\":14283:14361   */\n      swap2\n      pop\n        /* \"#utility.yul\":14238:14371   */\n      pop\n        /* \"#utility.yul\":13729:14378   */\n      swap3\n      pop\n      swap3\n      pop\n      swap3\n      jump\t// out\n        /* \"#utility.yul\":14384:14858   */\n    tag_98:\n        /* \"#utility.yul\":14452:14458   */\n      0x00\n        /* \"#utility.yul\":14460:14466   */\n      dup1\n        /* \"#utility.yul\":14509:14511   */\n      0x40\n        /* \"#utility.yul\":14497:14506   */\n      dup4\n        /* \"#utility.yul\":14488:14495   */\n      dup6\n        /* \"#utility.yul\":14484:14507   */\n      sub\n        /* \"#utility.yul\":14480:14512   */\n      slt\n        /* \"#utility.yul\":14477:14596   */\n      iszero\n      tag_479\n      jumpi\n        /* \"#utility.yul\":14515:14594   */\n      tag_480\n      tag_233\n      jump\t// in\n    tag_480:\n        /* \"#utility.yul\":14477:14596   */\n    tag_479:\n        /* \"#utility.yul\":14635:14636   */\n      0x00\n        /* \"#utility.yul\":14660:14713   */\n      tag_481\n        /* \"#utility.yul\":14705:14712   */\n      dup6\n        /* \"#utility.yul\":14696:14702   */\n      dup3\n        /* \"#utility.yul\":14685:14694   */\n      dup7\n        /* \"#utility.yul\":14681:14703   */\n      add\n        /* \"#utility.yul\":14660:14713   */\n      tag_238\n      jump\t// in\n    tag_481:\n        /* \"#utility.yul\":14650:14713   */\n      swap3\n      pop\n        /* \"#utility.yul\":14606:14723   */\n      pop\n        /* \"#utility.yul\":14762:14764   */\n      0x20\n        /* \"#utility.yul\":14788:14841   */\n      tag_482\n        /* \"#utility.yul\":14833:14840   */\n      dup6\n        /* \"#utility.yul\":14824:14830   */\n      dup3\n        /* \"#utility.yul\":14813:14822   */\n      dup7\n        /* \"#utility.yul\":14809:14831   */\n      add\n        /* \"#utility.yul\":14788:14841   */\n      tag_253\n      jump\t// in\n    tag_482:\n        /* \"#utility.yul\":14778:14841   */\n      swap2\n      pop\n        /* \"#utility.yul\":14733:14851   */\n      pop\n        /* \"#utility.yul\":14384:14858   */\n      swap3\n      pop\n      swap3\n      swap1\n      pop\n      jump\t// out\n        /* \"#utility.yul\":14864:15024   */\n    tag_282:\n        /* \"#utility.yul\":15004:15016   */\n      0x4f776e6572206f6e6c7900000000000000000000000000000000000000000000\n        /* \"#utility.yul\":15000:15001   */\n      0x00\n        /* \"#utility.yul\":14992:14998   */\n      dup3\n        /* \"#utility.yul\":14988:15002   */\n      add\n        /* \"#utility.yul\":14981:15017   */\n      mstore\n        /* \"#utility.yul\":14864:15024   */\n      pop\n      jump\t// out\n        /* \"#utility.yul\":15030:15396   */\n    tag_283:\n        /* \"#utility.yul\":15172:15175   */\n      0x00\n        /* \"#utility.yul\":15193:15260   */\n      tag_485\n        /* \"#utility.yul\":15257:15259   */\n      0x0a\n        /* \"#utility.yul\":15252:15255   */\n      dup4\n        /* \"#utility.yul\":15193:15260   */\n      tag_257\n      jump\t// in\n    tag_485:\n        /* \"#utility.yul\":15186:15260   */\n      swap2\n      pop\n        /* \"#utility.yul\":15269:15362   */\n      tag_486\n        /* \"#utility.yul\":15358:15361   */\n      dup3\n        /* \"#utility.yul\":15269:15362   */\n      tag_282\n      jump\t// in\n    tag_486:\n        /* \"#utility.yul\":15387:15389   */\n      0x20\n        /* \"#utility.yul\":15382:15385   */\n      dup3\n        /* \"#utility.yul\":15378:15390   */\n      add\n        /* \"#utility.yul\":15371:15390   */\n      swap1\n      pop\n        /* \"#utility.yul\":15030:15396   */\n      swap2\n      swap1\n      pop\n      jump\t// out\n        /* \"#utility.yul\":15402:15821   */\n    tag_115:\n        /* \"#utility.yul\":15568:15572   */\n      0x00\n        /* \"#utility.yul\":15606:15608   */\n      0x20\n        /* \"#utility.yul\":15595:15604   */\n      dup3\n        /* \"#utility.yul\":15591:15609   */\n      add\n        /* \"#utility.yul\":15583:15609   */\n      swap1\n      pop\n        /* \"#utility.yul\":15655:15664   */\n      dup2\n        /* \"#utility.yul\":15649:15653   */\n      dup2\n        /* \"#utility.yul\":15645:15665   */\n      sub\n        /* \"#utility.yul\":15641:15642   */\n      0x00\n        /* \"#utility.yul\":15630:15639   */\n      dup4\n        /* \"#utility.yul\":15626:15643   */\n      add\n        /* \"#utility.yul\":15619:15666   */\n      mstore\n        /* \"#utility.yul\":15683:15814   */\n      tag_488\n        /* \"#utility.yul\":15809:15813   */\n      dup2\n        /* \"#utility.yul\":15683:15814   */\n      tag_283\n      jump\t// in\n    tag_488:\n        /* \"#utility.yul\":15675:15814   */\n      swap1\n      pop\n        /* \"#utility.yul\":15402:15821   */\n      swap2\n      swap1\n      pop\n      jump\t// out\n        /* \"#utility.yul\":15827:15974   */\n    tag_284:\n        /* \"#utility.yul\":15928:15939   */\n      0x00\n        /* \"#utility.yul\":15965:15968   */\n      dup2\n        /* \"#utility.yul\":15950:15968   */\n      swap1\n      pop\n        /* \"#utility.yul\":15827:15974   */\n      swap3\n      swap2\n      pop\n      pop\n      jump\t// out\n        /* \"#utility.yul\":15980:16094   */\n    tag_285:\n      pop\n      jump\t// out\n        /* \"#utility.yul\":16100:16498   */\n    tag_286:\n        /* \"#utility.yul\":16259:16262   */\n      0x00\n        /* \"#utility.yul\":16280:16363   */\n      tag_492\n        /* \"#utility.yul\":16361:16362   */\n      0x00\n        /* \"#utility.yul\":16356:16359   */\n      dup4\n        /* \"#utility.yul\":16280:16363   */\n      tag_284\n      jump\t// in\n    tag_492:\n        /* \"#utility.yul\":16273:16363   */\n      swap2\n      pop\n        /* \"#utility.yul\":16372:16465   */\n      tag_493\n        /* \"#utility.yul\":16461:16464   */\n      dup3\n        /* \"#utility.yul\":16372:16465   */\n      tag_285\n      jump\t// in\n    tag_493:\n        /* \"#utility.yul\":16490:16491   */\n      0x00\n        /* \"#utility.yul\":16485:16488   */\n      dup3\n        /* \"#utility.yul\":16481:16492   */\n      add\n        /* \"#utility.yul\":16474:16492   */\n      swap1\n      pop\n        /* \"#utility.yul\":16100:16498   */\n      swap2\n      swap1\n      pop\n      jump\t// out\n        /* \"#utility.yul\":16504:16883   */\n    tag_118:\n        /* \"#utility.yul\":16688:16691   */\n      0x00\n        /* \"#utility.yul\":16710:16857   */\n      tag_495\n        /* \"#utility.yul\":16853:16856   */\n      dup3\n        /* \"#utility.yul\":16710:16857   */\n      tag_286\n      jump\t// in\n    tag_495:\n        /* \"#utility.yul\":16703:16857   */\n      swap2\n      pop\n        /* \"#utility.yul\":16874:16877   */\n      dup2\n        /* \"#utility.yul\":16867:16877   */\n      swap1\n      pop\n        /* \"#utility.yul\":16504:16883   */\n      swap2\n      swap1\n      pop\n      jump\t// out\n        /* \"#utility.yul\":16889:17054   */\n    tag_287:\n        /* \"#utility.yul\":17029:17046   */\n      0x5769746864726177206661696c65640000000000000000000000000000000000\n        /* \"#utility.yul\":17025:17026   */\n      0x00\n        /* \"#utility.yul\":17017:17023   */\n      dup3\n        /* \"#utility.yul\":17013:17027   */\n      add\n        /* \"#utility.yul\":17006:17047   */\n      mstore\n        /* \"#utility.yul\":16889:17054   */\n      pop\n      jump\t// out\n        /* \"#utility.yul\":17060:17426   */\n    tag_288:\n        /* \"#utility.yul\":17202:17205   */\n      0x00\n        /* \"#utility.yul\":17223:17290   */\n      tag_498\n        /* \"#utility.yul\":17287:17289   */\n      0x0f\n        /* \"#utility.yul\":17282:17285   */\n      dup4\n        /* \"#utility.yul\":17223:17290   */\n      tag_257\n      jump\t// in\n    tag_498:\n        /* \"#utility.yul\":17216:17290   */\n      swap2\n      pop\n        /* \"#utility.yul\":17299:17392   */\n      tag_499\n        /* \"#utility.yul\":17388:17391   */\n      dup3\n        /* \"#utility.yul\":17299:17392   */\n      tag_287\n      jump\t// in\n    tag_499:\n        /* \"#utility.yul\":17417:17419   */\n      0x20\n        /* \"#utility.yul\":17412:17415   */\n      dup3\n        /* \"#utility.yul\":17408:17420   */\n      add\n        /* \"#utility.yul\":17401:17420   */\n      swap1\n      pop\n        /* \"#utility.yul\":17060:17426   */\n      swap2\n      swap1\n      pop\n      jump\t// out\n        /* \"#utility.yul\":17432:17851   */\n    tag_124:\n        /* \"#utility.yul\":17598:17602   */\n      0x00\n        /* \"#utility.yul\":17636:17638   */\n      0x20\n        /* \"#utility.yul\":17625:17634   */\n      dup3\n        /* \"#utility.yul\":17621:17639   */\n      add\n        /* \"#utility.yul\":17613:17639   */\n      swap1\n      pop\n        /* \"#utility.yul\":17685:17694   */\n      dup2\n        /* \"#utility.yul\":17679:17683   */\n      dup2\n        /* \"#utility.yul\":17675:17695   */\n      sub\n        /* \"#utility.yul\":17671:17672   */\n      0x00\n        /* \"#utility.yul\":17660:17669   */\n      dup4\n        /* \"#utility.yul\":17656:17673   */\n      add\n        /* \"#utility.yul\":17649:17696   */\n      mstore\n        /* \"#utility.yul\":17713:17844   */\n      tag_501\n        /* \"#utility.yul\":17839:17843   */\n      dup2\n        /* \"#utility.yul\":17713:17844   */\n      tag_288\n      jump\t// in\n    tag_501:\n        /* \"#utility.yul\":17705:17844   */\n      swap1\n      pop\n        /* \"#utility.yul\":17432:17851   */\n      swap2\n      swap1\n      pop\n      jump\t// out\n        /* \"#utility.yul\":17857:18037   */\n    tag_289:\n        /* \"#utility.yul\":17905:17982   */\n      0x4e487b7100000000000000000000000000000000000000000000000000000000\n        /* \"#utility.yul\":17902:17903   */\n      0x00\n        /* \"#utility.yul\":17895:17983   */\n      mstore\n        /* \"#utility.yul\":18002:18006   */\n      0x11\n        /* \"#utility.yul\":17999:18000   */\n      0x04\n        /* \"#utility.yul\":17992:18007   */\n      mstore\n        /* \"#utility.yul\":18026:18030   */\n      0x24\n        /* \"#utility.yul\":18023:18024   */\n      0x00\n        /* \"#utility.yul\":18016:18031   */\n      revert\n        /* \"#utility.yul\":18043:18234   */\n    tag_136:\n        /* \"#utility.yul\":18083:18086   */\n      0x00\n        /* \"#utility.yul\":18102:18122   */\n      tag_504\n        /* \"#utility.yul\":18120:18121   */\n      dup3\n        /* \"#utility.yul\":18102:18122   */\n      tag_242\n      jump\t// in\n    tag_504:\n        /* \"#utility.yul\":18097:18122   */\n      swap2\n      pop\n        /* \"#utility.yul\":18136:18156   */\n      tag_505\n        /* \"#utility.yul\":18154:18155   */\n      dup4\n        /* \"#utility.yul\":18136:18156   */\n      tag_242\n      jump\t// in\n    tag_505:\n        /* \"#utility.yul\":18131:18156   */\n      swap3\n      pop\n        /* \"#utility.yul\":18179:18180   */\n      dup3\n        /* \"#utility.yul\":18176:18177   */\n      dup3\n        /* \"#utility.yul\":18172:18181   */\n      add\n        /* \"#utility.yul\":18165:18181   */\n      swap1\n      pop\n        /* \"#utility.yul\":18200:18203   */\n      dup1\n        /* \"#utility.yul\":18197:18198   */\n      dup3\n        /* \"#utility.yul\":18194:18204   */\n      gt\n        /* \"#utility.yul\":18191:18227   */\n      iszero\n      tag_506\n      jumpi\n        /* \"#utility.yul\":18207:18225   */\n      tag_507\n      tag_289\n      jump\t// in\n    tag_507:\n        /* \"#utility.yul\":18191:18227   */\n    tag_506:\n        /* \"#utility.yul\":18043:18234   */\n      swap3\n      swap2\n      pop\n      pop\n      jump\t// out\n        /* \"#utility.yul\":18240:18420   */\n    tag_290:\n        /* \"#utility.yul\":18288:18365   */\n      0x4e487b7100000000000000000000000000000000000000000000000000000000\n        /* \"#utility.yul\":18285:18286   */\n      0x00\n        /* \"#utility.yul\":18278:18366   */\n      mstore\n        /* \"#utility.yul\":18385:18389   */\n      0x22\n        /* \"#utility.yul\":18382:18383   */\n      0x04\n        /* \"#utility.yul\":18375:18390   */\n      mstore\n        /* \"#utility.yul\":18409:18413   */\n      0x24\n        /* \"#utility.yul\":18406:18407   */\n      0x00\n        /* \"#utility.yul\":18399:18414   */\n      revert\n        /* \"#utility.yul\":18426:18746   */\n    tag_140:\n        /* \"#utility.yul\":18470:18476   */\n      0x00\n        /* \"#utility.yul\":18507:18508   */\n      0x02\n        /* \"#utility.yul\":18501:18505   */\n      dup3\n        /* \"#utility.yul\":18497:18509   */\n      div\n        /* \"#utility.yul\":18487:18509   */\n      swap1\n      pop\n        /* \"#utility.yul\":18554:18555   */\n      0x01\n        /* \"#utility.yul\":18548:18552   */\n      dup3\n        /* \"#utility.yul\":18544:18556   */\n      and\n        /* \"#utility.yul\":18575:18593   */\n      dup1\n        /* \"#utility.yul\":18565:18646   */\n      tag_510\n      jumpi\n        /* \"#utility.yul\":18631:18635   */\n      0x7f\n        /* \"#utility.yul\":18623:18629   */\n      dup3\n        /* \"#utility.yul\":18619:18636   */\n      and\n        /* \"#utility.yul\":18609:18636   */\n      swap2\n      pop\n        /* \"#utility.yul\":18565:18646   */\n    tag_510:\n        /* \"#utility.yul\":18693:18695   */\n      0x20\n        /* \"#utility.yul\":18685:18691   */\n      dup3\n        /* \"#utility.yul\":18682:18696   */\n      lt\n        /* \"#utility.yul\":18662:18680   */\n      dup2\n        /* \"#utility.yul\":18659:18697   */\n      sub\n        /* \"#utility.yul\":18656:18740   */\n      tag_511\n      jumpi\n        /* \"#utility.yul\":18712:18730   */\n      tag_512\n      tag_290\n      jump\t// in\n    tag_512:\n        /* \"#utility.yul\":18656:18740   */\n    tag_511:\n        /* \"#utility.yul\":18477:18746   */\n      pop\n        /* \"#utility.yul\":18426:18746   */\n      swap2\n      swap1\n      pop\n      jump\t// out\n        /* \"#utility.yul\":18752:18921   */\n    tag_291:\n        /* \"#utility.yul\":18892:18913   */\n      0x5450206d75737420626520616674657220543100000000000000000000000000\n        /* \"#utility.yul\":18888:18889   */\n      0x00\n        /* \"#utility.yul\":18880:18886   */\n      dup3\n        /* \"#utility.yul\":18876:18890   */\n      add\n        /* \"#utility.yul\":18869:18914   */\n      mstore\n        /* \"#utility.yul\":18752:18921   */\n      pop\n      jump\t// out\n        /* \"#utility.yul\":18927:19293   */\n    tag_292:\n        /* \"#utility.yul\":19069:19072   */\n      0x00\n        /* \"#utility.yul\":19090:19157   */\n      tag_515\n        /* \"#utility.yul\":19154:19156   */\n      0x13\n        /* \"#utility.yul\":19149:19152   */\n      dup4\n        /* \"#utility.yul\":19090:19157   */\n      tag_257\n      jump\t// in\n    tag_515:\n        /* \"#utility.yul\":19083:19157   */\n      swap2\n      pop\n        /* \"#utility.yul\":19166:19259   */\n      tag_516\n        /* \"#utility.yul\":19255:19258   */\n      dup3\n        /* \"#utility.yul\":19166:19259   */\n      tag_291\n      jump\t// in\n    tag_516:\n        /* \"#utility.yul\":19284:19286   */\n      0x20\n        /* \"#utility.yul\":19279:19282   */\n      dup3\n        /* \"#utility.yul\":19275:19287   */\n      add\n        /* \"#utility.yul\":19268:19287   */\n      swap1\n      pop\n        /* \"#utility.yul\":18927:19293   */\n      swap2\n      swap1\n      pop\n      jump\t// out\n        /* \"#utility.yul\":19299:19718   */\n    tag_154:\n        /* \"#utility.yul\":19465:19469   */\n      0x00\n        /* \"#utility.yul\":19503:19505   */\n      0x20\n        /* \"#utility.yul\":19492:19501   */\n      dup3\n        /* \"#utility.yul\":19488:19506   */\n      add\n        /* \"#utility.yul\":19480:19506   */\n      swap1\n      pop\n        /* \"#utility.yul\":19552:19561   */\n      dup2\n        /* \"#utility.yul\":19546:19550   */\n      dup2\n        /* \"#utility.yul\":19542:19562   */\n      sub\n        /* \"#utility.yul\":19538:19539   */\n      0x00\n        /* \"#utility.yul\":19527:19536   */\n      dup4\n        /* \"#utility.yul\":19523:19540   */\n      add\n        /* \"#utility.yul\":19516:19563   */\n      mstore\n        /* \"#utility.yul\":19580:19711   */\n      tag_518\n        /* \"#utility.yul\":19706:19710   */\n      dup2\n        /* \"#utility.yul\":19580:19711   */\n      tag_292\n      jump\t// in\n    tag_518:\n        /* \"#utility.yul\":19572:19711   */\n      swap1\n      pop\n        /* \"#utility.yul\":19299:19718   */\n      swap2\n      swap1\n      pop\n      jump\t// out\n        /* \"#utility.yul\":19724:19891   */\n    tag_293:\n        /* \"#utility.yul\":19864:19883   */\n      0x496e636f7272656374207072656d69756d000000000000000000000000000000\n        /* \"#utility.yul\":19860:19861   */\n      0x00\n        /* \"#utility.yul\":19852:19858   */\n      dup3\n        /* \"#utility.yul\":19848:19862   */\n      add\n        /* \"#utility.yul\":19841:19884   */\n      mstore\n        /* \"#utility.yul\":19724:19891   */\n      pop\n      jump\t// out\n        /* \"#utility.yul\":19897:20263   */\n    tag_294:\n        /* \"#utility.yul\":20039:20042   */\n      0x00\n        /* \"#utility.yul\":20060:20127   */\n      tag_521\n        /* \"#utility.yul\":20124:20126   */\n      0x11\n        /* \"#utility.yul\":20119:20122   */\n      dup4\n        /* \"#utility.yul\":20060:20127   */\n      tag_257\n      jump\t// in\n    tag_521:\n        /* \"#utility.yul\":20053:20127   */\n      swap2\n      pop\n        /* \"#utility.yul\":20136:20229   */\n      tag_522\n        /* \"#utility.yul\":20225:20228   */\n      dup3\n        /* \"#utility.yul\":20136:20229   */\n      tag_293\n      jump\t// in\n    tag_522:\n        /* \"#utility.yul\":20254:20256   */\n      0x20\n        /* \"#utility.yul\":20249:20252   */\n      dup3\n        /* \"#utility.yul\":20245:20257   */\n      add\n        /* \"#utility.yul\":20238:20257   */\n      swap1\n      pop\n        /* \"#utility.yul\":19897:20263   */\n      swap2\n      swap1\n      pop\n      jump\t// out\n        /* \"#utility.yul\":20269:20688   */\n    tag_157:\n        /* \"#utility.yul\":20435:20439   */\n      0x00\n        /* \"#utility.yul\":20473:20475   */\n      0x20\n        /* \"#utility.yul\":20462:20471   */\n      dup3\n        /* \"#utility.yul\":20458:20476   */\n      add\n        /* \"#utility.yul\":20450:20476   */\n      swap1\n      pop\n        /* \"#utility.yul\":20522:20531   */\n      dup2\n        /* \"#utility.yul\":20516:20520   */\n      dup2\n        /* \"#utility.yul\":20512:20532   */\n      sub\n        /* \"#utility.yul\":20508:20509   */\n      0x00\n        /* \"#utility.yul\":20497:20506   */\n      dup4\n        /* \"#utility.yul\":20493:20510   */\n      add\n        /* \"#utility.yul\":20486:20533   */\n      mstore\n        /* \"#utility.yul\":20550:20681   */\n      tag_524\n        /* \"#utility.yul\":20676:20680   */\n      dup2\n        /* \"#utility.yul\":20550:20681   */\n      tag_294\n      jump\t// in\n    tag_524:\n        /* \"#utility.yul\":20542:20681   */\n      swap1\n      pop\n        /* \"#utility.yul\":20269:20688   */\n      swap2\n      swap1\n      pop\n      jump\t// out\n        /* \"#utility.yul\":20694:20927   */\n    tag_159:\n        /* \"#utility.yul\":20733:20736   */\n      0x00\n        /* \"#utility.yul\":20756:20780   */\n      tag_526\n        /* \"#utility.yul\":20774:20779   */\n      dup3\n        /* \"#utility.yul\":20756:20780   */\n      tag_242\n      jump\t// in\n    tag_526:\n        /* \"#utility.yul\":20747:20780   */\n      swap2\n      pop\n        /* \"#utility.yul\":20802:20868   */\n      0xffffffffffffffffffffffffffffffffffffffffffffffffffffffffffffffff\n        /* \"#utility.yul\":20795:20800   */\n      dup3\n        /* \"#utility.yul\":20792:20869   */\n      sub\n        /* \"#utility.yul\":20789:20892   */\n      tag_527\n      jumpi\n        /* \"#utility.yul\":20872:20890   */\n      tag_528\n      tag_289\n      jump\t// in\n    tag_528:\n        /* \"#utility.yul\":20789:20892   */\n    tag_527:\n        /* \"#utility.yul\":20919:20920   */\n      0x01\n        /* \"#utility.yul\":20912:20917   */\n      dup3\n        /* \"#utility.yul\":20908:20921   */\n      add\n        /* \"#utility.yul\":20901:20921   */\n      swap1\n      pop\n        /* \"#utility.yul\":20694:20927   */\n      swap2\n      swap1\n      pop\n      jump\t// out\n        /* \"#utility.yul\":20933:21030   */\n    tag_295:\n        /* \"#utility.yul\":20992:20998   */\n      0x00\n        /* \"#utility.yul\":21020:21023   */\n      dup3\n        /* \"#utility.yul\":21010:21023   */\n      swap1\n      pop\n        /* \"#utility.yul\":20933:21030   */\n      swap3\n      swap2\n      pop\n      pop\n      jump\t// out\n        /* \"#utility.yul\":21036:21216   */\n    tag_296:\n        /* \"#utility.yul\":21084:21161   */\n      0x4e487b7100000000000000000000000000000000000000000000000000000000\n        /* \"#utility.yul\":21081:21082   */\n      0x00\n        /* \"#utility.yul\":21074:21162   */\n      mstore\n        /* \"#utility.yul\":21181:21185   */\n      0x41\n        /* \"#utility.yul\":21178:21179   */\n      0x04\n        /* \"#utility.yul\":21171:21186   */\n      mstore\n        /* \"#utility.yul\":21205:21209   */\n      0x24\n        /* \"#utility.yul\":21202:21203   */\n      0x00\n        /* \"#utility.yul\":21195:21210   */\n      revert\n        /* \"#utility.yul\":21222:21363   */\n    tag_297:\n        /* \"#utility.yul\":21271:21275   */\n      0x00\n        /* \"#utility.yul\":21294:21297   */\n      dup2\n        /* \"#utility.yul\":21286:21297   */\n      swap1\n      pop\n        /* \"#utility.yul\":21317:21320   */\n      dup2\n        /* \"#utility.yul\":21314:21315   */\n      0x00\n        /* \"#utility.yul\":21307:21321   */\n      mstore\n        /* \"#utility.yul\":21351:21355   */\n      0x20\n        /* \"#utility.yul\":21348:21349   */\n      0x00\n        /* \"#utility.yul\":21338:21356   */\n      keccak256\n        /* \"#utility.yul\":21330:21356   */\n      swap1\n      pop\n        /* \"#utility.yul\":21222:21363   */\n      swap2\n      swap1\n      pop\n      jump\t// out\n        /* \"#utility.yul\":21369:21462   */\n    tag_298:\n        /* \"#utility.yul\":21406:21412   */\n      0x00\n        /* \"#utility.yul\":21453:21455   */\n      0x20\n        /* \"#utility.yul\":21448:21450   */\n      0x1f\n        /* \"#utility.yul\":21441:21446   */\n      dup4\n        /* \"#utility.yul\":21437:21451   */\n      add\n        /* \"#utility.yul\":21433:21456   */\n      div\n        /* \"#utility.yul\":21423:21456   */\n      swap1\n      pop\n        /* \"#utility.yul\":21369:21462   */\n      swap2\n      swap1\n      pop\n      jump\t// out\n        /* \"#utility.yul\":21468:21575   */\n    tag_299:\n        /* \"#utility.yul\":21512:21520   */\n      0x00\n        /* \"#utility.yul\":21562:21567   */\n      dup3\n        /* \"#utility.yul\":21556:21560   */\n      dup3\n        /* \"#utility.yul\":21552:21568   */\n      shl\n        /* \"#utility.yul\":21531:21568   */\n      swap1\n      pop\n        /* \"#utility.yul\":21468:21575   */\n      swap3\n      swap2\n      pop\n      pop\n      jump\t// out\n        /* \"#utility.yul\":21581:21974   */\n    tag_300:\n        /* \"#utility.yul\":21650:21656   */\n      0x00\n        /* \"#utility.yul\":21700:21701   */\n      0x08\n        /* \"#utility.yul\":21688:21698   */\n      dup4\n        /* \"#utility.yul\":21684:21702   */\n      mul\n        /* \"#utility.yul\":21723:21820   */\n      tag_535\n        /* \"#utility.yul\":21753:21819   */\n      0xffffffffffffffffffffffffffffffffffffffffffffffffffffffffffffffff\n        /* \"#utility.yul\":21742:21751   */\n      dup3\n        /* \"#utility.yul\":21723:21820   */\n      tag_299\n      jump\t// in\n    tag_535:\n        /* \"#utility.yul\":21841:21880   */\n      tag_536\n        /* \"#utility.yul\":21871:21879   */\n      dup7\n        /* \"#utility.yul\":21860:21869   */\n      dup4\n        /* \"#utility.yul\":21841:21880   */\n      tag_299\n      jump\t// in\n    tag_536:\n        /* \"#utility.yul\":21829:21880   */\n      swap6\n      pop\n        /* \"#utility.yul\":21913:21917   */\n      dup1\n        /* \"#utility.yul\":21909:21918   */\n      not\n        /* \"#utility.yul\":21902:21907   */\n      dup5\n        /* \"#utility.yul\":21898:21919   */\n      and\n        /* \"#utility.yul\":21889:21919   */\n      swap4\n      pop\n        /* \"#utility.yul\":21962:21966   */\n      dup1\n        /* \"#utility.yul\":21952:21960   */\n      dup7\n        /* \"#utility.yul\":21948:21967   */\n      and\n        /* \"#utility.yul\":21941:21946   */\n      dup5\n        /* \"#utility.yul\":21938:21968   */\n      or\n        /* \"#utility.yul\":21928:21968   */\n      swap3\n      pop\n        /* \"#utility.yul\":21657:21974   */\n      pop\n      pop\n        /* \"#utility.yul\":21581:21974   */\n      swap4\n      swap3\n      pop\n      pop\n      pop\n      jump\t// out\n        /* \"#utility.yul\":21980:22040   */\n    tag_301:\n        /* \"#utility.yul\":22008:22011   */\n      0x00\n        /* \"#utility.yul\":22029:22034   */\n      dup2\n        /* \"#utility.yul\":22022:22034   */\n      swap1\n      pop\n        /* \"#utility.yul\":21980:22040   */\n      swap2\n      swap1\n      pop\n      jump\t// out\n        /* \"#utility.yul\":22046:22188   */\n    tag_302:\n        /* \"#utility.yul\":22096:22105   */\n      0x00\n        /* \"#utility.yul\":22129:22182   */\n      tag_539\n        /* \"#utility.yul\":22147:22181   */\n      tag_540\n        /* \"#utility.yul\":22156:22180   */\n      tag_541\n        /* \"#utility.yul\":22174:22179   */\n      dup5\n        /* \"#utility.yul\":22156:22180   */\n      tag_242\n      jump\t// in\n    tag_541:\n        /* \"#utility.yul\":22147:22181   */\n      tag_301\n      jump\t// in\n    tag_540:\n        /* \"#utility.yul\":22129:22182   */\n      tag_242\n      jump\t// in\n    tag_539:\n        /* \"#utility.yul\":22116:22182   */\n      swap1\n      pop\n        /* \"#utility.yul\":22046:22188   */\n      swap2\n      swap1\n      pop\n      jump\t// out\n        /* \"#utility.yul\":22194:22269   */\n    tag_303:\n        /* \"#utility.yul\":22237:22240   */\n      0x00\n        /* \"#utility.yul\":22258:22263   */\n      dup2\n        /* \"#utility.yul\":22251:22263   */\n      swap1\n      pop\n        /* \"#utility.yul\":22194:22269   */\n      swap2\n      swap1\n      pop\n      jump\t// out\n        /* \"#utility.yul\":22275:22544   */\n    tag_304:\n        /* \"#utility.yul\":22385:22424   */\n      tag_544\n        /* \"#utility.yul\":22416:22423   */\n      dup4\n        /* \"#utility.yul\":22385:22424   */\n      tag_302\n      jump\t// in\n    tag_544:\n        /* \"#utility.yul\":22446:22537   */\n      tag_545\n        /* \"#utility.yul\":22495:22536   */\n      tag_546\n        /* \"#utility.yul\":22519:22535   */\n      dup3\n        /* \"#utility.yul\":22495:22536   */\n      tag_303\n      jump\t// in\n    tag_546:\n        /* \"#utility.yul\":22487:22493   */\n      dup5\n        /* \"#utility.yul\":22480:22484   */\n      dup5\n        /* \"#utility.yul\":22474:22485   */\n      sload\n        /* \"#utility.yul\":22446:22537   */\n      tag_300\n      jump\t// in\n    tag_545:\n        /* \"#utility.yul\":22440:22444   */\n      dup3\n        /* \"#utility.yul\":22433:22538   */\n      sstore\n        /* \"#utility.yul\":22351:22544   */\n      pop\n        /* \"#utility.yul\":22275:22544   */\n      pop\n      pop\n      pop\n      jump\t// out\n        /* \"#utility.yul\":22550:22623   */\n    tag_305:\n        /* \"#utility.yul\":22595:22598   */\n      0x00\n        /* \"#utility.yul\":22550:22623   */\n      swap1\n      jump\t// out\n        /* \"#utility.yul\":22629:22818   */\n    tag_306:\n        /* \"#utility.yul\":22706:22738   */\n      tag_549\n      tag_305\n      jump\t// in\n    tag_549:\n        /* \"#utility.yul\":22747:22812   */\n      tag_550\n        /* \"#utility.yul\":22805:22811   */\n      dup2\n        /* \"#utility.yul\":22797:22803   */\n      dup5\n        /* \"#utility.yul\":22791:22795   */\n      dup5\n        /* \"#utility.yul\":22747:22812   */\n      tag_304\n      jump\t// in\n    tag_550:\n        /* \"#utility.yul\":22682:22818   */\n      pop\n        /* \"#utility.yul\":22629:22818   */\n      pop\n      pop\n      jump\t// out\n        /* \"#utility.yul\":22824:23010   */\n    tag_307:\n        /* \"#utility.yul\":22884:23004   */\n    tag_552:\n        /* \"#utility.yul\":22901:22904   */\n      dup2\n        /* \"#utility.yul\":22894:22899   */\n      dup2\n        /* \"#utility.yul\":22891:22905   */\n      lt\n        /* \"#utility.yul\":22884:23004   */\n      iszero\n      tag_554\n      jumpi\n        /* \"#utility.yul\":22955:22994   */\n      tag_555\n        /* \"#utility.yul\":22992:22993   */\n      0x00\n        /* \"#utility.yul\":22985:22990   */\n      dup3\n        /* \"#utility.yul\":22955:22994   */\n      tag_306\n      jump\t// in\n    tag_555:\n        /* \"#utility.yul\":22928:22929   */\n      0x01\n        /* \"#utility.yul\":22921:22926   */\n      dup2\n        /* \"#utility.yul\":22917:22930   */\n      add\n        /* \"#utility.yul\":22908:22930   */\n      swap1\n      pop\n        /* \"#utility.yul\":22884:23004   */\n      jump(tag_552)\n    tag_554:\n        /* \"#utility.yul\":22824:23010   */\n      pop\n      pop\n      jump\t// out\n        /* \"#utility.yul\":23016:23559   */\n    tag_308:\n        /* \"#utility.yul\":23117:23119   */\n      0x1f\n        /* \"#utility.yul\":23112:23115   */\n      dup3\n        /* \"#utility.yul\":23109:23120   */\n      gt\n        /* \"#utility.yul\":23106:23552   */\n      iszero\n      tag_557\n      jumpi\n        /* \"#utility.yul\":23151:23189   */\n      tag_558\n        /* \"#utility.yul\":23183:23188   */\n      dup2\n        /* \"#utility.yul\":23151:23189   */\n      tag_297\n      jump\t// in\n    tag_558:\n        /* \"#utility.yul\":23235:23264   */\n      tag_559\n        /* \"#utility.yul\":23253:23263   */\n      dup5\n        /* \"#utility.yul\":23235:23264   */\n      tag_298\n      jump\t// in\n    tag_559:\n        /* \"#utility.yul\":23225:23233   */\n      dup2\n        /* \"#utility.yul\":23221:23265   */\n      add\n        /* \"#utility.yul\":23418:23420   */\n      0x20\n        /* \"#utility.yul\":23406:23416   */\n      dup6\n        /* \"#utility.yul\":23403:23421   */\n      lt\n        /* \"#utility.yul\":23400:23449   */\n      iszero\n      tag_560\n      jumpi\n        /* \"#utility.yul\":23439:23447   */\n      dup2\n        /* \"#utility.yul\":23424:23447   */\n      swap1\n      pop\n        /* \"#utility.yul\":23400:23449   */\n    tag_560:\n        /* \"#utility.yul\":23462:23542   */\n      tag_561\n        /* \"#utility.yul\":23518:23540   */\n      tag_562\n        /* \"#utility.yul\":23536:23539   */\n      dup6\n        /* \"#utility.yul\":23518:23540   */\n      tag_298\n      jump\t// in\n    tag_562:\n        /* \"#utility.yul\":23508:23516   */\n      dup4\n        /* \"#utility.yul\":23504:23541   */\n      add\n        /* \"#utility.yul\":23491:23502   */\n      dup3\n        /* \"#utility.yul\":23462:23542   */\n      tag_307\n      jump\t// in\n    tag_561:\n        /* \"#utility.yul\":23121:23552   */\n      pop\n      pop\n        /* \"#utility.yul\":23106:23552   */\n    tag_557:\n        /* \"#utility.yul\":23016:23559   */\n      pop\n      pop\n      pop\n      jump\t// out\n        /* \"#utility.yul\":23565:23682   */\n    tag_309:\n        /* \"#utility.yul\":23619:23627   */\n      0x00\n        /* \"#utility.yul\":23669:23674   */\n      dup3\n        /* \"#utility.yul\":23663:23667   */\n      dup3\n        /* \"#utility.yul\":23659:23675   */\n      shr\n        /* \"#utility.yul\":23638:23675   */\n      swap1\n      pop\n        /* \"#utility.yul\":23565:23682   */\n      swap3\n      swap2\n      pop\n      pop\n      jump\t// out\n        /* \"#utility.yul\":23688:23857   */\n    tag_310:\n        /* \"#utility.yul\":23732:23738   */\n      0x00\n        /* \"#utility.yul\":23765:23816   */\n      tag_565\n        /* \"#utility.yul\":23813:23814   */\n      0x00\n        /* \"#utility.yul\":23809:23815   */\n      not\n        /* \"#utility.yul\":23801:23806   */\n      dup5\n        /* \"#utility.yul\":23798:23799   */\n      0x08\n        /* \"#utility.yul\":23794:23807   */\n      mul\n        /* \"#utility.yul\":23765:23816   */\n      tag_309\n      jump\t// in\n    tag_565:\n        /* \"#utility.yul\":23761:23817   */\n      not\n        /* \"#utility.yul\":23846:23850   */\n      dup1\n        /* \"#utility.yul\":23840:23844   */\n      dup4\n        /* \"#utility.yul\":23836:23851   */\n      and\n        /* \"#utility.yul\":23826:23851   */\n      swap2\n      pop\n        /* \"#utility.yul\":23739:23857   */\n      pop\n        /* \"#utility.yul\":23688:23857   */\n      swap3\n      swap2\n      pop\n      pop\n      jump\t// out\n        /* \"#utility.yul\":23862:24157   */\n    tag_311:\n        /* \"#utility.yul\":23938:23942   */\n      0x00\n        /* \"#utility.yul\":24084:24113   */\n      tag_567\n        /* \"#utility.yul\":24109:24112   */\n      dup4\n        /* \"#utility.yul\":24103:24107   */\n      dup4\n        /* \"#utility.yul\":24084:24113   */\n      tag_310\n      jump\t// in\n    tag_567:\n        /* \"#utility.yul\":24076:24113   */\n      swap2\n      pop\n        /* \"#utility.yul\":24146:24149   */\n      dup3\n        /* \"#utility.yul\":24143:24144   */\n      0x02\n        /* \"#utility.yul\":24139:24150   */\n      mul\n        /* \"#utility.yul\":24133:24137   */\n      dup3\n        /* \"#utility.yul\":24130:24151   */\n      or\n        /* \"#utility.yul\":24122:24151   */\n      swap1\n      pop\n        /* \"#utility.yul\":23862:24157   */\n      swap3\n      swap2\n      pop\n      pop\n      jump\t// out\n        /* \"#utility.yul\":24162:25565   */\n    tag_161:\n        /* \"#utility.yul\":24286:24330   */\n      tag_569\n        /* \"#utility.yul\":24326:24329   */\n      dup4\n        /* \"#utility.yul\":24321:24324   */\n      dup4\n        /* \"#utility.yul\":24286:24330   */\n      tag_295\n      jump\t// in\n    tag_569:\n        /* \"#utility.yul\":24395:24413   */\n      0xffffffffffffffff\n        /* \"#utility.yul\":24387:24393   */\n      dup2\n        /* \"#utility.yul\":24384:24414   */\n      gt\n        /* \"#utility.yul\":24381:24437   */\n      iszero\n      tag_570\n      jumpi\n        /* \"#utility.yul\":24417:24435   */\n      tag_571\n      tag_296\n      jump\t// in\n    tag_571:\n        /* \"#utility.yul\":24381:24437   */\n    tag_570:\n        /* \"#utility.yul\":24461:24499   */\n      tag_572\n        /* \"#utility.yul\":24493:24497   */\n      dup3\n        /* \"#utility.yul\":24487:24498   */\n      sload\n        /* \"#utility.yul\":24461:24499   */\n      tag_140\n      jump\t// in\n    tag_572:\n        /* \"#utility.yul\":24546:24613   */\n      tag_573\n        /* \"#utility.yul\":24606:24612   */\n      dup3\n        /* \"#utility.yul\":24598:24604   */\n      dup3\n        /* \"#utility.yul\":24592:24596   */\n      dup6\n        /* \"#utility.yul\":24546:24613   */\n      tag_308\n      jump\t// in\n    tag_573:\n        /* \"#utility.yul\":24640:24641   */\n      0x00\n        /* \"#utility.yul\":24669:24671   */\n      0x1f\n        /* \"#utility.yul\":24661:24667   */\n      dup4\n        /* \"#utility.yul\":24658:24672   */\n      gt\n        /* \"#utility.yul\":24686:24687   */\n      0x01\n        /* \"#utility.yul\":24681:25313   */\n      dup2\n      eq\n      tag_575\n      jumpi\n        /* \"#utility.yul\":25357:25358   */\n      0x00\n        /* \"#utility.yul\":25374:25380   */\n      dup5\n        /* \"#utility.yul\":25371:25455   */\n      iszero\n      tag_576\n      jumpi\n        /* \"#utility.yul\":25430:25439   */\n      dup3\n        /* \"#utility.yul\":25425:25428   */\n      dup8\n        /* \"#utility.yul\":25421:25440   */\n      add\n        /* \"#utility.yul\":25408:25441   */\n      calldataload\n        /* \"#utility.yul\":25399:25441   */\n      swap1\n      pop\n        /* \"#utility.yul\":25371:25455   */\n    tag_576:\n        /* \"#utility.yul\":25481:25548   */\n      tag_577\n        /* \"#utility.yul\":25541:25547   */\n      dup6\n        /* \"#utility.yul\":25534:25539   */\n      dup3\n        /* \"#utility.yul\":25481:25548   */\n      tag_311\n      jump\t// in\n    tag_577:\n        /* \"#utility.yul\":25475:25479   */\n      dup7\n        /* \"#utility.yul\":25468:25549   */\n      sstore\n        /* \"#utility.yul\":25330:25559   */\n      pop\n        /* \"#utility.yul\":24651:25559   */\n      jump(tag_574)\n        /* \"#utility.yul\":24681:25313   */\n    tag_575:\n        /* \"#utility.yul\":24733:24737   */\n      0x1f\n        /* \"#utility.yul\":24729:24738   */\n      not\n        /* \"#utility.yul\":24721:24727   */\n      dup5\n        /* \"#utility.yul\":24717:24739   */\n      and\n        /* \"#utility.yul\":24767:24804   */\n      tag_578\n        /* \"#utility.yul\":24799:24803   */\n      dup7\n        /* \"#utility.yul\":24767:24804   */\n      tag_297\n      jump\t// in\n    tag_578:\n        /* \"#utility.yul\":24826:24827   */\n      0x00\n        /* \"#utility.yul\":24840:25055   */\n    tag_579:\n        /* \"#utility.yul\":24854:24861   */\n      dup3\n        /* \"#utility.yul\":24851:24852   */\n      dup2\n        /* \"#utility.yul\":24848:24862   */\n      lt\n        /* \"#utility.yul\":24840:25055   */\n      iszero\n      tag_581\n      jumpi\n        /* \"#utility.yul\":24940:24949   */\n      dup5\n        /* \"#utility.yul\":24935:24938   */\n      dup10\n        /* \"#utility.yul\":24931:24950   */\n      add\n        /* \"#utility.yul\":24918:24951   */\n      calldataload\n        /* \"#utility.yul\":24910:24916   */\n      dup3\n        /* \"#utility.yul\":24903:24952   */\n      sstore\n        /* \"#utility.yul\":24991:24992   */\n      0x01\n        /* \"#utility.yul\":24983:24989   */\n      dup3\n        /* \"#utility.yul\":24979:24993   */\n      add\n        /* \"#utility.yul\":24969:24993   */\n      swap2\n      pop\n        /* \"#utility.yul\":25038:25040   */\n      0x20\n        /* \"#utility.yul\":25027:25036   */\n      dup6\n        /* \"#utility.yul\":25023:25041   */\n      add\n        /* \"#utility.yul\":25010:25041   */\n      swap5\n      pop\n        /* \"#utility.yul\":24877:24881   */\n      0x20\n        /* \"#utility.yul\":24874:24875   */\n      dup2\n        /* \"#utility.yul\":24870:24882   */\n      add\n        /* \"#utility.yul\":24865:24882   */\n      swap1\n      pop\n        /* \"#utility.yul\":24840:25055   */\n      jump(tag_579)\n    tag_581:\n        /* \"#utility.yul\":25083:25089   */\n      dup7\n        /* \"#utility.yul\":25074:25081   */\n      dup4\n        /* \"#utility.yul\":25071:25090   */\n      lt\n        /* \"#utility.yul\":25068:25254   */\n      iszero\n      tag_582\n      jumpi\n        /* \"#utility.yul\":25148:25157   */\n      dup5\n        /* \"#utility.yul\":25143:25146   */\n      dup10\n        /* \"#utility.yul\":25139:25158   */\n      add\n        /* \"#utility.yul\":25126:25159   */\n      calldataload\n        /* \"#utility.yul\":25191:25239   */\n      tag_583\n        /* \"#utility.yul\":25233:25237   */\n      0x1f\n        /* \"#utility.yul\":25225:25231   */\n      dup10\n        /* \"#utility.yul\":25221:25238   */\n      and\n        /* \"#utility.yul\":25210:25219   */\n      dup3\n        /* \"#utility.yul\":25191:25239   */\n      tag_310\n      jump\t// in\n    tag_583:\n        /* \"#utility.yul\":25183:25189   */\n      dup4\n        /* \"#utility.yul\":25176:25240   */\n      sstore\n        /* \"#utility.yul\":25091:25254   */\n      pop\n        /* \"#utility.yul\":25068:25254   */\n    tag_582:\n        /* \"#utility.yul\":25300:25301   */\n      0x01\n        /* \"#utility.yul\":25296:25297   */\n      0x02\n        /* \"#utility.yul\":25288:25294   */\n      dup9\n        /* \"#utility.yul\":25284:25298   */\n      mul\n        /* \"#utility.yul\":25280:25302   */\n      add\n        /* \"#utility.yul\":25274:25278   */\n      dup9\n        /* \"#utility.yul\":25267:25303   */\n      sstore\n        /* \"#utility.yul\":24688:25313   */\n      pop\n      pop\n      pop\n        /* \"#utility.yul\":24651:25559   */\n    tag_574:\n      pop\n        /* \"#utility.yul\":24261:25565   */\n      pop\n      pop\n      pop\n        /* \"#utility.yul\":24162:25565   */\n      pop\n      pop\n      pop\n      jump\t// out\n        /* \"#utility.yul\":25571:25731   */\n    tag_312:\n        /* \"#utility.yul\":25711:25723   */\n      0x4e6f742061637469766500000000000000000000000000000000000000000000\n        /* \"#utility.yul\":25707:25708   */\n      0x00\n        /* \"#utility.yul\":25699:25705   */\n      dup3\n        /* \"#utility.yul\":25695:25709   */\n      add\n        /* \"#utility.yul\":25688:25724   */\n      mstore\n        /* \"#utility.yul\":25571:25731   */\n      pop\n      jump\t// out\n        /* \"#utility.yul\":25737:26103   */\n    tag_313:\n        /* \"#utility.yul\":25879:25882   */\n      0x00\n        /* \"#utility.yul\":25900:25967   */\n      tag_586\n        /* \"#utility.yul\":25964:25966   */\n      0x0a\n        /* \"#utility.yul\":25959:25962   */\n      dup4\n        /* \"#utility.yul\":25900:25967   */\n      tag_257\n      jump\t// in\n    tag_586:\n        /* \"#utility.yul\":25893:25967   */\n      swap2\n      pop\n        /* \"#utility.yul\":25976:26069   */\n      tag_587\n        /* \"#utility.yul\":26065:26068   */\n      dup3\n        /* \"#utility.yul\":25976:26069   */\n      tag_312\n      jump\t// in\n    tag_587:\n        /* \"#utility.yul\":26094:26096   */\n      0x20\n        /* \"#utility.yul\":26089:26092   */\n      dup3\n        /* \"#utility.yul\":26085:26097   */\n      add\n        /* \"#utility.yul\":26078:26097   */\n      swap1\n      pop\n        /* \"#utility.yul\":25737:26103   */\n      swap2\n      swap1\n      pop\n      jump\t// out\n        /* \"#utility.yul\":26109:26528   */\n    tag_176:\n        /* \"#utility.yul\":26275:26279   */\n      0x00\n        /* \"#utility.yul\":26313:26315   */\n      0x20\n        /* \"#utility.yul\":26302:26311   */\n      dup3\n        /* \"#utility.yul\":26298:26316   */\n      add\n        /* \"#utility.yul\":26290:26316   */\n      swap1\n      pop\n        /* \"#utility.yul\":26362:26371   */\n      dup2\n        /* \"#utility.yul\":26356:26360   */\n      dup2\n        /* \"#utility.yul\":26352:26372   */\n      sub\n        /* \"#utility.yul\":26348:26349   */\n      0x00\n        /* \"#utility.yul\":26337:26346   */\n      dup4\n        /* \"#utility.yul\":26333:26350   */\n      add\n        /* \"#utility.yul\":26326:26373   */\n      mstore\n        /* \"#utility.yul\":26390:26521   */\n      tag_589\n        /* \"#utility.yul\":26516:26520   */\n      dup2\n        /* \"#utility.yul\":26390:26521   */\n      tag_313\n      jump\t// in\n    tag_589:\n        /* \"#utility.yul\":26382:26521   */\n      swap1\n      pop\n        /* \"#utility.yul\":26109:26528   */\n      swap2\n      swap1\n      pop\n      jump\t// out\n        /* \"#utility.yul\":26558:27389   */\n    tag_314:\n        /* \"#utility.yul\":26643:26646   */\n      0x00\n        /* \"#utility.yul\":26680:26685   */\n      dup2\n        /* \"#utility.yul\":26674:26686   */\n      sload\n        /* \"#utility.yul\":26709:26745   */\n      tag_591\n        /* \"#utility.yul\":26735:26744   */\n      dup2\n        /* \"#utility.yul\":26709:26745   */\n      tag_140\n      jump\t// in\n    tag_591:\n        /* \"#utility.yul\":26761:26832   */\n      tag_592\n        /* \"#utility.yul\":26825:26831   */\n      dup2\n        /* \"#utility.yul\":26820:26823   */\n      dup7\n        /* \"#utility.yul\":26761:26832   */\n      tag_257\n      jump\t// in\n    tag_592:\n        /* \"#utility.yul\":26754:26832   */\n      swap5\n      pop\n        /* \"#utility.yul\":26863:26864   */\n      0x01\n        /* \"#utility.yul\":26852:26861   */\n      dup3\n        /* \"#utility.yul\":26848:26865   */\n      and\n        /* \"#utility.yul\":26879:26880   */\n      0x00\n        /* \"#utility.yul\":26874:27038   */\n      dup2\n      eq\n      tag_594\n      jumpi\n        /* \"#utility.yul\":27052:27053   */\n      0x01\n        /* \"#utility.yul\":27047:27383   */\n      dup2\n      eq\n      tag_595\n      jumpi\n        /* \"#utility.yul\":26841:27383   */\n      jump(tag_593)\n        /* \"#utility.yul\":26874:27038   */\n    tag_594:\n        /* \"#utility.yul\":26958:26962   */\n      0xff\n        /* \"#utility.yul\":26954:26963   */\n      not\n        /* \"#utility.yul\":26943:26952   */\n      dup4\n        /* \"#utility.yul\":26939:26964   */\n      and\n        /* \"#utility.yul\":26934:26937   */\n      dup7\n        /* \"#utility.yul\":26927:26965   */\n      mstore\n        /* \"#utility.yul\":27018:27024   */\n      dup2\n        /* \"#utility.yul\":27011:27025   */\n      iszero\n        /* \"#utility.yul\":27004:27026   */\n      iszero\n        /* \"#utility.yul\":26998:27002   */\n      0x20\n        /* \"#utility.yul\":26994:27027   */\n      mul\n        /* \"#utility.yul\":26989:26992   */\n      dup7\n        /* \"#utility.yul\":26985:27028   */\n      add\n        /* \"#utility.yul\":26978:27028   */\n      swap4\n      pop\n        /* \"#utility.yul\":26874:27038   */\n      jump(tag_593)\n        /* \"#utility.yul\":27047:27383   */\n    tag_595:\n        /* \"#utility.yul\":27114:27152   */\n      tag_596\n        /* \"#utility.yul\":27146:27151   */\n      dup6\n        /* \"#utility.yul\":27114:27152   */\n      tag_297\n      jump\t// in\n    tag_596:\n        /* \"#utility.yul\":27174:27175   */\n      0x00\n        /* \"#utility.yul\":27188:27342   */\n    tag_597:\n        /* \"#utility.yul\":27202:27208   */\n      dup4\n        /* \"#utility.yul\":27199:27200   */\n      dup2\n        /* \"#utility.yul\":27196:27209   */\n      lt\n        /* \"#utility.yul\":27188:27342   */\n      iszero\n      tag_599\n      jumpi\n        /* \"#utility.yul\":27276:27283   */\n      dup2\n        /* \"#utility.yul\":27270:27284   */\n      sload\n        /* \"#utility.yul\":27266:27267   */\n      dup2\n        /* \"#utility.yul\":27261:27264   */\n      dup10\n        /* \"#utility.yul\":27257:27268   */\n      add\n        /* \"#utility.yul\":27250:27285   */\n      mstore\n        /* \"#utility.yul\":27326:27327   */\n      0x01\n        /* \"#utility.yul\":27317:27324   */\n      dup3\n        /* \"#utility.yul\":27313:27328   */\n      add\n        /* \"#utility.yul\":27302:27328   */\n      swap2\n      pop\n        /* \"#utility.yul\":27224:27228   */\n      0x20\n        /* \"#utility.yul\":27221:27222   */\n      dup2\n        /* \"#utility.yul\":27217:27229   */\n      add\n        /* \"#utility.yul\":27212:27229   */\n      swap1\n      pop\n        /* \"#utility.yul\":27188:27342   */\n      jump(tag_597)\n    tag_599:\n        /* \"#utility.yul\":27371:27372   */\n      dup1\n        /* \"#utility.yul\":27366:27369   */\n      dup9\n        /* \"#utility.yul\":27362:27373   */\n      add\n        /* \"#utility.yul\":27355:27373   */\n      swap6\n      pop\n        /* \"#utility.yul\":27054:27383   */\n      pop\n      pop\n        /* \"#utility.yul\":26841:27383   */\n    tag_593:\n      pop\n        /* \"#utility.yul\":26647:27389   */\n      pop\n      pop\n        /* \"#utility.yul\":26558:27389   */\n      swap3\n      swap2\n      pop\n      pop\n      jump\t// out\n        /* \"#utility.yul\":27395:27702   */\n    tag_199:\n        /* \"#utility.yul\":27505:27509   */\n      0x00\n        /* \"#utility.yul\":27543:27545   */\n      0x20\n        /* \"#utility.yul\":27532:27541   */\n      dup3\n        /* \"#utility.yul\":27528:27546   */\n      add\n        /* \"#utility.yul\":27520:27546   */\n      swap1\n      pop\n        /* \"#utility.yul\":27592:27601   */\n      dup2\n        /* \"#utility.yul\":27586:27590   */\n      dup2\n        /* \"#utility.yul\":27582:27602   */\n      sub\n        /* \"#utility.yul\":27578:27579   */\n      0x00\n        /* \"#utility.yul\":27567:27576   */\n      dup4\n        /* \"#utility.yul\":27563:27580   */\n      add\n        /* \"#utility.yul\":27556:27603   */\n      mstore\n        /* \"#utility.yul\":27620:27695   */\n      tag_601\n        /* \"#utility.yul\":27690:27694   */\n      dup2\n        /* \"#utility.yul\":27681:27687   */\n      dup5\n        /* \"#utility.yul\":27620:27695   */\n      tag_314\n      jump\t// in\n    tag_601:\n        /* \"#utility.yul\":27612:27695   */\n      swap1\n      pop\n        /* \"#utility.yul\":27395:27702   */\n      swap3\n      swap2\n      pop\n      pop\n      jump\t// out\n        /* \"#utility.yul\":27708:27872   */\n    tag_315:\n        /* \"#utility.yul\":27848:27864   */\n      0x4e6f7420617574686f7269736564000000000000000000000000000000000000\n        /* \"#utility.yul\":27844:27845   */\n      0x00\n        /* \"#utility.yul\":27836:27842   */\n      dup3\n        /* \"#utility.yul\":27832:27846   */\n      add\n        /* \"#utility.yul\":27825:27865   */\n      mstore\n        /* \"#utility.yul\":27708:27872   */\n      pop\n      jump\t// out\n        /* \"#utility.yul\":27878:28244   */\n    tag_316:\n        /* \"#utility.yul\":28020:28023   */\n      0x00\n        /* \"#utility.yul\":28041:28108   */\n      tag_604\n        /* \"#utility.yul\":28105:28107   */\n      0x0e\n        /* \"#utility.yul\":28100:28103   */\n      dup4\n        /* \"#utility.yul\":28041:28108   */\n      tag_257\n      jump\t// in\n    tag_604:\n        /* \"#utility.yul\":28034:28108   */\n      swap2\n      pop\n        /* \"#utility.yul\":28117:28210   */\n      tag_605\n        /* \"#utility.yul\":28206:28209   */\n      dup3\n        /* \"#utility.yul\":28117:28210   */\n      tag_315\n      jump\t// in\n    tag_605:\n        /* \"#utility.yul\":28235:28237   */\n      0x20\n        /* \"#utility.yul\":28230:28233   */\n      dup3\n        /* \"#utility.yul\":28226:28238   */\n      add\n        /* \"#utility.yul\":28219:28238   */\n      swap1\n      pop\n        /* \"#utility.yul\":27878:28244   */\n      swap2\n      swap1\n      pop\n      jump\t// out\n        /* \"#utility.yul\":28250:28669   */\n    tag_218:\n        /* \"#utility.yul\":28416:28420   */\n      0x00\n        /* \"#utility.yul\":28454:28456   */\n      0x20\n        /* \"#utility.yul\":28443:28452   */\n      dup3\n        /* \"#utility.yul\":28439:28457   */\n      add\n        /* \"#utility.yul\":28431:28457   */\n      swap1\n      pop\n        /* \"#utility.yul\":28503:28512   */\n      dup2\n        /* \"#utility.yul\":28497:28501   */\n      dup2\n        /* \"#utility.yul\":28493:28513   */\n      sub\n        /* \"#utility.yul\":28489:28490   */\n      0x00\n        /* \"#utility.yul\":28478:28487   */\n      dup4\n        /* \"#utility.yul\":28474:28491   */\n      add\n        /* \"#utility.yul\":28467:28514   */\n      mstore\n        /* \"#utility.yul\":28531:28662   */\n      tag_607\n        /* \"#utility.yul\":28657:28661   */\n      dup2\n        /* \"#utility.yul\":28531:28662   */\n      tag_316\n      jump\t// in\n    tag_607:\n        /* \"#utility.yul\":28523:28662   */\n      swap1\n      pop\n        /* \"#utility.yul\":28250:28669   */\n      swap2\n      swap1\n      pop\n      jump\t// out\n        /* \"#utility.yul\":28675:29033   */\n    tag_229:\n        /* \"#utility.yul\":28809:28813   */\n      0x00\n        /* \"#utility.yul\":28847:28849   */\n      0x40\n        /* \"#utility.yul\":28836:28845   */\n      dup3\n        /* \"#utility.yul\":28832:28850   */\n      add\n        /* \"#utility.yul\":28824:28850   */\n      swap1\n      pop\n        /* \"#utility.yul\":28860:28931   */\n      tag_609\n        /* \"#utility.yul\":28928:28929   */\n      0x00\n        /* \"#utility.yul\":28917:28926   */\n      dup4\n        /* \"#utility.yul\":28913:28930   */\n      add\n        /* \"#utility.yul\":28904:28910   */\n      dup6\n        /* \"#utility.yul\":28860:28931   */\n      tag_247\n      jump\t// in\n    tag_609:\n        /* \"#utility.yul\":28941:29026   */\n      tag_610\n        /* \"#utility.yul\":29022:29024   */\n      0x20\n        /* \"#utility.yul\":29011:29020   */\n      dup4\n        /* \"#utility.yul\":29007:29025   */\n      add\n        /* \"#utility.yul\":28998:29004   */\n      dup5\n        /* \"#utility.yul\":28941:29026   */\n      tag_272\n      jump\t// in\n    tag_610:\n        /* \"#utility.yul\":28675:29033   */\n      swap4\n      swap3\n      pop\n      pop\n      pop\n      jump\t// out\n\n    auxdata: 0xa2646970667358221220ac9ca470fee223d2dded0a5abeef34855b80d8a52f9c79cf23fc1e11aafc4b9e64736f6c634300081a0033\n}\n",
				"bytecode": {
					"linkReferences": {},
					"object": "608060405234801561000f575f80fd5b5060405161220338038061220383398181016040528101906100319190610114565b335f806101000a81548173ffffffffffffffffffffffffffffffffffffffff021916908373ffffffffffffffffffffffffffffffffffffffff1602179055508060015f6101000a81548173ffffffffffffffffffffffffffffffffffffffff021916908373ffffffffffffffffffffffffffffffffffffffff1602179055505061013f565b5f80fd5b5f73ffffffffffffffffffffffffffffffffffffffff82169050919050565b5f6100e3826100ba565b9050919050565b6100f3816100d9565b81146100fd575f80fd5b50565b5f8151905061010e816100ea565b92915050565b5f60208284031215610129576101286100b6565b5b5f61013684828501610100565b91505092915050565b6120b78061014c5f395ff3fe608060405260043610610101575f3560e01c80637adbf973116100945780638da5cb5b116100635780638da5cb5b146103305780639f62eb821461035a578063ba7b6e4f14610382578063e6cf0653146103be578063ee6a1a8d146103e857610108565b80637adbf973146102865780637dc0d1d0146102ae5780638812b680146102d85780638d6eb55c1461030857610108565b8063507b1e4e116100d0578063507b1e4e146101ae578063511671ee146101d857806359fb49f9146102025780636e04ff0d1461024957610108565b80631f11d58c1461010a57806331b2a52a146101465780633ccfd60b146101705780634585e33b1461018657610108565b3661010857005b005b348015610115575f80fd5b50610130600480360381019061012b91906112a8565b610412565b60405161013d9190611393565b60405180910390f35b348015610151575f80fd5b5061015a6104a5565b60405161016791906113c2565b60405180910390f35b34801561017b575f80fd5b506101846104ab565b005b348015610191575f80fd5b506101ac60048036038101906101a7919061143c565b6105e3565b005b3480156101b9575f80fd5b506101c2610680565b6040516101cf91906113c2565b60405180910390f35b3480156101e3575f80fd5b506101ec610686565b6040516101f991906113c2565b60405180910390f35b34801561020d575f80fd5b50610228600480360381019061022391906114b1565b61068c565b6040516102409c9b9a9998979695949392919061166b565b60405180910390f35b348015610254575f80fd5b5061026f600480360381019061026a919061143c565b6107b3565b60405161027d929190611796565b60405180910390f35b348015610291575f80fd5b506102ac60048036038101906102a791906112a8565b6107e3565b005b3480156102b9575f80fd5b506102c26108b3565b6040516102cf91906117d3565b60405180910390f35b6102f260048036038101906102ed9190611841565b6108d8565b6040516102ff91906113c2565b60405180910390f35b348015610313575f80fd5b5061032e600480360381019061032991906114b1565b610b4c565b005b34801561033b575f80fd5b5061034461100a565b60405161035191906117d3565b60405180910390f35b348015610365575f80fd5b50610380600480360381019061037b91906118d5565b61102d565b005b34801561038d575f80fd5b506103a860048036038101906103a39190611925565b611210565b6040516103b591906113c2565b60405180910390f35b3480156103c9575f80fd5b506103d261123b565b6040516103df91906113c2565b60405180910390f35b3480156103f3575f80fd5b506103fc611240565b60405161040991906113c2565b60405180910390f35b606060045f8373ffffffffffffffffffffffffffffffffffffffff1673ffffffffffffffffffffffffffffffffffffffff1681526020019081526020015f2080548060200260200160405190810160405280929190818152602001828054801561049957602002820191905f5260205f20905b815481526020019060010190808311610485575b50505050509050919050565b61177081565b5f8054906101000a900473ffffffffffffffffffffffffffffffffffffffff1673ffffffffffffffffffffffffffffffffffffffff163373ffffffffffffffffffffffffffffffffffffffff1614610538576040517f08c379a000000000000000000000000000000000000000000000000000000000815260040161052f906119ad565b60405180910390fd5b5f3373ffffffffffffffffffffffffffffffffffffffff164760405161055d906119f8565b5f6040518083038185875af1925050503d805f8114610597576040519150601f19603f3d011682016040523d82523d5f602084013e61059c565b606091505b50509050806105e0576040517f08c379a00000000000000000000000000000000000000000000000000000000081526004016105d790611a56565b60405180910390fd5b50565b426005819055505f5b60025481101561067b575f60035f8381526020019081526020015f2090505f600281111561061d5761061c61156c565b5b816009015f9054906101000a900460ff1660028111156106405761063f61156c565b5b14801561066057508060060154816003015461065c9190611aa1565b4210155b1561066f5761066e82610b4c565b5b508060010190506105ec565b505050565b610e1081565b60055481565b6003602052805f5260405f205f91509050805f015f9054906101000a900473ffffffffffffffffffffffffffffffffffffffff16908060010180546106d090611b01565b80601f01602080910402602001604051908101604052809291908181526020018280546106fc90611b01565b80156107475780601f1061071e57610100808354040283529160200191610747565b820191905f5260205f20905b81548152906001019060200180831161072a57829003601f168201915b505050505090806002015490806003015490806004015490806005015490806006015490806007015490806008015490806009015f9054906101000a900460ff16908060090160019054906101000a900460ff16908060090160029054906101000a900460ff1690508c565b5f6060610e106005546107c69190611aa1565b421015915060405180602001604052805f81525090509250929050565b5f8054906101000a900473ffffffffffffffffffffffffffffffffffffffff1673ffffffffffffffffffffffffffffffffffffffff163373ffffffffffffffffffffffffffffffffffffffff1614610870576040517f08c379a0000000000000000000000000000000000000000000000000000000008152600401610867906119ad565b60405180910390fd5b8060015f6101000a81548173ffffffffffffffffffffffffffffffffffffffff021916908373ffffffffffffffffffffffffffffffffffffffff16021790555050565b60015f9054906101000a900473ffffffffffffffffffffffffffffffffffffffff1681565b5f82821161091b576040517f08c379a000000000000000000000000000000000000000000000000000000000815260040161091290611b7b565b60405180910390fd5b61012c341461095f576040517f08c379a000000000000000000000000000000000000000000000000000000000815260040161095690611be3565b60405180910390fd5b60025f81548092919061097190611c01565b9190505590505f60035f8381526020019081526020015f20905033815f015f6101000a81548173ffffffffffffffffffffffffffffffffffffffff021916908373ffffffffffffffffffffffffffffffffffffffff16021790555085858260010191826109df929190611e1c565b5083816002018190555082816003018190555060f0816006018190555061012c816007018190555061177081600801819055505f816009015f6101000a81548160ff02191690836002811115610a3857610a3761156c565b5b02179055505f8160090160016101000a81548160ff02191690836002811115610a6457610a6361156c565b5b02179055505f8160090160026101000a81548160ff02191690836002811115610a9057610a8f61156c565b5b021790555042816005018190555060045f3373ffffffffffffffffffffffffffffffffffffffff1673ffffffffffffffffffffffffffffffffffffffff1681526020019081526020015f2082908060018154018082558091505060019003905f5260205f20015f90919091909150553373ffffffffffffffffffffffffffffffffffffffff16827f362a18d483785c7cbd3eedc8134897c38959f9330c5dfe708330173600280a4c60405160405180910390a350949350505050565b5f60035f8381526020019081526020015f2090505f6002811115610b7357610b7261156c565b5b816009015f9054906101000a900460ff166002811115610b9657610b9561156c565b5b14610bd6576040517f08c379a0000000000000000000000000000000000000000000000000000000008152600401610bcd90611f33565b60405180910390fd5b80600601548160030154610bea9190611aa1565b421015610c2d57428160050181905550817f44ea6cd4a30857868ca250b1d94459ec789d82611c70f26164bffda153f1bc0a60405160405180910390a250611007565b60016002811115610c4157610c4061156c565b5b8160090160029054906101000a900460ff166002811115610c6557610c6461156c565b5b03610cf6576001816009015f6101000a81548160ff02191690836002811115610c9157610c9061156c565b5b021790555060028160090160016101000a81548160ff02191690836002811115610cbe57610cbd61156c565b5b0217905550817fce497f2d2d439d5ac116f719fa47580e5922b4944a0f698d2327162c6eb3b7ac60405160405180910390a250611007565b5f8160040154148015610d1b57506203f4808160030154610d179190611aa1565b4210155b15610dd9576001816009015f6101000a81548160ff02191690836002811115610d4757610d4661156c565b5b021790555060028160090160016101000a81548160ff02191690836002811115610d7457610d7361156c565b5b021790555060028160090160026101000a81548160ff02191690836002811115610da157610da061156c565b5b0217905550817fac9706c516a83df0060e911fa5b8a2fd1acedc32c29e4a4dad6fe2061caceff260405160405180910390a250611007565b5f816004015403610e5b57428160050181905550817fd423cf817b1e9b6729656dfffcb8186f2dd028ac4dbd0226b332f3108f9565a582600101604051610e209190611fd2565b60405180910390a2817fb69f5371ebf20cdf43bb4d5fb074d977d10508b688a49267b829acfcd727c02660405160405180910390a250611007565b80600601548160030154610e6f9190611aa1565b816004015411610f04576001816009015f6101000a81548160ff02191690836002811115610ea057610e9f61156c565b5b021790555060028160090160016101000a81548160ff02191690836002811115610ecd57610ecc61156c565b5b0217905550817fa0a8cd3c30c1f1eee66987b51c20e8f2adf28114a41e24dddb595eaa93f3613160405160405180910390a2611005565b5f816008015490506002826009015f6101000a81548160ff02191690836002811115610f3357610f3261156c565b5b021790555060018260090160016101000a81548160ff02191690836002811115610f6057610f5f61156c565b5b0217905550815f015f9054906101000a900473ffffffffffffffffffffffffffffffffffffffff1673ffffffffffffffffffffffffffffffffffffffff166108fc8290811502906040515f60405180830381858888f19350505050158015610fca573d5f803e3d5ffd5b50827fb0727183796e52c5bb00a257c1eb36d8e94dbee5d6d87e259287e3372ae39ace82604051610ffb91906113c2565b60405180910390a2505b505b50565b5f8054906101000a900473ffffffffffffffffffffffffffffffffffffffff1681565b60015f9054906101000a900473ffffffffffffffffffffffffffffffffffffffff1673ffffffffffffffffffffffffffffffffffffffff163373ffffffffffffffffffffffffffffffffffffffff1614806110d257505f8054906101000a900473ffffffffffffffffffffffffffffffffffffffff1673ffffffffffffffffffffffffffffffffffffffff163373ffffffffffffffffffffffffffffffffffffffff16145b611111576040517f08c379a00000000000000000000000000000000000000000000000000000000081526004016111089061203c565b60405180910390fd5b5f60035f8581526020019081526020015f2090505f60028111156111385761113761156c565b5b816009015f9054906101000a900460ff16600281111561115b5761115a61156c565b5b1461119b576040517f08c379a000000000000000000000000000000000000000000000000000000000815260040161119290611f33565b60405180910390fd5b828160040181905550818160090160026101000a81548160ff021916908360028111156111cb576111ca61156c565b5b0217905550837fefbe4568c3e8b3451436ae01df5e7365a5206dce94e54f32d21eb8b0a85e7f9e848460405161120292919061205a565b60405180910390a250505050565b6004602052815f5260405f208181548110611229575f80fd5b905f5260205f20015f91509150505481565b60f081565b61012c81565b5f80fd5b5f80fd5b5f73ffffffffffffffffffffffffffffffffffffffff82169050919050565b5f6112778261124e565b9050919050565b6112878161126d565b8114611291575f80fd5b50565b5f813590506112a28161127e565b92915050565b5f602082840312156112bd576112bc611246565b5b5f6112ca84828501611294565b91505092915050565b5f81519050919050565b5f82825260208201905092915050565b5f819050602082019050919050565b5f819050919050565b61130e816112fc565b82525050565b5f61131f8383611305565b60208301905092915050565b5f602082019050919050565b5f611341826112d3565b61134b81856112dd565b9350611356836112ed565b805f5b8381101561138657815161136d8882611314565b97506113788361132b565b925050600181019050611359565b5085935050505092915050565b5f6020820190508181035f8301526113ab8184611337565b905092915050565b6113bc816112fc565b82525050565b5f6020820190506113d55f8301846113b3565b92915050565b5f80fd5b5f80fd5b5f80fd5b5f8083601f8401126113fc576113fb6113db565b5b8235905067ffffffffffffffff811115611419576114186113df565b5b602083019150836001820283011115611435576114346113e3565b5b9250929050565b5f806020838503121561145257611451611246565b5b5f83013567ffffffffffffffff81111561146f5761146e61124a565b5b61147b858286016113e7565b92509250509250929050565b611490816112fc565b811461149a575f80fd5b50565b5f813590506114ab81611487565b92915050565b5f602082840312156114c6576114c5611246565b5b5f6114d38482850161149d565b91505092915050565b5f6114e68261124e565b9050919050565b6114f6816114dc565b82525050565b5f81519050919050565b5f82825260208201905092915050565b8281835e5f83830152505050565b5f601f19601f8301169050919050565b5f61153e826114fc565b6115488185611506565b9350611558818560208601611516565b61156181611524565b840191505092915050565b7f4e487b71000000000000000000000000000000000000000000000000000000005f52602160045260245ffd5b600381106115aa576115a961156c565b5b50565b5f8190506115ba82611599565b919050565b5f6115c9826115ad565b9050919050565b6115d9816115bf565b82525050565b600381106115f0576115ef61156c565b5b50565b5f819050611600826115df565b919050565b5f61160f826115f3565b9050919050565b61161f81611605565b82525050565b600381106116365761163561156c565b5b50565b5f81905061164682611625565b919050565b5f61165582611639565b9050919050565b6116658161164b565b82525050565b5f6101808201905061167f5f83018f6114ed565b8181036020830152611691818e611534565b90506116a0604083018d6113b3565b6116ad606083018c6113b3565b6116ba608083018b6113b3565b6116c760a083018a6113b3565b6116d460c08301896113b3565b6116e160e08301886113b3565b6116ef6101008301876113b3565b6116fd6101208301866115d0565b61170b610140830185611616565b61171961016083018461165c565b9d9c50505050505050505050505050565b5f8115159050919050565b61173e8161172a565b82525050565b5f81519050919050565b5f82825260208201905092915050565b5f61176882611744565b611772818561174e565b9350611782818560208601611516565b61178b81611524565b840191505092915050565b5f6040820190506117a95f830185611735565b81810360208301526117bb818461175e565b90509392505050565b6117cd8161126d565b82525050565b5f6020820190506117e65f8301846117c4565b92915050565b5f8083601f840112611801576118006113db565b5b8235905067ffffffffffffffff81111561181e5761181d6113df565b5b60208301915083600182028301111561183a576118396113e3565b5b9250929050565b5f805f806060858703121561185957611858611246565b5b5f85013567ffffffffffffffff8111156118765761187561124a565b5b611882878288016117ec565b945094505060206118958782880161149d565b92505060406118a68782880161149d565b91505092959194509250565b600381106118be575f80fd5b50565b5f813590506118cf816118b2565b92915050565b5f805f606084860312156118ec576118eb611246565b5b5f6118f98682870161149d565b935050602061190a8682870161149d565b925050604061191b868287016118c1565b9150509250925092565b5f806040838503121561193b5761193a611246565b5b5f61194885828601611294565b92505060206119598582860161149d565b9150509250929050565b7f4f776e6572206f6e6c79000000000000000000000000000000000000000000005f82015250565b5f611997600a83611506565b91506119a282611963565b602082019050919050565b5f6020820190508181035f8301526119c48161198b565b9050919050565b5f81905092915050565b50565b5f6119e35f836119cb565b91506119ee826119d5565b5f82019050919050565b5f611a02826119d8565b9150819050919050565b7f5769746864726177206661696c656400000000000000000000000000000000005f82015250565b5f611a40600f83611506565b9150611a4b82611a0c565b602082019050919050565b5f6020820190508181035f830152611a6d81611a34565b9050919050565b7f4e487b71000000000000000000000000000000000000000000000000000000005f52601160045260245ffd5b5f611aab826112fc565b9150611ab6836112fc565b9250828201905080821115611ace57611acd611a74565b5b92915050565b7f4e487b71000000000000000000000000000000000000000000000000000000005f52602260045260245ffd5b5f6002820490506001821680611b1857607f821691505b602082108103611b2b57611b2a611ad4565b5b50919050565b7f5450206d757374206265206166746572205431000000000000000000000000005f82015250565b5f611b65601383611506565b9150611b7082611b31565b602082019050919050565b5f6020820190508181035f830152611b9281611b59565b9050919050565b7f496e636f7272656374207072656d69756d0000000000000000000000000000005f82015250565b5f611bcd601183611506565b9150611bd882611b99565b602082019050919050565b5f6020820190508181035f830152611bfa81611bc1565b9050919050565b5f611c0b826112fc565b91507fffffffffffffffffffffffffffffffffffffffffffffffffffffffffffffffff8203611c3d57611c3c611a74565b5b600182019050919050565b5f82905092915050565b7f4e487b71000000000000000000000000000000000000000000000000000000005f52604160045260245ffd5b5f819050815f5260205f209050919050565b5f6020601f8301049050919050565b5f82821b905092915050565b5f60088302611cdb7fffffffffffffffffffffffffffffffffffffffffffffffffffffffffffffffff82611ca0565b611ce58683611ca0565b95508019841693508086168417925050509392505050565b5f819050919050565b5f611d20611d1b611d16846112fc565b611cfd565b6112fc565b9050919050565b5f819050919050565b611d3983611d06565b611d4d611d4582611d27565b848454611cac565b825550505050565b5f90565b611d61611d55565b611d6c818484611d30565b505050565b5b81811015611d8f57611d845f82611d59565b600181019050611d72565b5050565b601f821115611dd457611da581611c7f565b611dae84611c91565b81016020851015611dbd578190505b611dd1611dc985611c91565b830182611d71565b50505b505050565b5f82821c905092915050565b5f611df45f1984600802611dd9565b1980831691505092915050565b5f611e0c8383611de5565b9150826002028217905092915050565b611e268383611c48565b67ffffffffffffffff811115611e3f57611e3e611c52565b5b611e498254611b01565b611e54828285611d93565b5f601f831160018114611e81575f8415611e6f578287013590505b611e798582611e01565b865550611ee0565b601f198416611e8f86611c7f565b5f5b82811015611eb657848901358255600182019150602085019450602081019050611e91565b86831015611ed35784890135611ecf601f891682611de5565b8355505b6001600288020188555050505b50505050505050565b7f4e6f7420616374697665000000000000000000000000000000000000000000005f82015250565b5f611f1d600a83611506565b9150611f2882611ee9565b602082019050919050565b5f6020820190508181035f830152611f4a81611f11565b9050919050565b5f8154611f5d81611b01565b611f678186611506565b9450600182165f8114611f815760018114611f9757611fc9565b60ff198316865281151560200286019350611fc9565b611fa085611c7f565b5f5b83811015611fc157815481890152600182019150602081019050611fa2565b808801955050505b50505092915050565b5f6020820190508181035f830152611fea8184611f51565b905092915050565b7f4e6f7420617574686f72697365640000000000000000000000000000000000005f82015250565b5f612026600e83611506565b915061203182611ff2565b602082019050919050565b5f6020820190508181035f8301526120538161201a565b9050919050565b5f60408201905061206d5f8301856113b3565b61207a602083018461165c565b939250505056fea2646970667358221220ac9ca470fee223d2dded0a5abeef34855b80d8a52f9c79cf23fc1e11aafc4b9e64736f6c634300081a0033",
					"opcodes": "PUSH1 0x80 PUSH1 0x40 MSTORE CALLVALUE DUP1 ISZERO PUSH2 0xF JUMPI PUSH0 DUP1 REVERT JUMPDEST POP PUSH1 0x40 MLOAD PUSH2 0x2203 CODESIZE SUB DUP1 PUSH2 0x2203 DUP4 CODECOPY DUP2 DUP2 ADD PUSH1 0x40 MSTORE DUP2 ADD SWAP1 PUSH2 0x31 SWAP2 SWAP1 PUSH2 0x114 JUMP JUMPDEST CALLER PUSH0 DUP1 PUSH2 0x100 EXP DUP2 SLOAD DUP2 PUSH20 0xFFFFFFFFFFFFFFFFFFFFFFFFFFFFFFFFFFFFFFFF MUL NOT AND SWAP1 DUP4 PUSH20 0xFFFFFFFFFFFFFFFFFFFFFFFFFFFFFFFFFFFFFFFF AND MUL OR SWAP1 SSTORE POP DUP1 PUSH1 0x1 PUSH0 PUSH2 0x100 EXP DUP2 SLOAD DUP2 PUSH20 0xFFFFFFFFFFFFFFFFFFFFFFFFFFFFFFFFFFFFFFFF MUL NOT AND SWAP1 DUP4 PUSH20 0xFFFFFFFFFFFFFFFFFFFFFFFFFFFFFFFFFFFFFFFF AND MUL OR SWAP1 SSTORE POP POP PUSH2 0x13F JUMP JUMPDEST PUSH0 DUP1 REVERT JUMPDEST PUSH0 PUSH20 0xFFFFFFFFFFFFFFFFFFFFFFFFFFFFFFFFFFFFFFFF DUP3 AND SWAP1 POP SWAP2 SWAP1 POP JUMP JUMPDEST PUSH0 PUSH2 0xE3 DUP3 PUSH2 0xBA JUMP JUMPDEST SWAP1 POP SWAP2 SWAP1 POP JUMP JUMPDEST PUSH2 0xF3 DUP2 PUSH2 0xD9 JUMP JUMPDEST DUP2 EQ PUSH2 0xFD JUMPI PUSH0 DUP1 REVERT JUMPDEST POP JUMP JUMPDEST PUSH0 DUP2 MLOAD SWAP1 POP PUSH2 0x10E DUP2 PUSH2 0xEA JUMP JUMPDEST SWAP3 SWAP2 POP POP JUMP JUMPDEST PUSH0 PUSH1 0x20 DUP3 DUP5 SUB SLT ISZERO PUSH2 0x129 JUMPI PUSH2 0x128 PUSH2 0xB6 JUMP JUMPDEST JUMPDEST PUSH0 PUSH2 0x136 DUP5 DUP3 DUP6 ADD PUSH2 0x100 JUMP JUMPDEST SWAP2 POP POP SWAP3 SWAP2 POP POP JUMP JUMPDEST PUSH2 0x20B7 DUP1 PUSH2 0x14C PUSH0 CODECOPY PUSH0 RETURN INVALID PUSH1 0x80 PUSH1 0x40 MSTORE PUSH1 0x4 CALLDATASIZE LT PUSH2 0x101 JUMPI PUSH0 CALLDATALOAD PUSH1 0xE0 SHR DUP1 PUSH4 0x7ADBF973 GT PUSH2 0x94 JUMPI DUP1 PUSH4 0x8DA5CB5B GT PUSH2 0x63 JUMPI DUP1 PUSH4 0x8DA5CB5B EQ PUSH2 0x330 JUMPI DUP1 PUSH4 0x9F62EB82 EQ PUSH2 0x35A JUMPI DUP1 PUSH4 0xBA7B6E4F EQ PUSH2 0x382 JUMPI DUP1 PUSH4 0xE6CF0653 EQ PUSH2 0x3BE JUMPI DUP1 PUSH4 0xEE6A1A8D EQ PUSH2 0x3E8 JUMPI PUSH2 0x108 JUMP JUMPDEST DUP1 PUSH4 0x7ADBF973 EQ PUSH2 0x286 JUMPI DUP1 PUSH4 0x7DC0D1D0 EQ PUSH2 0x2AE JUMPI DUP1 PUSH4 0x8812B680 EQ PUSH2 0x2D8 JUMPI DUP1 PUSH4 0x8D6EB55C EQ PUSH2 0x308 JUMPI PUSH2 0x108 JUMP JUMPDEST DUP1 PUSH4 0x507B1E4E GT PUSH2 0xD0 JUMPI DUP1 PUSH4 0x507B1E4E EQ PUSH2 0x1AE JUMPI DUP1 PUSH4 0x511671EE EQ PUSH2 0x1D8 JUMPI DUP1 PUSH4 0x59FB49F9 EQ PUSH2 0x202 JUMPI DUP1 PUSH4 0x6E04FF0D EQ PUSH2 0x249 JUMPI PUSH2 0x108 JUMP JUMPDEST DUP1 PUSH4 0x1F11D58C EQ PUSH2 0x10A JUMPI DUP1 PUSH4 0x31B2A52A EQ PUSH2 0x146 JUMPI DUP1 PUSH4 0x3CCFD60B EQ PUSH2 0x170 JUMPI DUP1 PUSH4 0x4585E33B EQ PUSH2 0x186 JUMPI PUSH2 0x108 JUMP JUMPDEST CALLDATASIZE PUSH2 0x108 JUMPI STOP JUMPDEST STOP JUMPDEST CALLVALUE DUP1 ISZERO PUSH2 0x115 JUMPI PUSH0 DUP1 REVERT JUMPDEST POP PUSH2 0x130 PUSH1 0x4 DUP1 CALLDATASIZE SUB DUP2 ADD SWAP1 PUSH2 0x12B SWAP2 SWAP1 PUSH2 0x12A8 JUMP JUMPDEST PUSH2 0x412 JUMP JUMPDEST PUSH1 0x40 MLOAD PUSH2 0x13D SWAP2 SWAP1 PUSH2 0x1393 JUMP JUMPDEST PUSH1 0x40 MLOAD DUP1 SWAP2 SUB SWAP1 RETURN JUMPDEST CALLVALUE DUP1 ISZERO PUSH2 0x151 JUMPI PUSH0 DUP1 REVERT JUMPDEST POP PUSH2 0x15A PUSH2 0x4A5 JUMP JUMPDEST PUSH1 0x40 MLOAD PUSH2 0x167 SWAP2 SWAP1 PUSH2 0x13C2 JUMP JUMPDEST PUSH1 0x40 MLOAD DUP1 SWAP2 SUB SWAP1 RETURN JUMPDEST CALLVALUE DUP1 ISZERO PUSH2 0x17B JUMPI PUSH0 DUP1 REVERT JUMPDEST POP PUSH2 0x184 PUSH2 0x4AB JUMP JUMPDEST STOP JUMPDEST CALLVALUE DUP1 ISZERO PUSH2 0x191 JUMPI PUSH0 DUP1 REVERT JUMPDEST POP PUSH2 0x1AC PUSH1 0x4 DUP1 CALLDATASIZE SUB DUP2 ADD SWAP1 PUSH2 0x1A7 SWAP2 SWAP1 PUSH2 0x143C JUMP JUMPDEST PUSH2 0x5E3 JUMP JUMPDEST STOP JUMPDEST CALLVALUE DUP1 ISZERO PUSH2 0x1B9 JUMPI PUSH0 DUP1 REVERT JUMPDEST POP PUSH2 0x1C2 PUSH2 0x680 JUMP JUMPDEST PUSH1 0x40 MLOAD PUSH2 0x1CF SWAP2 SWAP1 PUSH2 0x13C2 JUMP JUMPDEST PUSH1 0x40 MLOAD DUP1 SWAP2 SUB SWAP1 RETURN JUMPDEST CALLVALUE DUP1 ISZERO PUSH2 0x1E3 JUMPI PUSH0 DUP1 REVERT JUMPDEST POP PUSH2 0x1EC PUSH2 0x686 JUMP JUMPDEST PUSH1 0x40 MLOAD PUSH2 0x1F9 SWAP2 SWAP1 PUSH2 0x13C2 JUMP JUMPDEST PUSH1 0x40 MLOAD DUP1 SWAP2 SUB SWAP1 RETURN JUMPDEST CALLVALUE DUP1 ISZERO PUSH2 0x20D JUMPI PUSH0 DUP1 REVERT JUMPDEST POP PUSH2 0x228 PUSH1 0x4 DUP1 CALLDATASIZE SUB DUP2 ADD SWAP1 PUSH2 0x223 SWAP2 SWAP1 PUSH2 0x14B1 JUMP JUMPDEST PUSH2 0x68C JUMP JUMPDEST PUSH1 0x40 MLOAD PUSH2 0x240 SWAP13 SWAP12 SWAP11 SWAP10 SWAP9 SWAP8 SWAP7 SWAP6 SWAP5 SWAP4 SWAP3 SWAP2 SWAP1 PUSH2 0x166B JUMP JUMPDEST PUSH1 0x40 MLOAD DUP1 SWAP2 SUB SWAP1 RETURN JUMPDEST CALLVALUE DUP1 ISZERO PUSH2 0x254 JUMPI PUSH0 DUP1 REVERT JUMPDEST POP PUSH2 0x26F PUSH1 0x4 DUP1 CALLDATASIZE SUB DUP2 ADD SWAP1 PUSH2 0x26A SWAP2 SWAP1 PUSH2 0x143C JUMP JUMPDEST PUSH2 0x7B3 JUMP JUMPDEST PUSH1 0x40 MLOAD PUSH2 0x27D SWAP3 SWAP2 SWAP1 PUSH2 0x1796 JUMP JUMPDEST PUSH1 0x40 MLOAD DUP1 SWAP2 SUB SWAP1 RETURN JUMPDEST CALLVALUE DUP1 ISZERO PUSH2 0x291 JUMPI PUSH0 DUP1 REVERT JUMPDEST POP PUSH2 0x2AC PUSH1 0x4 DUP1 CALLDATASIZE SUB DUP2 ADD SWAP1 PUSH2 0x2A7 SWAP2 SWAP1 PUSH2 0x12A8 JUMP JUMPDEST PUSH2 0x7E3 JUMP JUMPDEST STOP JUMPDEST CALLVALUE DUP1 ISZERO PUSH2 0x2B9 JUMPI PUSH0 DUP1 REVERT JUMPDEST POP PUSH2 0x2C2 PUSH2 0x8B3 JUMP JUMPDEST PUSH1 0x40 MLOAD PUSH2 0x2CF SWAP2 SWAP1 PUSH2 0x17D3 JUMP JUMPDEST PUSH1 0x40 MLOAD DUP1 SWAP2 SUB SWAP1 RETURN JUMPDEST PUSH2 0x2F2 PUSH1 0x4 DUP1 CALLDATASIZE SUB DUP2 ADD SWAP1 PUSH2 0x2ED SWAP2 SWAP1 PUSH2 0x1841 JUMP JUMPDEST PUSH2 0x8D8 JUMP JUMPDEST PUSH1 0x40 MLOAD PUSH2 0x2FF SWAP2 SWAP1 PUSH2 0x13C2 JUMP JUMPDEST PUSH1 0x40 MLOAD DUP1 SWAP2 SUB SWAP1 RETURN JUMPDEST CALLVALUE DUP1 ISZERO PUSH2 0x313 JUMPI PUSH0 DUP1 REVERT JUMPDEST POP PUSH2 0x32E PUSH1 0x4 DUP1 CALLDATASIZE SUB DUP2 ADD SWAP1 PUSH2 0x329 SWAP2 SWAP1 PUSH2 0x14B1 JUMP JUMPDEST PUSH2 0xB4C JUMP JUMPDEST STOP JUMPDEST CALLVALUE DUP1 ISZERO PUSH2 0x33B JUMPI PUSH0 DUP1 REVERT JUMPDEST POP PUSH2 0x344 PUSH2 0x100A JUMP JUMPDEST PUSH1 0x40 MLOAD PUSH2 0x351 SWAP2 SWAP1 PUSH2 0x17D3 JUMP JUMPDEST PUSH1 0x40 MLOAD DUP1 SWAP2 SUB SWAP1 RETURN JUMPDEST CALLVALUE DUP1 ISZERO PUSH2 0x365 JUMPI PUSH0 DUP1 REVERT JUMPDEST POP PUSH2 0x380 PUSH1 0x4 DUP1 CALLDATASIZE SUB DUP2 ADD SWAP1 PUSH2 0x37B SWAP2 SWAP1 PUSH2 0x18D5 JUMP JUMPDEST PUSH2 0x102D JUMP JUMPDEST STOP JUMPDEST CALLVALUE DUP1 ISZERO PUSH2 0x38D JUMPI PUSH0 DUP1 REVERT JUMPDEST POP PUSH2 0x3A8 PUSH1 0x4 DUP1 CALLDATASIZE SUB DUP2 ADD SWAP1 PUSH2 0x3A3 SWAP2 SWAP1 PUSH2 0x1925 JUMP JUMPDEST PUSH2 0x1210 JUMP JUMPDEST PUSH1 0x40 MLOAD PUSH2 0x3B5 SWAP2 SWAP1 PUSH2 0x13C2 JUMP JUMPDEST PUSH1 0x40 MLOAD DUP1 SWAP2 SUB SWAP1 RETURN JUMPDEST CALLVALUE DUP1 ISZERO PUSH2 0x3C9 JUMPI PUSH0 DUP1 REVERT JUMPDEST POP PUSH2 0x3D2 PUSH2 0x123B JUMP JUMPDEST PUSH1 0x40 MLOAD PUSH2 0x3DF SWAP2 SWAP1 PUSH2 0x13C2 JUMP JUMPDEST PUSH1 0x40 MLOAD DUP1 SWAP2 SUB SWAP1 RETURN JUMPDEST CALLVALUE DUP1 ISZERO PUSH2 0x3F3 JUMPI PUSH0 DUP1 REVERT JUMPDEST POP PUSH2 0x3FC PUSH2 0x1240 JUMP JUMPDEST PUSH1 0x40 MLOAD PUSH2 0x409 SWAP2 SWAP1 PUSH2 0x13C2 JUMP JUMPDEST PUSH1 0x40 MLOAD DUP1 SWAP2 SUB SWAP1 RETURN JUMPDEST PUSH1 0x60 PUSH1 0x4 PUSH0 DUP4 PUSH20 0xFFFFFFFFFFFFFFFFFFFFFFFFFFFFFFFFFFFFFFFF AND PUSH20 0xFFFFFFFFFFFFFFFFFFFFFFFFFFFFFFFFFFFFFFFF AND DUP2 MSTORE PUSH1 0x20 ADD SWAP1 DUP2 MSTORE PUSH1 0x20 ADD PUSH0 KECCAK256 DUP1 SLOAD DUP1 PUSH1 0x20 MUL PUSH1 0x20 ADD PUSH1 0x40 MLOAD SWAP1 DUP2 ADD PUSH1 0x40 MSTORE DUP1 SWAP3 SWAP2 SWAP1 DUP2 DUP2 MSTORE PUSH1 0x20 ADD DUP3 DUP1 SLOAD DUP1 ISZERO PUSH2 0x499 JUMPI PUSH1 0x20 MUL DUP3 ADD SWAP2 SWAP1 PUSH0 MSTORE PUSH1 0x20 PUSH0 KECCAK256 SWAP1 JUMPDEST DUP2 SLOAD DUP2 MSTORE PUSH1 0x20 ADD SWAP1 PUSH1 0x1 ADD SWAP1 DUP1 DUP4 GT PUSH2 0x485 JUMPI JUMPDEST POP POP POP POP POP SWAP1 POP SWAP2 SWAP1 POP JUMP JUMPDEST PUSH2 0x1770 DUP2 JUMP JUMPDEST PUSH0 DUP1 SLOAD SWAP1 PUSH2 0x100 EXP SWAP1 DIV PUSH20 0xFFFFFFFFFFFFFFFFFFFFFFFFFFFFFFFFFFFFFFFF AND PUSH20 0xFFFFFFFFFFFFFFFFFFFFFFFFFFFFFFFFFFFFFFFF AND CALLER PUSH20 0xFFFFFFFFFFFFFFFFFFFFFFFFFFFFFFFFFFFFFFFF AND EQ PUSH2 0x538 JUMPI PUSH1 0x40 MLOAD PUSH32 0x8C379A000000000000000000000000000000000000000000000000000000000 DUP2 MSTORE PUSH1 0x4 ADD PUSH2 0x52F SWAP1 PUSH2 0x19AD JUMP JUMPDEST PUSH1 0x40 MLOAD DUP1 SWAP2 SUB SWAP1 REVERT JUMPDEST PUSH0 CALLER PUSH20 0xFFFFFFFFFFFFFFFFFFFFFFFFFFFFFFFFFFFFFFFF AND SELFBALANCE PUSH1 0x40 MLOAD PUSH2 0x55D SWAP1 PUSH2 0x19F8 JUMP JUMPDEST PUSH0 PUSH1 0x40 MLOAD DUP1 DUP4 SUB DUP2 DUP6 DUP8 GAS CALL SWAP3 POP POP POP RETURNDATASIZE DUP1 PUSH0 DUP2 EQ PUSH2 0x597 JUMPI PUSH1 0x40 MLOAD SWAP2 POP PUSH1 0x1F NOT PUSH1 0x3F RETURNDATASIZE ADD AND DUP3 ADD PUSH1 0x40 MSTORE RETURNDATASIZE DUP3 MSTORE RETURNDATASIZE PUSH0 PUSH1 0x20 DUP5 ADD RETURNDATACOPY PUSH2 0x59C JUMP JUMPDEST PUSH1 0x60 SWAP2 POP JUMPDEST POP POP SWAP1 POP DUP1 PUSH2 0x5E0 JUMPI PUSH1 0x40 MLOAD PUSH32 0x8C379A000000000000000000000000000000000000000000000000000000000 DUP2 MSTORE PUSH1 0x4 ADD PUSH2 0x5D7 SWAP1 PUSH2 0x1A56 JUMP JUMPDEST PUSH1 0x40 MLOAD DUP1 SWAP2 SUB SWAP1 REVERT JUMPDEST POP JUMP JUMPDEST TIMESTAMP PUSH1 0x5 DUP2 SWAP1 SSTORE POP PUSH0 JUMPDEST PUSH1 0x2 SLOAD DUP2 LT ISZERO PUSH2 0x67B JUMPI PUSH0 PUSH1 0x3 PUSH0 DUP4 DUP2 MSTORE PUSH1 0x20 ADD SWAP1 DUP2 MSTORE PUSH1 0x20 ADD PUSH0 KECCAK256 SWAP1 POP PUSH0 PUSH1 0x2 DUP2 GT ISZERO PUSH2 0x61D JUMPI PUSH2 0x61C PUSH2 0x156C JUMP JUMPDEST JUMPDEST DUP2 PUSH1 0x9 ADD PUSH0 SWAP1 SLOAD SWAP1 PUSH2 0x100 EXP SWAP1 DIV PUSH1 0xFF AND PUSH1 0x2 DUP2 GT ISZERO PUSH2 0x640 JUMPI PUSH2 0x63F PUSH2 0x156C JUMP JUMPDEST JUMPDEST EQ DUP1 ISZERO PUSH2 0x660 JUMPI POP DUP1 PUSH1 0x6 ADD SLOAD DUP2 PUSH1 0x3 ADD SLOAD PUSH2 0x65C SWAP2 SWAP1 PUSH2 0x1AA1 JUMP JUMPDEST TIMESTAMP LT ISZERO JUMPDEST ISZERO PUSH2 0x66F JUMPI PUSH2 0x66E DUP3 PUSH2 0xB4C JUMP JUMPDEST JUMPDEST POP DUP1 PUSH1 0x1 ADD SWAP1 POP PUSH2 0x5EC JUMP JUMPDEST POP POP POP JUMP JUMPDEST PUSH2 0xE10 DUP2 JUMP JUMPDEST PUSH1 0x5 SLOAD DUP2 JUMP JUMPDEST PUSH1 0x3 PUSH1 0x20 MSTORE DUP1 PUSH0 MSTORE PUSH1 0x40 PUSH0 KECCAK256 PUSH0 SWAP2 POP SWAP1 POP DUP1 PUSH0 ADD PUSH0 SWAP1 SLOAD SWAP1 PUSH2 0x100 EXP SWAP1 DIV PUSH20 0xFFFFFFFFFFFFFFFFFFFFFFFFFFFFFFFFFFFFFFFF AND SWAP1 DUP1 PUSH1 0x1 ADD DUP1 SLOAD PUSH2 0x6D0 SWAP1 PUSH2 0x1B01 JUMP JUMPDEST DUP1 PUSH1 0x1F ADD PUSH1 0x20 DUP1 SWAP2 DIV MUL PUSH1 0x20 ADD PUSH1 0x40 MLOAD SWAP1 DUP2 ADD PUSH1 0x40 MSTORE DUP1 SWAP3 SWAP2 SWAP1 DUP2 DUP2 MSTORE PUSH1 0x20 ADD DUP3 DUP1 SLOAD PUSH2 0x6FC SWAP1 PUSH2 0x1B01 JUMP JUMPDEST DUP1 ISZERO PUSH2 0x747 JUMPI DUP1 PUSH1 0x1F LT PUSH2 0x71E JUMPI PUSH2 0x100 DUP1 DUP4 SLOAD DIV MUL DUP4 MSTORE SWAP2 PUSH1 0x20 ADD SWAP2 PUSH2 0x747 JUMP JUMPDEST DUP3 ADD SWAP2 SWAP1 PUSH0 MSTORE PUSH1 0x20 PUSH0 KECCAK256 SWAP1 JUMPDEST DUP2 SLOAD DUP2 MSTORE SWAP1 PUSH1 0x1 ADD SWAP1 PUSH1 0x20 ADD DUP1 DUP4 GT PUSH2 0x72A JUMPI DUP3 SWAP1 SUB PUSH1 0x1F AND DUP3 ADD SWAP2 JUMPDEST POP POP POP POP POP SWAP1 DUP1 PUSH1 0x2 ADD SLOAD SWAP1 DUP1 PUSH1 0x3 ADD SLOAD SWAP1 DUP1 PUSH1 0x4 ADD SLOAD SWAP1 DUP1 PUSH1 0x5 ADD SLOAD SWAP1 DUP1 PUSH1 0x6 ADD SLOAD SWAP1 DUP1 PUSH1 0x7 ADD SLOAD SWAP1 DUP1 PUSH1 0x8 ADD SLOAD SWAP1 DUP1 PUSH1 0x9 ADD PUSH0 SWAP1 SLOAD SWAP1 PUSH2 0x100 EXP SWAP1 DIV PUSH1 0xFF AND SWAP1 DUP1 PUSH1 0x9 ADD PUSH1 0x1 SWAP1 SLOAD SWAP1 PUSH2 0x100 EXP SWAP1 DIV PUSH1 0xFF AND SWAP1 DUP1 PUSH1 0x9 ADD PUSH1 0x2 SWAP1 SLOAD SWAP1 PUSH2 0x100 EXP SWAP1 DIV PUSH1 0xFF AND SWAP1 POP DUP13 JUMP JUMPDEST PUSH0 PUSH1 0x60 PUSH2 0xE10 PUSH1 0x5 SLOAD PUSH2 0x7C6 SWAP2 SWAP1 PUSH2 0x1AA1 JUMP JUMPDEST TIMESTAMP LT ISZERO SWAP2 POP PUSH1 0x40 MLOAD DUP1 PUSH1 0x20 ADD PUSH1 0x40 MSTORE DUP1 PUSH0 DUP2 MSTORE POP SWAP1 POP SWAP3 POP SWAP3 SWAP1 POP JUMP JUMPDEST PUSH0 DUP1 SLOAD SWAP1 PUSH2 0x100 EXP SWAP1 DIV PUSH20 0xFFFFFFFFFFFFFFFFFFFFFFFFFFFFFFFFFFFFFFFF AND PUSH20 0xFFFFFFFFFFFFFFFFFFFFFFFFFFFFFFFFFFFFFFFF AND CALLER PUSH20 0xFFFFFFFFFFFFFFFFFFFFFFFFFFFFFFFFFFFFFFFF AND EQ PUSH2 0x870 JUMPI PUSH1 0x40 MLOAD PUSH32 0x8C379A000000000000000000000000000000000000000000000000000000000 DUP2 MSTORE PUSH1 0x4 ADD PUSH2 0x867 SWAP1 PUSH2 0x19AD JUMP JUMPDEST PUSH1 0x40 MLOAD DUP1 SWAP2 SUB SWAP1 REVERT JUMPDEST DUP1 PUSH1 0x1 PUSH0 PUSH2 0x100 EXP DUP2 SLOAD DUP2 PUSH20 0xFFFFFFFFFFFFFFFFFFFFFFFFFFFFFFFFFFFFFFFF MUL NOT AND SWAP1 DUP4 PUSH20 0xFFFFFFFFFFFFFFFFFFFFFFFFFFFFFFFFFFFFFFFF AND MUL OR SWAP1 SSTORE POP POP JUMP JUMPDEST PUSH1 0x1 PUSH0 SWAP1 SLOAD SWAP1 PUSH2 0x100 EXP SWAP1 DIV PUSH20 0xFFFFFFFFFFFFFFFFFFFFFFFFFFFFFFFFFFFFFFFF AND DUP2 JUMP JUMPDEST PUSH0 DUP3 DUP3 GT PUSH2 0x91B JUMPI PUSH1 0x40 MLOAD PUSH32 0x8C379A000000000000000000000000000000000000000000000000000000000 DUP2 MSTORE PUSH1 0x4 ADD PUSH2 0x912 SWAP1 PUSH2 0x1B7B JUMP JUMPDEST PUSH1 0x40 MLOAD DUP1 SWAP2 SUB SWAP1 REVERT JUMPDEST PUSH2 0x12C CALLVALUE EQ PUSH2 0x95F JUMPI PUSH1 0x40 MLOAD PUSH32 0x8C379A000000000000000000000000000000000000000000000000000000000 DUP2 MSTORE PUSH1 0x4 ADD PUSH2 0x956 SWAP1 PUSH2 0x1BE3 JUMP JUMPDEST PUSH1 0x40 MLOAD DUP1 SWAP2 SUB SWAP1 REVERT JUMPDEST PUSH1 0x2 PUSH0 DUP2 SLOAD DUP1 SWAP3 SWAP2 SWAP1 PUSH2 0x971 SWAP1 PUSH2 0x1C01 JUMP JUMPDEST SWAP2 SWAP1 POP SSTORE SWAP1 POP PUSH0 PUSH1 0x3 PUSH0 DUP4 DUP2 MSTORE PUSH1 0x20 ADD SWAP1 DUP2 MSTORE PUSH1 0x20 ADD PUSH0 KECCAK256 SWAP1 POP CALLER DUP2 PUSH0 ADD PUSH0 PUSH2 0x100 EXP DUP2 SLOAD DUP2 PUSH20 0xFFFFFFFFFFFFFFFFFFFFFFFFFFFFFFFFFFFFFFFF MUL NOT AND SWAP1 DUP4 PUSH20 0xFFFFFFFFFFFFFFFFFFFFFFFFFFFFFFFFFFFFFFFF AND MUL OR SWAP1 SSTORE POP DUP6 DUP6 DUP3 PUSH1 0x1 ADD SWAP2 DUP3 PUSH2 0x9DF SWAP3 SWAP2 SWAP1 PUSH2 0x1E1C JUMP JUMPDEST POP DUP4 DUP2 PUSH1 0x2 ADD DUP2 SWAP1 SSTORE POP DUP3 DUP2 PUSH1 0x3 ADD DUP2 SWAP1 SSTORE POP PUSH1 0xF0 DUP2 PUSH1 0x6 ADD DUP2 SWAP1 SSTORE POP PUSH2 0x12C DUP2 PUSH1 0x7 ADD DUP2 SWAP1 SSTORE POP PUSH2 0x1770 DUP2 PUSH1 0x8 ADD DUP2 SWAP1 SSTORE POP PUSH0 DUP2 PUSH1 0x9 ADD PUSH0 PUSH2 0x100 EXP DUP2 SLOAD DUP2 PUSH1 0xFF MUL NOT AND SWAP1 DUP4 PUSH1 0x2 DUP2 GT ISZERO PUSH2 0xA38 JUMPI PUSH2 0xA37 PUSH2 0x156C JUMP JUMPDEST JUMPDEST MUL OR SWAP1 SSTORE POP PUSH0 DUP2 PUSH1 0x9 ADD PUSH1 0x1 PUSH2 0x100 EXP DUP2 SLOAD DUP2 PUSH1 0xFF MUL NOT AND SWAP1 DUP4 PUSH1 0x2 DUP2 GT ISZERO PUSH2 0xA64 JUMPI PUSH2 0xA63 PUSH2 0x156C JUMP JUMPDEST JUMPDEST MUL OR SWAP1 SSTORE POP PUSH0 DUP2 PUSH1 0x9 ADD PUSH1 0x2 PUSH2 0x100 EXP DUP2 SLOAD DUP2 PUSH1 0xFF MUL NOT AND SWAP1 DUP4 PUSH1 0x2 DUP2 GT ISZERO PUSH2 0xA90 JUMPI PUSH2 0xA8F PUSH2 0x156C JUMP JUMPDEST JUMPDEST MUL OR SWAP1 SSTORE POP TIMESTAMP DUP2 PUSH1 0x5 ADD DUP2 SWAP1 SSTORE POP PUSH1 0x4 PUSH0 CALLER PUSH20 0xFFFFFFFFFFFFFFFFFFFFFFFFFFFFFFFFFFFFFFFF AND PUSH20 0xFFFFFFFFFFFFFFFFFFFFFFFFFFFFFFFFFFFFFFFF AND DUP2 MSTORE PUSH1 0x20 ADD SWAP1 DUP2 MSTORE PUSH1 0x20 ADD PUSH0 KECCAK256 DUP3 SWAP1 DUP1 PUSH1 0x1 DUP2 SLOAD ADD DUP1 DUP3 SSTORE DUP1 SWAP2 POP POP PUSH1 0x1 SWAP1 SUB SWAP1 PUSH0 MSTORE PUSH1 0x20 PUSH0 KECCAK256 ADD PUSH0 SWAP1 SWAP2 SWAP1 SWAP2 SWAP1 SWAP2 POP SSTORE CALLER PUSH20 0xFFFFFFFFFFFFFFFFFFFFFFFFFFFFFFFFFFFFFFFF AND DUP3 PUSH32 0x362A18D483785C7CBD3EEDC8134897C38959F9330C5DFE708330173600280A4C PUSH1 0x40 MLOAD PUSH1 0x40 MLOAD DUP1 SWAP2 SUB SWAP1 LOG3 POP SWAP5 SWAP4 POP POP POP POP JUMP JUMPDEST PUSH0 PUSH1 0x3 PUSH0 DUP4 DUP2 MSTORE PUSH1 0x20 ADD SWAP1 DUP2 MSTORE PUSH1 0x20 ADD PUSH0 KECCAK256 SWAP1 POP PUSH0 PUSH1 0x2 DUP2 GT ISZERO PUSH2 0xB73 JUMPI PUSH2 0xB72 PUSH2 0x156C JUMP JUMPDEST JUMPDEST DUP2 PUSH1 0x9 ADD PUSH0 SWAP1 SLOAD SWAP1 PUSH2 0x100 EXP SWAP1 DIV PUSH1 0xFF AND PUSH1 0x2 DUP2 GT ISZERO PUSH2 0xB96 JUMPI PUSH2 0xB95 PUSH2 0x156C JUMP JUMPDEST JUMPDEST EQ PUSH2 0xBD6 JUMPI PUSH1 0x40 MLOAD PUSH32 0x8C379A000000000000000000000000000000000000000000000000000000000 DUP2 MSTORE PUSH1 0x4 ADD PUSH2 0xBCD SWAP1 PUSH2 0x1F33 JUMP JUMPDEST PUSH1 0x40 MLOAD DUP1 SWAP2 SUB SWAP1 REVERT JUMPDEST DUP1 PUSH1 0x6 ADD SLOAD DUP2 PUSH1 0x3 ADD SLOAD PUSH2 0xBEA SWAP2 SWAP1 PUSH2 0x1AA1 JUMP JUMPDEST TIMESTAMP LT ISZERO PUSH2 0xC2D JUMPI TIMESTAMP DUP2 PUSH1 0x5 ADD DUP2 SWAP1 SSTORE POP DUP2 PUSH32 0x44EA6CD4A30857868CA250B1D94459EC789D82611C70F26164BFFDA153F1BC0A PUSH1 0x40 MLOAD PUSH1 0x40 MLOAD DUP1 SWAP2 SUB SWAP1 LOG2 POP PUSH2 0x1007 JUMP JUMPDEST PUSH1 0x1 PUSH1 0x2 DUP2 GT ISZERO PUSH2 0xC41 JUMPI PUSH2 0xC40 PUSH2 0x156C JUMP JUMPDEST JUMPDEST DUP2 PUSH1 0x9 ADD PUSH1 0x2 SWAP1 SLOAD SWAP1 PUSH2 0x100 EXP SWAP1 DIV PUSH1 0xFF AND PUSH1 0x2 DUP2 GT ISZERO PUSH2 0xC65 JUMPI PUSH2 0xC64 PUSH2 0x156C JUMP JUMPDEST JUMPDEST SUB PUSH2 0xCF6 JUMPI PUSH1 0x1 DUP2 PUSH1 0x9 ADD PUSH0 PUSH2 0x100 EXP DUP2 SLOAD DUP2 PUSH1 0xFF MUL NOT AND SWAP1 DUP4 PUSH1 0x2 DUP2 GT ISZERO PUSH2 0xC91 JUMPI PUSH2 0xC90 PUSH2 0x156C JUMP JUMPDEST JUMPDEST MUL OR SWAP1 SSTORE POP PUSH1 0x2 DUP2 PUSH1 0x9 ADD PUSH1 0x1 PUSH2 0x100 EXP DUP2 SLOAD DUP2 PUSH1 0xFF MUL NOT AND SWAP1 DUP4 PUSH1 0x2 DUP2 GT ISZERO PUSH2 0xCBE JUMPI PUSH2 0xCBD PUSH2 0x156C JUMP JUMPDEST JUMPDEST MUL OR SWAP1 SSTORE POP DUP2 PUSH32 0xCE497F2D2D439D5AC116F719FA47580E5922B4944A0F698D2327162C6EB3B7AC PUSH1 0x40 MLOAD PUSH1 0x40 MLOAD DUP1 SWAP2 SUB SWAP1 LOG2 POP PUSH2 0x1007 JUMP JUMPDEST PUSH0 DUP2 PUSH1 0x4 ADD SLOAD EQ DUP1 ISZERO PUSH2 0xD1B JUMPI POP PUSH3 0x3F480 DUP2 PUSH1 0x3 ADD SLOAD PUSH2 0xD17 SWAP2 SWAP1 PUSH2 0x1AA1 JUMP JUMPDEST TIMESTAMP LT ISZERO JUMPDEST ISZERO PUSH2 0xDD9 JUMPI PUSH1 0x1 DUP2 PUSH1 0x9 ADD PUSH0 PUSH2 0x100 EXP DUP2 SLOAD DUP2 PUSH1 0xFF MUL NOT AND SWAP1 DUP4 PUSH1 0x2 DUP2 GT ISZERO PUSH2 0xD47 JUMPI PUSH2 0xD46 PUSH2 0x156C JUMP JUMPDEST JUMPDEST MUL OR SWAP1 SSTORE POP PUSH1 0x2 DUP2 PUSH1 0x9 ADD PUSH1 0x1 PUSH2 0x100 EXP DUP2 SLOAD DUP2 PUSH1 0xFF MUL NOT AND SWAP1 DUP4 PUSH1 0x2 DUP2 GT ISZERO PUSH2 0xD74 JUMPI PUSH2 0xD73 PUSH2 0x156C JUMP JUMPDEST JUMPDEST MUL OR SWAP1 SSTORE POP PUSH1 0x2 DUP2 PUSH1 0x9 ADD PUSH1 0x2 PUSH2 0x100 EXP DUP2 SLOAD DUP2 PUSH1 0xFF MUL NOT AND SWAP1 DUP4 PUSH1 0x2 DUP2 GT ISZERO PUSH2 0xDA1 JUMPI PUSH2 0xDA0 PUSH2 0x156C JUMP JUMPDEST JUMPDEST MUL OR SWAP1 SSTORE POP DUP2 PUSH32 0xAC9706C516A83DF0060E911FA5B8A2FD1ACEDC32C29E4A4DAD6FE2061CACEFF2 PUSH1 0x40 MLOAD PUSH1 0x40 MLOAD DUP1 SWAP2 SUB SWAP1 LOG2 POP PUSH2 0x1007 JUMP JUMPDEST PUSH0 DUP2 PUSH1 0x4 ADD SLOAD SUB PUSH2 0xE5B JUMPI TIMESTAMP DUP2 PUSH1 0x5 ADD DUP2 SWAP1 SSTORE POP DUP2 PUSH32 0xD423CF817B1E9B6729656DFFFCB8186F2DD028AC4DBD0226B332F3108F9565A5 DUP3 PUSH1 0x1 ADD PUSH1 0x40 MLOAD PUSH2 0xE20 SWAP2 SWAP1 PUSH2 0x1FD2 JUMP JUMPDEST PUSH1 0x40 MLOAD DUP1 SWAP2 SUB SWAP1 LOG2 DUP2 PUSH32 0xB69F5371EBF20CDF43BB4D5FB074D977D10508B688A49267B829ACFCD727C026 PUSH1 0x40 MLOAD PUSH1 0x40 MLOAD DUP1 SWAP2 SUB SWAP1 LOG2 POP PUSH2 0x1007 JUMP JUMPDEST DUP1 PUSH1 0x6 ADD SLOAD DUP2 PUSH1 0x3 ADD SLOAD PUSH2 0xE6F SWAP2 SWAP1 PUSH2 0x1AA1 JUMP JUMPDEST DUP2 PUSH1 0x4 ADD SLOAD GT PUSH2 0xF04 JUMPI PUSH1 0x1 DUP2 PUSH1 0x9 ADD PUSH0 PUSH2 0x100 EXP DUP2 SLOAD DUP2 PUSH1 0xFF MUL NOT AND SWAP1 DUP4 PUSH1 0x2 DUP2 GT ISZERO PUSH2 0xEA0 JUMPI PUSH2 0xE9F PUSH2 0x156C JUMP JUMPDEST JUMPDEST MUL OR SWAP1 SSTORE POP PUSH1 0x2 DUP2 PUSH1 0x9 ADD PUSH1 0x1 PUSH2 0x100 EXP DUP2 SLOAD DUP2 PUSH1 0xFF MUL NOT AND SWAP1 DUP4 PUSH1 0x2 DUP2 GT ISZERO PUSH2 0xECD JUMPI PUSH2 0xECC PUSH2 0x156C JUMP JUMPDEST JUMPDEST MUL OR SWAP1 SSTORE POP DUP2 PUSH32 0xA0A8CD3C30C1F1EEE66987B51C20E8F2ADF28114A41E24DDDB595EAA93F36131 PUSH1 0x40 MLOAD PUSH1 0x40 MLOAD DUP1 SWAP2 SUB SWAP1 LOG2 PUSH2 0x1005 JUMP JUMPDEST PUSH0 DUP2 PUSH1 0x8 ADD SLOAD SWAP1 POP PUSH1 0x2 DUP3 PUSH1 0x9 ADD PUSH0 PUSH2 0x100 EXP DUP2 SLOAD DUP2 PUSH1 0xFF MUL NOT AND SWAP1 DUP4 PUSH1 0x2 DUP2 GT ISZERO PUSH2 0xF33 JUMPI PUSH2 0xF32 PUSH2 0x156C JUMP JUMPDEST JUMPDEST MUL OR SWAP1 SSTORE POP PUSH1 0x1 DUP3 PUSH1 0x9 ADD PUSH1 0x1 PUSH2 0x100 EXP DUP2 SLOAD DUP2 PUSH1 0xFF MUL NOT AND SWAP1 DUP4 PUSH1 0x2 DUP2 GT ISZERO PUSH2 0xF60 JUMPI PUSH2 0xF5F PUSH2 0x156C JUMP JUMPDEST JUMPDEST MUL OR SWAP1 SSTORE POP DUP2 PUSH0 ADD PUSH0 SWAP1 SLOAD SWAP1 PUSH2 0x100 EXP SWAP1 DIV PUSH20 0xFFFFFFFFFFFFFFFFFFFFFFFFFFFFFFFFFFFFFFFF AND PUSH20 0xFFFFFFFFFFFFFFFFFFFFFFFFFFFFFFFFFFFFFFFF AND PUSH2 0x8FC DUP3 SWAP1 DUP2 ISZERO MUL SWAP1 PUSH1 0x40 MLOAD PUSH0 PUSH1 0x40 MLOAD DUP1 DUP4 SUB DUP2 DUP6 DUP9 DUP9 CALL SWAP4 POP POP POP POP ISZERO DUP1 ISZERO PUSH2 0xFCA JUMPI RETURNDATASIZE PUSH0 DUP1 RETURNDATACOPY RETURNDATASIZE PUSH0 REVERT JUMPDEST POP DUP3 PUSH32 0xB0727183796E52C5BB00A257C1EB36D8E94DBEE5D6D87E259287E3372AE39ACE DUP3 PUSH1 0x40 MLOAD PUSH2 0xFFB SWAP2 SWAP1 PUSH2 0x13C2 JUMP JUMPDEST PUSH1 0x40 MLOAD DUP1 SWAP2 SUB SWAP1 LOG2 POP JUMPDEST POP JUMPDEST POP JUMP JUMPDEST PUSH0 DUP1 SLOAD SWAP1 PUSH2 0x100 EXP SWAP1 DIV PUSH20 0xFFFFFFFFFFFFFFFFFFFFFFFFFFFFFFFFFFFFFFFF AND DUP2 JUMP JUMPDEST PUSH1 0x1 PUSH0 SWAP1 SLOAD SWAP1 PUSH2 0x100 EXP SWAP1 DIV PUSH20 0xFFFFFFFFFFFFFFFFFFFFFFFFFFFFFFFFFFFFFFFF AND PUSH20 0xFFFFFFFFFFFFFFFFFFFFFFFFFFFFFFFFFFFFFFFF AND CALLER PUSH20 0xFFFFFFFFFFFFFFFFFFFFFFFFFFFFFFFFFFFFFFFF AND EQ DUP1 PUSH2 0x10D2 JUMPI POP PUSH0 DUP1 SLOAD SWAP1 PUSH2 0x100 EXP SWAP1 DIV PUSH20 0xFFFFFFFFFFFFFFFFFFFFFFFFFFFFFFFFFFFFFFFF AND PUSH20 0xFFFFFFFFFFFFFFFFFFFFFFFFFFFFFFFFFFFFFFFF AND CALLER PUSH20 0xFFFFFFFFFFFFFFFFFFFFFFFFFFFFFFFFFFFFFFFF AND EQ JUMPDEST PUSH2 0x1111 JUMPI PUSH1 0x40 MLOAD PUSH32 0x8C379A000000000000000000000000000000000000000000000000000000000 DUP2 MSTORE PUSH1 0x4 ADD PUSH2 0x1108 SWAP1 PUSH2 0x203C JUMP JUMPDEST PUSH1 0x40 MLOAD DUP1 SWAP2 SUB SWAP1 REVERT JUMPDEST PUSH0 PUSH1 0x3 PUSH0 DUP6 DUP2 MSTORE PUSH1 0x20 ADD SWAP1 DUP2 MSTORE PUSH1 0x20 ADD PUSH0 KECCAK256 SWAP1 POP PUSH0 PUSH1 0x2 DUP2 GT ISZERO PUSH2 0x1138 JUMPI PUSH2 0x1137 PUSH2 0x156C JUMP JUMPDEST JUMPDEST DUP2 PUSH1 0x9 ADD PUSH0 SWAP1 SLOAD SWAP1 PUSH2 0x100 EXP SWAP1 DIV PUSH1 0xFF AND PUSH1 0x2 DUP2 GT ISZERO PUSH2 0x115B JUMPI PUSH2 0x115A PUSH2 0x156C JUMP JUMPDEST JUMPDEST EQ PUSH2 0x119B JUMPI PUSH1 0x40 MLOAD PUSH32 0x8C379A000000000000000000000000000000000000000000000000000000000 DUP2 MSTORE PUSH1 0x4 ADD PUSH2 0x1192 SWAP1 PUSH2 0x1F33 JUMP JUMPDEST PUSH1 0x40 MLOAD DUP1 SWAP2 SUB SWAP1 REVERT JUMPDEST DUP3 DUP2 PUSH1 0x4 ADD DUP2 SWAP1 SSTORE POP DUP2 DUP2 PUSH1 0x9 ADD PUSH1 0x2 PUSH2 0x100 EXP DUP2 SLOAD DUP2 PUSH1 0xFF MUL NOT AND SWAP1 DUP4 PUSH1 0x2 DUP2 GT ISZERO PUSH2 0x11CB JUMPI PUSH2 0x11CA PUSH2 0x156C JUMP JUMPDEST JUMPDEST MUL OR SWAP1 SSTORE POP DUP4 PUSH32 0xEFBE4568C3E8B3451436AE01DF5E7365A5206DCE94E54F32D21EB8B0A85E7F9E DUP5 DUP5 PUSH1 0x40 MLOAD PUSH2 0x1202 SWAP3 SWAP2 SWAP1 PUSH2 0x205A JUMP JUMPDEST PUSH1 0x40 MLOAD DUP1 SWAP2 SUB SWAP1 LOG2 POP POP POP POP JUMP JUMPDEST PUSH1 0x4 PUSH1 0x20 MSTORE DUP2 PUSH0 MSTORE PUSH1 0x40 PUSH0 KECCAK256 DUP2 DUP2 SLOAD DUP2 LT PUSH2 0x1229 JUMPI PUSH0 DUP1 REVERT JUMPDEST SWAP1 PUSH0 MSTORE PUSH1 0x20 PUSH0 KECCAK256 ADD PUSH0 SWAP2 POP SWAP2 POP POP SLOAD DUP2 JUMP JUMPDEST PUSH1 0xF0 DUP2 JUMP JUMPDEST PUSH2 0x12C DUP2 JUMP JUMPDEST PUSH0 DUP1 REVERT JUMPDEST PUSH0 DUP1 REVERT JUMPDEST PUSH0 PUSH20 0xFFFFFFFFFFFFFFFFFFFFFFFFFFFFFFFFFFFFFFFF DUP3 AND SWAP1 POP SWAP2 SWAP1 POP JUMP JUMPDEST PUSH0 PUSH2 0x1277 DUP3 PUSH2 0x124E JUMP JUMPDEST SWAP1 POP SWAP2 SWAP1 POP JUMP JUMPDEST PUSH2 0x1287 DUP2 PUSH2 0x126D JUMP JUMPDEST DUP2 EQ PUSH2 0x1291 JUMPI PUSH0 DUP1 REVERT JUMPDEST POP JUMP JUMPDEST PUSH0 DUP2 CALLDATALOAD SWAP1 POP PUSH2 0x12A2 DUP2 PUSH2 0x127E JUMP JUMPDEST SWAP3 SWAP2 POP POP JUMP JUMPDEST PUSH0 PUSH1 0x20 DUP3 DUP5 SUB SLT ISZERO PUSH2 0x12BD JUMPI PUSH2 0x12BC PUSH2 0x1246 JUMP JUMPDEST JUMPDEST PUSH0 PUSH2 0x12CA DUP5 DUP3 DUP6 ADD PUSH2 0x1294 JUMP JUMPDEST SWAP2 POP POP SWAP3 SWAP2 POP POP JUMP JUMPDEST PUSH0 DUP2 MLOAD SWAP1 POP SWAP2 SWAP1 POP JUMP JUMPDEST PUSH0 DUP3 DUP3 MSTORE PUSH1 0x20 DUP3 ADD SWAP1 POP SWAP3 SWAP2 POP POP JUMP JUMPDEST PUSH0 DUP2 SWAP1 POP PUSH1 0x20 DUP3 ADD SWAP1 POP SWAP2 SWAP1 POP JUMP JUMPDEST PUSH0 DUP2 SWAP1 POP SWAP2 SWAP1 POP JUMP JUMPDEST PUSH2 0x130E DUP2 PUSH2 0x12FC JUMP JUMPDEST DUP3 MSTORE POP POP JUMP JUMPDEST PUSH0 PUSH2 0x131F DUP4 DUP4 PUSH2 0x1305 JUMP JUMPDEST PUSH1 0x20 DUP4 ADD SWAP1 POP SWAP3 SWAP2 POP POP JUMP JUMPDEST PUSH0 PUSH1 0x20 DUP3 ADD SWAP1 POP SWAP2 SWAP1 POP JUMP JUMPDEST PUSH0 PUSH2 0x1341 DUP3 PUSH2 0x12D3 JUMP JUMPDEST PUSH2 0x134B DUP2 DUP6 PUSH2 0x12DD JUMP JUMPDEST SWAP4 POP PUSH2 0x1356 DUP4 PUSH2 0x12ED JUMP JUMPDEST DUP1 PUSH0 JUMPDEST DUP4 DUP2 LT ISZERO PUSH2 0x1386 JUMPI DUP2 MLOAD PUSH2 0x136D DUP9 DUP3 PUSH2 0x1314 JUMP JUMPDEST SWAP8 POP PUSH2 0x1378 DUP4 PUSH2 0x132B JUMP JUMPDEST SWAP3 POP POP PUSH1 0x1 DUP2 ADD SWAP1 POP PUSH2 0x1359 JUMP JUMPDEST POP DUP6 SWAP4 POP POP POP POP SWAP3 SWAP2 POP POP JUMP JUMPDEST PUSH0 PUSH1 0x20 DUP3 ADD SWAP1 POP DUP2 DUP2 SUB PUSH0 DUP4 ADD MSTORE PUSH2 0x13AB DUP2 DUP5 PUSH2 0x1337 JUMP JUMPDEST SWAP1 POP SWAP3 SWAP2 POP POP JUMP JUMPDEST PUSH2 0x13BC DUP2 PUSH2 0x12FC JUMP JUMPDEST DUP3 MSTORE POP POP JUMP JUMPDEST PUSH0 PUSH1 0x20 DUP3 ADD SWAP1 POP PUSH2 0x13D5 PUSH0 DUP4 ADD DUP5 PUSH2 0x13B3 JUMP JUMPDEST SWAP3 SWAP2 POP POP JUMP JUMPDEST PUSH0 DUP1 REVERT JUMPDEST PUSH0 DUP1 REVERT JUMPDEST PUSH0 DUP1 REVERT JUMPDEST PUSH0 DUP1 DUP4 PUSH1 0x1F DUP5 ADD SLT PUSH2 0x13FC JUMPI PUSH2 0x13FB PUSH2 0x13DB JUMP JUMPDEST JUMPDEST DUP3 CALLDATALOAD SWAP1 POP PUSH8 0xFFFFFFFFFFFFFFFF DUP2 GT ISZERO PUSH2 0x1419 JUMPI PUSH2 0x1418 PUSH2 0x13DF JUMP JUMPDEST JUMPDEST PUSH1 0x20 DUP4 ADD SWAP2 POP DUP4 PUSH1 0x1 DUP3 MUL DUP4 ADD GT ISZERO PUSH2 0x1435 JUMPI PUSH2 0x1434 PUSH2 0x13E3 JUMP JUMPDEST JUMPDEST SWAP3 POP SWAP3 SWAP1 POP JUMP JUMPDEST PUSH0 DUP1 PUSH1 0x20 DUP4 DUP6 SUB SLT ISZERO PUSH2 0x1452 JUMPI PUSH2 0x1451 PUSH2 0x1246 JUMP JUMPDEST JUMPDEST PUSH0 DUP4 ADD CALLDATALOAD PUSH8 0xFFFFFFFFFFFFFFFF DUP2 GT ISZERO PUSH2 0x146F JUMPI PUSH2 0x146E PUSH2 0x124A JUMP JUMPDEST JUMPDEST PUSH2 0x147B DUP6 DUP3 DUP7 ADD PUSH2 0x13E7 JUMP JUMPDEST SWAP3 POP SWAP3 POP POP SWAP3 POP SWAP3 SWAP1 POP JUMP JUMPDEST PUSH2 0x1490 DUP2 PUSH2 0x12FC JUMP JUMPDEST DUP2 EQ PUSH2 0x149A JUMPI PUSH0 DUP1 REVERT JUMPDEST POP JUMP JUMPDEST PUSH0 DUP2 CALLDATALOAD SWAP1 POP PUSH2 0x14AB DUP2 PUSH2 0x1487 JUMP JUMPDEST SWAP3 SWAP2 POP POP JUMP JUMPDEST PUSH0 PUSH1 0x20 DUP3 DUP5 SUB SLT ISZERO PUSH2 0x14C6 JUMPI PUSH2 0x14C5 PUSH2 0x1246 JUMP JUMPDEST JUMPDEST PUSH0 PUSH2 0x14D3 DUP5 DUP3 DUP6 ADD PUSH2 0x149D JUMP JUMPDEST SWAP2 POP POP SWAP3 SWAP2 POP POP JUMP JUMPDEST PUSH0 PUSH2 0x14E6 DUP3 PUSH2 0x124E JUMP JUMPDEST SWAP1 POP SWAP2 SWAP1 POP JUMP JUMPDEST PUSH2 0x14F6 DUP2 PUSH2 0x14DC JUMP JUMPDEST DUP3 MSTORE POP POP JUMP JUMPDEST PUSH0 DUP2 MLOAD SWAP1 POP SWAP2 SWAP1 POP JUMP JUMPDEST PUSH0 DUP3 DUP3 MSTORE PUSH1 0x20 DUP3 ADD SWAP1 POP SWAP3 SWAP2 POP POP JUMP JUMPDEST DUP3 DUP2 DUP4 MCOPY PUSH0 DUP4 DUP4 ADD MSTORE POP POP POP JUMP JUMPDEST PUSH0 PUSH1 0x1F NOT PUSH1 0x1F DUP4 ADD AND SWAP1 POP SWAP2 SWAP1 POP JUMP JUMPDEST PUSH0 PUSH2 0x153E DUP3 PUSH2 0x14FC JUMP JUMPDEST PUSH2 0x1548 DUP2 DUP6 PUSH2 0x1506 JUMP JUMPDEST SWAP4 POP PUSH2 0x1558 DUP2 DUP6 PUSH1 0x20 DUP7 ADD PUSH2 0x1516 JUMP JUMPDEST PUSH2 0x1561 DUP2 PUSH2 0x1524 JUMP JUMPDEST DUP5 ADD SWAP2 POP POP SWAP3 SWAP2 POP POP JUMP JUMPDEST PUSH32 0x4E487B7100000000000000000000000000000000000000000000000000000000 PUSH0 MSTORE PUSH1 0x21 PUSH1 0x4 MSTORE PUSH1 0x24 PUSH0 REVERT JUMPDEST PUSH1 0x3 DUP2 LT PUSH2 0x15AA JUMPI PUSH2 0x15A9 PUSH2 0x156C JUMP JUMPDEST JUMPDEST POP JUMP JUMPDEST PUSH0 DUP2 SWAP1 POP PUSH2 0x15BA DUP3 PUSH2 0x1599 JUMP JUMPDEST SWAP2 SWAP1 POP JUMP JUMPDEST PUSH0 PUSH2 0x15C9 DUP3 PUSH2 0x15AD JUMP JUMPDEST SWAP1 POP SWAP2 SWAP1 POP JUMP JUMPDEST PUSH2 0x15D9 DUP2 PUSH2 0x15BF JUMP JUMPDEST DUP3 MSTORE POP POP JUMP JUMPDEST PUSH1 0x3 DUP2 LT PUSH2 0x15F0 JUMPI PUSH2 0x15EF PUSH2 0x156C JUMP JUMPDEST JUMPDEST POP JUMP JUMPDEST PUSH0 DUP2 SWAP1 POP PUSH2 0x1600 DUP3 PUSH2 0x15DF JUMP JUMPDEST SWAP2 SWAP1 POP JUMP JUMPDEST PUSH0 PUSH2 0x160F DUP3 PUSH2 0x15F3 JUMP JUMPDEST SWAP1 POP SWAP2 SWAP1 POP JUMP JUMPDEST PUSH2 0x161F DUP2 PUSH2 0x1605 JUMP JUMPDEST DUP3 MSTORE POP POP JUMP JUMPDEST PUSH1 0x3 DUP2 LT PUSH2 0x1636 JUMPI PUSH2 0x1635 PUSH2 0x156C JUMP JUMPDEST JUMPDEST POP JUMP JUMPDEST PUSH0 DUP2 SWAP1 POP PUSH2 0x1646 DUP3 PUSH2 0x1625 JUMP JUMPDEST SWAP2 SWAP1 POP JUMP JUMPDEST PUSH0 PUSH2 0x1655 DUP3 PUSH2 0x1639 JUMP JUMPDEST SWAP1 POP SWAP2 SWAP1 POP JUMP JUMPDEST PUSH2 0x1665 DUP2 PUSH2 0x164B JUMP JUMPDEST DUP3 MSTORE POP POP JUMP JUMPDEST PUSH0 PUSH2 0x180 DUP3 ADD SWAP1 POP PUSH2 0x167F PUSH0 DUP4 ADD DUP16 PUSH2 0x14ED JUMP JUMPDEST DUP2 DUP2 SUB PUSH1 0x20 DUP4 ADD MSTORE PUSH2 0x1691 DUP2 DUP15 PUSH2 0x1534 JUMP JUMPDEST SWAP1 POP PUSH2 0x16A0 PUSH1 0x40 DUP4 ADD DUP14 PUSH2 0x13B3 JUMP JUMPDEST PUSH2 0x16AD PUSH1 0x60 DUP4 ADD DUP13 PUSH2 0x13B3 JUMP JUMPDEST PUSH2 0x16BA PUSH1 0x80 DUP4 ADD DUP12 PUSH2 0x13B3 JUMP JUMPDEST PUSH2 0x16C7 PUSH1 0xA0 DUP4 ADD DUP11 PUSH2 0x13B3 JUMP JUMPDEST PUSH2 0x16D4 PUSH1 0xC0 DUP4 ADD DUP10 PUSH2 0x13B3 JUMP JUMPDEST PUSH2 0x16E1 PUSH1 0xE0 DUP4 ADD DUP9 PUSH2 0x13B3 JUMP JUMPDEST PUSH2 0x16EF PUSH2 0x100 DUP4 ADD DUP8 PUSH2 0x13B3 JUMP JUMPDEST PUSH2 0x16FD PUSH2 0x120 DUP4 ADD DUP7 PUSH2 0x15D0 JUMP JUMPDEST PUSH2 0x170B PUSH2 0x140 DUP4 ADD DUP6 PUSH2 0x1616 JUMP JUMPDEST PUSH2 0x1719 PUSH2 0x160 DUP4 ADD DUP5 PUSH2 0x165C JUMP JUMPDEST SWAP14 SWAP13 POP POP POP POP POP POP POP POP POP POP POP POP POP JUMP JUMPDEST PUSH0 DUP2 ISZERO ISZERO SWAP1 POP SWAP2 SWAP1 POP JUMP JUMPDEST PUSH2 0x173E DUP2 PUSH2 0x172A JUMP JUMPDEST DUP3 MSTORE POP POP JUMP JUMPDEST PUSH0 DUP2 MLOAD SWAP1 POP SWAP2 SWAP1 POP JUMP JUMPDEST PUSH0 DUP3 DUP3 MSTORE PUSH1 0x20 DUP3 ADD SWAP1 POP SWAP3 SWAP2 POP POP JUMP JUMPDEST PUSH0 PUSH2 0x1768 DUP3 PUSH2 0x1744 JUMP JUMPDEST PUSH2 0x1772 DUP2 DUP6 PUSH2 0x174E JUMP JUMPDEST SWAP4 POP PUSH2 0x1782 DUP2 DUP6 PUSH1 0x20 DUP7 ADD PUSH2 0x1516 JUMP JUMPDEST PUSH2 0x178B DUP2 PUSH2 0x1524 JUMP JUMPDEST DUP5 ADD SWAP2 POP POP SWAP3 SWAP2 POP POP JUMP JUMPDEST PUSH0 PUSH1 0x40 DUP3 ADD SWAP1 POP PUSH2 0x17A9 PUSH0 DUP4 ADD DUP6 PUSH2 0x1735 JUMP JUMPDEST DUP2 DUP2 SUB PUSH1 0x20 DUP4 ADD MSTORE PUSH2 0x17BB DUP2 DUP5 PUSH2 0x175E JUMP JUMPDEST SWAP1 POP SWAP4 SWAP3 POP POP POP JUMP JUMPDEST PUSH2 0x17CD DUP2 PUSH2 0x126D JUMP JUMPDEST DUP3 MSTORE POP POP JUMP JUMPDEST PUSH0 PUSH1 0x20 DUP3 ADD SWAP1 POP PUSH2 0x17E6 PUSH0 DUP4 ADD DUP5 PUSH2 0x17C4 JUMP JUMPDEST SWAP3 SWAP2 POP POP JUMP JUMPDEST PUSH0 DUP1 DUP4 PUSH1 0x1F DUP5 ADD SLT PUSH2 0x1801 JUMPI PUSH2 0x1800 PUSH2 0x13DB JUMP JUMPDEST JUMPDEST DUP3 CALLDATALOAD SWAP1 POP PUSH8 0xFFFFFFFFFFFFFFFF DUP2 GT ISZERO PUSH2 0x181E JUMPI PUSH2 0x181D PUSH2 0x13DF JUMP JUMPDEST JUMPDEST PUSH1 0x20 DUP4 ADD SWAP2 POP DUP4 PUSH1 0x1 DUP3 MUL DUP4 ADD GT ISZERO PUSH2 0x183A JUMPI PUSH2 0x1839 PUSH2 0x13E3 JUMP JUMPDEST JUMPDEST SWAP3 POP SWAP3 SWAP1 POP JUMP JUMPDEST PUSH0 DUP1 PUSH0 DUP1 PUSH1 0x60 DUP6 DUP8 SUB SLT ISZERO PUSH2 0x1859 JUMPI PUSH2 0x1858 PUSH2 0x1246 JUMP JUMPDEST JUMPDEST PUSH0 DUP6 ADD CALLDATALOAD PUSH8 0xFFFFFFFFFFFFFFFF DUP2 GT ISZERO PUSH2 0x1876 JUMPI PUSH2 0x1875 PUSH2 0x124A JUMP JUMPDEST JUMPDEST PUSH2 0x1882 DUP8 DUP3 DUP9 ADD PUSH2 0x17EC JUMP JUMPDEST SWAP5 POP SWAP5 POP POP PUSH1 0x20 PUSH2 0x1895 DUP8 DUP3 DUP9 ADD PUSH2 0x149D JUMP JUMPDEST SWAP3 POP POP PUSH1 0x40 PUSH2 0x18A6 DUP8 DUP3 DUP9 ADD PUSH2 0x149D JUMP JUMPDEST SWAP2 POP POP SWAP3 SWAP6 SWAP2 SWAP5 POP SWAP3 POP JUMP JUMPDEST PUSH1 0x3 DUP2 LT PUSH2 0x18BE JUMPI PUSH0 DUP1 REVERT JUMPDEST POP JUMP JUMPDEST PUSH0 DUP2 CALLDATALOAD SWAP1 POP PUSH2 0x18CF DUP2 PUSH2 0x18B2 JUMP JUMPDEST SWAP3 SWAP2 POP POP JUMP JUMPDEST PUSH0 DUP1 PUSH0 PUSH1 0x60 DUP5 DUP7 SUB SLT ISZERO PUSH2 0x18EC JUMPI PUSH2 0x18EB PUSH2 0x1246 JUMP JUMPDEST JUMPDEST PUSH0 PUSH2 0x18F9 DUP7 DUP3 DUP8 ADD PUSH2 0x149D JUMP JUMPDEST SWAP4 POP POP PUSH1 0x20 PUSH2 0x190A DUP7 DUP3 DUP8 ADD PUSH2 0x149D JUMP JUMPDEST SWAP3 POP POP PUSH1 0x40 PUSH2 0x191B DUP7 DUP3 DUP8 ADD PUSH2 0x18C1 JUMP JUMPDEST SWAP2 POP POP SWAP3 POP SWAP3 POP SWAP3 JUMP JUMPDEST PUSH0 DUP1 PUSH1 0x40 DUP4 DUP6 SUB SLT ISZERO PUSH2 0x193B JUMPI PUSH2 0x193A PUSH2 0x1246 JUMP JUMPDEST JUMPDEST PUSH0 PUSH2 0x1948 DUP6 DUP3 DUP7 ADD PUSH2 0x1294 JUMP JUMPDEST SWAP3 POP POP PUSH1 0x20 PUSH2 0x1959 DUP6 DUP3 DUP7 ADD PUSH2 0x149D JUMP JUMPDEST SWAP2 POP POP SWAP3 POP SWAP3 SWAP1 POP JUMP JUMPDEST PUSH32 0x4F776E6572206F6E6C7900000000000000000000000000000000000000000000 PUSH0 DUP3 ADD MSTORE POP JUMP JUMPDEST PUSH0 PUSH2 0x1997 PUSH1 0xA DUP4 PUSH2 0x1506 JUMP JUMPDEST SWAP2 POP PUSH2 0x19A2 DUP3 PUSH2 0x1963 JUMP JUMPDEST PUSH1 0x20 DUP3 ADD SWAP1 POP SWAP2 SWAP1 POP JUMP JUMPDEST PUSH0 PUSH1 0x20 DUP3 ADD SWAP1 POP DUP2 DUP2 SUB PUSH0 DUP4 ADD MSTORE PUSH2 0x19C4 DUP2 PUSH2 0x198B JUMP JUMPDEST SWAP1 POP SWAP2 SWAP1 POP JUMP JUMPDEST PUSH0 DUP2 SWAP1 POP SWAP3 SWAP2 POP POP JUMP JUMPDEST POP JUMP JUMPDEST PUSH0 PUSH2 0x19E3 PUSH0 DUP4 PUSH2 0x19CB JUMP JUMPDEST SWAP2 POP PUSH2 0x19EE DUP3 PUSH2 0x19D5 JUMP JUMPDEST PUSH0 DUP3 ADD SWAP1 POP SWAP2 SWAP1 POP JUMP JUMPDEST PUSH0 PUSH2 0x1A02 DUP3 PUSH2 0x19D8 JUMP JUMPDEST SWAP2 POP DUP2 SWAP1 POP SWAP2 SWAP1 POP JUMP JUMPDEST PUSH32 0x5769746864726177206661696C65640000000000000000000000000000000000 PUSH0 DUP3 ADD MSTORE POP JUMP JUMPDEST PUSH0 PUSH2 0x1A40 PUSH1 0xF DUP4 PUSH2 0x1506 JUMP JUMPDEST SWAP2 POP PUSH2 0x1A4B DUP3 PUSH2 0x1A0C JUMP JUMPDEST PUSH1 0x20 DUP3 ADD SWAP1 POP SWAP2 SWAP1 POP JUMP JUMPDEST PUSH0 PUSH1 0x20 DUP3 ADD SWAP1 POP DUP2 DUP2 SUB PUSH0 DUP4 ADD MSTORE PUSH2 0x1A6D DUP2 PUSH2 0x1A34 JUMP JUMPDEST SWAP1 POP SWAP2 SWAP1 POP JUMP JUMPDEST PUSH32 0x4E487B7100000000000000000000000000000000000000000000000000000000 PUSH0 MSTORE PUSH1 0x11 PUSH1 0x4 MSTORE PUSH1 0x24 PUSH0 REVERT JUMPDEST PUSH0 PUSH2 0x1AAB DUP3 PUSH2 0x12FC JUMP JUMPDEST SWAP2 POP PUSH2 0x1AB6 DUP4 PUSH2 0x12FC JUMP JUMPDEST SWAP3 POP DUP3 DUP3 ADD SWAP1 POP DUP1 DUP3 GT ISZERO PUSH2 0x1ACE JUMPI PUSH2 0x1ACD PUSH2 0x1A74 JUMP JUMPDEST JUMPDEST SWAP3 SWAP2 POP POP JUMP JUMPDEST PUSH32 0x4E487B7100000000000000000000000000000000000000000000000000000000 PUSH0 MSTORE PUSH1 0x22 PUSH1 0x4 MSTORE PUSH1 0x24 PUSH0 REVERT JUMPDEST PUSH0 PUSH1 0x2 DUP3 DIV SWAP1 POP PUSH1 0x1 DUP3 AND DUP1 PUSH2 0x1B18 JUMPI PUSH1 0x7F DUP3 AND SWAP2 POP JUMPDEST PUSH1 0x20 DUP3 LT DUP2 SUB PUSH2 0x1B2B JUMPI PUSH2 0x1B2A PUSH2 0x1AD4 JUMP JUMPDEST JUMPDEST POP SWAP2 SWAP1 POP JUMP JUMPDEST PUSH32 0x5450206D75737420626520616674657220543100000000000000000000000000 PUSH0 DUP3 ADD MSTORE POP JUMP JUMPDEST PUSH0 PUSH2 0x1B65 PUSH1 0x13 DUP4 PUSH2 0x1506 JUMP JUMPDEST SWAP2 POP PUSH2 0x1B70 DUP3 PUSH2 0x1B31 JUMP JUMPDEST PUSH1 0x20 DUP3 ADD SWAP1 POP SWAP2 SWAP1 POP JUMP JUMPDEST PUSH0 PUSH1 0x20 DUP3 ADD SWAP1 POP DUP2 DUP2 SUB PUSH0 DUP4 ADD MSTORE PUSH2 0x1B92 DUP2 PUSH2 0x1B59 JUMP JUMPDEST SWAP1 POP SWAP2 SWAP1 POP JUMP JUMPDEST PUSH32 0x496E636F7272656374207072656D69756D000000000000000000000000000000 PUSH0 DUP3 ADD MSTORE POP JUMP JUMPDEST PUSH0 PUSH2 0x1BCD PUSH1 0x11 DUP4 PUSH2 0x1506 JUMP JUMPDEST SWAP2 POP PUSH2 0x1BD8 DUP3 PUSH2 0x1B99 JUMP JUMPDEST PUSH1 0x20 DUP3 ADD SWAP1 POP SWAP2 SWAP1 POP JUMP JUMPDEST PUSH0 PUSH1 0x20 DUP3 ADD SWAP1 POP DUP2 DUP2 SUB PUSH0 DUP4 ADD MSTORE PUSH2 0x1BFA DUP2 PUSH2 0x1BC1 JUMP JUMPDEST SWAP1 POP SWAP2 SWAP1 POP JUMP JUMPDEST PUSH0 PUSH2 0x1C0B DUP3 PUSH2 0x12FC JUMP JUMPDEST SWAP2 POP PUSH32 0xFFFFFFFFFFFFFFFFFFFFFFFFFFFFFFFFFFFFFFFFFFFFFFFFFFFFFFFFFFFFFFFF DUP3 SUB PUSH2 0x1C3D JUMPI PUSH2 0x1C3C PUSH2 0x1A74 JUMP JUMPDEST JUMPDEST PUSH1 0x1 DUP3 ADD SWAP1 POP SWAP2 SWAP1 POP JUMP JUMPDEST PUSH0 DUP3 SWAP1 POP SWAP3 SWAP2 POP POP JUMP JUMPDEST PUSH32 0x4E487B7100000000000000000000000000000000000000000000000000000000 PUSH0 MSTORE PUSH1 0x41 PUSH1 0x4 MSTORE PUSH1 0x24 PUSH0 REVERT JUMPDEST PUSH0 DUP2 SWAP1 POP DUP2 PUSH0 MSTORE PUSH1 0x20 PUSH0 KECCAK256 SWAP1 POP SWAP2 SWAP1 POP JUMP JUMPDEST PUSH0 PUSH1 0x20 PUSH1 0x1F DUP4 ADD DIV SWAP1 POP SWAP2 SWAP1 POP JUMP JUMPDEST PUSH0 DUP3 DUP3 SHL SWAP1 POP SWAP3 SWAP2 POP POP JUMP JUMPDEST PUSH0 PUSH1 0x8 DUP4 MUL PUSH2 0x1CDB PUSH32 0xFFFFFFFFFFFFFFFFFFFFFFFFFFFFFFFFFFFFFFFFFFFFFFFFFFFFFFFFFFFFFFFF DUP3 PUSH2 0x1CA0 JUMP JUMPDEST PUSH2 0x1CE5 DUP7 DUP4 PUSH2 0x1CA0 JUMP JUMPDEST SWAP6 POP DUP1 NOT DUP5 AND SWAP4 POP DUP1 DUP7 AND DUP5 OR SWAP3 POP POP POP SWAP4 SWAP3 POP POP POP JUMP JUMPDEST PUSH0 DUP2 SWAP1 POP SWAP2 SWAP1 POP JUMP JUMPDEST PUSH0 PUSH2 0x1D20 PUSH2 0x1D1B PUSH2 0x1D16 DUP5 PUSH2 0x12FC JUMP JUMPDEST PUSH2 0x1CFD JUMP JUMPDEST PUSH2 0x12FC JUMP JUMPDEST SWAP1 POP SWAP2 SWAP1 POP JUMP JUMPDEST PUSH0 DUP2 SWAP1 POP SWAP2 SWAP1 POP JUMP JUMPDEST PUSH2 0x1D39 DUP4 PUSH2 0x1D06 JUMP JUMPDEST PUSH2 0x1D4D PUSH2 0x1D45 DUP3 PUSH2 0x1D27 JUMP JUMPDEST DUP5 DUP5 SLOAD PUSH2 0x1CAC JUMP JUMPDEST DUP3 SSTORE POP POP POP POP JUMP JUMPDEST PUSH0 SWAP1 JUMP JUMPDEST PUSH2 0x1D61 PUSH2 0x1D55 JUMP JUMPDEST PUSH2 0x1D6C DUP2 DUP5 DUP5 PUSH2 0x1D30 JUMP JUMPDEST POP POP POP JUMP JUMPDEST JUMPDEST DUP2 DUP2 LT ISZERO PUSH2 0x1D8F JUMPI PUSH2 0x1D84 PUSH0 DUP3 PUSH2 0x1D59 JUMP JUMPDEST PUSH1 0x1 DUP2 ADD SWAP1 POP PUSH2 0x1D72 JUMP JUMPDEST POP POP JUMP JUMPDEST PUSH1 0x1F DUP3 GT ISZERO PUSH2 0x1DD4 JUMPI PUSH2 0x1DA5 DUP2 PUSH2 0x1C7F JUMP JUMPDEST PUSH2 0x1DAE DUP5 PUSH2 0x1C91 JUMP JUMPDEST DUP2 ADD PUSH1 0x20 DUP6 LT ISZERO PUSH2 0x1DBD JUMPI DUP2 SWAP1 POP JUMPDEST PUSH2 0x1DD1 PUSH2 0x1DC9 DUP6 PUSH2 0x1C91 JUMP JUMPDEST DUP4 ADD DUP3 PUSH2 0x1D71 JUMP JUMPDEST POP POP JUMPDEST POP POP POP JUMP JUMPDEST PUSH0 DUP3 DUP3 SHR SWAP1 POP SWAP3 SWAP2 POP POP JUMP JUMPDEST PUSH0 PUSH2 0x1DF4 PUSH0 NOT DUP5 PUSH1 0x8 MUL PUSH2 0x1DD9 JUMP JUMPDEST NOT DUP1 DUP4 AND SWAP2 POP POP SWAP3 SWAP2 POP POP JUMP JUMPDEST PUSH0 PUSH2 0x1E0C DUP4 DUP4 PUSH2 0x1DE5 JUMP JUMPDEST SWAP2 POP DUP3 PUSH1 0x2 MUL DUP3 OR SWAP1 POP SWAP3 SWAP2 POP POP JUMP JUMPDEST PUSH2 0x1E26 DUP4 DUP4 PUSH2 0x1C48 JUMP JUMPDEST PUSH8 0xFFFFFFFFFFFFFFFF DUP2 GT ISZERO PUSH2 0x1E3F JUMPI PUSH2 0x1E3E PUSH2 0x1C52 JUMP JUMPDEST JUMPDEST PUSH2 0x1E49 DUP3 SLOAD PUSH2 0x1B01 JUMP JUMPDEST PUSH2 0x1E54 DUP3 DUP3 DUP6 PUSH2 0x1D93 JUMP JUMPDEST PUSH0 PUSH1 0x1F DUP4 GT PUSH1 0x1 DUP2 EQ PUSH2 0x1E81 JUMPI PUSH0 DUP5 ISZERO PUSH2 0x1E6F JUMPI DUP3 DUP8 ADD CALLDATALOAD SWAP1 POP JUMPDEST PUSH2 0x1E79 DUP6 DUP3 PUSH2 0x1E01 JUMP JUMPDEST DUP7 SSTORE POP PUSH2 0x1EE0 JUMP JUMPDEST PUSH1 0x1F NOT DUP5 AND PUSH2 0x1E8F DUP7 PUSH2 0x1C7F JUMP JUMPDEST PUSH0 JUMPDEST DUP3 DUP2 LT ISZERO PUSH2 0x1EB6 JUMPI DUP5 DUP10 ADD CALLDATALOAD DUP3 SSTORE PUSH1 0x1 DUP3 ADD SWAP2 POP PUSH1 0x20 DUP6 ADD SWAP5 POP PUSH1 0x20 DUP2 ADD SWAP1 POP PUSH2 0x1E91 JUMP JUMPDEST DUP7 DUP4 LT ISZERO PUSH2 0x1ED3 JUMPI DUP5 DUP10 ADD CALLDATALOAD PUSH2 0x1ECF PUSH1 0x1F DUP10 AND DUP3 PUSH2 0x1DE5 JUMP JUMPDEST DUP4 SSTORE POP JUMPDEST PUSH1 0x1 PUSH1 0x2 DUP9 MUL ADD DUP9 SSTORE POP POP POP JUMPDEST POP POP POP POP POP POP POP JUMP JUMPDEST PUSH32 0x4E6F742061637469766500000000000000000000000000000000000000000000 PUSH0 DUP3 ADD MSTORE POP JUMP JUMPDEST PUSH0 PUSH2 0x1F1D PUSH1 0xA DUP4 PUSH2 0x1506 JUMP JUMPDEST SWAP2 POP PUSH2 0x1F28 DUP3 PUSH2 0x1EE9 JUMP JUMPDEST PUSH1 0x20 DUP3 ADD SWAP1 POP SWAP2 SWAP1 POP JUMP JUMPDEST PUSH0 PUSH1 0x20 DUP3 ADD SWAP1 POP DUP2 DUP2 SUB PUSH0 DUP4 ADD MSTORE PUSH2 0x1F4A DUP2 PUSH2 0x1F11 JUMP JUMPDEST SWAP1 POP SWAP2 SWAP1 POP JUMP JUMPDEST PUSH0 DUP2 SLOAD PUSH2 0x1F5D DUP2 PUSH2 0x1B01 JUMP JUMPDEST PUSH2 0x1F67 DUP2 DUP7 PUSH2 0x1506 JUMP JUMPDEST SWAP5 POP PUSH1 0x1 DUP3 AND PUSH0 DUP2 EQ PUSH2 0x1F81 JUMPI PUSH1 0x1 DUP2 EQ PUSH2 0x1F97 JUMPI PUSH2 0x1FC9 JUMP JUMPDEST PUSH1 0xFF NOT DUP4 AND DUP7 MSTORE DUP2 ISZERO ISZERO PUSH1 0x20 MUL DUP7 ADD SWAP4 POP PUSH2 0x1FC9 JUMP JUMPDEST PUSH2 0x1FA0 DUP6 PUSH2 0x1C7F JUMP JUMPDEST PUSH0 JUMPDEST DUP4 DUP2 LT ISZERO PUSH2 0x1FC1 JUMPI DUP2 SLOAD DUP2 DUP10 ADD MSTORE PUSH1 0x1 DUP3 ADD SWAP2 POP PUSH1 0x20 DUP2 ADD SWAP1 POP PUSH2 0x1FA2 JUMP JUMPDEST DUP1 DUP9 ADD SWAP6 POP POP POP JUMPDEST POP POP POP SWAP3 SWAP2 POP POP JUMP JUMPDEST PUSH0 PUSH1 0x20 DUP3 ADD SWAP1 POP DUP2 DUP2 SUB PUSH0 DUP4 ADD MSTORE PUSH2 0x1FEA DUP2 DUP5 PUSH2 0x1F51 JUMP JUMPDEST SWAP1 POP SWAP3 SWAP2 POP POP JUMP JUMPDEST PUSH32 0x4E6F7420617574686F7269736564000000000000000000000000000000000000 PUSH0 DUP3 ADD MSTORE POP JUMP JUMPDEST PUSH0 PUSH2 0x2026 PUSH1 0xE DUP4 PUSH2 0x1506 JUMP JUMPDEST SWAP2 POP PUSH2 0x2031 DUP3 PUSH2 0x1FF2 JUMP JUMPDEST PUSH1 0x20 DUP3 ADD SWAP1 POP SWAP2 SWAP1 POP JUMP JUMPDEST PUSH0 PUSH1 0x20 DUP3 ADD SWAP1 POP DUP2 DUP2 SUB PUSH0 DUP4 ADD MSTORE PUSH2 0x2053 DUP2 PUSH2 0x201A JUMP JUMPDEST SWAP1 POP SWAP2 SWAP1 POP JUMP JUMPDEST PUSH0 PUSH1 0x40 DUP3 ADD SWAP1 POP PUSH2 0x206D PUSH0 DUP4 ADD DUP6 PUSH2 0x13B3 JUMP JUMPDEST PUSH2 0x207A PUSH1 0x20 DUP4 ADD DUP5 PUSH2 0x165C JUMP JUMPDEST SWAP4 SWAP3 POP POP POP JUMP INVALID LOG2 PUSH5 0x6970667358 0x22 SLT KECCAK256 0xAC SWAP13 LOG4 PUSH17 0xFEE223D2DDED0A5ABEEF34855B80D8A52F SWAP13 PUSH26 0xCF23FC1E11AAFC4B9E64736F6C634300081A0033000000000000 "
				},
				"gasEstimates": {
					"creation": {
						"codeDepositCost": "1675000",
						"executionCost": "infinite",
						"totalCost": "infinite"
					},
					"external": {
						"": "196",
						"AUTOMATION_INTERVAL()": "348",
						"DEFAULT_CLAIM()": "371",
						"DEFAULT_CT()": "413",
						"DEFAULT_PREMIUM()": "435",
						"checkAndClaim(uint256)": "infinite",
						"checkUpkeep(bytes)": "infinite",
						"createInsurance(string,uint256,uint256)": "infinite",
						"customerInsurances(address,uint256)": "infinite",
						"getInsurancesByCustomer(address)": "infinite",
						"insurances(uint256)": "infinite",
						"lastAutomationTime()": "2470",
						"oracle()": "2553",
						"owner()": "2527",
						"performUpkeep(bytes)": "infinite",
						"setOracle(address)": "26904",
						"updateFlightInfo(uint256,uint256,uint8)": "infinite",
						"withdraw()": "infinite"
					}
				},
				"methodIdentifiers": {
					"AUTOMATION_INTERVAL()": "507b1e4e",
					"DEFAULT_CLAIM()": "31b2a52a",
					"DEFAULT_CT()": "e6cf0653",
					"DEFAULT_PREMIUM()": "ee6a1a8d",
					"checkAndClaim(uint256)": "8d6eb55c",
					"checkUpkeep(bytes)": "6e04ff0d",
					"createInsurance(string,uint256,uint256)": "8812b680",
					"customerInsurances(address,uint256)": "ba7b6e4f",
					"getInsurancesByCustomer(address)": "1f11d58c",
					"insurances(uint256)": "59fb49f9",
					"lastAutomationTime()": "511671ee",
					"oracle()": "7dc0d1d0",
					"owner()": "8da5cb5b",
					"performUpkeep(bytes)": "4585e33b",
					"setOracle(address)": "7adbf973",
					"updateFlightInfo(uint256,uint256,uint8)": "9f62eb82",
					"withdraw()": "3ccfd60b"
				}
			},
			"storageLayout": {
				"storage": [
					{
						"astId": 7,
						"contract": ".deps/auto_contract.sol:FlightDelayInsurance",
						"label": "owner",
						"offset": 0,
						"slot": "0",
						"type": "t_address"
					},
					{
						"astId": 9,
						"contract": ".deps/auto_contract.sol:FlightDelayInsurance",
						"label": "oracle",
						"offset": 0,
						"slot": "1",
						"type": "t_address"
					},
					{
						"astId": 60,
						"contract": ".deps/auto_contract.sol:FlightDelayInsurance",
						"label": "nextInsuranceId",
						"offset": 0,
						"slot": "2",
						"type": "t_uint256"
					},
					{
						"astId": 65,
						"contract": ".deps/auto_contract.sol:FlightDelayInsurance",
						"label": "insurances",
						"offset": 0,
						"slot": "3",
						"type": "t_mapping(t_uint256,t_struct(Insurance)49_storage)"
					},
					{
						"astId": 70,
						"contract": ".deps/auto_contract.sol:FlightDelayInsurance",
						"label": "customerInsurances",
						"offset": 0,
						"slot": "4",
						"type": "t_mapping(t_address,t_array(t_uint256)dyn_storage)"
					},
					{
						"astId": 72,
						"contract": ".deps/auto_contract.sol:FlightDelayInsurance",
						"label": "lastAutomationTime",
						"offset": 0,
						"slot": "5",
						"type": "t_uint256"
					}
				],
				"types": {
					"t_address": {
						"encoding": "inplace",
						"label": "address",
						"numberOfBytes": "20"
					},
					"t_address_payable": {
						"encoding": "inplace",
						"label": "address payable",
						"numberOfBytes": "20"
					},
					"t_array(t_uint256)dyn_storage": {
						"base": "t_uint256",
						"encoding": "dynamic_array",
						"label": "uint256[]",
						"numberOfBytes": "32"
					},
					"t_enum(ClaimStatus)17": {
						"encoding": "inplace",
						"label": "enum FlightDelayInsurance.ClaimStatus",
						"numberOfBytes": "1"
					},
					"t_enum(FlightStatus)21": {
						"encoding": "inplace",
						"label": "enum FlightDelayInsurance.FlightStatus",
						"numberOfBytes": "1"
					},
					"t_enum(Status)13": {
						"encoding": "inplace",
						"label": "enum FlightDelayInsurance.Status",
						"numberOfBytes": "1"
					},
					"t_mapping(t_address,t_array(t_uint256)dyn_storage)": {
						"encoding": "mapping",
						"key": "t_address",
						"label": "mapping(address => uint256[])",
						"numberOfBytes": "32",
						"value": "t_array(t_uint256)dyn_storage"
					},
					"t_mapping(t_uint256,t_struct(Insurance)49_storage)": {
						"encoding": "mapping",
						"key": "t_uint256",
						"label": "mapping(uint256 => struct FlightDelayInsurance.Insurance)",
						"numberOfBytes": "32",
						"value": "t_struct(Insurance)49_storage"
					},
					"t_string_storage": {
						"encoding": "bytes",
						"label": "string",
						"numberOfBytes": "32"
					},
					"t_struct(Insurance)49_storage": {
						"encoding": "inplace",
						"label": "struct FlightDelayInsurance.Insurance",
						"members": [
							{
								"astId": 23,
								"contract": ".deps/auto_contract.sol:FlightDelayInsurance",
								"label": "customer",
								"offset": 0,
								"slot": "0",
								"type": "t_address_payable"
							},
							{
								"astId": 25,
								"contract": ".deps/auto_contract.sol:FlightDelayInsurance",
								"label": "flightCode",
								"offset": 0,
								"slot": "1",
								"type": "t_string_storage"
							},
							{
								"astId": 27,
								"contract": ".deps/auto_contract.sol:FlightDelayInsurance",
								"label": "T1",
								"offset": 0,
								"slot": "2",
								"type": "t_uint256"
							},
							{
								"astId": 29,
								"contract": ".deps/auto_contract.sol:FlightDelayInsurance",
								"label": "TP",
								"offset": 0,
								"slot": "3",
								"type": "t_uint256"
							},
							{
								"astId": 31,
								"contract": ".deps/auto_contract.sol:FlightDelayInsurance",
								"label": "TA",
								"offset": 0,
								"slot": "4",
								"type": "t_uint256"
							},
							{
								"astId": 33,
								"contract": ".deps/auto_contract.sol:FlightDelayInsurance",
								"label": "T",
								"offset": 0,
								"slot": "5",
								"type": "t_uint256"
							},
							{
								"astId": 35,
								"contract": ".deps/auto_contract.sol:FlightDelayInsurance",
								"label": "CT",
								"offset": 0,
								"slot": "6",
								"type": "t_uint256"
							},
							{
								"astId": 37,
								"contract": ".deps/auto_contract.sol:FlightDelayInsurance",
								"label": "premium",
								"offset": 0,
								"slot": "7",
								"type": "t_uint256"
							},
							{
								"astId": 39,
								"contract": ".deps/auto_contract.sol:FlightDelayInsurance",
								"label": "claimAmount",
								"offset": 0,
								"slot": "8",
								"type": "t_uint256"
							},
							{
								"astId": 42,
								"contract": ".deps/auto_contract.sol:FlightDelayInsurance",
								"label": "status",
								"offset": 0,
								"slot": "9",
								"type": "t_enum(Status)13"
							},
							{
								"astId": 45,
								"contract": ".deps/auto_contract.sol:FlightDelayInsurance",
								"label": "claimStatus",
								"offset": 1,
								"slot": "9",
								"type": "t_enum(ClaimStatus)17"
							},
							{
								"astId": 48,
								"contract": ".deps/auto_contract.sol:FlightDelayInsurance",
								"label": "flightStatus",
								"offset": 2,
								"slot": "9",
								"type": "t_enum(FlightStatus)21"
							}
						],
						"numberOfBytes": "320"
					},
					"t_uint256": {
						"encoding": "inplace",
						"label": "uint256",
						"numberOfBytes": "32"
					}
				}
			},
			"userdoc": {
				"kind": "user",
				"methods": {
					"updateFlightInfo(uint256,uint256,uint8)": {
						"notice": "Oracle (or owner while testing) pushes real flight data"
					}
				},
				"notice": "Pays out if the flight arrives more than CT seconds late.         Chainlink Automation wakes the contract; an off‑chain listener reacts         to NeedFlightData events, calls Amadeus, then pushes the data back         via updateFlightInfo().",
				"version": 1
			}
		}
	}
}